:1000000000620000000A0000A8BA00000000000022
:1000100000000000000000000000000000000000E0
:1000200078FFE4B8200118F6D8F99000007F007E30
:1000300007E4F0A3DFFCDEFA75817A022398121A36
:100040009A1220619002117401F022022C5674AAB7
:100050007583F5758255A574557583FA7582AAA5C1
:1000600074A57583F5758255A52200021E59EE30E0
:10007000E707C3E49FFFE49EFE2274BB2F122BA070
:10008000E4F02202191712109BE4F0A37402F0228C
:1000900012109B7480F0A3E4F02200022C53E709B5
:1000A000F608DFFA8046E709F208DFFA803E888228
:1000B0008C83E709F0A3DFFA8032E309F608DFFA60
:1000C0008078E309F208DFFA807088828C83E30984
:1000D000F0A3DFFA806489828A83E0A3F608DFFA5E
:1000E000805889828A83E0A3F208DFFA804C80D2AC
:1000F00080FA80C680D4806980F28033801080A628
:1001000080EA809A80A880DA80E280CA803389827F
:100110008A83ECFAE493A3C8C582C8CCC583CCF02B
:10012000A3C8C582C8CCC583CCDFE9DEE7800D89D2
:10013000828A83E493A3F608DFF9ECFAA9F0EDFBD9
:100140002289828A83ECFAE0A3C8C582C8CCC58321
:10015000CCF0A3C8C582C8CCC583CCDFEADEE8807A
:10016000DB89828A83E493A3F208DFF980CC88F0EC
:10017000EF60010E4E60C388F0ED2402B40400501D
:10018000B9F582EB2402B4040050AF232345822347
:100190009008CE73EF8DF0A4A8F0CF8CF0A428CEF9
:1001A0008DF0A42EFE22C2D5EC30E709B2D5E4C30F
:1001B0009DFDE49CFCEE30E715B2D5E4C39FFFE45F
:1001C0009EFE120BF2C3E49DFDE49CFC8003120B27
:1001D000F230D507C3E49FFFE49EFE22C5F0F8A3EA
:1001E000E028F0C5F0F8E582158270021583E0384A
:1001F000F022BB010A89828A83E0F5F0A3E0225055
:100200000687F009E71922BBFE07E3F5F009E319B9
:100210002289828A83E493F5F074019322BB01075B
:1002200089828A830209BC500B09C5F027F7C5F003
:100230001937F722BBFE0D09F8E325F0F3C5F019D5
:10024000E338F322F889828A8374019325F0C5F09C
:10025000F8E4933822BB010A89828A83F0E5F0A38F
:10026000F0225006F709A7F01922BBFE06F3E5F0CD
:1002700009F3192275F008758200EF2FFFEE33FEA7
:10028000CD33CDCC33CCC58233C5829BED9AEC996E
:10029000E58298400CF582EE9BFEED9AFDEC99FC10
:1002A0000FD5F0D6E4CEFBE4CDFAE4CCF9A8822257
:1002B000B800C1B90059BA002DEC8BF084CFCECD77
:1002C000FCE5F0CBF97818EF2FFFEE33FEED33FDB0
:1002D000EC33FCEB33FB10D703994004EB99FB0F95
:1002E000D8E5E4F9FA227818EF2FFFEE33FEED336C
:1002F000FDEC33FCC933C910D7059BE99A4007ECE4
:100300009BFCE99AF90FD8E0E4C9FAE4CCFB22752A
:10031000F010EF2FFFEE33FEED33FDCC33CCC833BE
:10032000C810D7079BEC9AE899400AED9BFDEC9A20
:10033000FCE899F80FD5F0DAE4CDFBE4CCFAE4C898
:10034000F922EB9FF5F0EA9E42F0E99D42F0EC6461
:1003500080C864809845F022EB9FF5F0EA9E42F059
:10036000E99D42F0E89C45F022E8600FECC313FCE5
:10037000ED13FDEE13FEEF13FFD8F122ECF0A3ED29
:10038000F0A3EEF0A3EFF022A8828583F0D083D013
:1003900082120B7F120B7F120B7F120B7FE473E430
:1003A00093A3C583C5F0C583C8C582C8F0A3C58320
:1003B000C5F0C583C8C582C822EC8EF0A4CCC5F0B8
:1003C000CCCDF8EFA4CEC5F02DFDE43CFCE8A42E86
:1003D000C8C5F03DFDE43CFCEFA4FFE5F028FEE4D9
:1003E0003DFDE43CFC22EF4E6012EF60010EEDBBE0
:1003F000010B89828A83F0A3DFFCDEFA2289F050A8
:1004000007F709DFFCA9F022BBFEFCF309DFFCA91A
:10041000F022BC000BBE0029EF8DF084FFADF0226E
:10042000E4CCF875F008EF2FFFEE33FEEC33FCEE72
:100430009DEC984005FCEE9DFE0FD5F0E9E4CEFD65
:1004400022EDF8F5F0EE8420D21CFEADF075F00838
:10045000EF2FFFED33FD4007985006D5F0F222C391
:1004600098FD0FD5F0EA22208A03020FCF900214E4
:10047000E07002A3E06003020FCF900171E0700210
:10048000A3E06003020FCF12114E6003020FCF9062
:100490000132E0703090011D120FE4FFAEF09001C8
:1004A0000B120FE4D39FE5F09E4003020FCF121012
:1004B0004AE490017DF0A3F01211CB9002181211C2
:1004C000E2F5758003757500757616E4F5B2F5BA38
:1004D000900181E0F55DA3E0F55EC209758D2043D2
:1004E0008D20758D8043AA08D2AF758B02758EAFB3
:1004F00020062412114E701F200C1CE5DB20E21791
:10050000758AC4200C0DE5DB20E208758703000026
:10051000008006D2098002D209758B11758A50536A
:10052000AAF7D3900213E09490900212E094014055
:100530000EA3E02470F0900212E034FEF08007E495
:10054000900212F0A3F0D390021FE0949090021E4C
:10055000E09401400EA3E02470F090021EE034FE0F
:10056000F08007E490021EF0A3F0122A4690005596
:10057000E075F006A4902EC3F0A3E4F0A3F01210EF
:100580002153997F1208661210C2902EC0E030E20B
:10059000F9902EC0E4F0902E02E0F577A3E0F57814
:1005A0004389021210274380021210BF902EC0E030
:1005B00030E2F91211F6F522A3E0F523E5782527BC
:1005C000FFE5773526FEC3EF9523F525EE9522F559
:1005D000241211A0E5259FE5249E40048E248F253A
:1005E000902EC4E4F043998090016FE524F0A3E5D8
:1005F00025F0C3E55E9525FFE55D9524FE12084EC6
:100600008E5F8F601212094003020FA8AE24AF253F
:100610007C007D14120B99121213AF74AE73AD727D
:10062000AC719002C4121007FBD3120B389002C4B5
:1006300040171211009574FFEE9573FEED9572FD53
:10064000EC9571FC1212138007120B680000000079
:10065000E47F607EEAFDFC9002C4121007FBD31217
:100660000B38400A9002C4120B680000EA60120FB7
:10067000E1FFAEF07C007D09120B999002C41210CC
:10068000072FFFEA3EFEE93DFDE83CFC12117C121B
:100690001213900132E07033AE5DAF5EFC7D091243
:1006A000112DE4FCFDEB2525FFEA352412106C1218
:1006B000117C8E5D8F5E9002C4120FF21210361202
:1006C00010F2120FFC121036020FA81210F2120FC5
:1006D000FC12103690010E120FE4FFAEF09002C42F
:1006E000121004FBD3120B385003020FB8120FD0B4
:1006F000121147FEC3EF957AEE95795003020FB8B9
:1007000090010B120FE4FFAEF07C007D02120B99FA
:10071000C8ECC8EDC0E0EEC0E0EFC0E0120FD012B0
:100720001147FEE4FCFDD0E0FBD0E0FAD0E0F9EBAD
:100730002FFFEA3E12106C7B0312117E90010B1208
:100740000FFC1210B890010B120FE4D39430E5F0B7
:1007500094754008747575F030120A35900184E084
:10076000606612115F406190010B120FE412114795
:10077000FE12084E9002C8EEF0A3EFF090010B12AB
:100780000FE4FFC312103E50199002C9E094149078
:1007900002C8E09400400B120FF9F9E475F005125D
:1007A00009FD900185E0602090010B120FE412100A
:1007B0003C4015D39002C9E094289002C8E0940010
:1007C0004006120FF912120020090D1212095008EA
:1007D00012114E7003020CBC900183E0041211153B
:1007E0001210129001337401F0900216121185223A
:1007F00090010EE0FBA3E0FAA3E0F91209D2FFAEEC
:10080000F0900108E0FBA3E0FAA3E0F90209D2901E
:100810000134A3A3E0F9A3E0FF90010EE0FBA3E005
:10082000FAA3E022E4FCFDE0F8A3E0F9A3E0FAA3D8
:10083000E0227A0079667E007F0B7D007B00020B50
:10084000C643AB025389FD5395FD5396FD22A3F099
:10085000A37401F0A322C98FF0020A35D3FF9001DF
:1008600089E09F900188E095F0227F087A01793431
:100870007E007D007B01020BC6E50A25E02428F8F6
:10088000E6FE08E622F9EB2FFFEA35F0FEED39FD32
:10089000EC38FC229002147402F0A37458F022A3E6
:1008A000E0FEA3E0FBCAEECAE4F9F822902E427DF6
:1008B00014E0FEA3E0FF7C00020974902EC07402D5
:1008C000F0902EC27412F0902EC77401F0902EC4D6
:1008D00022F9E4F5F0020A35F9EE8FF0020A35123A
:1008E0000870902EC07419F022E50D25E02475F5EE
:1008F00082E43401F583E0FEA3E0FF229002C6E02B
:10090000FEA3E0FF2290018AE0FCA3E0FDC3EF9D7F
:10091000FF229002C4A3A3E0F9A3E0FF9001082204
:10092000E0FCA3E0FDA3E0FEA3E022900186F0A39B
:10093000F0A3F0A322F07E007F057D007B007A000B
:100940007961020BC6FFE5F0F0A3EFF022120B99DC
:10095000C8ECC8C9EDC9CAEECACBEFCB22E4F50E8C
:10096000F50DF50CF50B22C39FFFE5F09E229000DC
:100970001BE0642022D3EF9414EE648094802290D4
:100980000188E0FEA3E0FFD39400EE940022902EB5
:10099000C07402F0902EC4E4F0A3F0227B0AE4FAC3
:1009A000F9F8020A90E4F0A374C8F022AB0EAA0D85
:1009B000A90CA80BD3020B387402F0A374BCF0226C
:1009C000E5272488FFE5263413FED3227403F0A321
:1009D00074E8F02290016FE56CF0A3E56DF022253C
:1009E000E02428F8A60F08A61022E490021AF0A32B
:1009F000F022F9746175F0A8020A3590003A74107B
:100A0000F022F0A3F0900220F0A3F022FEEF2401E8
:100A1000FFE43EC31322902EC0E4F0902E1EE0228D
:100A2000F974FF75F0FB0209FDC3E5609576E55F9B
:100A30009575229002C4020B5C90018C121007FB8A
:100A4000E9C0E0EAC0E0EBC0E0900123120FE4FF50
:100A5000E4FCFDD0E0FBD0E0FAD0E012106590019C
:100A60008C120B5C900191E004F07006900190E014
:100A700004F0900192E07002A3E060030213E4909E
:100A8000018C121100FFEEC0E0EFC0E012107FD029
:100A9000E0FFD0E0FE120A9090018C120B5C9001F6
:100AA0008CA3A3E0FFA3E090018ACFF0A3EFF0A313
:100AB000120B6800000000E490019012110E74C83F
:100AC000F0900212E07002A3E060030213E49001D0
:100AD00032E07003021373900186E0FEA3E0FF4E44
:100AE000702290018AE0FDA3E0900186CDF0A3ED95
:100AF000F090010B120FE4FD900188E5F0F0A3EDFA
:100B0000F002135C1210E5EE9CFE12084E90019864
:100B1000120FFC1210B8900184E070269001981218
:100B20000FE4C3940CE5F09400500F90010B120FEA
:100B3000E4FF90018812112680209001847401F056
:100B40008018900198120FE4C39402E5F0940050CD
:100B500009E412110BF0900184F090018AE0FEA3E9
:100B6000E0FFD3900187E09F900186E09E4007E47C
:100B7000900185F080069001857401F0E490019465
:100B8000F0A3F090019EF090019B120FFC1210B1A7
:100B90000213E4900194E0FEA3E0FF4E7015900173
:100BA0008AE0FDA3E0900194CDF0A3EDF0A3121133
:100BB000AC80511210E5EE9CFE12084E90019B1283
:100BC0000FFC1210B8900196E07002A3E07035900F
:100BD000019B120FE4D39419E5F09400400C9001AE
:100BE000967413F0A37488F0800BE490019EF0904B
:100BF00001961211AC90018AE0FFA3E0900194CF1E
:100C0000F0A3EFF0900132E0700812110BF09001A8
:100C100084F022120FD0FDACF0D39FEC9E403490B4
:100C2000010E120FE4FFC3ED9FFFEC95F0FED3EF32
:100C30009430EE9475400D9002C67475F0A3743034
:100C4000F0021476120FDB1211479002C6F0A3EFE8
:100C5000F08043120FE1FFAEF090010E120FE4FDA1
:100C6000ACF0C39FFFEC9EFED3EF9410EE942740B0
:100C70000C9002C674D8F0A374F0F08012120FE149
:100C8000FFC3ED9FFEEC95F09002C6F0A3CEF0E41A
:100C90009002C6F0A3F0900132E060501210DCD355
:100CA0009400EE64809480401A900120120FE4FDBD
:100CB000D3EF9DEE95F0400B900218E4F0A374641E
:100CC000F0801BD3900219E09400900218E0940089
:100CD000400C90010B120FE49002C6121125D20BAA
:100CE00090021E740FF0A374A0F0800D90021C12ED
:100CF00011AC7A007952121016D39002C7E094001A
:100D00009002C6E064809480500302159DE0F9A330
:100D1000E0FF90010B120FFC1210361210DCEE33C4
:100D200095E0FDFCE47BB87A88F9F8C3120B2250F9
:100D30000A9002C67488F0A374B8F0D390021BE046
:100D4000940090021AE09400500790001BE0B42039
:100D50001D1210DCC39496EE648094805010EF94C2
:100D600000EE6480948040257C007D0A8014300071
:100D70001C1210DCC394A0EE6480948F500F7C0092
:100D80007D321209869002C6EEF0A3EFF090013298
:100D9000E0600C90021CE07002A3E0700280009002
:100DA00002C6E0F9A3E0FF900114120FFC12103606
:100DB000900114120FE424A8FFE5F0801D90010BB0
:100DC000120FFC1210B1900114120FFC1210B1900E
:100DD00002C7E024A8FF9002C6E03461F990011137
:100DE000120FFC1210362212116E53997FF50BF57B
:100DF0000CF50DF50EF50A1208661210211210C23C
:100E0000902EC0E030E2F9902EC0E4F04389021247
:100E10001027438002902E02E0FEA3E0250CF50C83
:100E2000EE350BF50B1210BF902EC0E030E2F91238
:100E300011F6FEA3E0250EF50EEE350DF50D050AB3
:100E4000E50AC3940640B0439980902EC5E4F0E5CE
:100E500027240CFFE52634FEFED3EF950CEE950B10
:100E60004015900171E07002A3E0701290017104CE
:100E7000F0A374F4F08007E4900171F0A3F0E50CA6
:100E80002527FFE50B3526FEC3EF950EF510EE95F1
:100E90000DF50F1211A0E5109FE50F9E40048E0F77
:100EA0008F10900167E50FF0A3E510F090016BE55E
:100EB0000DF0A3E50EF0A3E50BF0A3E50CF0AF10E9
:100EC000AE0F1221F390016FEEF0A3EFF090001B34
:100ED000E0B4200312101290016FE0FEA3E0FFE4E3
:100EE000FCFDE5692FF569E5683EF568ED3567F5C8
:100EF00067EC3566F566056BE56B7002056AC3E560
:100F00006F94E8E56E9403402AAE6AAF6BCBEFCBEB
:100F1000121085AF69AE68AD67AC66120A908E6C30
:100F20008F6DE4F569F568F567F566F56AF56BF5BB
:100F30006EF56FD3E56D9400E56C9400405390011D
:100F400070E0956DFF90016FE0956CFE9002CAF025
:100F5000A3EFF0D394F9EE6480947F4015E09407FA
:100F60009002CAE06480948050081211B4E4F570D5
:100F7000801F9002CAE0FEA3E0FF12084E12115536
:100F80004003757003E570C3940350051211B40556
:100F90007090016FE0F550A3E0F55178287C007D5A
:100FA000007B007A00792A7E007F2802094E90019A
:100FB00032E0700302182B12104A90021612119898
:100FC000900184E0700302191612115F5003021998
:100FD0001690010B120FE4121147FE12084E9002F8
:100FE000C6EEF0A3EFF0D39496EE9400400CE4909C
:100FF0000184F0900186F0A3F022900185E060204A
:1010000090010B120FE412103C4015D39002C7E080
:1010100094289002C6E094004006120FF9121200C4
:1010200090010B120FE4C312103D400302191690F9
:1010300002C7E094149002C6E0940050030219160F
:10104000120FF9F9E475F0050209FD900134121050
:1010500007FBE9C0E0EAC0E0EBC0E0120FE1FFE40B
:10106000FCFDD0E0FBD0E0FAD0E012106590013436
:10107000120B5C900139E004F07006900138E00436
:10108000F0900216E07002A3E060030219169001CE
:1010900034121100FFEEC0E0EFC0E012107FD0E08C
:1010A000FFD0E0FE120A90900134120B5C90010E0A
:1010B000120FE42432FFE435F0FE900134121004E4
:1010C000FBD3120B38403F900212E07002A3E07095
:1010D0003590019EE0702F200B2C90013BE004F036
:1010E000700690013AE004F0D390013BE094059043
:1010F000013AE09400401E120FEF121036E4900106
:101100003AF0A3F0800F120FEF121036E490013A7C
:10111000F0A3F0C20B900134120B6800000000E451
:10112000900138F0A3F090019EE090021660041246
:1011300011852212119822C0E0C083C082C0D0D293
:10114000AF900225E004F0D3900213E094009002E7
:1011500012E09400400CA3E024FFF0900212E0346F
:10116000FFF0D3900215E09400900214E094004048
:101170000CA3E024FFF0900214E034FFF0D39002BF
:1011800017E09400900216E09400400CA3E024FFC6
:10119000F0900216E034FFF0D3900219E094009032
:1011A0000218E09400400CA3E024FFF0900218E045
:1011B00034FFF0D390021BE0940090021AE09400F8
:1011C000400CA3E024FFF090021AE034FFF0D3902B
:1011D0000223E09400900222E09400400CA3E0245B
:1011E000FFF0900222E034FFF0D3900221E094005F
:1011F000900220E09400400CA3E024FFF090022035
:10120000E034FFF0D390021DE0940090021CE094C3
:1012100000400CA3E024FFF090021CE034FFF0C378
:10122000E56F94E8E56E94035008056FE56F700272
:10123000056EC3E55B94E8E55A94035008055BE549
:101240005B7002055AD3900193E09400900192E004
:101250009400400CA3E024FFF0900192E034FFF0F2
:10126000D3900197E09400900196E09400400CA385
:10127000E024FFF0900196E034FFF0D3900172E09B
:101280009401900171E09400400CA3E024FFF090E1
:101290000171E034FFF0D390021FE0940090021E31
:1012A000E09400400CA3E024FFF090021EE034FF25
:1012B000F0D0D0D082D083D0E0327E007FFF7D009E
:1012C0007B017A007904120BC69002D67400F0A359
:1012D0007404F09001C57401F0A37400F0A374B815
:1012E000F09001CB7401F0A37400F074AC1229FDEE
:1012F0007400F0A37494F09001C87401F0A374001A
:10130000F0A374C6F09001D17401F0A37400F074DE
:10131000D21229FD7400F0A3741F1229FE7401F08B
:10132000A37402F0902DE0E493FF9002D6E0FCA3BA
:10133000E0FDF5828C83A3EFF0900002E0FFED2446
:10134000041229D7900001E0FFED24051229D7905F
:101350000003E0FFED24061229D7902DE2E493FF6D
:10136000ED24121229D7902DE3E493FFED241412FB
:1013700029D79001DA7401F0A37400F0A3743CF053
:10138000E4FF75F002EFA42401F582E5F0342EF5B8
:1013900083E493FE74542FF582E43400F583EEF079
:1013A000EF25E0242DF582E4342EF583E493FE123C
:1013B0002A05EEF0122A05E0FEEF25E0242CF58246
:1013C000E4342EF583E49324C0F582E4342EF583CF
:1013D000EEF00FEFB416AB902F56E0900058F0905F
:1013E0002F56E090006EF0902F56E0900059F0904C
:1013F0002F56E090006FF09000FF7401F09000FE17
:10140000F090003A7410F090001BF0900028F0A3C8
:101410007420F09002127413F0A37488F022121159
:101420003DF515F51685281185291285281385297E
:1014300014F50A121059FFD3E5149FE5139E4007D7
:101440008E138F14850A16C3E5129FE5119E50076F
:101450008E118F12850A15050AE50AB414D5E4F534
:101460000FF510F50AE516650A602EE515650A60A8
:1014700028E510450F7010E50A25E02428F8E6F568
:101480000F08E6F51080121210592510FFE50F3EE7
:101490001211ECF50FEF13F510050AE50AB414C5A7
:1014A000900181E50FF0A3E510F0E516C39411500B
:1014B00005E5161211BFE515C394115005E5151287
:1014C00011BF12113DF50A121059FFC3E5109FFF1D
:1014D000E50F9EFE12084ED3EF9419EE64809480BF
:1014E000400FE4FCFDE50E2510F50EE50D350F80EF
:1014F0000F121059FFE4FCFDE50E2FF50EE50D3E31
:10150000F50DED350CF50CEC350BF50B050AE50A80
:10151000C3941440B2AF74AE73AD72AC7112118C3F
:10152000401AE50E9574F50EE50D9573F50DE50C75
:101530009572F50CE50B9571F50B800312113DE4E6
:101540007F607EEAFDFC12118C400BE4750E607525
:101550000DEAF50CF50BAE0DAF0E2290017DE0FE0D
:10156000A3E0FFC39404EE9400502F900106E0FC2A
:10157000A3E0FDEF25E0FFEE33FE74752FF58274D6
:10158000013EF583ECF0A3EDF090017EE004F070F5
:101590000690017DE004F0021DFB750D011210C9DB
:1015A000E50D25E02473F582E43401F583EEF0A324
:1015B000EFF0050DE50DB404E4120FE1FF90010614
:1015C0001210E8E5F09CFE12084EC3EF9428EE647A
:1015D0008094805037900132E0702390010E120FFA
:1015E000E4FFC3900107E09FFF900106E095F0FE45
:1015F00012084EC3121156500590010E800390013F
:1016000008120FE4FF90017BE5F0800B900106E0EB
:10161000FFA3E090017BCFF0A3EFF0E4F50CF50B16
:10162000F50AF509F50DD390017EE0950D90017D49
:10163000E09400401E1210C9E4FCFDE50C2FF50CEF
:10164000E50B3EF50BED350AF50AEC3509F5090514
:101650000D80D3AF0CAE0BAD0AAC09EEC0E0EFC00D
:10166000E090017D121080D0E0FFD0E0FE120A90E1
:101670008F0C8E0B8D0A8C0922C0E0C083C082C003
:10168000D0ECC0E0EDC0E0EEC0E0EFC0E0D2AFE5EE
:10169000DB30E419D20CC208E5DB30E102802E9089
:1016A00002D5E5DFF09002D8E4F0021F57E5DB3009
:1016B000E50FD206300805C208021F57C20C021FF0
:1016C00057C208E5DB30E13AE5DB30E0109002D9A3
:1016D000E0FF04F0122C33E0F5DF021F579002D92F
:1016E000E0FFB40813208A10D28A9002D6E0FCA34F
:1016F000E02407122C39E4F0EF641A707AD2070262
:101700001F579002D8E0700EA3E5DFF09002D87466
:1017100001F0D20880619002D9E0902A1093FFB4C2
:10172000FF089002D5E5DFF08047EF640F70299045
:1017300002D9E0FFA3E0FCA3E0FD122C38E0540F37
:10174000F09002D9E0FF04F0ED122C38E0FFE5DF65
:1017500054F0FEEF4EF0801F9002D9E0FF122C33C0
:10176000E5DFF0EFB4240A9002147401F0A374F4DE
:10177000F09002D9E004F075DBFFD0E0FFD0E0FE8E
:10178000D0E0FDD0E0FCD0D0D082D083D0E0329049
:1017900002C8EFF09002CDE4F0A374FFF0E4A3F0F0
:1017A000A3F0A304F0A374FFF0902EC07402F09095
:1017B0002EC37408F0E49002C9F0A3F09002C9E0CF
:1017C000FEA3E0FFC39409EE9400400302205EEF05
:1017D0009407EE940040067E007F0180199002C9B4
:1017E000A3E004FFE47E01C8EFC8088006CEA2E7AC
:1017F00013CE13D8F8FF9002CBEEF0A3EFF0902EAB
:10180000C07419F0902EC0E030E2F99002C8E0FFF9
:1018100075F002A424001229ECE0FCA3E0FD902E58
:10182000C07402F0D3ED94FFEC940F40179002CBFC
:10183000E0FCA3E0FD75F002EF1229E9EC8DF01257
:1018400009BC80299002C8E075F0021229E9C08322
:10185000C082E0FEA3E0FF9002CBE0FCA3E0FDC36A
:10186000EF9DFFEE9CD082D083F0A3EFF09002CAF0
:10187000E004F070069002C9E004F0021F9C7F00B3
:10188000227F997A0179061210509001087401F0B4
:10189000A37400F0744412102E7400F074461210F9
:1018A0002E7400F0A3744812102F7400F0A3743249
:1018B00012102F7400F0A3742E12102F7400F0A3D6
:1018C000742CF09001237401F0A37400F0A374262B
:1018D000F09001987401F0A37400F0A374841210C6
:1018E0002F7400F0A37486F09001267401F0A374A5
:1018F00000F0A3741C12102F7400F0A37422F09057
:10190000011A7401F0A37400F0A3743612102F743E
:1019100000F0A3742A12102F7400F0A37438F0752D
:101920007900757AC890011A120FFCF9E579857A69
:10193000F0120A3590011D120FFCF9E475F06412E3
:101940000A35900120120FFCF9E475F096020A3571
:10195000122B2A902E42E0FEA3E0249CFFEE34FEE0
:10196000FE121155400A902E427401F0A37464F0E7
:1019700012102153997F122A46120866902EC074C5
:1019800002F0902EC314F01210C2902EC0E030E28C
:10199000F9902EC0E4F0902E027D121210918E2646
:1019A0008F277D14120B99EF24E0F574EE34B1F516
:1019B00073ED34FFF572EC34FFF5714389021210B8
:1019C0002743800243998053997F120870902E5EBE
:1019D000E4F0A374FFF07F0F121F6F902E5EE0FE05
:1019E000A3E0D394F0EE94014007902E5EE4F0A3C0
:1019F000F0902EC4E4F0439980A3F0900105E090AC
:101A00000021F012108C900126120FFCF9EE8FF0DD
:101A1000020A359002CCEEF0A3EFF0E56445637066
:101A20000C9002CCE0F563A3E0F56480169002CD43
:101A3000E02564FF9002CCE035631211ECF563EF12
:101A400013F5640565E565D3940A400D85636185EA
:101A50006462E4F563F564F565D3E5629400E561DD
:101A60009400405C9002CDE09562FF9002CCE0953E
:101A700061FE12084EC3EF940AEE648094805028F1
:101A8000AE61AF627C007D0312112D9002CCE0FEAE
:101A9000A3E0FFE4FCFDEB2FFFEA3E12106C78029E
:101AA000120B499002CC80139002CDE02562FF908A
:101AB00002CCE03561C313FEEF13FFEEF0A3EFF0AD
:101AC0009002CCE0FEA3E0FF229002C6EEF0A3EF6E
:101AD0001211159002C6E07002A3E06003122130DB
:101AE0001226C7E490017DF0A3F07F14122A781229
:101AF0001074A3121198900106E0F9A3E0FFA3125D
:101B00000FFC12103690010B120FFC1210B1900155
:101B100011120FFC1211D2900114120FFC1210B10D
:101B2000900117120FFC1211D21211DBE490013256
:101B3000F0900134120B6800000000E490013812AC
:101B4000110EF0900106120FF4121036E4900133DA
:101B5000F09002221211E290021EF0A3F0FE7F1418
:101B6000FD7B017A017984120BC6900123120FE4E8
:101B700090018A12112590019212118522022AD316
:101B8000E493A3F8E493A34003F68001F208DFF4A2
:101B90008029E493A3F85407240CC8C333C4540F1A
:101BA0004420C8834004F456800146F6DFE4800BED
:101BB000010204081020408090254DE47E019360CE
:101BC000BCA3FF543F30E509541FFEE493A360011A
:101BD0000ECF54C025E060A840B8E493A3FAE49384
:101BE000A3F8E493A3C8C582C8CAC583CAF0A3C832
:101BF000C582C8CAC583CADFE9DEE780BE300008F7
:101C000075791B757A588006757900757AC89001C8
:101C10000B120FE4FFAEF0C3957AEE957950159054
:101C20000132E06020900120120FE4FDC3EF9DEE31
:101C300095F0401190021AE07002A3E07027900125
:101C40003204F0802090001BE0B420051211CA80FD
:101C50000690021A121185E4900132F0900218F0F9
:101C6000A3F01211DB900132E06011900028E090A7
:101C7000003AB410047410F0227420F02290022F65
:101C8000E014601B1460432402705D900239E0B4DC
:101C9000010A90022F1224C9D205D200C203227F6A
:101CA000021228DEEF60077F0212085AC205900276
:101CB00039E0703490022F7402F0D203C205C200E2
:101CC0007F0312085A7F030227797F031228DEEF71
:101CD00060167F0312085A900239E090022F7003B9
:101CE000F080031224C9C203227401F07F0212089B
:101CF0005A7F0212277922CDEFCD43AD105399EFD1
:101D0000439A10539BEF902EC07402F0147E00C8CB
:101D1000EDC8088005C333CE33CED8F9FF902EC46A
:101D2000EEF0A3EFF0902EC8EEF0A3EFF0741012D7
:101D30002B86902EC0E030E2F9902EC0E4F07402C1
:101D4000F07420122B86902EC0E030E2F9902E0025
:101D5000E0FEA3E0FF902EC4E4F0A3F0902EC0F0CC
:101D6000439910539AEF539BEF5390EF22C10C41CC
:101D7000023300410234004102300041023800C108
:101D800002C101C1044102390041022F00C103C157
:101D900000C1054102D8004102D9004202D300002F
:101DA000C106C108C1074102D5104101030041012C
:101DB0000510C10BC10A41019F00022600000471F9
:101DC000000000004101041041023A00009002C4EA
:101DD0007408F0A3E4F0A3743FF0A374DFF0E4FD13
:101DE000FCF9758A10538AEF009002C4E0FEA3E06C
:101DF0002DF582EE3CF583E493FF69F90DBD0001FA
:101E00000CBC37E5BDDFE29002C6122C40E49369BA
:101E10009002D67009122C40A3740AF08006122C8E
:101E200040A3E4F0758A50538AEF0022200A06206E
:101E30000303300509E4FFFE1222A9C20A22900220
:101E400020E07002A3E0600512114E703A200003FA
:101E50001229601226C77F01122A78121D3B9002B8
:101E6000C4EEF0A3EFF07B017A0279C4122812903D
:101E700002C41210F7120FFC1210361213F31223C1
:101E8000DD12121912178E12299C22900211E024E1
:101E9000FE6013146023146027240370499002111C
:101EA0007402F0122C4F7F017E001222A9900211C1
:101EB0007403F0E4900230F0229002117404F022D6
:101EC00012245D1227CA12245D900171E07004A3F0
:101ED000E06401700C900171F0A3F09002117402A3
:101EE000F0E4900225F0224389025395FD5396FDBC
:101EF000438002122BC07F0C1224D7CAEECACBEF4C
:101F0000CB7F0C1224D7EF2BFFEE3A9002C9F0A33F
:101F1000EFF0122B92F91209D245F07006122B77CE
:101F2000EE80181209D2FBAAF0122B77EF2BFFEEEE
:101F30003AC313F9EF13FF122B92C98FF0120A352F
:101F4000221229F5F5828E83A3E0B4AA031225ADEF
:101F50001229F5FF1229E0E0B41008EF1229E0E49D
:101F6000F0D20A1229F5FF241B1229E2E0700DEFCE
:101F7000241C1229E2E0B410031228591229F52476
:101F8000131229E2E0FFB410069002397401F0EF59
:101F9000B42005E4900239F0229002C4EFF0E0246E
:101FA000BB122BA0E060037F01229002C4E0FF245B
:101FB000BB122BA07401F0EF122BA8E493FE740166
:101FC00093FFE4FCFD902F60E0F8A3E0F9A3E0FAB2
:101FD000A3E02FFFEA3EFEED39EC389002C4E01298
:101FE0002BB4EEF0A3EFF07F002212114E70299077
:101FF000019FE0700312107490019F7401F0900033
:1020000029E0B4200812260C120C478003122AA6DD
:102010009002247401F08017E490019FF090002951
:10202000E0B4200312260C900224E06002E4F002E7
:102030002BE39002C6EBF0A3EAF0A3E9F0900214C0
:10204000E07002A3E07031900133E0602BE4900176
:1020500033F01226C71210747508017F01122A7816
:10206000121D3B9002C6120FFC1210B80508E508BD
:10207000C3941440E61211CA2212082EE4F5F27538
:10208000F30875EEFF75EF3F75EA81F5F675EB071E
:1020900000E5EC30E7FBE4F5EC9002D6E0FEA3E0CF
:1020A000FF241BF582E43EF583E5F3F0EF241CF5F5
:1020B00082E43EF583E5F2F075EB3022758B1190EA
:1020C0002F647440F0E4FEE4FFEF75F003A4244DA8
:1020D000F582E43402F583E5822EF582E43583F55A
:1020E00083E4F00FEFB40AE10EEEB403DA7F099057
:1020F00002BBE4F0A3DFFC902F647480F022CBEFEE
:10210000CB122B9DE06036902F60A3A3E0FEA3E0EE
:10211000FFEB122BB4E0FCA3E0FDD39FEC9E501D1F
:10212000C3EF9DFFEE9CFEEB122BA8C37401939F9F
:10213000E4939E4008122B9DE4F07F01227F002251
:10214000758A50538AEF9000027411F09000017468
:1021500022F09000037433F0E4F5AB75AC1DF5ADDF
:10216000F5AF7589FF75913F7599FFF59675931CCD
:10217000F59BF595F592F59A5388FCD28AD20D22FB
:10218000300738C207902E42E0FFA3E09002C6CF8E
:10219000F0A3EFF0122B2A12108C900126120FFCE4
:1021A0001210B8902EC07402F09002C6E0FFA3E0B7
:1021B000902E42CFF0A3EFF01210742290003AE07C
:1021C000FC900104E06C602E90003AE0FE90010467
:1021D000F090000BE0900238F0540FF0EEB42005C0
:1021E000E04420800AECB4100B900238E04410F078
:1021F00090000BF0C28A22F582E43CF583EFF022D6
:10220000241AF582E43EF58322A42440F582E5F009
:10221000342EF583229002D6E0FEA3E022A3F0A3A1
:102220007401F0A322746A2FF582E43400F583224E
:1022300000000000FFFFFFFF0000FFFFFFFFFFFFA8
:10224000FFFFFF00FF000000FFFF000000FFFFFF97
:10225000FFFFFFFF00000000FFFFFFFFFFFFFFFF8A
:10226000FFFF0000000012116EFF74542FF582E48E
:102270003400F583E0FE75F002EFA42400F582E55A
:10228000F0342EF583E49324C0F582E4342EF583F4
:10229000EEF00FEFB416D3229002C9EFF0122A46E7
:1022A000E4F5099002C9E0FFE509C39F5007121544
:1022B000C7050980EE902EC0E4F0121BFE900106C7
:1022C000EEF0A3EFF022E4F5B2F5BA758D20438D60
:1022D00020538D7F53AAF7F58BE5DB20E211200C0C
:1022E0000EE4F58A758703000000758A50D20A75DE
:1022F0008B1122122C1D53A87F12292012081E12A6
:102300002AFF43A880122C499000FFE0600690024B
:10231000117401F0122C0112272112266B80F59006
:1023200002D6E0FFA3E09002DACFF0A3EFF0E4F5ED
:10233000DA75DA4043DA2075D74075DA5875D90175
:1023400043A90875B80875F8082212102153997F1F
:10235000122A46902E42E4F0A374FFF01208667F22
:1023600001121F6F43890212102743800243998094
:102370002201F40028002801F4009603E801F40388
:10238000E81770006403E8003202580258012C017B
:10239000F403E8271000C89002C9E0FEA3E0FF7C28
:1023A000007D14020974902EC2F0902EC0E04419F2
:1023B000F022900123E0FBA3E0FAA3E02274BB2B00
:1023C000F582E43402F5832225E02465F582E434C5
:1023D0002BF5832225E0243BF582E43402F58322A9
:1023E000902EC07402F0902EC77474F0902ECD74AD
:1023F000C0F0A374FFF0A3F0902EC37401F0902EF0
:10240000CAF022E5B230E005E5AA20E013E490022C
:1024100026F075B28E75B6F9F5B743B20143AA013D
:1024200022E4FF3006169002D6E0FCA3E0F5828C91
:1024300083E0FE54F0FFEE540FF0C2062290407F7E
:10244000E493FF64326003EF7002002253A87F0020
:102450000080FCA3E0FCA3E02FF582E43CF583229E
:10246000E0FEA3E0F5828E8322122C5902289C12F2
:1024700011DB22D2AF32D2AF32022BE300000000D8
:10248000000000000000000000000000000000004C
:10249000000000000000000000000000000000003C
:1024A000000000000000000000000000000000002C
:1024B000000000000000000000000000000000001C
:1024C000000000000000000000000000000000000C
:1024D00000000000000000000000000000000000FC
:1024E00000000000000000000000000000000000EC
:1024F00000000000000000000000000000000000DC
:1025000000000000000000000000000000000000CB
:1025100000000000000000000000000000000000BB
:1025200000000000000000000000000000000000AB
:10253000000000000000000000000000000000009B
:10254000000000000000000000000000000000008B
:10255000000000000000000000000000000000007B
:10256000000000000000000000000000000000006B
:10257000000000000000000000000000000000005B
:10258000000000000000000000000000000000004B
:10259000000000000000000000000000000000003B
:1025A000000000000000000000000000000000002B
:1025B000000000000000000000000000000000001B
:1025C000000000000000000000000000000000000B
:1025D00000000000000000000000000000000000FB
:1025E00000000000000000000000000000000000EB
:1025F00000000000000000000000000000000000DB
:102600000A05AB62000000000000000000000000AE
:1026100000000000000000000000000000000000BA
:10262000021203030A140DA00EB60FFF0C020BFFDB
:1026300023F724062504070127082A0828022B026D
:1026400029032C032D082E082F0426080211030647
:102650000A100D400E800FFF0C020BFF23F4240420
:102660002504070127102A1028042B0429032C0312
:102670002D202E202F10262000000000000000003A
:10268000000000000000000000000000000000004A
:10269000000000000000000000000000000000003A
:1026A000000000000000000000000000000000002A
:1026B000000000000000000000000000000000001A
:1037F000000000000000000000000000000000D5F4
:1038000000000000000000000000000000000000B8
:1038100000000000000000000000000000000000A8
:00000001FF
