:1000000000680000001100008C0E000000000000DD
:1000100000000000000000000000000000000000E0
:1000200078FFE4B8200118F6D8F99000007F007E30
:1000300007E4F0A3DFFCDEFA7581740222F5121AE0
:10004000B812207F9002117401F022022C2274AAAF
:100050007583F5758255A574557583FA7582AAA5C1
:1000600074A57583F5758255A52200021E77904010
:100070007FE493FF64326003EF7002002253A87F95
:100080000080FD021935121150740FF0902EC774C4
:10009000011211407402F022D2AF32020878E7094F
:1000A000F608DFFA8046E709F208DFFA803E888228
:1000B0008C83E709F0A3DFFA8032E309F608DFFA60
:1000C0008078E309F208DFFA807088828C83E30984
:1000D000F0A3DFFA806489828A83E0A3F608DFFA5E
:1000E000805889828A83E0A3F208DFFA804C80D2AC
:1000F00080FA80C680D4806980F28033801080A628
:1001000080EA809A80A880DA80E280CA803389827F
:100110008A83ECFAE493A3C8C582C8CCC583CCF02B
:10012000A3C8C582C8CCC583CCDFE9DEE7800D89D2
:10013000828A83E493A3F608DFF9ECFAA9F0EDFBD9
:100140002289828A83ECFAE0A3C8C582C8CCC58321
:10015000CCF0A3C8C582C8CCC583CCDFEADEE8807A
:10016000DB89828A83E493A3F208DFF980CC88F0EC
:10017000EF60010E4E60C388F0ED2402B40400501D
:10018000B9F582EB2402B4040050AF232345822347
:100190009008CE73EF8DF0A4A8F0CF8CF0A428CEF9
:1001A0008DF0A42EFE22C2D5EC30E709B2D5E4C30F
:1001B0009DFDE49CFCEE30E715B2D5E4C39FFFE45F
:1001C0009EFE120BF2C3E49DFDE49CFC8003120B27
:1001D000F230D507C3E49FFFE49EFE22C5F0F8A3EA
:1001E000E028F0C5F0F8E582158270021583E0384A
:1001F000F022BB010A89828A83E0F5F0A3E0225055
:100200000687F009E71922BBFE07E3F5F009E319B9
:100210002289828A83E493F5F074019322BB01075B
:1002200089828A830209BC500B09C5F027F7C5F003
:100230001937F722BBFE0D09F8E325F0F3C5F019D5
:10024000E338F322F889828A8374019325F0C5F09C
:10025000F8E4933822BB010A89828A83F0E5F0A38F
:10026000F0225006F709A7F01922BBFE06F3E5F0CD
:1002700009F3192275F008758200EF2FFFEE33FEA7
:10028000CD33CDCC33CCC58233C5829BED9AEC996E
:10029000E58298400CF582EE9BFEED9AFDEC99FC10
:1002A0000FD5F0D6E4CEFBE4CDFAE4CCF9A8822257
:1002B000B800C1B90059BA002DEC8BF084CFCECD77
:1002C000FCE5F0CBF97818EF2FFFEE33FEED33FDB0
:1002D000EC33FCEB33FB10D703994004EB99FB0F95
:1002E000D8E5E4F9FA227818EF2FFFEE33FEED336C
:1002F000FDEC33FCC933C910D7059BE99A4007ECE4
:100300009BFCE99AF90FD8E0E4C9FAE4CCFB22752A
:10031000F010EF2FFFEE33FEED33FDCC33CCC833BE
:10032000C810D7079BEC9AE899400AED9BFDEC9A20
:10033000FCE899F80FD5F0DAE4CDFBE4CCFAE4C898
:10034000F922EB9FF5F0EA9E42F0E99D42F0EC6461
:1003500080C864809845F022EB9FF5F0EA9E42F059
:10036000E99D42F0E89C45F022E8600FECC313FCE5
:10037000ED13FDEE13FEEF13FFD8F122ECF0A3ED29
:10038000F0A3EEF0A3EFF022A8828583F0D083D013
:1003900082120B7F120B7F120B7F120B7FE473E430
:1003A00093A3C583C5F0C583C8C582C8F0A3C58320
:1003B000C5F0C583C8C582C822EC8EF0A4CCC5F0B8
:1003C000CCCDF8EFA4CEC5F02DFDE43CFCE8A42E86
:1003D000C8C5F03DFDE43CFCEFA4FFE5F028FEE4D9
:1003E0003DFDE43CFC22EF4E6012EF60010EEDBBE0
:1003F000010B89828A83F0A3DFFCDEFA2289F050A8
:1004000007F709DFFCA9F022BBFEFCF309DFFCA91A
:10041000F022BC000BBE0029EF8DF084FFADF0226E
:10042000E4CCF875F008EF2FFFEE33FEEC33FCEE72
:100430009DEC984005FCEE9DFE0FD5F0E9E4CEFD65
:1004400022EDF8F5F0EE8420D21CFEADF075F00838
:10045000EF2FFFED33FD4007985006D5F0F222C391
:1004600098FD0FD5F0EA22208A03020FD2900214E1
:10047000E07002A3E06003020FD2900171E070020D
:10048000A3E06003020FD212117B6003020FD2902F
:100490000132E0703090011D120FE7FFAEF09001C5
:1004A0000B120FE7D39FE5F09E4003020FD212100C
:1004B0007CE490017DF0A3F01211CD90021812118E
:1004C000E4F56F8003756F00757014E4F5B2F5BA4A
:1004D000900181E0F55BA3E0F55CC209758D2043D6
:1004E0008D20758D8043AA08D2AF758B02758EAFB3
:1004F00020062412117B701F200C1CE5DB20E21764
:10050000758AC4200C0DE5DB20E208758703000026
:10051000008006D2098002D209758B11758A50536A
:10052000AAF7D3900213E09490900212E094014055
:100530000EA3E02470F0900212E034FEF08007E495
:10054000900212F0A3F0D390021FE0949090021E4C
:10055000E09401400EA3E02470F090021EE034FE0F
:10056000F08007E490021EF0A3F01229FF900055DE
:10057000E075F006A4902EC3F0A3E4F0A3F01210EF
:100580005D53997F120866121163902EC0E030E22D
:10059000F9902EC0E4F0902E02E0F571A3E0F57220
:1005A000438902121063438002121160902EC0E052
:1005B00030E2F91211F8F522A3E0F523E42572FFE9
:1005C000E5713424FEC3EF9523F525EE9522F5243D
:1005D000D3E5259488E5249437400675243775259E
:1005E00088902EC4E4F043998090016FE524F0A335
:1005F000E525F0C3E55C9525FFE55B9524FE122C0F
:10060000038E5D8F5E12120B4003020FABAE24AF60
:10061000257C007D14120B991212157FE07E817DDE
:10062000027C009002C412100AFBD3120B38900215
:10063000C4401712111694E0FFEE9481FEED94026F
:10064000FDEC9400FC1212158007120B68000000EC
:1006500000E47F607EEAFDFC9002C412100AFBD326
:10066000120B38400A9002C4120B680000EA6012B4
:100670000FE47D0912119B9002C412100A7B0A122A
:10068000106A121215900132E07042AE5BAF5CFC52
:100690007D09120B99C8ECC8C9EDC9CAEECACBEFE7
:1006A000CBE4FCFDEB2525FFEA352412109EE47B0C
:1006B0000A1210768E5B8F5C9002C4120FF5121036
:1006C000571210FD120FFF121057020FAB1210FD40
:1006D000120FFF12105790010E120FE7FFAEF090AD
:1006E00002C4121007FBD3120B385003020FBB12C7
:1006F0000FD3121174FEC3EF9574EE95735003027D
:100700000FBB90010B120FE7FFAEF07C007D0212D1
:100710000B99C8ECC8EDC0E0EEC0E0EFC0E0120FEE
:10072000D3121174FEE4FCFDD0E0FBD0E0FAD0E07F
:10073000F9EB2FFFEA3E12109EE47B031210769035
:10074000010B120FFF1210BA90010B120FE7D39496
:1007500030E5F094754008747575F030120A3590E4
:100760000184E0606612118C406190010B120FE76A
:10077000121174FE122C039002C8EEF0A3EFF09059
:10078000010B120FE7FFC312104050199002C9E08D
:10079000941E9002C8E09400400B120FFCF9E4751F
:1007A000F0051209FD900185E0602090010B120F09
:1007B000E712103E4015D39002C9E094289002C879
:1007C000E094004006120FFC12120220090D1212D2
:1007D0000B500812117B7003020CBC900183E004E3
:1007E00012112B1210159001337401F090021612A1
:1007F00011A32290010EE0FBA3E0FAA3E0F9120995
:10080000D2FFAEF0900108E0FBA3E0FAA3E0F9020A
:1008100009D2900134A3A3E0F9A3E0FF90010EE018
:10082000FBA3E0FAA3E022E4FCFDE0F8A3E0F9A3D7
:10083000E0FAA3E0227A0079647E007F0B7D007BE2
:1008400000020BC6C8ECC8C9EDC9CAEECACBEFCBD3
:10085000E0FEA3E0FF22A3F0A37401F0A322D3FFE4
:10086000900189E09F900188E095F022A3F0A374A5
:1008700003F0A374E8F022C98FF0020A3543AB02FB
:100880005389FD5395FD5396FD222FFFEA3EFEE965
:100890003DFDE83CFCE4FAF9F8020A907F087A0191
:1008A00079347E007D007B01020BC6E50A25E02439
:1008B00026F8E6FE08E622F9EB2FFFEA35F0FEED1A
:1008C00039FDEC38FC22A3E0FEA3E0FBCAEECAE44B
:1008D000F9F822F9E4F5F0020A35F9EE8FF0020A90
:1008E00035902E42E0FEA3E0FF7C007D14120974D7
:1008F00090012622E50D25E02475F582E43401F50A
:1009000083E0FEA3E0FF229002C6E0FEA3E0FF2208
:1009100090018AE0FCA3E0FDC3EF9DFF229002C49A
:10092000A3A3E0F9A3E0FF9001082290021474024F
:10093000F0A37458F022E0FCA3E0FDA3E0FEA3E0E6
:1009400022900186F0A3F0A3F0A322F07E007F05A1
:100950007D007B007A00795F020BC6902EC0740286
:10096000F0902EC4E4F0A322FFE5F0F0A3EFF02214
:10097000902EC07402F0902EC27412F0902ECA22F3
:10098000122BED902EC07419F022E4F50EF50DF542
:100990000CF50B22C39FFFE5F09E2290001BE06444
:1009A0002022D3EF9414EE6480948022900188E09A
:1009B000FEA3E0FFD39400EE940022FFAEF07C0093
:1009C000020B99E4F0A374C8F022AB0EAA0DA90C97
:1009D000A80BD3020B3890016FE56AF0A3E56BF02A
:1009E0002225E02426F8A60F08A61022E490021A79
:1009F000F0A3F022F9746175F0A8020A3590003A6C
:100A00007410F022F0A3F0900220F0A3F022FEEF89
:100A10002401FFE43EC31322902EC0E4F0902E1E6A
:100A2000E022F974FF75F0FB0209FDC3E55E9570E5
:100A3000E55D956F229002C4020B5C120FD3FDACF2
:100A4000F0D39FEC9E403490010E120FE7FFC3EDF0
:100A50009FFFEC95F0FED3EF9430EE9475400D902F
:100A600002C67475F0A37430F002129E120FDE12EB
:100A700011749002C6F0A3EFF08043120FE4FFAEB2
:100A8000F090010E120FE7FDACF0C39FFFEC9EFE4D
:100A9000D3EF9410EE9427400C9002C674D8F0A3C4
:100AA00074F0F08012120FE4FFC3ED9FFEEC95F09E
:100AB0009002C6F0A3CEF0E49002C6F0A3F090013D
:100AC00032E060501210E7D39400EE6480948040CE
:100AD0001A900120120FE7FDD3EF9DEE95F0400B29
:100AE000900218E4F0A37464F0801BD3900219E024
:100AF0009400900218E09400400C90010B120FE754
:100B00009002C6121148D20B90021E740FF0A3740B
:100B1000A0F0800D90021C12104F7A007950121034
:100B200019D39002C7E094009002C6E064809480DC
:100B300050030213EDE0F9A3E0FF90010B120FFF49
:100B40001210571210E7EE3395E0FDFCE47BB87A03
:100B500088F9F8C3120B22500A9002C67488F0A3D9
:100B600074B8F0D390021BE0940090021AE0940055
:100B7000500790001BE0B4201D1210E7C39496EEBE
:100B8000648094805010EF9400EE6480948040253F
:100B90007C007D0A801430001C1210E7C394A0EE84
:100BA0006480948F500F7C007D321209869002C6BB
:100BB000EEF0A3EFF0900132E0603190021CE070A3
:100BC00002A3E07027900114120FE77D0F12119B12
:100BD0009002C6121024EE3395E0FDFCEB7B101260
:100BE000106A900114120FFFF9EE800F9002C6E018
:100BF000F9A3E0FF900114120FFFC98FF0120A351C
:100C0000900114120FE724A8FFE5F0801D90010B5E
:100C1000120FFF1210B3900114120FFF1210B390B5
:100C200002C7E024A8FF9002C6E03461F9900111E8
:100C3000120FFF1210572290018C12100AFBE9C00C
:100C4000E0EAC0E0EBC0E0900123120FE7FFE4FC14
:100C5000FDD0E0FBD0E0FAD0E012109790018C12AA
:100C60000B5C900191E004F07006900190E004F0BC
:100C7000900192E07002A3E060030215DF90018C06
:100C8000121116FFEEC0E0EFC0E01210A6D0E0FF98
:100C9000D0E0FE120A9090018C120B5C90018CA3A4
:100CA000A3E0FFA3E090018ACFF0A3EFF0A3120B23
:100CB0006800000000E490019012112474C8F090C4
:100CC0000212E07002A3E060030215DF900132E03F
:100CD0007003021571900186E0FEA3E0FF4E7022C2
:100CE00090018AE0FDA3E0900186CDF0A3EDF090A5
:100CF000010B120FE7FD900188E5F0F0A3EDF00283
:100D0000155A1210F0EE9CFE122C03900198120F4F
:100D1000FF1210BA900184E07026900198120FE73C
:100D2000C39412E5F09400500F90010B120FE7FFEF
:100D300090018812114980209001847401F080187C
:100D4000900198120FE7C39402E5F094005009E473
:100D5000121121F0900184F090018AE0FEA3E0FFDF
:100D6000D3900187E09F900186E09E4007E49001C8
:100D700085F080069001857401F0E4900194F0A361
:100D8000F090019EF090019B120FFF1210B302151C
:100D9000DF900194E0FEA3E0FF4E701290018AE024
:100DA000FDA3E0900194CDF0ED12104C8051121093
:100DB000F0EE9CFE122C0390019B120FFF1210BA52
:100DC000900196E07002A3E0703590019B120FE74E
:100DD000D39419E5F09400400C9001967413F0A39D
:100DE0007488F0800BE490019EF090019612104FF1
:100DF00090018AE0FFA3E0900194CFF0A3EFF09080
:100E00000132E07008121121F0900184F0221211D9
:100E10003BF053997FF50BF50CF50DF50EF50A1225
:100E2000086612105D121163902EC0E030E2F99056
:100E30002EC0E4F0438902121063438002902E0218
:100E4000E0FEA3E0250CF50CEE350BF50B1211605E
:100E5000902EC0E030E2F91211F8FEA3E0250EF565
:100E60000EEE350DF50D050AE50AC3940640B043B4
:100E70009980902EC5E4F0D3740C950C7422950BD8
:100E80004012900171E07002A3E0700F90017112A6
:100E9000104F8007E4900171F0A3F0E4250CFFE50A
:100EA0000B3424FEC3EF950EF510EE950DF50FD320
:100EB000E5109488E50F94374006750F3775108854
:100EC000900167E50FF0A3E510F090016BE50DF0E0
:100ED000A3E50EF0A3E50BF0A3E50CF0AF10AE0F09
:100EE00012220690016FEEF0A3EFF090001BE0B429
:100EF000200312101590016FE0FEA3E0FFE4FCFD5B
:100F0000E5672FF567E5663EF566ED3565F565EC59
:100F10003564F5640569E56970020568C3E56D949B
:100F2000E8E56C9403402AAE68AF69CBEFCB1210B2
:100F3000ACAF67AE66AD65AC64120A908E6A8F6B1B
:100F4000E4F567F566F565F564F568F569F56CF542
:100F50006DD3E56B9400E56A94004053900170E016
:100F6000956BFF90016FE0956AFE9002CAF0A3EFC7
:100F7000F0D394F9EE6480947F4015E094079002DA
:100F8000CAE06480948050081211B6E4F56E801FA8
:100F90009002CAE0FEA3E0FF122C0312118240036C
:100FA000756E03E56EC3940350051211B6056E907D
:100FB000016FE0F54EA3E0F54F78267C007D007BC5
:100FC000007A0079287E007F2802094E900132E0E5
:100FD000700302184912107C90021612104F9001F3
:100FE00084E0700302193412118C500302193490FA
:100FF000010B120FE7121174FE122C039002C6EEC1
:10100000F0A3EFF0D39496EE9400400CE4900184AA
:10101000F0900186F0A3F022900185E0602090011D
:101020000B120FE712103E4015D39002C7E0942830
:101030009002C6E094004006120FFC1212029001CA
:101040000B120FE7C312103F40030219349002C77E
:10105000E0941E9002C6E094005003021934120F6F
:10106000FCF9E475F0050209FD90013412100AFB49
:10107000E9C0E0EAC0E0EBC0E0120FE4FFE4FCFDF1
:10108000D0E0FBD0E0FAD0E0121097900134120BC0
:101090005C900139E004F07006900138E004F090B3
:1010A0000216E07002A3E0600302193490013412CA
:1010B0001116FFEEC0E0EFC0E01210A6D0E0FFD0A6
:1010C000E0FE120A90900134120B5C90010E120F98
:1010D000E7241EFFE435F0FE900134121007FBD325
:1010E000120B38403F900212E07002A3E07035907E
:1010F000019EE0702F200B2C90013BE004F0700665
:1011000090013AE004F0D390013BE0940590013A5D
:10111000E09400401E120FF2121057E490013AF0D2
:10112000A3F0800F120FF2121057E490013AF0A3CF
:10113000F0C20B900134120B6800000000E4900133
:1011400038F0A3F090019EE090021660041211A303
:101150002212104F22C0E0C083C082C0D0D2AF9014
:101160000225E004F0D3900213E09400900212E014
:101170009400400CA3E024FFF0900212E034FFF052
:10118000D3900215E09400900214E09400400CA368
:10119000E024FFF0900214E034FFF0D3900217E057
:1011A0009400900216E09400400CA3E024FFF0901D
:1011B0000216E034FFF0D3900219E0940090021878
:1011C000E09400400CA3E024FFF0900218E034FF0C
:1011D000F0D390021BE0940090021AE09400400CBF
:1011E000A3E024FFF090021AE034FFF0D390022332
:1011F000E09400900222E09400400CA3E024FFF071
:10120000900222E034FFF0D3900221E0940090029B
:1012100020E09400400CA3E024FFF0900220E03492
:10122000FFF0D390021DE0940090021CE094004077
:101230000CA3E024FFF090021CE034FFF0C3E56D46
:1012400094E8E56C94035008056DE56D7002056C3B
:10125000C3E55994E8E558940350080559E55970D9
:10126000020558D3900193E09400900192E094001D
:10127000400CA3E024FFF0900192E034FFF0D39003
:101280000197E09400900196E09400400CA3E024C4
:10129000FFF0900196E034FFF0D3900172E09401EA
:1012A000900171E09400400CA3E024FFF0900171E4
:1012B000E034FFF0D390021FE0940090021EE0940F
:1012C00000400CA3E024FFF090021EE034FFF0D0B9
:1012D000D0D082D083D0E0327E007FFF7D007B01C2
:1012E0007A007904120BC69002D67400F0A374043D
:1012F000F09001C57401F0A37400F0A374B8F090ED
:1013000001CB7401F0A37400F074AC12297D740059
:10131000F0A37494F09001C87401F0A37400F0A3DA
:1013200074C6F09001D17401F0A37400F074D2126D
:10133000297D7400F0A3741F12297E7401F0A37438
:1013400002F0902DE0E493FF9002D6E0FCA3E0FDD4
:10135000F5828C83A3EFF0900002E0FFED240412ED
:101360002957900001E0FFED240512295790000352
:10137000E0FFED2406122957902DE2E493FFED24BF
:1013800012122957902DE3E493FFED2414122957EC
:101390009001DA7401F0A37400F0A3743CF0E4FF50
:1013A00075F002EFA42401F582E5F0342EF583E414
:1013B00093FE74542FF582E43400F583EEF0EF25AC
:1013C000E0242DF582E4342EF583E493FE12298582
:1013D000EEF0122985E0FEEF25E0242CF582E434BE
:1013E0002EF583E49324C0F582E4342EF583EEF0E9
:1013F0000FEFB416AB902F56E0900058F0902F5698
:10140000E090006EF0902F56E0900059F0902F562B
:10141000E090006FF09000FF7401F09000FEF090FB
:10142000003A7410F090001BF0900028F0A3742094
:10143000F09002127413F0A37488F02212116AF56E
:1014400015F516852611852712852613852714F58F
:101450000A12108BFFD3E5149FE5139E40078E13ED
:101460008F14850A16C3E5129FE5119E50078E1151
:101470008F12850A15050AE50AB414D5E4F50FF5AF
:1014800010F50AE516650A602EE515650A6028E57F
:1014900010450F7010E50A25E02426F8E6F50F0840
:1014A000E6F510801212108B2510FFE50F3E121189
:1014B000EEF50FEF13F510050AE50AB414C5900117
:1014C00081E50FF0A3E510F0E516C394115005E592
:1014D000161211C1E515C394115005E5151211C17D
:1014E00012116AF50A12108BFFC3E5109FFFE50F7A
:1014F0009EFE122C03D3EF9419EE64809480400F6B
:10150000E4FCFDE50E2510F50EE50D350F800F12FC
:10151000108BFFE4FCFDE50E2FF50EE50D3EF50DFD
:10152000ED350CF50CEC350BF50B050AE50AC3940B
:101530001440B27FE07E817D027C001211AA401A25
:10154000E50E94E0F50EE50D9481F50DE50C9402A1
:10155000F50CE50B9400F50B800312116AE47F6033
:101560007EEAFDFC1211AA400BE4750E60750DEACF
:10157000F50CF50BAE0DAF0E2290017DE0FEA3E061
:10158000FFC39404EE9400502F900106E0FCA3E00A
:10159000FDEF25E0FFEE33FE74752FF58274013EFA
:1015A000F583ECF0A3EDF090017EE004F07006907E
:1015B000017DE004F0021E19750D011210D4E50D35
:1015C00025E02473F582E43401F583EEF0A3EFF017
:1015D000050DE50DB404E4120FE4FF9001061210AE
:1015E000F3E5F09CFE122C03C3EF9428EE64809484
:1015F000805037900132E0702390010E120FE7FF08
:10160000C3900107E09FFF900106E095F0FE122CC9
:1016100003C3121183500590010E8003900108123C
:101620000FE7FF90017BE5F0800B900106E0FFA340
:10163000E090017BCFF0A3EFF0E4F50CF50BF50A99
:10164000F509F50DD390017EE0950D90017DE094B4
:1016500000401E1210D4E4FCFDE50C2FF50CE50B48
:101660003EF50BED350AF50AEC3509F509050D8057
:10167000D3AF0CAE0BAD0AAC09EEC0E0EFC0E0900A
:10168000017D1210A7D0E0FFD0E0FE120A908F0C6F
:101690008E0B8D0A8C0922C0E0C083C082C0D0ECC2
:1016A000C0E0EDC0E0EEC0E0EFC0E0D2AFE5DB307F
:1016B000E419D20CC208E5DB30E102802E9002D59D
:1016C000E5DFF09002D8E4F0021F75E5DB30E50FAE
:1016D000D206300805C208021F75C20C021F75C26F
:1016E00008E5DB30E13AE5DB30E0109002D9E0FFBD
:1016F00004F0122BD7E0F5DF021F759002D9E0FF4E
:10170000B40813208A10D28A9002D6E0FCA3E02409
:1017100007122BDDE4F0EF641A707AD207021F750E
:101720009002D8E0700EA3E5DFF09002D87401F0CB
:10173000D20880619002D9E09029C993FFB4FF08D4
:101740009002D5E5DFF08047EF640F70299002D951
:10175000E0FFA3E0FCA3E0FD122BDCE0540FF090CF
:1017600002D9E0FF04F0ED122BDCE0FFE5DF54F0DE
:10177000FEEF4EF0801F9002D9E0FF122BD7E5DF7D
:10178000F0EFB4240A9002147401F0A374F4F09002
:1017900002D9E004F075DBFFD0E0FFD0E0FED0E03E
:1017A000FDD0E0FCD0D0D082D083D0E0329002C80F
:1017B000EFF09002CDE4F0A374FFF0E4A3F0A3F007
:1017C000A304F0A374FFF0902EC07402F0902EC317
:1017D0007408F0E49002C9F0A3F09002C9E0FEA3FF
:1017E000E0FFC39409EE9400400302207CEF9407CD
:1017F000EE940040067E007F0180199002C9A3E0AC
:1018000004FFE47E01C8EFC8088006CEA2E713CE2D
:1018100013D8F8FF9002CBEEF0A3EFF0902EC07437
:1018200019F0902EC0E030E2F99002C8E0FF75F0A8
:1018300002A4240012296CE0FCA3E0FD902EC074E9
:1018400002F0D3ED94FFEC940F40179002CBE0FC34
:10185000A3E0FD75F002EF122969EC8DF01209BCCE
:1018600080299002C8E075F002122969C083C08205
:10187000E0FEA3E0FF9002CBE0FCA3E0FDC3EF9D00
:10188000FFEE9CD082D083F0A3EFF09002CAE00478
:10189000F070069002C9E004F0021FBA7F00227FB8
:1018A000997A0179061210829001087401F0A374EC
:1018B00000F074441210367400F07446121036743E
:1018C00000F0A374481210377400F0A374321210A1
:1018D000377400F0A3742E1210377400F0A3742C28
:1018E000F09001237401F0A37400F0A37426F0902B
:1018F00001987401F0A37400F0A37484121037747B
:1019000000F0A37486F09001267401F0A37400F037
:10191000A3741C1210377400F0A37422F090011A03
:101920007401F0A37400F0A374361210377400F041
:10193000A3742A1210377400F0A37438F075730082
:101940007574C890011A120FFFF9E5738574F012CF
:101950000A3590011D120FFFF9E475F064120A3583
:10196000900120120FFFF9E475F096020A359002FB
:10197000C6EEF0A3EF12112B9002C6E07002A3E0B6
:1019800060031224AA12262DE490017DF0A3F07FBB
:1019900014122A329002147402F0745812104C90EF
:1019A0000106E0F9A3E0FFA3120FFF121057900108
:1019B0000B120FFF1210B3900111120FFF1211D46E
:1019C000900114120FFF1210B3900117120FFF12A3
:1019D00011D41211DDE4900132F0900134120B6841
:1019E00000000000E4900138121124F0900106126A
:1019F0000FF7121057E4900133F09002221211E415
:101A000090021EF0A3F0FE7F14FD7B017A01798421
:101A1000120BC6900123120FE790018A1211489011
:101A200001921211A3229002CCEEF0A3EFF0E56236
:101A30004561700C9002CCE0F561A3E0F562801680
:101A40009002CDE02562FF9002CCE035611211EEEC
:101A5000F561EF13F5620563E563D3940A400D85E4
:101A6000615F856260E4F561F562F563D3E56094DA
:101A700000E55F9400405A9002CDE09560FF90022F
:101A8000CCE0955FFE122C03C3EF940AEE648094C1
:101A9000805026AE5FAF607C007D03120B999002F0
:101AA000CC121024E4FCFDEB2FFFEA3E12109E78CE
:101AB00002120B499002CC80139002CDE02560FF0A
:101AC0009002CCE0355FC313FEEF13FFEEF0A3EFFF
:101AD000F09002CCE0FEA3E0FF22022A8DE493A363
:101AE000F8E493A34003F68001F208DFF48029E4D0
:101AF00093A3F85407240CC8C333C4540F4420C81C
:101B0000834004F456800146F6DFE4800B010204B2
:101B100008102040809026DFE47E019360BCA3FF84
:101B2000543F30E509541FFEE493A360010ECF54E7
:101B3000C025E060A840B8E493A3FAE493A3F8E4D6
:101B400093A3C8C582C8CAC583CAF0A3C8C582C842
:101B5000CAC583CADFE9DEE780BE30000875731BA3
:101B600075745880067573007574C890010B120F58
:101B7000E7FFAEF0C39574EE95735015900132E017
:101B80006020900120120FE7FDC3EF9DEE95F0401D
:101B90001190021AE07002A3E0702790013204F065
:101BA000802090001BE0B420051211CC800690022A
:101BB0001A1211A3E4900132F0900218F0A3F0126F
:101BC00011DD900132E06011900028E090003AB4FD
:101BD00010047410F0227420F02290022FE01460A0
:101BE0001B1460432402705D900239E0B4010A9036
:101BF000022F122426D205D200C203227F0212280D
:101C00009AEF60077F02122C0FC205900239E07034
:101C10003490022F7402F0D203C205C2007F031277
:101C20002C0F7F030227357F0312289AEF60167F5F
:101C300003122C0F900239E090022F7003F0800302
:101C4000122426C203227401F07F02122C0F7F029D
:101C500012273522CDEFCD43AD105399EF439A10A3
:101C6000539BEF902EC07402F0147E00C8EDC8089C
:101C70008005C333CE33CED8F9FF902EC4EEF0A347
:101C8000EFF0902EC8EEF0A3EFF07410122B4090FE
:101C90002EC0E030E2F9902EC0E4F07402F074201F
:101CA000122B40902EC0E030E2F9902E00E0FEA30F
:101CB000E0FF902EC4E4F0A3F0902EC0F043991002
:101CC000539AEF539BEF5390EF22122AE4902E4247
:101CD000E0FEA3E024C4FFEE34FEFE121182400AAF
:101CE000902E427401F0A3743CF053997F122BEDB7
:101CF000902E5EE4F0A374FFF07F0F121F8D902EE4
:101D00005EE0FEA3E0D394F0EE94014007902E5ED7
:101D1000E4F0A3F0902EC4E4F0439980A3F0900186
:101D200005E0900021F01210C1120FFFF9EE8FF0C4
:101D3000020A359002C47408F0A3E4F0A3743FF0E3
:101D4000A374DFF0E4FDFCF9758A10538AEF00906C
:101D500002C4E0FEA3E02DF582EE3CF583E493FFA0
:101D600069F90DBD00010CBC37E5BDDFE29002C68C
:101D7000122BE4E493699002D67009122BE4A37449
:101D800011F08006122BE4A3E4F0758A50538AEF19
:101D90000022200A06200303300509E4FFFE122179
:101DA0004EC20A22900220E07002A3E060051211E8
:101DB0007B703A20000312299012262D7F01122AEF
:101DC00032121D599002C4EEF0A3EFF07B017A02AB
:101DD00079C41227CE9002C4121102120FFF121002
:101DE0005712121B12233A1214171217AC12291C85
:101DF00022900211E024FE60131460231460272453
:101E00000370499002117402F0122C1E7F017E00B3
:101E100012214E9002117403F0E4900230F02290EF
:101E200002117404F0221223BA1227861223BA90E8
:101E30000171E07004A3E06401700C900171F0A3E3
:101E4000F09002117402F0E4900225F0224389021E
:101E50005395FD5396FD438002122B7A7F0C12247A
:101E600034CAEECACBEFCB7F0C122434EF2BFFEE3B
:101E70003A9002C9F0A3EFF0122B4CF91209D245A7
:101E8000F07006122B31EE80181209D2FBAAF01264
:101E90002B31EF2BFFEE3AC313F9EF13FF122B4C4C
:101EA000C98FF0120A3522122975F5828E83A3E0BC
:101EB000B4AA03122513122975FF122960E0B41089
:101EC00008EF122960E4F0D20A122975FF241B12D0
:101ED0002962E0700DEF241C122962E0B410031295
:101EE00028151229752413122962E0FFB4100690F8
:101EF00002397401F0EFB42005E4900239F022C1F8
:101F00000C410233004102340041023000410238EA
:101F100000C102C101C1044102390041022F00C1C8
:101F200003C100C1054102D8004102D9004202D3D9
:101F30000000C106C108C1074102D51041010300DC
:101F400041010510C10BC10A41019F00410104106C
:101F500041023A00009002C4EFF0E024BB122B5A79
:101F6000E060037F01229002C4E0FF24BB122B5AE1
:101F70007401F0EF122B62E493FE740193FFE4FC12
:101F8000FD902F60E0F8A3E0F9A3E0FAA3E02FFFB3
:101F9000EA3EFEED39EC389002C4E0122B6EEEF012
:101FA000A3EFF07F002212117B702990019FE07057
:101FB0000312110B90019F7401F0900029E0B420EE
:101FC00008122572120C478003122A6090022474B2
:101FD00001F08017E490019FF0900029E0B4200305
:101FE000122572900224E06002E4F0022B9D900220
:101FF000C6EBF0A3EAF0A3E9F0900214E07002A3AC
:10200000E07031900133E0602BE4900133F0122650
:102010002D12110B7508017F01122A32121D5990E1
:1020200002C6120FFF1210BA0508E508C394144047
:10203000E61211CC2212082EE4F5F275F30875EEC3
:10204000FF75EF3F75EA81F5F675EB0700E5EC30BB
:10205000E7FBE4F5EC9002D6E0FEA3E0FF241BF5DD
:1020600082E43EF583E5F3F0EF241CF582E43EF5CF
:1020700083E5F2F075EB3022758B11902F6474407C
:10208000F0E4FEE4FFEF75F003A4244DF582E434A0
:1020900002F583E5822EF582E43583F583E4F00FC3
:1020A000EFB40AE10EEEB403DA7F099002BBE4F06C
:1020B000A3DFFC902F647480F022CBEFCB122B5760
:1020C000E06036902F60A3A3E0FEA3E0FFEB122BAD
:1020D0006EE0FCA3E0FDD39FEC9E501DC3EF9DFF7F
:1020E000EE9CFEEB122B62C37401939FE4939E401F
:1020F00008122B57E4F07F01227F0022758A50538B
:102100008AEF9000027411F09000017422F09000A8
:10211000037433F0E4F5AB75AC1DF5ADF5AF75891F
:10212000FF75913F7599FFF59675931CF59BF59595
:10213000F592F59A5388FCD28AD20D2290003AE0AB
:10214000FC900104E06C602E90003AE0FE900104E7
:10215000F090000BE0900238F0540FF0EEB4200540
:10216000E04420800AECB4100B900238E04410F0F8
:1021700090000BF0C28A22F582E43CF583EFF02256
:10218000241AF582E43EF58322A42440F582E5F08A
:10219000342EF583229002D6E0FEA3E022A3F0A322
:1021A0007401F0A322746A2FF582E43400F58322CF
:1021B000300735C207902E42E0FFA3E09002C6CF61
:1021C000F0A3EFF0122AE41210C1120FFF1210BA9E
:1021D000902EC07402F09002C6E0FFA3E0902E4261
:1021E000CFF0A3EFF012110B2200000000FFFFFF61
:1021F000FF0000FFFFFFFFFFFFFFFFFF00FF0000EA
:1022000000FFFF000000FFFFFFFFFFFFFF000000D7
:1022100000FFFFFFFFFFFFFFFFFFFF0000000012B6
:10222000113BF0FF74542FF582E43400F583E0FE97
:1022300075F002EFA42400F582E5F0342EF583E476
:102240009324C0F582E4342EF583EEF00FEFB4163C
:10225000D3229002C9EFF01229FFE4F5099002C9D8
:10226000E0FFE509C39F50071215EE050980EE90C7
:102270002EC0E4F0121C1C900106EEF0A3EFF02239
:10228000E4F5B2F5BA758D20438D20538D7F53AAA6
:10229000F7F58BE5DB20E211200C0EE4F58A75875B
:1022A00003000000758A50D20A758B112212084E65
:1022B00053A87F1228DC12081E122AB943A88012E4
:1022C0002C189000FFE060069002117401F0122BB0
:1022D000BB1226871225D180F59002D6E0FFA3E03D
:1022E0009002DACFF0A3EFF0E4F5DA75DA4043DAE2
:1022F0002075D74075DA5875D90143A90875B80813
:1023000075F8082212105D53997F1229FF902E4212
:10231000E4F0A374FFF01208667F01121F8D438959
:10232000021210634380024399802201F4002800C6
:102330002801F4009603E801F403E8177000640331
:10234000E8003202580258012C01F403E82710007B
:10235000C89002C9E0FEA3E0FF7C007D140209746E
:10236000902EC2F0902EC0E04419F022900123E09C
:10237000FBA3E0FAA3E02274BB2BF582E43402F560
:10238000832225E0241FF582E4342BF5832225E007
:10239000243BF582E43402F58322902EC07402F0CF
:1023A000902EC77474F0902ECD74C0F0A374FFF01B
:1023B000A3F0902EC37401F0902ECAF022E5B23043
:1023C000E005E5AA20E013E4900226F075B28E75D0
:1023D000B6F9F5B743B20143AA0122E4FF3006166D
:1023E0009002D6E0FCA3E0F5828C83E0FE54F0FF7F
:1023F000EE540FF0C20622A3E0FCA3E02FF582E426
:102400003CF58322E0FEA3E0F5828E832212115078
:102410007409F0902EC77401F0902EC47480F0A35C
:10242000E4F022EE30E707C3E49FFFE49EFE22744F
:10243000BB2F122B5AE4F022122C2502285812111D
:10244000DD22D2AF32022B9D000000000000000010
:10245000000000000000000000000000000000007C
:10246000000000000000000000000000000000006C
:10247000000000000000000000000000000000005C
:10248000000000000000000000000000000000004C
:10249000000000000000000000000000000000003C
:1024A000000000000000000000000000000000002C
:1024B000000000000000000000000000000000001C
:1024C000000000000000000000000000000000000C
:1024D00000000000000000000000000000000000FC
:1024E00000000000000000000000000000000000EC
:1024F00000000000000000000000000000000000DC
:1025000000000000000000000000000000000000CB
:1025100000000000000000000000000000000000BB
:1025200000000000000000000000000000000000AB
:10253000000000000000000000000000000000009B
:10254000000000000000000000000000000000008B
:10255000000000000000000000000000000000007B
:10256000000000000000000000000000000000006B
:10257000000000000000000000000000000000005B
:10258000000000000000000000000000000000004B
:10259000000000000000000000000000000000003B
:1025A000000000000000000000000000000000002B
:1025B000000000000000000000000000000000001B
:1025C000000000000000000000000000000000000B
:1025D00000000000000000000000000000000000FB
:1025E00000000000000000000000000000000000EB
:1025F00000000000000000000000000000000000DB
:102600001103AB68000000000000000000000000A3
:1026100000000000000000000000000000000000BA
:10262000021203030A0F0DA00EB60FFF0C020BFFE0
:1026300023F724062504070127082A0828022B026D
:1026400029032C032D082E082F0426080211030647
:102650000A100D400E800FFF0C020BFF23F4240420
:102660002504070127102A1028042B0429032C0312
:102670002D202E202F10262000000000000000003A
:10268000000000000000000000000000000000004A
:10269000000000000000000000000000000000003A
:1026A000000000000000000000000000000000002A
:1026B000000000000000000000000000000000001A
:1037F000000000000000000000000000000000A524
:1038000000000000000000000000000000000000B8
:1038100000000000000000000000000000000000A8
:00000001FF
