:10000000006200000009000065B000000000000070
:1000100000000000000000000000000000000000E0
:1000200078FFE4B8200118F6D8F99000007F007E30
:1000300007E4F0A3DFFCDEFA7581740222C4121A11
:10004000891220509002117401F022022BDC74AA54
:100050007583F5758255A574557583FA7582AAA5C1
:1000600074A57583F5758255A52200021E4890403F
:100070007FE493FF64326003EF7002002253A87F95
:100080000080FD021906EE30E707C3E49FFFE49EFF
:10009000FE2274BB2F122B28E4F022022BD9E70991
:1000A000F608DFFA8046E709F208DFFA803E888228
:1000B0008C83E709F0A3DFFA8032E309F608DFFA60
:1000C0008078E309F208DFFA807088828C83E30984
:1000D000F0A3DFFA806489828A83E0A3F608DFFA5E
:1000E000805889828A83E0A3F208DFFA804C80D2AC
:1000F00080FA80C680D4806980F28033801080A628
:1001000080EA809A80A880DA80E280CA803389827F
:100110008A83ECFAE493A3C8C582C8CCC583CCF02B
:10012000A3C8C582C8CCC583CCDFE9DEE7800D89D2
:10013000828A83E493A3F608DFF9ECFAA9F0EDFBD9
:100140002289828A83ECFAE0A3C8C582C8CCC58321
:10015000CCF0A3C8C582C8CCC583CCDFEADEE8807A
:10016000DB89828A83E493A3F208DFF980CC88F0EC
:10017000EF60010E4E60C388F0ED2402B40400501D
:10018000B9F582EB2402B4040050AF232345822347
:100190009008CE73EF8DF0A4A8F0CF8CF0A428CEF9
:1001A0008DF0A42EFE22C2D5EC30E709B2D5E4C30F
:1001B0009DFDE49CFCEE30E715B2D5E4C39FFFE45F
:1001C0009EFE120BF2C3E49DFDE49CFC8003120B27
:1001D000F230D507C3E49FFFE49EFE22C5F0F8A3EA
:1001E000E028F0C5F0F8E582158270021583E0384A
:1001F000F022BB010A89828A83E0F5F0A3E0225055
:100200000687F009E71922BBFE07E3F5F009E319B9
:100210002289828A83E493F5F074019322BB01075B
:1002200089828A830209BC500B09C5F027F7C5F003
:100230001937F722BBFE0D09F8E325F0F3C5F019D5
:10024000E338F322F889828A8374019325F0C5F09C
:10025000F8E4933822BB010A89828A83F0E5F0A38F
:10026000F0225006F709A7F01922BBFE06F3E5F0CD
:1002700009F3192275F008758200EF2FFFEE33FEA7
:10028000CD33CDCC33CCC58233C5829BED9AEC996E
:10029000E58298400CF582EE9BFEED9AFDEC99FC10
:1002A0000FD5F0D6E4CEFBE4CDFAE4CCF9A8822257
:1002B000B800C1B90059BA002DEC8BF084CFCECD77
:1002C000FCE5F0CBF97818EF2FFFEE33FEED33FDB0
:1002D000EC33FCEB33FB10D703994004EB99FB0F95
:1002E000D8E5E4F9FA227818EF2FFFEE33FEED336C
:1002F000FDEC33FCC933C910D7059BE99A4007ECE4
:100300009BFCE99AF90FD8E0E4C9FAE4CCFB22752A
:10031000F010EF2FFFEE33FEED33FDCC33CCC833BE
:10032000C810D7079BEC9AE899400AED9BFDEC9A20
:10033000FCE899F80FD5F0DAE4CDFBE4CCFAE4C898
:10034000F922EB9FF5F0EA9E42F0E99D42F0EC6461
:1003500080C864809845F022EB9FF5F0EA9E42F059
:10036000E99D42F0E89C45F022E8600FECC313FCE5
:10037000ED13FDEE13FEEF13FFD8F122ECF0A3ED29
:10038000F0A3EEF0A3EFF022A8828583F0D083D013
:1003900082120B7F120B7F120B7F120B7FE473E430
:1003A00093A3C583C5F0C583C8C582C8F0A3C58320
:1003B000C5F0C583C8C582C822EC8EF0A4CCC5F0B8
:1003C000CCCDF8EFA4CEC5F02DFDE43CFCE8A42E86
:1003D000C8C5F03DFDE43CFCEFA4FFE5F028FEE4D9
:1003E0003DFDE43CFC22EF4E6012EF60010EEDBBE0
:1003F000010B89828A83F0A3DFFCDEFA2289F050A8
:1004000007F709DFFCA9F022BBFEFCF309DFFCA91A
:10041000F022BC000BBE0029EF8DF084FFADF0226E
:10042000E4CCF875F008EF2FFFEE33FEEC33FCEE72
:100430009DEC984005FCEE9DFE0FD5F0E9E4CEFD65
:1004400022EDF8F5F0EE8420D21CFEADF075F00838
:10045000EF2FFFED33FD4007985006D5F0F222C391
:1004600098FD0FD5F0EA22208A03020FD0900214E3
:10047000E07002A3E06003020FD0900171E070020F
:10048000A3E06003020FD012115B6003020FD09053
:100490000132E0703090011D120FE5FFAEF09001C7
:1004A0000B120FE5D39FE5F09E4003020FD0121010
:1004B0004BE490017DF0A3F01211C49002181211C8
:1004C000DBF56F8003756F00757016E4F5B2F5BA51
:1004D000900181E0F55BA3E0F55CC209758D2043D6
:1004E0008D20758D8043AA08D2AF758B02758EAFB3
:1004F00020062412115B701F200C1CE5DB20E21784
:10050000758AC4200C0DE5DB20E208758703000026
:10051000008006D2098002D209758B11758A50536A
:10052000AAF7D3900213E09490900212E094014055
:100530000EA3E02470F0900212E034FEF08007E495
:10054000900212F0A3F0D390021FE0949090021E4C
:10055000E09401400EA3E02470F090021EE034FE0F
:10056000F08007E490021EF0A3F01229CE9000550F
:10057000E075F006A4902EC3F0A3E4F0A3F01210EF
:100580003E53997F122BBB12113B902EC0E030E2FC
:10059000F9902EC0E4F0902E02E0F571A3E0F57220
:1005A000438902121044438002121138902EC0E099
:1005B00030E2F91211EFF522A3E0F523E42572FFF2
:1005C000E5713424FEC3EF9523F525EE9522F5243D
:1005D000D3E5259488E5249437400675243775259E
:1005E00088902EC4E4F043998090016FE524F0A335
:1005F000E525F0C3E55C9525FFE55B9524FE120833
:10060000668E5D8F5E1212024003020FA9AE24AF08
:10061000257C007D14120B9912120C7FE07E817DE7
:10062000027C009002C4121008FBD3120B38900217
:10063000C440171210FB94E0FFEE9481FEED94028B
:10064000FDEC9400FC12120C8007120B68000000F5
:1006500000E47F607EEAFDFC9002C4121008FBD328
:10066000120B38400A9002C4120B680000EA6012B4
:100670000FE2FFAEF07C007D09120B999002C412CC
:1006800010082FFFEA3EFEE93DFDE83CFC1211890F
:1006900012120C900132E07033AE5BAF5CFC7D094E
:1006A000121128E4FCFDEB2525FFEA352412106D1C
:1006B0001211898E5B8F5C9002C4120FF312102A04
:1006C0001210ED120FFD12102A020FA91210ED12D6
:1006D0000FFD12102A90010E120FE5FFAEF09002EE
:1006E000C4121005FBD3120B385003020FB9120FBE
:1006F000D1121154FEC3EF9574EE95735003020F9F
:10070000B990010B120FE5FFAEF07C007D02120BD9
:1007100099C8ECC8EDC0E0EEC0E0EFC0E0120FD128
:10072000121154FEE4FCFDD0E0FBD0E0FAD0E0F979
:10073000EB2FFFEA3E12106D7B0312118B90010B21
:10074000120FFD1210AA90010B120FE5D39430E5A1
:10075000F094754008747575F030120A3590018474
:10076000E0606612116C406190010B120FE51211EE
:1007700054FE1208669002C8EEF0A3EFF090010B51
:10078000120FE5FFC312103250199002C9E0941401
:100790009002C8E09400400B120FFAF9E475F005DE
:1007A0001209FD900185E0602090010B120FE51207
:1007B00010304015D39002C9E094289002C8E0940C
:1007C000004006120FFA1211F920090D1212025000
:1007D0000812115B7003020CBC900183E00412113B
:1007E000101210139001337401F09002161211923E
:1007F0002290010EE0FBA3E0FAA3E0F91209D2FF78
:10080000AEF0900108E0FBA3E0FAA3E0F90209D200
:10081000900134A3A3E0F9A3E0FF90010EE0FBA355
:10082000E0FAA3E022E4FCFDE0F8A3E0F9A3E0FA9B
:10083000A3E0227A0079647E007F0B7D007B0002BA
:100840000BC6A3F0A37401F0A322C98FF0020A35EE
:10085000D3FF900189E09F900188E095F02243AB9F
:10086000025389FD5395FD5396FD227F087A017945
:10087000347E007D007B01020BC6E50A25E02426BC
:10088000F8E6FE08E622F9EB2FFFEA35F0FEED3937
:10089000FDEC38FC229002147402F0A37458F0228C
:1008A000A3E0FEA3E0FBCAEECAE4F9F822902EC052
:1008B0007402F0902EC27412F0902EC77401F09062
:1008C0002EC422F9E4F5F0020A35F9EE8FF0020A9F
:1008D00035902E42E0FEA3E0FF7C007D14120974E7
:1008E00090012622E50D25E02475F582E43401F51A
:1008F00083E0FEA3E0FF229002C6E0FEA3E0FF2219
:1009000090018AE0FCA3E0FDC3EF9DFF229002C4AA
:10091000A3A3E0F9A3E0FF90010822E0FCA3E0FD1F
:10092000A3E0FEA3E022900186F0A3F0A3F0A322AF
:10093000F07E007F057D007B007A00795F020BC6A8
:10094000FFE5F0F0A3EFF022120B99C8ECC8C9ED57
:10095000C9CAEECACBEFCB22122BC5902EC0741998
:10096000F0227403F0A374E8F022E4F50EF50DF51F
:100970000CF50B22C39FFFE5F09E2290001BE06464
:100980002022D3EF9414EE6480948022900188E0BA
:10099000FEA3E0FFD39400EE940022902EC07402D8
:1009A000F0902EC4E4F0A3F0227B0AE4FAF9F802F6
:1009B0000A90E4F0A374C8F022AB0EAA0DA90CA80B
:1009C0000BD3020B387402F0A374BCF02290016FB9
:1009D000E56AF0A3E56BF02225E02426F8A60F08CF
:1009E000A61022E490021AF0A3F022F9746175F0C7
:1009F000A8020A3590003A7410F022F0A3F0900299
:100A000020F0A3F022FEEF2401FFE43EC313229066
:100A10002EC0E4F0902E1EE022F974FF75F0FB0268
:100A200009FDC3E55E9570E55D956F229002C402F5
:100A30000B5C90018C121008FBE9C0E0EAC0E0EB0F
:100A4000C0E0900123120FE5FFE4FCFDD0E0FBD0F5
:100A5000E0FAD0E012106690018C120B5C900191CC
:100A6000E004F07006900190E004F0900192E070D4
:100A700002A3E060030213DD90018C1210FBFFEE75
:100A8000C0E0EFC0E0121080D0E0FFD0E0FE120A1C
:100A90009090018C120B5C90018CA3A3E0FFA3E06B
:100AA00090018ACFF0A3EFF0A3120B6800000000C2
:100AB000E490019012110974C8F0900212E07002E3
:100AC000A3E060030213DD900132E0700302136CB7
:100AD000900186E0FEA3E0FF4E702290018AE0FDC7
:100AE000A3E0900186CDF0A3EDF090010B120FE58D
:100AF000FD900188E5F0F0A3EDF00213551210E02F
:100B0000EE9CFE120866900198120FFD1210AA903A
:100B10000184E07026900198120FE5C3940CE5F073
:100B20009400500F90010B120FE5FF9001881211F5
:100B30002180209001847401F08018900198120F98
:100B4000E5C39402E5F094005009E4121106F09018
:100B50000184F090018AE0FEA3E0FFD3900187E0DA
:100B60009F900186E09E4007E4900185F08006900A
:100B700001857401F0E4900194F0A3F090019EF0DF
:100B800090019B120FFD1210A30213DD900194E05F
:100B9000FEA3E0FF4E701590018AE0FDA3E09001F6
:100BA00094CDF0A3EDF0A312114280511210E0EEAB
:100BB0009CFE12086690019B120FFD1210AA900174
:100BC00096E07002A3E0703590019B120FE5D3947C
:100BD00019E5F09400400C9001967413F0A374880A
:100BE000F0800BE490019EF090019612114290016A
:100BF0008AE0FFA3E0900194CFF0A3EFF0900132E0
:100C0000E07008121106F0900184F022120FD1FD5D
:100C1000ACF0D39FEC9E403490010E120FE5FFC361
:100C2000ED9FFFEC95F0FED3EF9430EE9475400D00
:100C30009002C67475F0A37430F002146F120FDCCA
:100C40001211549002C6F0A3EFF08043120FE2FF9E
:100C5000AEF090010E120FE5FDACF0C39FFFEC9ECD
:100C6000FED3EF9410EE9427400C9002C674D8F097
:100C7000A374F0F08012120FE2FFC3ED9FFEEC951B
:100C8000F09002C6F0A3CEF0E49002C6F0A3F0907C
:100C90000132E060501210D7D39400EE648094804B
:100CA000401A900120120FE5FDD3EF9DEE95F04024
:100CB0000B900218E4F0A37464F0801BD390021927
:100CC000E09400900218E09400400C90010B120F89
:100CD000E59002C6121120D20B90021E740FF0A3F1
:100CE00074A0F0800D90021C1211427A007950120B
:100CF0001017D39002C7E094009002C6E06480947D
:100D0000805003021596E0F9A3E0FF90010B120F4B
:100D1000FD12102A1210D7EE3395E0FDFCE47BB8EB
:100D20007A88F9F8C3120B22500A9002C67488F030
:100D3000A374B8F0D390021BE0940090021AE094E0
:100D400000500790001BE0B4201D1210D7C39496EA
:100D5000EE648094805010EF9400EE6480948040A4
:100D6000257C007D0A801430001C1210D7C394A08B
:100D7000EE6480948F500F7C007D321209869002C1
:100D8000C6EEF0A3EFF0900132E0600C90021CE0A0
:100D90007002A3E0700280009002C6E0F9A3E0FFB9
:100DA000900114120FFD12102A900114120FE52465
:100DB000A8FFE5F0801D90010B120FFD1210A3900B
:100DC0000114120FFD1210A39002C7E024A8FF9097
:100DD00002C6E03461F9900111120FFD12102A22AF
:100DE00012117B53997FF50BF50CF50DF50EF50AF5
:100DF000122BBB12103E12113B902EC0E030E2F9D4
:100E0000902EC0E4F0438902121044438002902ED9
:100E100002E0FEA3E0250CF50CEE350BF50B1211EC
:100E200038902EC0E030E2F91211EFFEA3E0250E5B
:100E3000F50EEE350DF50D050AE50AC3940640B032
:100E4000439980902EC5E4F0D3740C950C742295D0
:100E50000B4012900171E07002A3E0700F900171DD
:100E60001211428007E4900171F0A3F0E4250CFF19
:100E7000E50B3424FEC3EF950EF510EE950DF50F3E
:100E8000D3E5109488E50F94374006750F37751039
:100E900088900167E50FF0A3E510F090016BE50D78
:100EA000F0A3E50EF0A3E50BF0A3E50CF0AF10AE58
:100EB0000F12211F90016FEEF0A3EFF090001BE0E6
:100EC000B4200312101390016FE0FEA3E0FFE4FCD6
:100ED000FDE5672FF567E5663EF566ED3565F56579
:100EE000EC3564F5640569E56970020568C3E56D74
:100EF00094E8E56C9403402AAE68AF69CBEFCB125F
:100F00001086AF67AE66AD65AC64120A908E6A8FCC
:100F10006BE4F567F566F565F564F568F569F56CFC
:100F2000F56DD3E56B9400E56A9400405390017031
:100F3000E0956BFF90016FE0956AFE9002CAF0A306
:100F4000EFF0D394F9EE6480947F4015E09407901D
:100F500002CAE06480948050081211ADE4F56E80FE
:100F60001F9002CAE0FEA3E0FF1208661211624061
:100F700003756E03E56EC3940350051211AD056E43
:100F800090016FE0F54EA3E0F54F78267C007D00E0
:100F90007B007A0079287E007F2802094E9001327A
:100FA000E0700302181A12104B9002161211A5904D
:100FB0000184E0700302190512116C500302190537
:100FC00090010B120FE5121154FE1208669002C632
:100FD000EEF0A3EFF0D39496EE9400400CE4900171
:100FE00084F0900186F0A3F022900185E0602090CB
:100FF000010B120FE51210304015D39002C7E09498
:10100000289002C6E094004006120FFA1211F990DF
:10101000010B120FE5C312103140030219059002B3
:10102000C7E094149002C6E0940050030219051220
:101030000FFAF9E475F0050209FD90013412100869
:10104000FBE9C0E0EAC0E0EBC0E0120FE2FFE4FC25
:10105000FDD0E0FBD0E0FAD0E0121066900134122F
:101060000B5C900139E004F07006900138E004F068
:10107000900216E07002A3E06003021905900134AB
:101080001210FBFFEEC0E0EFC0E0121080D0E0FFD6
:10109000D0E0FE120A90900134120B5C90010E1207
:1010A0000FE52432FFE435F0FE900134121005FB09
:1010B000D3120B38403F900212E07002A3E070356B
:1010C00090019EE0702F200B2C90013BE004F0700B
:1010D0000690013AE004F0D390013BE094059001C2
:1010E0003AE09400401E120FF012102AE490013AE8
:1010F000F0A3F0800F120FF012102AE490013AF0E2
:10110000A3F0C20B900134120B6800000000E490C1
:101110000138F0A3F090019EE090021660041211D5
:1011200092221211A522C0E0C083C082C0D0D2AFEB
:10113000900225E004F0D3900213E0940090021294
:10114000E09400400CA3E024FFF0900212E034FF92
:10115000F0D3900215E09400900214E09400400C4B
:10116000A3E024FFF0900214E034FFF0D3900217C4
:10117000E09400900216E09400400CA3E024FFF0FD
:10118000900216E034FFF0D3900219E09400900230
:1011900018E09400400CA3E024FFF0900218E03423
:1011A000FFF0D390021BE0940090021AE0940040FC
:1011B0000CA3E024FFF090021AE034FFF0D3900279
:1011C00023E09400900222E09400400CA3E024FF6E
:1011D000F0900222E034FFF0D3900221E0940090DE
:1011E0000220E09400400CA3E024FFF0900220E0F5
:1011F00034FFF0D390021DE0940090021CE09400B4
:10120000400CA3E024FFF090021CE034FFF0C3E5A3
:101210006D94E8E56C94035008056DE56D7002056A
:101220006CC3E55994E8E558940350080559E5590D
:1012300070020558D3900193E09400900192E094DD
:1012400000400CA3E024FFF0900192E034FFF0D3C3
:10125000900197E09400900196E09400400CA3E088
:1012600024FFF0900196E034FFF0D3900172E094F7
:1012700001900171E09400400CA3E024FFF0900184
:1012800071E034FFF0D390021FE0940090021EE062
:101290009400400CA3E024FFF090021EE034FFF025
:1012A000D0D0D082D083D0E0327E007FFF7D007B23
:1012B000017A007904120BC69002D67400F0A37470
:1012C00004F09001C57401F0A37400F0A374B8F0A9
:1012D0009001CB7401F0A37400F074AC12294C742B
:1012E00000F0A37494F09001C87401F0A37400F0AE
:1012F000A374C6F09001D17401F0A37400F074D20D
:1013000012294C7400F0A3741F12294D7401F0A32C
:101310007402F0902DE0E493FF9002D6E0FCA3E08D
:10132000FDF5828C83A3EFF0900002E0FFED240432
:10133000122926900001E0FFED24051229269000D5
:1013400003E0FFED2406122926902DE2E493FFED41
:101350002412122926902DE3E493FFED2414122980
:10136000269001DA7401F0A37400F0A3743CF0E459
:10137000FF75F002EFA42401F582E5F0342EF58329
:10138000E493FE74542FF582E43400F583EEF0EF1D
:1013900025E0242DF582E4342EF583E493FE122912
:1013A00054EEF0122954E0FEEF25E0242CF582E4FF
:1013B000342EF583E49324C0F582E4342EF583EED5
:1013C000F00FEFB416AB902F56E0900058F0902F2E
:1013D00056E090006EF0902F56E0900059F0902F5C
:1013E00056E090006FF09000FF7401F09000FEF066
:1013F00090003A7410F090001BF0900028F0A37455
:1014000020F09002127413F0A37488F02212114A93
:10141000F515F516852611852712852613852714BF
:10142000F50A12105AFFD3E5149FE5139E40078E6C
:10143000138F14850A16C3E5129FE5119E50078E7F
:10144000118F12850A15050AE50AB414D5E4F50FC3
:10145000F510F50AE516650A602EE515650A60289F
:10146000E510450F7010E50A25E02426F8E6F50F93
:1014700008E6F510801212105A2510FFE50F3E12F3
:1014800011E5F50FEF13F510050AE50AB414C59040
:101490000181E50FF0A3E510F0E516C394115005A6
:1014A000E5161211B8E515C394115005E515121192
:1014B000B812114AF50A12105AFFC3E5109FFFE552
:1014C0000F9EFE120866D3EF9419EE64809480405C
:1014D0000FE4FCFDE50E2510F50EE50D350F800F30
:1014E00012105AFFE4FCFDE50E2FF50EE50D3EF55A
:1014F0000DED350CF50CEC350BF50B050AE50AC3C3
:10150000941440B27FE07E817D027C0012119940EC
:101510001AE50E94E0F50EE50D9481F50DE50C94B9
:1015200002F50CE50B9400F50B800312114AE47FE1
:10153000607EEAFDFC121199400BE4750E60750D9A
:10154000EAF50CF50BAE0DAF0E2290017DE0FEA387
:10155000E0FFC39404EE9400502F900106E0FCA33A
:10156000E0FDEF25E0FFEE33FE74752FF582740188
:101570003EF583ECF0A3EDF090017EE004F0700600
:1015800090017DE004F0021DEA750D011210C4E522
:101590000D25E02473F582E43401F583EEF0A3EF2A
:1015A000F0050DE50DB404E4120FE2FF9001061200
:1015B00010E3E5F09CFE120866C3EF9428EE648009
:1015C00094805037900132E0702390010E120FE5A5
:1015D000FFC3900107E09FFF900106E095F0FE1227
:1015E0000866C3121163500590010E800390010834
:1015F000120FE5FF90017BE5F0800B900106E0FF04
:10160000A3E090017BCFF0A3EFF0E4F50CF50BF530
:101610000AF509F50DD390017EE0950D90017DE06E
:101620009400401E1210C4E4FCFDE50C2FF50CE5FF
:101630000B3EF50BED350AF50AEC3509F509050DFC
:1016400080D3AF0CAE0BAD0AAC09EEC0E0EFC0E04A
:1016500090017D121081D0E0FFD0E0FE120A908F41
:101660000C8E0B8D0A8C0922C0E0C083C082C0D0D2
:10167000ECC0E0EDC0E0EEC0E0EFC0E0D2AFE5DBF3
:1016800030E419D20CC208E5DB30E102802E900272
:10169000D5E5DFF09002D8E4F0021F46E5DB30E547
:1016A0000FD206300805C208021F46C20C021F46B0
:1016B000C208E5DB30E13AE5DB30E0109002D9E02A
:1016C000FF04F0122BA5E0F5DF021F469002D9E0DF
:1016D000FFB40813208A10D28A9002D6E0FCA3E05F
:1016E0002407122BABE4F0EF641A707AD207021FC2
:1016F000469002D8E0700EA3E5DFF09002D87401A6
:10170000F0D20880619002D9E090299893FFB4FF4D
:10171000089002D5E5DFF08047EF640F7029900252
:10172000D9E0FFA3E0FCA3E0FD122BAAE0540FF0E8
:101730009002D9E0FF04F0ED122BAAE0FFE5DF54A0
:10174000F0FEEF4EF0801F9002D9E0FF122BA5E5CE
:10175000DFF0EFB4240A9002147401F0A374F4F0E3
:101760009002D9E004F075DBFFD0E0FFD0E0FED0BE
:10177000E0FDD0E0FCD0D0D082D083D0E032900227
:10178000C8EFF09002CDE4F0A374FFF0E4A3F0A35F
:10179000F0A304F0A374FFF0902EC07402F0902E1A
:1017A000C37408F0E49002C9F0A3F09002C9E0FE0F
:1017B000A3E0FFC39409EE9400400302204DEF9490
:1017C00007EE940040067E007F0180199002C9A3B5
:1017D000E004FFE47E01C8EFC8088006CEA2E7134C
:1017E000CE13D8F8FF9002CBEEF0A3EFF0902EC00E
:1017F0007419F0902EC0E030E2F99002C8E0FF7555
:10180000F002A4240012293BE0FCA3E0FD902EC0CE
:101810007402F0D3ED94FFEC940F40179002CBE0EC
:10182000FCA3E0FD75F002EF122938EC8DF01209EF
:10183000BC80299002C8E075F002122938C083C02C
:1018400082E0FEA3E0FF9002CBE0FCA3E0FDC3EF4B
:101850009DFFEE9CD082D083F0A3EFF09002CAE00F
:1018600004F070069002C9E004F0021F8B7F002292
:101870007F997A0179061210519001087401F0A342
:101880007400F074441210227400F0744612102296
:101890007400F0A374481210237400F0A374321281
:1018A00010237400F0A3742E1210237400F0A3749C
:1018B0002CF09001237401F0A37400F0A37426F0BF
:1018C0009001987401F0A37400F0A37484121023A3
:1018D0007400F0A37486F09001267401F0A37400E4
:1018E000F0A3741C1210237400F0A37422F0900172
:1018F0001A7401F0A37400F0A3743612102374005C
:10190000F0A3742A1210237400F0A37438F07573D6
:10191000007574C890011A120FFDF9E5738574F013
:10192000120A3590011D120FFDF9E475F064120AD8
:1019300035900120120FFDF9E475F096020A3590FA
:1019400002CCEEF0A3EFF0E5624561700C9002CCA2
:10195000E0F561A3E0F56280169002CDE02562FF1C
:101960009002CCE035611211E5F561EF13F56205E7
:1019700063E563D3940A400D85615F856260E4F599
:1019800061F562F563D3E5609400E55F9400405C27
:101990009002CDE09560FF9002CCE0955FFE1208CA
:1019A00066C3EF940AEE648094805028AE5FAF6007
:1019B0007C007D031211289002CCE0FEA3E0FFE43E
:1019C000FCFDEB2FFFEA3E12106D7802120B4990DE
:1019D00002CC80139002CDE02560FF9002CCE03570
:1019E0005FC313FEEF13FFEEF0A3EFF09002CCE025
:1019F000FEA3E0FF229002C6EEF0A3EF12111090BA
:101A000002C6E07002A3E060031224791225FCE410
:101A100090017DF0A3F07F14122A00121075A3121A
:101A200011A5900106E0F9A3E0FFA3120FFD12102B
:101A30002A90010B120FFD1210A3900111120FFD3D
:101A40001211CB900114120FFD1210A39001171266
:101A50000FFD1211CB1211D4E4900132F090013439
:101A6000120B6800000000E4900138121109F09098
:101A70000106120FF512102AE4900133F0900222B1
:101A80001211DB90021EF0A3F0FE7F14FD7B017AA1
:101A9000017984120BC6900123120FE590018A127E
:101AA000112090019212119222022A5BE493A3F872
:101AB000E493A34003F68001F208DFF48029E49365
:101AC000A3F85407240CC8C333C4540F4420C8835C
:101AD0004004F456800146F6DFE4800B010204085E
:101AE000102040809026AEE47E019360BCA3FF549A
:101AF0003F30E509541FFEE493A360010ECF54C0AC
:101B000025E060A840B8E493A3FAE493A3F8E49333
:101B1000A3C8C582C8CAC583CAF0A3C8C582C8CA3B
:101B2000C583CADFE9DEE780BE30000875731B7528
:101B3000745880067573007574C890010B120FE518
:101B4000FFAEF0C39574EE95735015900132E060CE
:101B500020900120120FE5FDC3EF9DEE95F040119E
:101B600090021AE07002A3E0702790013204F08026
:101B70002090001BE0B420051211C3800690021AC9
:101B8000121192E4900132F0900218F0A3F01211B9
:101B9000D4900132E06011900028E090003AB41037
:101BA000047410F0227420F02290022FE014601BC5
:101BB0001460432402705D900239E0B4010A90027F
:101BC0002F1223F5D205D200C203227F0212286908
:101BD000EF60077F02120872C205900239E070348C
:101BE00090022F7402F0D203C205C2007F031208D4
:101BF000727F030227047F03122869EF60167F03B8
:101C0000120872900239E090022F7003F0800312E4
:101C100023F5C203227401F07F021208727F0212C0
:101C2000270422CDEFCD43AD105399EF439A1053C3
:101C30009BEF902EC07402F0147E00C8EDC808809F
:101C400005C333CE33CED8F9FF902EC4EEF0A3EF08
:101C5000F0902EC8EEF0A3EFF07410122B0E902E21
:101C6000C0E030E2F9902EC0E4F07402F07420126B
:101C70002B0E902EC0E030E2F9902E00E0FEA3E0A3
:101C8000FF902EC4E4F0A3F0902EC0F043991053BF
:101C90009AEF539BEF5390EF22122AB2902E42E01C
:101CA000FEA3E024A4FFEE34FEFE121162400A906F
:101CB0002E427401F0A3745CF053997F122BC590EF
:101CC0002E5EE4F0A374FFF07F0F121F5E902E5E75
:101CD000E0FEA3E0D394F0EE94014007902E5EE482
:101CE000F0A3F0902EC4E4F0439980A3F090010596
:101CF000E0900021F01210B1120FFDF9EE8FF0020A
:101D00000A359002C47408F0A3E4F0A3743FF0A372
:101D100074DFF0E4FDFCF9758A10538AEF0090023D
:101D2000C4E0FEA3E02DF582EE3CF583E493FF6969
:101D3000F90DBD00010CBC37E5BDDFE29002C61213
:101D40002BB2E493699002D67009122BB2A37409E6
:101D5000F08006122BB2A3E4F0758A50538AEF008C
:101D600022200A06200303300509E4FFFE1221D5D4
:101D7000C20A22900220E07002A3E0600512115B0B
:101D8000703A20000312295F1225FC7F01122A00FD
:101D9000121D2A9002C4EEF0A3EFF07B017A0279C3
:101DA000C412279D9002C41210F2120FFD12102AC5
:101DB0001213EC12230912121212177D1228EB22B1
:101DC000900211E024FE60131460231460272403A2
:101DD00070499002117402F0122BD57F017E00121F
:101DE00021D59002117403F0E4900230F0229002A9
:101DF000117404F0221223891227551223899001AD
:101E000071E07004A3E06401700C900171F0A3F024
:101E10009002117402F0E4900225F02243890253EB
:101E200095FD5396FD438002122B487F0C1224032C
:101E3000CAEECACBEFCB7F0C122403EF2BFFEE3A96
:101E40009002C9F0A3EFF0122B1AF91209D245F053
:101E50007006122AFFEE80181209D2FBAAF0122A8D
:101E6000FFEF2BFFEE3AC313F9EF13FF122B1AC942
:101E70008FF0120A3522122944F5828E83A3E0B432
:101E8000AA031224E2122944FF12292FE0B41008F9
:101E9000EF12292FE4F0D20A122944FF241B122941
:101EA00031E0700DEF241C122931E0B41003122729
:101EB000E41229442413122931E0FFB410069002E1
:101EC000397401F0EFB42005E4900239F022C10C1E
:101ED0004102330041023400410230004102380027
:101EE000C102C101C1044102390041022F00C103F6
:101EF000C100C1054102D8004102D9004202D3000D
:101F000000C106C108C1074102D5104101030041CB
:101F1000010510C10BC10A41019F0041010410419C
:101F2000023A00009002C4EFF0E024BB122B28E03C
:101F300060037F01229002C4E0FF24BB122B2874AF
:101F400001F0EF122B30E493FE740193FFE4FCFDEB
:101F5000902F60E0F8A3E0F9A3E0FAA3E02FFFEAF6
:101F60003EFEED39EC389002C4E0122B3CEEF0A3BB
:101F7000EFF07F002212115B702990019FE0700347
:101F800012107590019F7401F0900029E0B42008B0
:101F9000122541120C478003122A2E90022474014C
:101FA000F08017E490019FF0900029E0B420031224
:101FB0002541900224E06002E4F0022B6B9002C6FF
:101FC000EBF0A3EAF0A3E9F0900214E07002A3E0C2
:101FD0007031900133E0602BE4900133F01225FC66
:101FE0001210757508017F01122A00121D2A900235
:101FF000C6120FFD1210AA0508E508C3941440E6A6
:102000001211C32212082EE4F5F275F30875EEFFE3
:1020100075EF3F75EA81F5F675EB0700E5EC30E703
:10202000FBE4F5EC9002D6E0FEA3E0FF241BF58272
:10203000E43EF583E5F3F0EF241CF582E43EF583FE
:10204000E5F2F075EB3022758B11902F647440F03F
:10205000E4FEE4FFEF75F003A4244DF582E43402BE
:10206000F583E5822EF582E43583F583E4F00FEF06
:10207000B40AE10EEEB403DA7F099002BBE4F0A3E8
:10208000DFFC902F647480F022CBEFCB122B25E085
:102090006036902F60A3A3E0FEA3E0FFEB122B3C81
:1020A000E0FCA3E0FDD39FEC9E501DC3EF9DFFEE2F
:1020B0009CFEEB122B30C37401939FE4939E400867
:1020C000122B25E4F07F01227F0022758A50538A6B
:1020D000EF9000027411F09000017422F090000360
:1020E0007433F0E4F5AB75AC1DF5ADF5AF7589FF54
:1020F00075913F7599FFF59675931CF59BF595F5D0
:1021000092F59A5388FCD28AD20D2290003AE0FCD4
:10211000900104E06C602E90003AE0FE900104F023
:1021200090000BE0900238F0540FF0EEB42005E080
:102130004420800AECB4100B900238E04410F09078
:10214000000BF0C28A22F582E43CF583EFF02224F2
:102150001AF582E43EF58322A42440F582E5F034AA
:102160002EF583229002D6E0FEA3E022A3F0A37412
:1021700001F0A322746A2FF582E43400F583223043
:102180000735C207902E42E0FFA3E09002C6CFF0D1
:10219000A3EFF0122AB21210B1120FFD1210AA9082
:1021A0002EC07402F09002C6E0FFA3E0902E42CF52
:1021B000F0A3EFF01210752200000000FFFFFFFFF8
:1021C0000000FFFFFFFFFFFFFFFFFF00FF00000019
:1021D000FFFF000000FFFFFFFFFFFFFF0000000008
:1021E000FFFFFFFFFFFFFFFFFFFF000000001211D6
:1021F0007BFF74542FF582E43400F583E0FE75F024
:1022000002EFA42400F582E5F0342EF583E4932454
:10221000C0F582E4342EF583EEF00FEFB416D3222E
:102220009002C9EFF01229CEE4F5099002C9E0FF4F
:10223000E509C39F50071215C0050980EE902EC016
:10224000E4F0121BED900106EEF0A3EFF022E4F5AE
:10225000B2F5BA758D20438D20538D7F53AAF7F5C3
:102260008BE5DB20E211200C0EE4F58A7587030074
:102270000000758A50D20A758B112212084E53A89D
:102280007F1228AB12081E122A8743A880122BCF78
:102290009000FFE060069002117401F0122B891289
:1022A00026561225A080F59002D6E0FFA3E090020A
:1022B000DACFF0A3EFF0E4F5DA75DA4043DA20750F
:1022C000D74075DA5875D90143A90875B80875F86B
:1022D000082212103E53997F1229CE902E42E4F02C
:1022E000A374FFF0122BBB7F01121F5E4389021201
:1022F00010444380024399802201F4002800280101
:10230000F4009603E801F403E81770006403E800A2
:102310003202580258012C01F403E8271000C8903B
:1023200002C9E0FEA3E0FF7C007D14020974902E38
:10233000C2F0902EC0E04419F022900123E0FBA3EC
:10234000E0FAA3E02274BB2BF582E43402F5832289
:1023500025E024EDF582E4342AF5832225E0243BB0
:10236000F582E43402F58322902EC07402F0902EA0
:10237000C77474F0902ECD74C0F0A374FFF0A3F076
:10238000902EC37401F0902ECAF022E5B230E00521
:10239000E5AA20E013E4900226F075B28E75B6F936
:1023A000F5B743B20143AA0122E4FF3006169002BA
:1023B000D6E0FCA3E0F5828C83E0FE54F0FFEE54FF
:1023C0000FF0C20622A3E0FCA3E02FF582E43CF567
:1023D0008322E0FEA3E0F5828E832212108DE4F0CA
:1023E000A37402F02212108D7480F0A3E4F0221284
:1023F0002BDF0228271211D422D2AF32D2AF320201
:102400002B6B000000000000000000000000000036
:1024100000000000000000000000000000000000BC
:1024200000000000000000000000000000000000AC
:10243000000000000000000000000000000000009C
:10244000000000000000000000000000000000008C
:10245000000000000000000000000000000000007C
:10246000000000000000000000000000000000006C
:10247000000000000000000000000000000000005C
:10248000000000000000000000000000000000004C
:10249000000000000000000000000000000000003C
:1024A000000000000000000000000000000000002C
:1024B000000000000000000000000000000000001C
:1024C000000000000000000000000000000000000C
:1024D00000000000000000000000000000000000FC
:1024E00000000000000000000000000000000000EC
:1024F00000000000000000000000000000000000DC
:1025000000000000000000000000000000000000CB
:1025100000000000000000000000000000000000BB
:1025200000000000000000000000000000000000AB
:10253000000000000000000000000000000000009B
:10254000000000000000000000000000000000008B
:10255000000000000000000000000000000000007B
:10256000000000000000000000000000000000006B
:10257000000000000000000000000000000000005B
:10258000000000000000000000000000000000004B
:10259000000000000000000000000000000000003B
:1025A000000000000000000000000000000000002B
:1025B000000000000000000000000000000000001B
:1025C000000000000000000000000000000000000B
:1025D00000000000000000000000000000000000FB
:1025E00000000000000000000000000000000000EB
:1025F00000000000000000000000000000000000DB
:102600000905AB62000000000000000000000000AF
:1026100000000000000000000000000000000000BA
:10262000021203030A140DA00EB60FFF0C020BFFDB
:1026300023F724062504070127082A0828022B026D
:1026400029032C032D082E082F0426080211030647
:102650000A100D400E800FFF0C020BFF23F4240420
:102660002504070127102A1028042B0429032C0312
:102670002D202E202F10262000000000000000003A
:10268000000000000000000000000000000000004A
:10269000000000000000000000000000000000003A
:1026A000000000000000000000000000000000002A
:1026B000000000000000000000000000000000001A
:1037F0000000000000000000000000000000007950
:1038000000000000000000000000000000000000B8
:1038100000000000000000000000000000000000A8
:00000001FF
