:100000000061000000090000AD0E000000000000CB
:1000100000000000000000000000000000000000E0
:1000200078FFE4B8200118F6D8F99000007F007E30
:1000300007E4F0A3DFFCDEFA75817A022389121A45
:100040008A1220519002117401F022022C5F74AACE
:100050007583F5758255A574557583FA7582AAA5C1
:1000600074A57583F5758255A52200021E4990403E
:100070007FE493FF64326003EF7002002253A87F95
:100080000080FD0219071210A9902EC27412F0749C
:100090000F12116AE4F0A37402F022022C5CE7094B
:1000A000F608DFFA8046E709F208DFFA803E888228
:1000B0008C83E709F0A3DFFA8032E309F608DFFA60
:1000C0008078E309F208DFFA807088828C83E30984
:1000D000F0A3DFFA806489828A83E0A3F608DFFA5E
:1000E000805889828A83E0A3F208DFFA804C80D2AC
:1000F00080FA80C680D4806980F28033801080A628
:1001000080EA809A80A880DA80E280CA803389827F
:100110008A83ECFAE493A3C8C582C8CCC583CCF02B
:10012000A3C8C582C8CCC583CCDFE9DEE7800D89D2
:10013000828A83E493A3F608DFF9ECFAA9F0EDFBD9
:100140002289828A83ECFAE0A3C8C582C8CCC58321
:10015000CCF0A3C8C582C8CCC583CCDFEADEE8807A
:10016000DB89828A83E493A3F208DFF980CC88F0EC
:10017000EF60010E4E60C388F0ED2402B40400501D
:10018000B9F582EB2402B4040050AF232345822347
:100190009008CE73EF8DF0A4A8F0CF8CF0A428CEF9
:1001A0008DF0A42EFE22C2D5EC30E709B2D5E4C30F
:1001B0009DFDE49CFCEE30E715B2D5E4C39FFFE45F
:1001C0009EFE120BF2C3E49DFDE49CFC8003120B27
:1001D000F230D507C3E49FFFE49EFE22C5F0F8A3EA
:1001E000E028F0C5F0F8E582158270021583E0384A
:1001F000F022BB010A89828A83E0F5F0A3E0225055
:100200000687F009E71922BBFE07E3F5F009E319B9
:100210002289828A83E493F5F074019322BB01075B
:1002200089828A830209BC500B09C5F027F7C5F003
:100230001937F722BBFE0D09F8E325F0F3C5F019D5
:10024000E338F322F889828A8374019325F0C5F09C
:10025000F8E4933822BB010A89828A83F0E5F0A38F
:10026000F0225006F709A7F01922BBFE06F3E5F0CD
:1002700009F3192275F008758200EF2FFFEE33FEA7
:10028000CD33CDCC33CCC58233C5829BED9AEC996E
:10029000E58298400CF582EE9BFEED9AFDEC99FC10
:1002A0000FD5F0D6E4CEFBE4CDFAE4CCF9A8822257
:1002B000B800C1B90059BA002DEC8BF084CFCECD77
:1002C000FCE5F0CBF97818EF2FFFEE33FEED33FDB0
:1002D000EC33FCEB33FB10D703994004EB99FB0F95
:1002E000D8E5E4F9FA227818EF2FFFEE33FEED336C
:1002F000FDEC33FCC933C910D7059BE99A4007ECE4
:100300009BFCE99AF90FD8E0E4C9FAE4CCFB22752A
:10031000F010EF2FFFEE33FEED33FDCC33CCC833BE
:10032000C810D7079BEC9AE899400AED9BFDEC9A20
:10033000FCE899F80FD5F0DAE4CDFBE4CCFAE4C898
:10034000F922EB9FF5F0EA9E42F0E99D42F0EC6461
:1003500080C864809845F022EB9FF5F0EA9E42F059
:10036000E99D42F0E89C45F022E8600FECC313FCE5
:10037000ED13FDEE13FEEF13FFD8F122ECF0A3ED29
:10038000F0A3EEF0A3EFF022A8828583F0D083D013
:1003900082120B7F120B7F120B7F120B7FE473E430
:1003A00093A3C583C5F0C583C8C582C8F0A3C58320
:1003B000C5F0C583C8C582C822EC8EF0A4CCC5F0B8
:1003C000CCCDF8EFA4CEC5F02DFDE43CFCE8A42E86
:1003D000C8C5F03DFDE43CFCEFA4FFE5F028FEE4D9
:1003E0003DFDE43CFC22EF4E6012EF60010EEDBBE0
:1003F000010B89828A83F0A3DFFCDEFA2289F050A8
:1004000007F709DFFCA9F022BBFEFCF309DFFCA91A
:10041000F022BC000BBE0029EF8DF084FFADF0226E
:10042000E4CCF875F008EF2FFFEE33FEEC33FCEE72
:100430009DEC984005FCEE9DFE0FD5F0E9E4CEFD65
:1004400022EDF8F5F0EE8420D21CFEADF075F00838
:10045000EF2FFFED33FD4007985006D5F0F222C391
:1004600098FD0FD5F0EA22208A03020FCF900214E4
:10047000E07002A3E06003020FCF900171E0700210
:10048000A3E06003020FCF12114A6003020FCF9066
:100490000132E0703090011D120FE4FFAEF09001C8
:1004A0000B120FE4D39FE5F09E4003020FCF121012
:1004B0004AE490017DF0A3F01211B79002181211D6
:1004C000CEF5758003757500757614E4F5B2F5BA4E
:1004D000900181E0F55DA3E0F55EC209758D2043D2
:1004E0008D20758D8043AA08D2AF758B02758EAFB3
:1004F00020062412114A701F200C1CE5DB20E21795
:10050000758AC4200C0DE5DB20E208758703000026
:10051000008006D2098002D209758B11758A50536A
:10052000AAF7D3900213E09490900212E094014055
:100530000EA3E02470F0900212E034FEF08007E495
:10054000900212F0A3F0D390021FE0949090021E4C
:10055000E09401400EA3E02470F090021EE034FE0F
:10056000F08007E490021EF0A3F01229C590005518
:10057000E075F006A4902EC3F0A3E4F0A3F01210EF
:100580002153997F1208661210B3902EC0E030E21A
:10059000F9902EC0E4F0902E02E0F577A3E0F57814
:1005A0004389021210274380021210B0902EC0E03F
:1005B00030E2F91211E2F522A3E0F523E5782527D0
:1005C000FFE5773526FEC3EF9523F525EE9522F559
:1005D00024121194E5259FE5249E40048E248F2546
:1005E000902EC4E4F043998090016FE524F0A3E5D8
:1005F00025F0C3E55E9525FFE55D9524FE122C3DB3
:100600008E5F8F601211F54003020FA8AE24AF2554
:100610007C007D14120B991211FFAF74AE73AD7292
:10062000AC719002C4121007FBD3120B389002C4B5
:1006300040171210FC9574FFEE9573FEED9572FD58
:10064000EC9571FC1211FF8007120B68000000008E
:10065000E47F607EEAFDFC9002C4121007FBD31217
:100660000B38400A9002C4120B680000EA60120FB7
:10067000E1FFAEF07C007D09120B999002C41210CC
:10068000072FFFEA3EFEE93DFDE83CFC121178121F
:1006900011FF900132E07033AE5DAF5EFC7D091258
:1006A0001129E4FCFDEB2525FFEA35241210771211
:1006B00011788E5D8F5E9002C4120FF21210361206
:1006C00010E3120FFC121036020FA81210E3120FE3
:1006D000FC12103690010E120FE4FFAEF09002C42F
:1006E000121004FBD3120B385003020FB8120FD0B4
:1006F000121143FEC3EF957AEE95795003020FB8BD
:1007000090010B120FE4FFAEF07C007D02120B99FA
:10071000C8ECC8EDC0E0EEC0E0EFC0E0120FD012B0
:100720001143FEE4FCFDD0E0FBD0E0FAD0E0F9EBB1
:100730002FFFEA3E1210777B0312117A90010B1201
:100740000FFC1210A290010B120FE4D39430E5F0CD
:1007500094754008747575F030120A35900184E084
:10076000606612115B406190010B120FE41211439D
:10077000FE122C3D9002C8EEF0A3EFF090010B1298
:100780000FE4FFC312103E50199002C9E0941E906E
:1007900002C8E09400400B120FF9F9E475F005125D
:1007A00009FD900185E0602090010B120FE412100A
:1007B0003C4015D39002C9E094289002C8E0940010
:1007C0004006120FF91211EC20090D1211F5500814
:1007D00012114A7003020CBC900183E00412111143
:1007E0001210129001337401F0900216121181223E
:1007F00090010EE0FBA3E0FAA3E0F91209D2FFAEEC
:10080000F0900108E0FBA3E0FAA3E0F90209D2901E
:100810000134A3A3E0F9A3E0FF90010EE0FBA3E005
:10082000FAA3E022E4FCFDE0F8A3E0F9A3E0FAA3D8
:10083000E0227A0079667E007F0B7D007B00020B50
:10084000C643AB025389FD5395FD5396FD22A3F099
:10085000A37401F0A322C98FF0020A35D3FF9001DF
:1008600089E09F900188E095F0227F087A01793431
:100870007E007D007B01020BC6E50A25E02428F8F6
:10088000E6FE08E622A3F0A37403F0A374E8F022C6
:10089000F9EB2FFFEA35F0FEED39FDEC38FC22A331
:1008A000E0FEA3E0FBCAEECAE4F9F822902E427DF6
:1008B00014E0FEA3E0FF7C00020974F9E4F5F00205
:1008C0000A35F9EE8FF0020A35902EC07402F0223C
:1008D000122C28902EC07419F022E50D25E0247505
:1008E000F582E43401F583E0FEA3E0FF229002C626
:1008F000E0FEA3E0FF2290018AE0FCA3E0FDC3EF4D
:100900009DFF229002C4A3A3E0F9A3E0FF90010899
:10091000229002147402F0A37458F022E0FCA3E0C9
:10092000FDA3E0FEA3E022900186F0A3F0A3F0A3D4
:1009300022F07E007F057D007B007A007961020B4A
:10094000C6FFE5F0F0A3EFF022120B99C8ECC8C97E
:10095000EDC9CAEECACBEFCB22E4F50EF50DF50CCE
:10096000F50B22C39FFFE5F09E2290001BE0642060
:1009700022D3EF9414EE6480948022900188E0FEEC
:10098000A3E0FFD39400EE940022902ECAF0902EA4
:10099000C77401F0902EC4227B0AE4FAF9F8020A27
:1009A00090E4F0A374C8F022AB0EAA0DA90CA80B1A
:1009B000D3020B38E5272488FFE5263413FED32223
:1009C00090016FE56CF0A3E56DF02225E02428F896
:1009D000A60F08A61022E490021AF0A3F022F974E0
:1009E0006175F0A8020A3590003A7410F022F0A365
:1009F000F0900220F0A3F022FEEF2401FFE43EC3BA
:100A00001322902EC0E4F0902E1EE022F974FF75A0
:100A1000F0FB0209FDC3E5609576E55F95752290D0
:100A200002C4020B5C90018C121007FBE9C0E0EAE3
:100A3000C0E0EBC0E0900123120FE4FFE4FCFDD026
:100A4000E0FBD0E0FAD0E012107090018C120B5C49
:100A5000900191E004F07006900190E004F09001A4
:100A600092E07002A3E060030213CD90018C12109B
:100A7000FCFFEEC0E0EFC0E012107FD0E0FFD0E05E
:100A8000FE120A9090018C120B5C90018CA3A3E0E3
:100A9000FFA3E090018ACFF0A3EFF0A3120B680050
:100AA000000000E490019012110A74C8F090021244
:100AB000E07002A3E060030213CD900132E0700306
:100AC00002135F900186E0FEA3E0FF4E70229001CA
:100AD0008AE0FDA3E0900186CDF0A3EDF090010B3C
:100AE000120FE4FD900188E5F0F0A3EDF002134849
:100AF0001210D6EE9CFE122C3D900198120FFC12A3
:100B000010A2900184E07026900198120FE4C39423
:100B100012E5F09400500F90010B120FE4FF9001CA
:100B20008812112280209001847401F080189001B5
:100B300098120FE4C39402E5F094005009E41211F6
:100B400007F0900184F090018AE0FEA3E0FFD390CB
:100B50000187E09F900186E09E4007E4900185F0C8
:100B600080069001857401F0E4900194F0A3F09068
:100B7000019EF090019B120FFC12109B0213CD906E
:100B80000194E0FEA3E0FF4E701290018AE0FDA305
:100B9000E0900194CDF0ED12106580511210D6EE68
:100BA0009CFE122C3D90019B120FFC1210A2900192
:100BB00096E07002A3E0703590019B120FE4D3948D
:100BC00019E5F09400400C9001967413F0A374881A
:100BD000F0800BE490019EF0900196121068900155
:100BE0008AE0FFA3E0900194CFF0A3EFF0900132F0
:100BF000E07008121107F0900184F022120FD0FD6E
:100C0000ACF0D39FEC9E403490010E120FE4FFC372
:100C1000ED9FFFEC95F0FED3EF9430EE9475400D10
:100C20009002C67475F0A37430F002145F120FDBEB
:100C30001211439002C6F0A3EFF08043120FE1FFC0
:100C4000AEF090010E120FE4FDACF0C39FFFEC9EDE
:100C5000FED3EF9410EE9427400C9002C674D8F0A7
:100C6000A374F0F08012120FE1FFC3ED9FFEEC952C
:100C7000F09002C6F0A3CEF0E49002C6F0A3F0908C
:100C80000132E060501210CDD39400EE6480948065
:100C9000401A900120120FE4FDD3EF9DEE95F04035
:100CA0000B900218E4F0A37464F0801BD390021937
:100CB000E09400900218E09400400C90010B120F99
:100CC000E49002C6121121D20B90021E740FF0A301
:100CD00074A0F0800D90021C1210687A00795212F4
:100CE0001016D39002C7E094009002C6E06480948E
:100CF000805003021586E0F9A3E0FF90010B120F6C
:100D0000FC1210361210CDEE3395E0FDFCE47BB8FA
:100D10007A88F9F8C3120B22500A9002C67488F040
:100D2000A374B8F0D390021BE0940090021AE094F0
:100D300000500790001BE0B4201D1210CDC3949604
:100D4000EE648094805010EF9400EE6480948040B4
:100D5000257C007D0A801430001C1210CDC394A0A5
:100D6000EE6480948F500F7C007D321209869002D1
:100D7000C6EEF0A3EFF0900132E0600C90021CE0B0
:100D80007002A3E0700280009002C6E0F9A3E0FFC9
:100D9000900114120FFC121036900114120FE4246B
:100DA000A8FFE5F0801D90010B120FFC12109B9024
:100DB0000114120FFC12109B9002C7E024A8FF90B0
:100DC00002C6E03461F9900111120FFC12103622B4
:100DD0001210A9902EC4E4F0A3F053997FF50BF5FF
:100DE0000CF50DF50EF50A1208661210211210B35B
:100DF000902EC0E030E2F9902EC0E4F04389021258
:100E00001027438002902E02E0FEA3E0250CF50C93
:100E1000EE350BF50B1210B0902EC0E030E2F91257
:100E200011E2FEA3E0250EF50EEE350DF50D050AD7
:100E3000E50AC3940640B0439980902EC5E4F0E5DE
:100E400027240CFFE52634FEFED3EF950CEE950B20
:100E50004015900171E07002A3E0701290017104DE
:100E6000F0A374F4F08007E4900171F0A3F0E50CB6
:100E70002527FFE50B3526FEC3EF950EF510EE9501
:100E80000DF50F121194E5109FE50F9E40048E0F93
:100E90008F10900167E50FF0A3E510F090016BE56E
:100EA0000DF0A3E50EF0A3E50BF0A3E50CF0AF10F9
:100EB000AE0F12229890016FEEF0A3EFF090001B9E
:100EC000E0B4200312101290016FE0FEA3E0FFE4F3
:100ED000FCFDE5692FF569E5683EF568ED3567F5D8
:100EE00067EC3566F566056BE56B7002056AC3E570
:100EF0006F94E8E56E9403402AAE6AAF6BCBEFCBFC
:100F0000121085AF69AE68AD67AC66120A908E6C40
:100F10008F6DE4F569F568F567F566F56AF56BF5CB
:100F20006EF56FD3E56D9400E56C9400405390012D
:100F300070E0956DFF90016FE0956CFE9002CAF035
:100F4000A3EFF0D394F9EE6480947F4015E094070A
:100F50009002CAE06480948050081211A0E4F570F9
:100F6000801F9002CAE0FEA3E0FF122C3D12115137
:100F70004003757003E570C3940350051211A0057A
:100F80007090016FE0F550A3E0F55178287C007D6A
:100F9000007B007A00792A7E007F2802094E9001AA
:100FA00032E0700302181B12104A900216121068E9
:100FB000900184E0700302190612115B50030219BC
:100FC0000690010B120FE4121143FE122C3D900209
:100FD000C6EEF0A3EFF0D39496EE9400400CE490AC
:100FE0000184F0900186F0A3F022900185E060205A
:100FF00090010B120FE412103C4015D39002C7E091
:1010000094289002C6E094004006120FF91211ECE9
:1010100090010B120FE4C312103D40030219069019
:1010200002C7E0941E9002C6E09400500302190625
:10103000120FF9F9E475F0050209FD900134121060
:1010400007FBE9C0E0EAC0E0EBC0E0120FE1FFE41B
:10105000FCFDD0E0FBD0E0FAD0E01210709001343B
:10106000120B5C900139E004F07006900138E00446
:10107000F0900216E07002A3E060030219069001EE
:10108000341210FCFFEEC0E0EFC0E012107FD0E0A1
:10109000FFD0E0FE120A90900134120B5C90010E1A
:1010A000120FE4241EFFE435F0FE90013412100408
:1010B000FBD3120B38403F900212E07002A3E070A5
:1010C0003590019EE0702F200B2C90013BE004F046
:1010D000700690013AE004F0D390013BE094059053
:1010E000013AE09400401E120FEF121036E4900116
:1010F0003AF0A3F0800F120FEF121036E490013A8D
:10110000F0A3F0C20B900134120B6800000000E461
:10111000900138F0A3F090019EE090021660041256
:1011200011812212106822C0E0C083C082C0D0D2D8
:10113000AF900225E004F0D3900213E094009002F7
:1011400012E09400400CA3E024FFF0900212E0347F
:10115000FFF0D3900215E09400900214E094004058
:101160000CA3E024FFF0900214E034FFF0D39002CF
:1011700017E09400900216E09400400CA3E024FFD6
:10118000F0900216E034FFF0D3900219E094009042
:101190000218E09400400CA3E024FFF0900218E055
:1011A00034FFF0D390021BE0940090021AE0940008
:1011B000400CA3E024FFF090021AE034FFF0D3903B
:1011C0000223E09400900222E09400400CA3E0246B
:1011D000FFF0900222E034FFF0D3900221E094006F
:1011E000900220E09400400CA3E024FFF090022045
:1011F000E034FFF0D390021DE0940090021CE094D4
:1012000000400CA3E024FFF090021CE034FFF0C388
:10121000E56F94E8E56E94035008056FE56F700282
:10122000056EC3E55B94E8E55A94035008055BE559
:101230005B7002055AD3900193E09400900192E014
:101240009400400CA3E024FFF0900192E034FFF002
:10125000D3900197E09400900196E09400400CA395
:10126000E024FFF0900196E034FFF0D3900172E0AB
:101270009401900171E09400400CA3E024FFF090F1
:101280000171E034FFF0D390021FE0940090021E41
:10129000E09400400CA3E024FFF090021EE034FF35
:1012A000F0D0D0D082D083D0E0327E007FFF7D00AE
:1012B0007B017A007904120BC69002D67400F0A369
:1012C0007404F09001C57401F0A37400F0A374B825
:1012D000F09001CB7401F0A37400F074AC1229B249
:1012E0007400F0A37494F09001C87401F0A374002A
:1012F000F0A374C6F09001D17401F0A37400F074EF
:10130000D21229B27400F0A3741F1229B37401F031
:10131000A37402F0902DE0E493FF9002D6E0FCA3CA
:10132000E0FDF5828C83A3EFF0900002E0FFED2456
:101330000412298C900001E0FFED240512298C9005
:101340000003E0FFED240612298C902DE2E493FFC8
:10135000ED241212298C902DE3E493FFED24141256
:10136000298C9001DA7401F0A37400F0A3743CF0AE
:10137000E4FF75F002EFA42401F582E5F0342EF5C8
:1013800083E493FE74542FF582E43400F583EEF089
:10139000EF25E0242DF582E4342EF583E493FE124C
:1013A00029BAEEF01229BAE0FEEF25E0242CF582EE
:1013B000E4342EF583E49324C0F582E4342EF583DF
:1013C000EEF00FEFB416AB902F56E0900058F0906F
:1013D0002F56E090006EF0902F56E0900059F0905C
:1013E0002F56E090006FF09000FF7401F09000FE27
:1013F000F090003A7410F090001BF0900028F0A3D9
:101400007420F09002127413F0A37488F022121169
:1014100039F515F516852811852912852813852992
:1014200014F50A121059FFD3E5149FE5139E4007E7
:101430008E138F14850A16C3E5129FE5119E50077F
:101440008E118F12850A15050AE50AB414D5E4F544
:101450000FF510F50AE516650A602EE515650A60B8
:1014600028E510450F7010E50A25E02428F8E6F578
:101470000F08E6F51080121210592510FFE50F3EF7
:101480001211D8F50FEF13F510050AE50AB414C5CB
:10149000900181E50FF0A3E510F0E516C39411501B
:1014A00005E5161211ABE515C394115005E51512AB
:1014B00011AB121139F50A121059FFC3E5109FFF45
:1014C000E50F9EFE122C3DD3EF9419EE64809480BC
:1014D000400FE4FCFDE50E2510F50EE50D350F80FF
:1014E0000F121059FFE4FCFDE50E2FF50EE50D3E41
:1014F000F50DED350CF50CEC350BF50B050AE50A91
:10150000C3941440B2AF74AE73AD72AC7112118853
:10151000401AE50E9574F50EE50D9573F50DE50C85
:101520009572F50CE50B9571F50B8003121139E4FA
:101530007F607EEAFDFC121188400BE4750E607539
:101540000DEAF50CF50BAE0DAF0E2290017DE0FE1D
:10155000A3E0FFC39404EE9400502F900106E0FC3A
:10156000A3E0FDEF25E0FFEE33FE74752FF58274E6
:10157000013EF583ECF0A3EDF090017EE004F07005
:101580000690017DE004F0021DEB750D011210BA0A
:10159000E50D25E02473F582E43401F583EEF0A334
:1015A000EFF0050DE50DB404E4120FE1FF90010624
:1015B0001210D9E5F09CFE122C3DC3EF9428EE6486
:1015C0008094805037900132E0702390010E120F0A
:1015D000E4FFC3900107E09FFF900106E095F0FE55
:1015E000122C3DC3121152500590010E8003900140
:1015F00008120FE4FF90017BE5F0800B900106E0FC
:10160000FFA3E090017BCFF0A3EFF0E4F50CF50B26
:10161000F50AF509F50DD390017EE0950D90017D59
:10162000E09400401E1210BAE4FCFDE50C2FF50C0E
:10163000E50B3EF50BED350AF50AEC3509F5090524
:101640000D80D3AF0CAE0BAD0AAC09EEC0E0EFC01D
:10165000E090017D121080D0E0FFD0E0FE120A90F1
:101660008F0C8E0B8D0A8C0922C0E0C083C082C013
:10167000D0ECC0E0EDC0E0EEC0E0EFC0E0D2AFE5FE
:10168000DB30E419D20CC208E5DB30E102802E9099
:1016900002D5E5DFF09002D8E4F0021F47E5DB3029
:1016A000E50FD206300805C208021F47C20C021F10
:1016B00047C208E5DB30E13AE5DB30E0109002D9C3
:1016C000E0FF04F0122C12E0F5DF021F479002D970
:1016D000E0FFB40813208A10D28A9002D6E0FCA35F
:1016E000E02407122C18E4F0EF641A707AD2070293
:1016F0001F479002D8E0700EA3E5DFF09002D87487
:1017000001F0D20880619002D9E0902A3793FFB4AB
:10171000FF089002D5E5DFF08047EF640F70299055
:1017200002D9E0FFA3E0FCA3E0FD122C17E0540F68
:10173000F09002D9E0FF04F0ED122C17E0FFE5DF96
:1017400054F0FEEF4EF0801F9002D9E0FF122C12F1
:10175000E5DFF0EFB4240A9002147401F0A374F4EE
:10176000F09002D9E004F075DBFFD0E0FFD0E0FE9E
:10177000D0E0FDD0E0FCD0D0D082D083D0E0329059
:1017800002C8EFF09002CDE4F0A374FFF0E4A3F000
:10179000A3F0A304F0A374FFF0902EC07402F090A5
:1017A0002EC37408F0E49002C9F0A3F09002C9E0DF
:1017B000FEA3E0FFC39409EE9400400302204EEF25
:1017C0009407EE940040067E007F0180199002C9C4
:1017D000A3E004FFE47E01C8EFC8088006CEA2E7BC
:1017E00013CE13D8F8FF9002CBEEF0A3EFF0902EBB
:1017F000C07419F0902EC0E030E2F99002C8E0FF0A
:1018000075F002A424001229A1E0FCA3E0FD902EB3
:10181000C07402F0D3ED94FFEC940F40179002CB0C
:10182000E0FCA3E0FD75F002EF12299EEC8DF012B2
:1018300009BC80299002C8E075F00212299EC0837D
:10184000C082E0FEA3E0FF9002CBE0FCA3E0FDC37A
:10185000EF9DFFEE9CD082D083F0A3EFF09002CA00
:10186000E004F070069002C9E004F0021F8C7F00D3
:10187000227F997A0179061210509001087401F0C4
:10188000A37400F0744412102E7400F07446121009
:101890002E7400F0A3744812102F7400F0A3743259
:1018A00012102F7400F0A3742E12102F7400F0A3E6
:1018B000742CF09001237401F0A37400F0A374263B
:1018C000F09001987401F0A37400F0A374841210D6
:1018D0002F7400F0A37486F09001267401F0A374B5
:1018E00000F0A3741C12102F7400F0A37422F09067
:1018F000011A7401F0A37400F0A3743612102F744F
:1019000000F0A3742A12102F7400F0A37438F0753D
:101910007900757AC890011A120FFCF9E579857A79
:10192000F0120A3590011D120FFCF9E475F06412F3
:101930000A35900120120FFCF9E475F096020A3581
:10194000122B1F902E42E0FEA3E024BBFFEE34FEDC
:10195000FE121151400A902E427401F0A37445F01A
:1019600012102153997F1229C51208661210A990EE
:101970002EC314F01210B3902EC0E030E2F9902E76
:10198000C0E4F0902E027D121210918E268F277DDA
:1019900014120B99EF24E0F574EE34B1F573ED34C5
:1019A000FFF572EC34FFF571438902121027438072
:1019B0000243998053997F122C28902E5EE4F0A365
:1019C00074FFF07F0F121F5F902E5EE0FEA3E0D346
:1019D00094F0EE94014007902E5EE4F0A3F0902E78
:1019E000C4E4F0439980A3F0900105E0900021F059
:1019F00012108C900126120FFCF9EE8FF0020A35BE
:101A00009002C6EEF0A3EF1211119002C6E0700230
:101A1000A3E060031221201226B8E490017DF0A318
:101A2000F07F14122A6D9002147402F07458121090
:101A300065900106E0F9A3E0FFA3120FFC12103637
:101A400090010B120FFC12109B900111120FFC124F
:101A500011BE900114120FFC12109B900117120F6F
:101A6000FC1211BE1211C7E4900132F09001341241
:101A70000B6800000000E490013812110AF0900198
:101A800006120FF4121036E4900133F09002221285
:101A900011CE90021EF0A3F0FE7F14FD7B017A01AF
:101AA0007984120BC6900123120FE490018A12115F
:101AB00021900192121181229002CCEEF0A3EFF05E
:101AC000E5644563700C9002CCE0F563A3E0F56437
:101AD00080169002CDE02564FF9002CCE0356312C1
:101AE00011D8F563EF13F5640565E565D3940A40F5
:101AF0000D856361856462E4F563F564F565D3E59E
:101B0000629400E5619400405C9002CDE09562FF34
:101B10009002CCE09561FE122C3DC3EF940AEE6476
:101B20008094805028AE61AF627C007D0312112941
:101B30009002CCE0FEA3E0FFE4FCFDEB2FFFEA3EC9
:101B40001210777802120B499002CC80139002CDCC
:101B5000E02562FF9002CCE03561C313FEEF13FF76
:101B6000EEF0A3EFF09002CCE0FEA3E0FF22022A09
:101B7000C8E493A3F8E493A34003F68001F208DFDE
:101B8000F48029E493A3F85407240CC8C333C45445
:101B90000F4420C8834004F456800146F6DFE480F9
:101BA0000B010204081020408090253EE47E019342
:101BB00060BCA3FF543F30E509541FFEE493A360CB
:101BC000010ECF54C025E060A840B8E493A3FAE426
:101BD00093A3F8E493A3C8C582C8CAC583CAF0A377
:101BE000C8C582C8CAC583CADFE9DEE780BE300047
:101BF0000875791B757A588006757900757AC890D2
:101C0000010B120FE4FFAEF0C3957AEE95795015F3
:101C1000900132E06020900120120FE4FDC3EF9D9F
:101C2000EE95F0401190021AE07002A3E070279048
:101C3000013204F0802090001BE0B420051211B6A0
:101C4000800690021A121181E4900132F09002187D
:101C5000F0A3F01211C7900132E06011900028E06B
:101C600090003AB410047410F0227420F022900214
:101C70002FE014601B1460432402705D900239E071
:101C8000B4010A90022F1224BAD205D200C2032254
:101C90007F021228CFEF60077F02122C49C2059005
:101CA0000239E0703490022F7402F0D203C205C2F0
:101CB000007F03122C497F0302276A7F031228CF7B
:101CC000EF60167F03122C49900239E090022F70CA
:101CD00003F080031224BAC203227401F07F0212BF
:101CE0002C497F0212276A22CDEFCD43AD105399C4
:101CF000EF439A10539BEF902EC07402F0147E00B5
:101D0000C8EDC8088005C333CE33CED8F9FF902E76
:101D1000C4EEF0A3EFF0902EC8EEF0A3EFF0741035
:101D2000122B7B902EC0E030E2F9902EC0E4F074CC
:101D300002F07420122B7B902EC0E030E2F9902E3E
:101D400000E0FEA3E0FF902EC4E4F0A3F0902EC0CC
:101D5000F0439910539AEF539BEF5390EF22C10C2D
:101D60004102330041023400410230004102380098
:101D7000C102C101C1044102390041022F00C10367
:101D8000C100C1054102D8004102D9004202D3007E
:101D900000C106C108C1074102D51041010300413D
:101DA000010510C10BC10A41019F00022600000479
:101DB00071000000004101041041023A000090024D
:101DC000C47408F0A3E4F0A3743FF0A374DFF0E45C
:101DD000FDFCF9758A10538AEF009002C4E0FEA35F
:101DE000E02DF582EE3CF583E493FF69F90DBD002B
:101DF000010CBC37E5BDDFE29002C6122C1FE49354
:101E0000699002D67009122C1FA37409F080061283
:101E10002C1FA3E4F0758A50538AEF0022200A0693
:101E2000200303300509E4FFFE1221E0C20A2290DC
:101E30000220E07002A3E0600512114A703A20000F
:101E4000031229FE1226B87F01122A6D121D2B9053
:101E500002C4EEF0A3EFF07B017A0279C4122803EA
:101E60009002C41210E8120FFC1210361213DC128A
:101E700023CE12120512177E12295122900211E070
:101E800024FE601314602314602724037049900219
:101E9000117402F0122C587F017E001221E0900292
:101EA000117403F0E4900230F0229002117404F0F7
:101EB0002212244E1227BB12244E900171E07004AE
:101EC000A3E06401700C900171F0A3F09002117412
:101ED00002F0E4900225F0224389025395FD5396C7
:101EE000FD438002122BB57F0C1224C8CAEECACB68
:101EF000EFCB7F0C1224C8EF2BFFEE3A9002C9F013
:101F0000A3EFF0122B87F91209D245F07006122BBD
:101F10006CEE80181209D2FBAAF0122B6CEF2BFF8B
:101F2000EE3AC313F9EF13FF122B87C98FF0120A91
:101F300035221229AAF5828E83A3E0B4AA031225C2
:101F40009E1229AAFF122995E0B41008EF122995D4
:101F5000E4F0D20A1229AAFF241B122997E0700D7F
:101F6000EF241C122997E0B4100312284A1229AA60
:101F70002413122997E0FFB410069002397401F07F
:101F8000EFB42005E4900239F0229002C4EFF0E0B3
:101F900024BB122B95E060037F01229002C4E0FF76
:101FA00024BB122B957401F0EF122B9DE493FE7469
:101FB0000193FFE4FCFD902F60E0F8A3E0F9A3E0BB
:101FC000FAA3E02FFFEA3EFEED39EC389002C4E0C0
:101FD000122BA9EEF0A3EFF07F002212114A702914
:101FE00090019FE070031210F190019F7401F09036
:101FF0000029E0B420081225FD120C478003122AA4
:102000009B9002247401F08017E490019FF09000EF
:1020100029E0B420031225FD900224E06002E4F0E0
:10202000022BD89002C6EBF0A3EAF0A3E9F09002ED
:1020300014E07002A3E07031900133E0602BE49073
:102040000133F01226B81210F17508017F01122A2F
:102050006D121D2B9002C6120FFC1210A20508E58E
:1020600008C3941440E61211B62212082EE4F5F2C9
:1020700075F30875EEFF75EF3F75EA81F5F675EBC0
:102080000700E5EC30E7FBE4F5EC9002D6E0FEA3B8
:10209000E0FF241BF582E43EF583E5F3F0EF241C1A
:1020A000F582E43EF583E5F2F075EB3022758B1195
:1020B000902F647440F0E4FEE4FFEF75F003A42475
:1020C0004DF582E43402F583E5822EF582E4358312
:1020D000F583E4F00FEFB40AE10EEEB403DA7F0902
:1020E0009002BBE4F0A3DFFC902F647480F022CB5D
:1020F000EFCB122B92E06036902F60A3A3E0FEA3FB
:10210000E0FFEB122BA9E0FCA3E0FDD39FEC9E5077
:102110001DC3EF9DFFEE9CFEEB122B9DC37401933C
:102120009FE4939E4008122B92E4F07F01227F00EF
:1021300022758A50538AEF9000027411F0900001CA
:102140007422F09000037433F0E4F5AB75AC1DF528
:10215000ADF5AF7589FF75913F7599FFF59675934C
:102160001CF59BF595F592F59A5388FCD28AD20D11
:102170002290003AE0FC900104E06C602E90003A5E
:10218000E0FE900104F090000BE0900238F0540F54
:10219000F0EEB42005E04420800AECB4100B90026D
:1021A00038E04410F090000BF0C28A22F582E43C43
:1021B000F583EFF022241AF582E43EF58322A4246D
:1021C00040F582E5F0342EF583229002D6E0FEA39E
:1021D000E022A3F0A37401F0A322746A2FF582E435
:1021E0003400F583221210A9902EC4E4F0A3F0FF6E
:1021F00074542FF582E43400F583E0FE75F002EFAD
:10220000A42400F582E5F0342EF583E49324C0F590
:1022100082E4342EF583EEF00FEFB416D3223007AC
:1022200035C207902E42E0FFA3E09002C6CFF0A394
:10223000EFF0122B1F12108C900126120FFC1210BF
:10224000A21210A99002C6E0FFA3E0902E42CFF0A8
:10225000A3EFF01210F12200000000FFFFFFFF00CB
:1022600000FFFFFFFFFFFFFFFFFF00FF000000FF79
:10227000FF000000FFFFFFFFFFFFFF00000000FF67
:10228000FFFFFFFFFFFFFFFFFF000000009002C9FC
:10229000EFF01229C5E4F5099002C9E0FFE509C392
:1022A0009F50071215B0050980EE902EC0E4F01281
:1022B0001BEE900106EEF0A3EFF022E4F5B2F5BAC2
:1022C000758D20438D20538D7F53AAF7F58BE5DB69
:1022D00020E211200C0EE4F58A75870300000075DA
:1022E0008A50D20A758B112212084E53A87F1229E8
:1022F0001112081E122AF443A880122C529000FFDB
:10230000E060069002117401F0122BF612271212EF
:10231000265C80F59002D6E0FFA3E09002DACFF0D1
:10232000A3EFF0E4F5DA75DA4043DA2075D74075AB
:10233000DA5875D90143A90875B80875F80822124A
:10234000102153997F1229C5902E42E4F0A374FF07
:10235000F01208667F01121F5F43890212102743A3
:1023600080024399802201F40028002801F400969D
:1023700003E801F403E81770006403E80032025830
:102380000258012C01F403E8271000C89002C9E0AC
:10239000FEA3E0FF7C007D14020974902EC2F09031
:1023A0002EC0E04419F022900123E0FBA3E0FAA341
:1023B000E02274BB2BF582E43402F5832225E0246D
:1023C0005AF582E4342BF5832225E0243BF582E4A0
:1023D0003402F58322902EC07402F0902EC77474DC
:1023E000F0902ECD74C0F0A374FFF0A3F0902EC334
:1023F0007401F0902ECAF022E5B230E005E5AA2083
:10240000E013E4900226F075B28E75B6F9F5B74385
:10241000B20143AA0122E4FF3006169002D6E0FC86
:10242000A3E0F5828C83E0FE54F0FFEE540FF0C27F
:102430000622A3E0FCA3E02FF582E43CF58322E032
:10244000FEA3E0F5828E83221210A9902EC2741290
:10245000F0740912116A7480F0A3E4F022EE30E700
:1024600007C3E49FFFE49EFE2274BB2F122B95E46A
:10247000F022122C6202288D1211C722D2AF32D262
:10248000AF32022BD8000000000000000000000066
:10249000000000000000000000000000000000003C
:1024A000000000000000000000000000000000002C
:1024B000000000000000000000000000000000001C
:1024C000000000000000000000000000000000000C
:1024D00000000000000000000000000000000000FC
:1024E00000000000000000000000000000000000EC
:1024F00000000000000000000000000000000000DC
:1025000000000000000000000000000000000000CB
:1025100000000000000000000000000000000000BB
:1025200000000000000000000000000000000000AB
:10253000000000000000000000000000000000009B
:10254000000000000000000000000000000000008B
:10255000000000000000000000000000000000007B
:10256000000000000000000000000000000000006B
:10257000000000000000000000000000000000005B
:10258000000000000000000000000000000000004B
:10259000000000000000000000000000000000003B
:1025A000000000000000000000000000000000002B
:1025B000000000000000000000000000000000001B
:1025C000000000000000000000000000000000000B
:1025D00000000000000000000000000000000000FB
:1025E00000000000000000000000000000000000EB
:1025F00000000000000000000000000000000000DB
:102600000903AB61000000000000000000000000B2
:1026100000000000000000000000000000000000BA
:10262000021203030A0F0DA00EB60FFF0C020BFFE0
:1026300023F724062504070127082A0828022B026D
:1026400029032C032D082E082F0426080211030647
:102650000A100D400E800FFF0C020BFF23F4240420
:102660002504070127102A1028042B0429032C0312
:102670002D202E202F10262000000000000000003A
:10268000000000000000000000000000000000004A
:10269000000000000000000000000000000000003A
:1026A000000000000000000000000000000000002A
:1026B000000000000000000000000000000000001A
:1037F0000000000000000000000000000000006A5F
:1038000000000000000000000000000000000000B8
:1038100000000000000000000000000000000000A8
:00000001FF
