:1007E00000360000000100001FB6000000000000FD
:1007F00000000000000000000000000000000000F9
:10080000022A1512129622D2AF320002219AD2AFDA
:100810003200000230CF0231D00000020807000091
:10082000000000021D44000000000002080E120F2C
:10083000B8FDACF0D39FEC9E40329001B5120FCCC6
:100840001212A4D3EF9430EE9475400C90026D74A4
:1008500075F0A37430F0800D120FC31211B2900224
:100860006DF0A3EFF0E49002350208D5120FC9FF36
:10087000AEF09001B5120FCCFDACF0C39FFFEC9E23
:10088000FED3EF9410EE9427400890026D121204EC
:100890008012120FC9FFC3ED9FFEEC95F090026D20
:1008A000F0A3CEF090026DE0FFA3E0900235CFF010
:1008B000A3EFF0300014D3E0942C900235E09401C3
:1008C000400F9002371212048007E4900237F0A321
:1008D000F0E490026DF0A3F09001D0E0606E121091
:1008E00073C394E8EE6480948350159001B2120FA4
:1008F000CCC394B8E5F0940B50069002147420F029
:10090000D31211B9401D9001A312110A90026EE09A
:100910009F90026DE09E400B900248E4F0A3746447
:10092000F0801BD3900249E09400900248E09400CC
:10093000400C9001B2120FCC90026D121118D20A25
:1009400090024E740FF0A374A0F0800F9002147404
:10095000201211627A00793E121000121073D31225
:1009600011BA5003020BBE9001B2120FE412111122
:10097000C390026EE094C890026DE0648094805051
:1009800007E4900218F0A3F0900218E0FEA3E0FF45
:1009900090026EE02FF090026DE03EF0E0FEA3E0EA
:1009A000FF1212B8E47BB87A88F9F8C31214F35036
:1009B0000A90026D7488F0A374B8F0D390024BE0F3
:1009C000940090024AE09400500790001BE0B4208D
:1009D00018121073C39496EE64809480500B121119
:1009E000B9404F7C007D0A80103000469001D0E075
:1009F000700D1210737C027DBC12124FF080339088
:100A000001A3E0FCA3E0FD121073C39DEE9C5022F5
:100A10007C027DBC12124F1211627E007F0B7D00A2
:100A20007B007A00793E1215AA12120C120FE41202
:100A300010899001D0E07003020BA090024CE0708E
:100A400002A3E06003020BA01210731212B8E5417A
:100A50002FF541E5403EF540E53F3DF53FE53E3CA5
:100A6000F53E0543E54370020542C3E54794D0E5F2
:100A70004694075003020B44AE42AF43CBEFCB1278
:100A800010AFAF41AE40AD3FAC3E12146190026F6B
:100A9000EEF0A3EFF0C3E5459FFFE5449EFE123262
:100AA00060900271EEF0A3EFF0D39464EE940050E6
:100AB00006E5454544700D90026FE0F544A3E0F56E
:100AC00045020B33D3900270E0954590026FE0959C
:100AD00044402D1211079450EE9400400474148089
:100AE00018D3EF943CEE94004004740A800BD3EFCB
:100AF0009428EE9400403C74052545F545E4802F8C
:100B00001211079450EE9400400774EC1212BF804B
:100B10001ED3EF943CEE9400400774F61212BF808F
:100B20000ED3EF9428EE9400400974FB1212BF35E7
:100B300044F544E4F541F540F53FF53EF542F54313
:100B4000F546F547D3E5459400E544940040281266
:100B50000BE89001F9EEF0A3EFF0C3120BE81212CC
:100B6000AE500812125AE4F548800CE548C39407C9
:100B7000500512125A0548E5DB20E2359001BB1200
:100B80000FCC7D0F12119790026D1210191212B82E
:100B9000EB7B1012108F9001BB120FE4F9EE800C6A
:100BA000E5DB20E20C12120C120FE4C98FF01214D4
:100BB000069001BB120FCC24A8FFE5F0801D900128
:100BC000B2120FE41211419001BB120FE412114155
:100BD00090026EE024A8FF90026DE03461F990016C
:100BE000B8120FE41210892290026EE09545FF9032
:100BF000026DE09544FE12326022208A03020FB794
:100C0000900244E07002A3E06003020FB79002423A
:100C1000E07002A3E06003020FB7900201E07002EF
:100C2000A3E06003020FB71211DC6003020FB7905C
:100C300001D0E070369001C4120FCCFFAEF09001ED
:100C4000B2120FCCD39FE5F09E4003020FB71210F3
:100C5000C2E490020DF0A3F0121266900248F0A3D5
:100C6000F0900252F0A3F0F564800375640075659E
:100C70001EE4F5B2123002900211E0F549A3E0F54E
:100C80004AC208758D20438D20758D8043A808D2F7
:100C9000AF758B02758EC82005241211DC701F20E1
:100CA0000B1CE5DB20E217758AC4200B0DE5DB2069
:100CB000E2087587030000008006D2088002D2088F
:100CC000758B11758A5053A8F7D3900243E0949026
:100CD000900242E09401400EA3E02470F0900242A2
:100CE000E034FEF08007E4900242F0A3F0D39002DB
:100CF0004FE0949090024EE09401400EA3E02470E7
:100D0000F090024EE034FEF08007E490024EF0A333
:100D1000F0123002121189FB1228EF0BEBB401F82C
:100D20009001A7E0F566A3E0F5679001ABE0F5223E
:100D3000A3E0F523E5672527FFE5663526FEC3EF2B
:100D40009523F525EE9522F524E5272488FFE52651
:100D50003413FED3E5259FE5249E40048E248F2581
:100D6000902E23E4F043890A1210825380F54389C0
:100D7000029001F7E524F0A3E525F0C3E54A9525A7
:100D8000FFE5499524FE1232608E4B8F4C1212E023
:100D90004003020F7BAE24AF257C007D0A12157D37
:100DA0001212EAAF63AE62AD61AC6090026B1210DA
:100DB0000EFBD312150990026B40171210D19563E8
:100DC000FFEE9562FEED9561FDEC9560FC1212EA76
:100DD000800712154C00000000E47F607EEAFDFCF5
:100DE00090026B12100EFBD3121509400A90026B91
:100DF00012154C0000EA60120FC97D09121197907C
:100E0000026B12100E7B0A12108F1212EA9001D0A0
:100E1000E07042AE49AF4AFC7D0912157DC8ECC8AE
:100E2000C9EDC9CAEECACBEFCBE4FCFDEB2525FF2B
:100E3000EA3524121038E47B0A12109B8E498F4A3F
:100E400090026B120FDA121089121133120FE41292
:100E50001089020F7B121133120FE41210899001D6
:100E6000B5120FCCFFAEF090026B12100BFBD31239
:100E700015095003020F8B120FB81211B2FE121295
:100E8000184003020F8B9001B2120FCCFFAEF07C22
:100E9000007D0212157DC8ECC8EDC0E0EEC0E0EFA9
:100EA000C0E0120FB81211B2FEE4FCFDD0E0FBD09E
:100EB000E0FAD0E0F9121033E47B0312109B9001AA
:100EC000B2120FE41211119001B2120FCCD3943070
:100ED000E5F094754008747575F0301214069002B0
:100EE0001BE0605ED3900220E0940090021FE0942B
:100EF00000404F9001B2120FCC90021F1210F3E588
:100F0000F09CFE12326090026FEEF0A3EFF09001C1
:100F1000B2120FCC12106550101211E3400B120FD9
:100F2000E1F9E475F0071213CE9001B2120FCCFF75
:100F3000D3121067400CD31211E34006120FE112D6
:100F400012C6900215E0D3940040301211CF502BFE
:100F50009001B5120FCCFF90023CE0244612116EB6
:100F6000120FC9D39FE5F09E400E120FE175F014E9
:100F70001212D624141211201212CF20080D1212B0
:100F8000E050081211DC7003020C8390021AE00496
:100F9000120FECE49001F312105EF0900223121590
:100FA0004C0000000012105A74C8F09001D1740176
:100FB000F090024612119F229001B5E0FBA3E0FAE7
:100FC000A3E0F91213A3FFAEF09001AFE0FBA3E0A2
:100FD000FAA3E0F90213A39001D2A3A3E0F9A3E0DE
:100FE000FF9001B5E0FBA3E0FAA3E022F07E007FD2
:100FF000077D007B007A00794D1215AA7A0079549A
:101000007E007F0B7D007B000215AAE4FCFDE0F86A
:10101000A3E0F9A3E0FAA3E022C8ECC8C9EDC9CA6D
:10102000EECACBEFCBE0FEA3E0FF22E0FEA3E0FFA1
:10103000E4FCFDEB2FFFEA3EFEED39FDEC38FC222F
:10104000CBEFCBCAEECAE0FEA3E0FFEB2FFFEA3EF8
:10105000FEE433FDE433FC780122900227E4F0A3A0
:10106000F0A3F0A322C3FF900220E09F90021FE0B4
:1010700095F02290026DE0FEA3E0FF2243AB0A53FD
:1010800089F55395F55396F522C98FF00214062F72
:10109000FFEA3EFEE93DFDE83CFCE4FAF9F8021403
:1010A00061A3F0A37401F0A322A3E0FEA3E0FBCAB6
:1010B000EECAE4F9F822F09002447402F0A37458E6
:1010C000F0227F087A0179D27E007D007B01021533
:1010D000AAE0FCA3E0FDA3E0FEA3E022902E12E034
:1010E000FEA3E0FF7C007D0A1212F0EF245CFFEE0D
:1010F000341222FFE0FCA3E0FDC3EF9DFF22E508D0
:1011000025E02428F8E622900271E0FEA3E0FFD358
:1011100022F9EE8FF0021406FFE5F0F0A3EFF022C3
:10112000F0900216E03400F0E0FFA3E0A3CFF0A3BC
:10113000EFF02290026BA3A3E0F9A3E0FF9001AFD0
:1011400022F9E4F5F0021406902E247401F0902E9A
:1011500027740FF0902E2322E4F50CF50BF50AF519
:101160000922F090024C7403F0A374E8F022FD9081
:10117000023BE03400FCED2FFFEC35F0FE22900244
:10118000467402F0A374BCF022E49001A7F0A3F02F
:101190009001ABF0A3F022FFAEF07C0002157DE4DD
:1011A000F0A374C8F022AB0CAA0BA90AA809D302B9
:1011B0001509C39FFFE5F09E22EF9400EE64809432
:1011C000802290026EE0940A90026DE094002290DA
:1011D0000217E094C8900216E094002290001BE0F1
:1011E000642022900270E0940A90026FE094002242
:1011F000902E12E0FEA3E02225E02405F582E434DF
:1012000002F583227427F0A37410F02290026DE09F
:10121000F9A3E0FF9001BB22D390023CE09F900233
:101220003BE09E22E03CF0902E20E4F00FEF22E025
:10123000FEA3E0FF7C000212F09001F7E55AF0A354
:10124000E55BF02225E02428F8A60D08A60E221260
:10125000135790026DEEF0A3EF2290026DE544F07B
:10126000A3E545F022E490024AF0A3F02290022088
:10127000E09D90021FE09C2290026EE09F90026D24
:10128000E09E229001A3E4F0A37496F022F9746129
:1012900075F0A802140690003A7410F022902E20E7
:1012A0007409F022FFC3ED9FFFEC95F0FE22C3EF1F
:1012B0009464EE6480948022EE3395E0FDFC222558
:1012C00045F54574FF22F974FF75F0F90213CE90CD
:1012D00002157464F022F9E41213CE900217E02292
:1012E000C3E54C9565E54B95642290026B02154071
:1012F000EF8DF0A4A8F0CF8CF0A428CE8DF0A42E12
:10130000FE22BC000BBE0029EF8DF084FFADF02261
:10131000E4CCF875F008EF2FFFEE33FEEC33FCEE73
:101320009DEC984005FCEE9DFE0FD5F0E9E4CEFD66
:1013300022EDF8F5F0EE8420D21CFEADF075F00839
:10134000EF2FFFED33FD4007985006D5F0F222C392
:1013500098FD0FD5F0EA22C2D5EC30E709B2D5E40A
:10136000C39DFDE49CFCEE30E715B2D5E4C39FFFBE
:10137000E49EFE121302C3E49DFDE49CFC80031274
:10138000130230D507C3E49FFFE49EFE22C5F0F8A8
:10139000A3E028F0C5F0F8E582158270021583E01D
:1013A00038F022BB010A89828A83E0F5F0A3E022AB
:1013B000500687F009E71922BBFE07E3F5F009E3C1
:1013C000192289828A83E493F5F074019322BB0188
:1013D0000789828A8302138D500B09C5F027F7C550
:1013E000F01937F722BBFE0D09F8E325F0F3C5F03D
:1013F00019E338F322F889828A8374019325F0C5B2
:10140000F0F8E4933822BB010A89828A83F0E5F080
:10141000A3F0225006F709A7F01922BBFE06F3E558
:10142000F009F3192275F008758200EF2FFFEE33F3
:10143000FECD33CDCC33CCC58233C5829BED9AEC47
:1014400099E58298400CF582EE9BFEED9AFDEC99B1
:10145000FC0FD5F0D6E4CEFBE4CDFAE4CCF9A882BB
:1014600022B800C1B90059BA002DEC8BF084CFCE60
:10147000CDFCE5F0CBF97818EF2FFFEE33FEED331E
:10148000FDEC33FCEB33FB10D703994004EB99FBE5
:101490000FD8E5E4F9FA227818EF2FFFEE33FEEDCE
:1014A00033FDEC33FCC933C910D7059BE99A4007DB
:1014B000EC9BFCE99AF90FD8E0E4C9FAE4CCFB22F2
:1014C00075F010EF2FFFEE33FEED33FDCC33CCC8BB
:1014D00033C810D7079BEC9AE899400AED9BFDECC6
:1014E0009AFCE899F80FD5F0DAE4CDFBE4CCFAE405
:1014F000C8F922EB9FF5F0EA9E42F0E99D42F0EC3C
:101500006480C864809845F022EB9FF5F0EA9E4223
:10151000F0E99D42F0E89C45F022E8600FECC3132F
:10152000FCED13FDEE13FEEF13FFD8F122E8600F80
:10153000EFC333FFEE33FEED33FDEC33FCD8F12285
:10154000ECF0A3EDF0A3EEF0A3EFF022A8828583E8
:10155000F0D083D082121563121563121563121531
:1015600063E473E493A3C583C5F0C583C8C582C88B
:10157000F0A3C583C5F0C583C8C582C822EC8EF030
:10158000A4CCC5F0CCCDF8EFA4CEC5F02DFDE43C45
:10159000FCE8A42EC8C5F03DFDE43CFCEFA4FFE54B
:1015A000F028FEE43DFDE43CFC22EF4E6012EF60CB
:1015B000010EEDBB010B89828A83F0A3DFFCDEFA0A
:1015C0002289F05007F709DFFCA9F022BBFEFCF3EB
:1015D00009DFFCA9F022121189900273F01228EFA2
:1015E000900273E004F0E0C3940140F1E527240C7D
:1015F000FFE52634FEFEC39001A8E09F9001A7E01E
:101600009E5015900201E07002A3E070129002015A
:1016100004F0A374F4F08007E4900201F0A3F090CA
:1016200001F312110A9400EE9400402D9001AB12C8
:10163000104012151A9001ABEEF0A3EFF09001F5F7
:10164000E0FEA3E0FBCAEECA9001A71210461215F5
:101650001A9001A7EEF0A3EFF09001A8E02527FF74
:101660009001A7E03526FE9001AB1210F4EE9CFE2F
:10167000900274F0A3EFF0E5272488FBE5263413ED
:10168000FAD3EF9BEE9A4008900274EAF0A3EBF0D5
:10169000900274E0FFA3E09001F1CFF0A3EFF0A37C
:1016A000ECF0A3EDF09001A7E0FFA3E09001F5CFEF
:1016B000F0A3EFF0D39001FEE094009001FDE094E0
:1016C00000406D9001D0E0600F9001B2120FCCC3CA
:1016D00094A0E5F0940F5009E49001FBF0A3F08092
:1016E0004FD39001FCE094009001FBE09400402C6B
:1016F0009001FDE0FEA3E0FF12188ACAEECACBEF0C
:10170000CB9001FB7D0312122FEB2FFFEA3EFEEF81
:101710007802CEC313CE13D8F9FF800C9001FDE000
:10172000FEA3E0FFC312188A9001FBEEF0A3EFF0D6
:10173000D39001FCE0940A9001FBE094009001FF3B
:1017400040097428F0A37446F080077407F0A3746E
:101750000FF09001F1E0FFA3E09001FDCFF0A3EFC7
:10176000F0900274E0FEA3E0FF1225519001F7EE25
:10177000F0A3EFF090001BE0B42003120FFC9001E7
:10178000F7E0FEA3E0FFE4FCFDE5572FF557E55633
:101790003EF556ED3555F555EC3554F5540559E5FE
:1017A0005970020558C3E55D94E8E55C9403402A4E
:1017B000AE58AF59CBEFCB1210AFAF57AE56AD55B9
:1017C000AC541214618E5A8F5BE4F557F556F555FB
:1017D000F554F558F559F55CF55DD3E55B9400E5F6
:1017E0005A940040749001F8E0955BFF9001F7E097
:1017F000955AFE900276F0A3EFF09001FFE0FDFB1A
:10180000C3E49BFBE49400FAD3EF9BEA6480F8EE18
:10181000648098401BEDFF900277E09F7480F89001
:101820000276E06480985008121239E4F55E80294F
:10183000900276E0FEA3E0FF123260900200E0FD2D
:10184000D3EF9D7480F86E984003755E03E55EC328
:1018500094035005121239055E9001F7E0F53CA3A0
:10186000E0F53D9002737401F0900273E0FF1211F5
:1018700000FC08E6FDEF25E02426F8C6ECC608C605
:10188000EDC6E004F0E0B40BE0229001F2E09FFF2F
:101890009001F1E09EFE1232602290022312100E9F
:1018A000FB90010D12102B9002231215409002287C
:1018B000E004F07006900227E004F0900229E07046
:1018C00002A3E06003021B5D9002231210D1FFEE21
:1018D000C0E0EFC0E01210A9D0E0FFD0E0FE12148B
:1018E00061900223121540900223A3A3E0FFA3E01E
:1018F000900221CFF0A3EFF0A312154C00000000DE
:1019000012105A74C8F0900242E07002A3E0600323
:10191000021B5D90022BE07002A3E06003021B5DDE
:101920009001D0E070030219D390021DE0FEA3E005
:10193000FF4E7022900221E0FDA3E090021DCDF049
:10194000A3EDF09001B2120FCCFD90021FE5F0F074
:10195000A3EDF0021A029002211210F4EE9CFE1286
:101960003260900231120FE412111190021BE070EC
:1019700026900231120FCCC3940FE5F09400500F63
:101980009001B2120FCCFF90021F12111980239008
:10199000021B7401F0801B900231120FCCC3940221
:1019A000E5F09400500CE490021D12105EF09002DD
:1019B0001BF090022112110A90021EE09F90021D5E
:1019C000E09E4007E490021CF0803790021C7401F6
:1019D000F0802FE490021D12105EF090021BF09038
:1019E000022DE07002A3E0700280109001B2120F8D
:1019F000CCC39496E5F094005008E490022D1210A8
:101A00005EF090021BE07003021B5D90021F12113A
:101A10000A9400EE94005003021B5D9001B2120F75
:101A2000CC1211B2FE12326090026DEEF0A3EFF014
:101A3000A3E4F0A37464F09001B2120FCCFDACF0FB
:101A4000D312126D401090026FE013FEA3E013FF5B
:101A5000D31212785013C312126D503490026FE0FB
:101A6000FEA3E0FF1212784027E490021BF09002E0
:101A70001DF0A3F09001B2120FCC12106590022B52
:101A800074015006F0A3742CF022F0A37490F0229D
:101A90009001B2120FCCD31210665003021B3CD33C
:101AA0001211C25003021B3C90021CE0640160034F
:101AB000021B3C120FE11212C6D3900230E0942CAC
:101AC00090022FE09401407490022EE02407F090E1
:101AD000022DE03400F02000639001B2120FCCFF21
:101AE000C374B89F740B95F0505290022EE024C836
:101AF000FF90022DE03400FE9001A3F0A3EFF0C3AD
:101B000094E8EE940340159001A37D0912122FEF83
:101B10007803CEC313CE13D8F9FF80189001A3E049
:101B2000FEA3E07802C333CE33CED8F9FF7C007D2C
:101B30000312130290023BEEF0A3EFF09001B212F9
:101B40000FCC12106550161211C2401190021CE009
:101B5000700B120FE1F9E475F0071213CE22900218
:101B60000DE0FEA3E0FFC39404EE9400502F90011B
:101B7000ADE0FCA3E0FDEF25E0FFEE33FE74052FA2
:101B8000F58274023EF583ECF0A3EDF090020EE0D6
:101B900004F0700690020DE004F0021CD89002756B
:101BA0007401F0900275E0FF1211F8E0FCA3E0FD73
:101BB000EF25E02403F582E43402F583ECF0A3ED95
:101BC000F0900275E004F0E0B404D89001D0E07029
:101BD00003021C789001B5120FCCFFAEF09001AD5E
:101BE000E0FCA3E0FDD39FEC9E5003021C76ED9F2A
:101BF000FFEC9EFED3EF94F4EE94014079A3120F14
:101C0000CC1212A4900276F0A3EFF01232601212FE
:101C1000AE5063E4900278F0A3F0900276E0FEA369
:101C2000E0FF123260D3EF9428EE64809480402568
:101C3000D3900277E09400900276E06480948090E4
:101C400002784008E4F0A37405F0801074FFF0A35C
:101C500074FBF08007E4900278F0A3F0120FC9FF44
:101C6000900279E02FFE900278E035F090020BF0C0
:101C7000A3CEF0021CD88051120FC99001AD1210F2
:101C8000F3E5F09CFE123260C3EF9428EE6480947A
:101C90008050369001B5120FCCFFC39001AEE09F8B
:101CA000FF9001ADE095F0FE123260C3EF9414EEA8
:101CB0006480948050059001B580039001AF120FAD
:101CC000CCFF90020BE5F0800B9001ADE0FFA3E0AC
:101CD00090020BCFF0A3EFF090027112154C0000B0
:101CE0000000E4900275F0900275E0FFD390020EC0
:101CF000E09F90020DE09400401D90027112100EC2
:101D0000FBA3E01211F812102B90027112154090F3
:101D10000275E004F080D09002711210D1FFEEC085
:101D2000E0EFC0E090020D1210AAD0E0FFD0E0FE7C
:101D3000121461900271121540900271A3A3E0FE8B
:101D4000A3E0FF22C0E0C083C082C0D0D2AFE56C68
:101D50002401F56CE4356BF56BE4356AF56AE4351E
:101D600069F569D3900243E09400900242E0940048
:101D7000400CA3E024FFF0900242E034FFF0D39047
:101D80000245E09400900244E09400400CA3E0245B
:101D9000FFF0900244E034FFF0D3900247E094005B
:101DA000900246E09400400CA3E024FFF09002462D
:101DB000E034FFF0D3900249E09400900248E094B0
:101DC00000400CA3E024FFF0900248E034FFF0D381
:101DD00090024BE0940090024AE09400400CA3E093
:101DE00024FFF090024AE034FFF0D3900253E094D5
:101DF00000900252E09400400CA3E024FFF0900217
:101E000052E034FFF0D390024DE0940090024CE099
:101E10009400400CA3E024FFF090024CE034FFF06B
:101E2000900215E0D394014003E014F0900214E016
:101E3000D394004003E014F0C3E55D94E8E55C94BE
:101E4000035008055DE55D7002055CC3E54794D06D
:101E5000E546940750080547E54770020546D390CC
:101E6000022AE09400900229E09400400CA3E024B0
:101E7000FFF0900229E034FFF0D390022CE09400B0
:101E800090022BE09400400CA3E024FFF090022B82
:101E9000E034FFF0D3900202E09401900201E0945C
:101EA00000400CA3E024FFF0900201E034FFF0D3E7
:101EB00090024FE0940090024EE09400400CA3E0AA
:101EC00024FFF090024EE034FFF0D3900238E0940B
:101ED00000900237E09400400CA3E024FFF0900251
:101EE00037E034FFF0D390023EE0940190023DE0F1
:101EF0009400400CA3E024FFF090023DE034FFF09A
:101F0000D0D0D082D083D0E0329001D0E0700302F4
:101F10001F911210C212117E900214E0702EA3E0E5
:101F2000702A9001B2120FCCFFAEF0D394E8EE9479
:101F3000034019EF94B8EE940B5011900213E0FF98
:101F400004F0EF9428400A1212CF8005E4900213A7
:101F5000F0900215E06401600302207EC31211CFED
:101F6000400302207E9001B5120FCCFF90023CE0AE
:101F7000243212116E120FC9D39FE5F09E400E124B
:101F80000FE175F0051212D624051211201212CF9E
:101F900022E490021512105EF0A3F0900213F0906C
:101FA00001D212100EFBE9C0E0EAC0E0EBC0E01283
:101FB0000FC9FFE4FCFDD0E0FBD0E0FAD0E0F9EB84
:101FC0002FFFEA35F01210389001D212154090011F
:101FD000D7E004F070069001D6E004F0900246E0ED
:101FE0007002A3E0600302207E9001D21210D1FFA4
:101FF000EEC0E0EFC0E01210A9D0E0FFD0E0FE128A
:1020000014619001D21215409001B5120FCC243208
:10201000FFE435F0FE9001D212100BFBD31215092C
:102020004039900242E07002A3E0702F200A2C9009
:1020300001D9E004F070069001D8E004F0D39001DB
:10204000D9E094059001D8E09400401E120FD712F9
:102050001089E49001D8F0A3F0800F120FD712106E
:1020600089E49001D8F0A3F0C20A9001D212154C75
:1020700000000000E49001D6F0A3F012117E2212BD
:102080001158F513F51485280F8529108528118519
:102090002912F5081210FEFE08E6FFD3E5129FE5AF
:1020A000119E40078E118F12850814C3E5109FE51D
:1020B0000F9E50078E0F8F108508130508E508B492
:1020C0000AD2E4F50DF50EF508E51465086032E571
:1020D000136508602CE50E450D700B1210FEF50D12
:1020E00008E6F50E801B1210FEFE08E6250EFFE541
:1020F0000D3EFEEF2401FFE43EC313F50DEF13F593
:102100000E0508E508B40AC1900211E50DF0A3E53B
:102110000EF0E514C394075005E514121244E513BC
:10212000C394075005E513121244121158F5081212
:1021300010FEFE08E6FFE4FCFDE50C2FF50CE50BB8
:102140003EF50BED350AF50AEC3509F5090508E50C
:1021500008B40ADBAF63AE62AD61AC601211A64099
:102160001AE50C9563F50CE50B9562F50BE50A9500
:1021700061F50AE5099560F5098003121158E47FBD
:10218000607EEAFDFC1211A6400BE4750C60750B35
:10219000EAF50AF509AE0BAF0C22C0E0C083C0829D
:1021A000C0D075D018D2AFE5DB30E419D20BC2072E
:1021B000E5DB30E102802E90027CE5DFF090027FCB
:1021C000E4F0022295E5DB30E50FD205300705C2C9
:1021D00007022295C20B022295C207E5DB30E140DF
:1021E000E5DB30E010900280E0FF04F0123201E005
:1021F000F5DF022295900280E0FFB40819208A16CC
:10220000D28A90026A7401F090027DE0FCA3E0247F
:1022100007123207E4F0EF641A707AD206022295B0
:1022200090027FE0700EA3E5DFF090027F7401F072
:10223000D2078061900280E0902F6393FFB4FF0883
:1022400090027CE5DFF08047EF640F7029900280F8
:10225000E0FFA3E0FCA3E0FD123206E0540FF09093
:102260000280E0FF04F0ED123206E0FFE5DF54F0FB
:10227000FEEF4EF0801F900280E0FF123201E5DF9A
:10228000F0EFB4240A9002447401F0A374F4F090C7
:102290000280E004F075DBFFD0D0D082D083D0E0A4
:1022A00032900123E0FEA3E0FFC390010CE09FFF0A
:1022B00090010BE09EFE123260D3EF940AEE648030
:1022C0009480402090010312154C00000000E4901F
:1022D0000107F0A3F0900123E0FFA3E090010BCFF2
:1022E000F0A3EFF0900103122C47900123122C0170
:1022F000900103121540900108E004F0700690016F
:1023000007E004F0900107E0FEA3E0FFD3940AEE9B
:1023100094004031CBEFCBCAEECAE4F9F890010348
:10232000122C3B121461900109EEF0A3EFF0A3EE22
:10233000F0A3EFF090010312154C00000000E490B0
:102340000107F0A3F0D390010AE09400900109E0A6
:102350009400403090010DE0FEA3E0FF7C007D037F
:1023600012157DC8ECC8C9EDC9CAEECACBEFCB9037
:102370000109122C01E47B04FAF9F81214619001AE
:102380000DEE800B900123E0FFA3E090010DCFF054
:10239000A3EFF022900271EFF0122FCE7402F0A39F
:1023A000E4F0902E2204F0A3E04401F0E4900272E5
:1023B000F0A3F0900272E0FEA3E0FFC3940AEE9453
:1023C000004003022471EF9408EE940040067E0062
:1023D0007F018019900272A3E004FFE47E02C8EF3F
:1023E000C8088006CEA2E713CE13D8F8FF90027477
:1023F000EEF0A3EFF0902E207409F0902E20E03044
:10240000E2F9900271E0FF75F002A42400122FD4CB
:10241000E0FCA3E0FD902E20E4F0D3ED94FEEC94DC
:10242000074017900274E0FCA3E0FD75F002EF1284
:102430002FD1EC8DF012138D8026900271E0122FB7
:10244000CEC083C082E0FEA3E0FF900274E0FCA354
:10245000E0FDC3EF9DFFEE9CD082D083F0A3EFF0B0
:10246000900273E004F07006900272E004F0022320
:10247000B37F00227E007FFF7D007B017A0079041C
:102480001215AA90027D7400F0A37404F0902DE060
:10249000E493FF90027DE0FCA3E0FDF5828C83A332
:1024A000EFF0900002E0FFED2404122FDD90000118
:1024B000E0FFED2405122FDD900003E0FFED240680
:1024C000122FDD902DE2E493FFED2412122FDD9008
:1024D0002DE3E493FFED2414122FDDE4FF75F002E9
:1024E000EFA42401F582E5F0342EF583E493FE1287
:1024F0002FF7EEF0122FF7E0FE75F002EFA42400A4
:10250000F582E5F0342EF583E4932420F582E4345B
:102510002EF583EEF00FEFB411C3902F56E090002C
:1025200058F0902F56E090006AF09000FF7401F090
:102530009000FEF090003A7410F090001BF09000B4
:1025400028F0A37420F09002427407F0A374D0F036
:1025500022900278EEF0A3EFF0E4FFFEFDFCAB5218
:10256000AA51A950A84FC31215099002787010E023
:10257000FEA3E0FFE48F528E51F550F54F802FE01F
:10258000FEA3E0FFEF2552FFEE3551FEE43550FD8E
:10259000E4354FFCEF2401FFE43EFEE43DFDE43C66
:1025A000FC780112151A8F528E518D508C4F0553A5
:1025B000E553D3940A401185514D85524EE4F552AE
:1025C000F551F550F54FF553D3E54E9400E54D9494
:1025D000004045900279E0954EFF900278E0954DDD
:1025E000FE123260C3EF940AEE64809480AE4DAF69
:1025F0004E50147C007D0312157D90027812101944
:102600001210307802800690027812104012151ACB
:10261000900278EEF0A3EFF0900278E0FEA3E0FFE6
:10262000227F8C7A0179AD1210C89001AF7401F04D
:10263000A37400F074441210A17400F074461210D8
:10264000A17400F0A374481210A27400F0A37432B5
:102650001210A27400F0A3742E1210A27400F0A342
:10266000742CF09001CA7401F0A37400F0A37426D6
:10267000F09002317401F0A37400F0A37484F09020
:1026800001CD7401F0A37400F0A3741CF09001C19B
:102690007401F0A37400F0A374361210A27400F059
:1026A000A3742A1210A27400F0A37438F090023BB5
:1026B00012119F9001C1120FE4F9E475F0C81214D1
:1026C000069001C4120FE4F9E475F06412140612C6
:1026D00012839001C7120FE4F9E475F09602140614
:1026E00090026DEEF0A3EF120FEC90026DE070021D
:1026F000A3E06003122853E490020DF0A3F07F0AD8
:102700001230361210B7A312118190021512105D0B
:10271000F0A3F09001ADE0F9A3E0FFA3120FE412E3
:1027200010899001B2120FE41211419001B8120FFA
:10273000E412128D9001BB120FE41211419001BE00
:10274000120FE412128D121296E49001D0F0900153
:10275000D212154C00000000E49001D612105EF079
:102760009001AD120FDC121089E49001D1F09002BB
:1027700052F0A3F090024EF0A3F0FE7F16FD7B0115
:102780007A02791B1215AA9001CA120FCC9002216D
:1027900012111890022912119F22D3900243E09443
:1027A00000900242E094004003022852300025903D
:1027B0000237E07002A3E090023B60051212048031
:1027C00007741BF0A37458F09001A37417F0A3745E
:1027D00070F0801590022DE07002A3E0700B900263
:1027E0003BF0A374C8F01212839001B2120FCCFF19
:1027F000AEF012121840139001D0E0601ED3900189
:10280000A4E09F9001A3E09E501190024AE0700264
:10281000A3E070279001D004F0802090001BE0B46A
:102820002005121265800690024A12119FE4900161
:10283000D0F0900248F0A3F01212969001D0E06020
:1028400011900028E090003AB410047410F0227443
:1028500020F022E4F5687F011231841211F0C39454
:10286000FFEE940150061211F04E70087568017F5A
:10287000011231841211F024E0FFEE34FC90026F5B
:10288000F0A3EFF012107C1230021231EA902E22E7
:102890007401F012129D902E20E030E2F9902E0289
:1028A000E0F526A3E0F527AE26FF7C007D0A121591
:1028B0007DEF24E0F563EE34B1F562ED34FFF561B0
:1028C000EC34FFF560902E20E4F043890A12108268
:1028D0005380F5902E23F09001A6E0900021F01295
:1028E00010DCF99001CD120FE4C98FF0021406122A
:1028F000107CE49001A9F0A3F0900239F0A3F0FF5E
:102900001231EA12129D902E20E030E2F9902E0250
:10291000E0FCA3E0FD9001AAE02DF09001A91212C5
:1029200024B401DCE4FF12323912129D902E20E013
:1029300030E2F9902E0EE0FCA3E0FD90023AE02D8B
:10294000F0900239121224B401DC9001A9E0FEA338
:10295000E0FF9001A8E02FF09001A7E03EF0900288
:1029600039E0FEA3E0FF9001ACE02FF09001ABE076
:102970003EF0902E23E4F0902E20F043890A1210AE
:10298000825380F5224102620041026300410269E4
:102990000041025F004102670042023D03E841023C
:1029A0006A00C101C1034102680041025E00C10228
:1029B000C100C10441027F004102800042027A004E
:1029C00000C105C107C10641027C104101A20041BE
:1029D00001A610C10AC109016800022600000460B6
:1029E00000000000015F004101A51041011000043A
:1029F000690000000041010F0041019300420123E2
:102A000000004401940000000042010D000041015B
:102A10009800C10B00787FE4F6D8FD75816C022A1E
:102A20005F020000022F2CE493A3F8E493A3400379
:102A3000F68001F208DFF48029E493A3F854072418
:102A40000CC8C333C4540F4420C8834004F45680D8
:102A50000146F6DFE4800B0102040810204080905C
:102A60002985E47E019360BCA3FF543F30E50954FF
:102A70001FFEE493A360010ECF54C025E060A84080
:102A8000B8E493A3FAE493A3F8E493A3C8C582C877
:102A9000CAC583CAF0A3C8C582C8CAC583CADFE94C
:102AA000DEE780BE90025EE014601B1460432402E7
:102AB000705D900268E0B4010A90025E122B10D2A1
:102AC00004D200C202227F02122EF4EF60077F02BE
:102AD00012326CC204900268E0703490025E74029C
:102AE000F0D202C204C2007F0312326C7F030231B3
:102AF000597F03122EF4EF60167F0312326C90029E
:102B000068E090025E7003F08003122B10C2022274
:102B10007401F07F0212326C7F0212315922758AE1
:102B200010E4F5B275B6FF75B7FF75B2A243B201F6
:102B30001232469001987401F0E5A830E20300805B
:102B4000F890010FE0FFE4FCFDFE122C31122C3B4B
:102B5000780812152D122C31122C47900193E0FFAA
:102B6000EB4FFFEAFEE9FDE8FCA3122C34A3A3E03F
:102B7000FFA3E0900123CFF0A3EFF0758A50538AB2
:102B8000EF538BEF53A8FBE4F5B21231D00222A130
:102B900090023DE07004A3E06401701190026AE0CD
:102BA0007004D28A04F0E490023DF0A3F090003A61
:102BB000E0FC9001A5E06C603990003AE0FE9001E5
:102BC000A5F090000BE0900267F0540FF0EEB420F7
:102BD00005E04420800AECB4100B900267E044103A
:102BE000F090000BF0C28AE490026AF090023D126D
:102BF000116622CBEFCB74992BF582E43401F58377
:102C000022E0FEA3E0FFE4FCFDEB2FFFEA3EFEED39
:102C100039FDEC38FC22FEEB25E02411F582E4348A
:102C200001F58322EB25E024BEF582E43431F583FF
:102C30002290019412154090019422E0FCA3E0FD43
:102C4000A3E0FEA3E0FF22E0F8A3E0F9A3E0FAA3EB
:102C5000E0FB2290026B7408F0A3E4F0A3743FF051
:102C6000A374DFF0E4FDFCF9758A10538AEF00903D
:102C7000026BE0FEA3E02DF582EE3CF583E493FFCA
:102C800069F90DBD00010CBC37E5BDDFE290026DB6
:102C900012320EE4936990027D700912320EA37411
:102CA00001F0800612320EA3E4F0758A50538AEFC9
:102CB0000022200906200203300409E4FFFE122648
:102CC000E0C20922900252E07002A3E060051211F6
:102CD000DC7037200003122EBC7F01123036121B2D
:102CE0005E90026BEEF0A3EFF07B017A02796B123B
:102CF0002E7390026B121138120FE4121089120811
:102D00002E12279A12189A121F09122B9022122F94
:102D1000EFF5828E83A3E0B4AA03122C53122FEF97
:102D2000FF122FE6E0B41008EF122FE6E4F0D2090C
:102D3000122FEFFF241B122FE8E0700DEF241C125E
:102D40002FE8E0B41003122E22122FEF2413122FBB
:102D5000E8E0FFB410069002687401F0EFB42005BB
:102D6000E4900268F022900241E024FE60131460B7
:102D700023146027240370449002417402F0120867
:102D8000037F017E001226E09002417403F0E4907C
:102D9000025FF0229002417404F022122AA4123041
:102DA0009D122AA4900201E07004A3E06401700C5B
:102DB000900201F0A3F09002417402F02274AA750F
:102DC00083F5758255A574557583FA7582AAA57425
:102DD000A57583F5758255A522000000000000004E
:102DE0000101AB36E4FF30051690027DE0FCA3E064
:102DF000F5828C83E0FE54F0FFEE540FF0C2052202
:102E000001910201070F0AB00BB60CFF090008FF81
:102E10000D770E060F0404011112120A1307141085
:102E20001010758A10538AEF00122DBDE4F5F2756B
:102E3000F30875EEFF75EF3F75EA81F5F675EB0760
:102E400000E5EC30E7FBE4F5EC90027DE0FEA3E06A
:102E5000FF241BF582E43EF583E5F3F0EF241CF537
:102E600082E43EF583E5F2F075EB30758A50538AC3
:102E7000EF002290026DEBF0A3EAF0A3E9F09002DC
:102E800044E07002A3E070339001D1E0602DE49043
:102E900001D11210B69002707401F07F0112303629
:102EA000121B5E90026D120FE4121111900270E07D
:102EB00004F0E0C3940A40E312126522300634C2E3
:102EC00006902E12E0FFA3E090026DCFF0A3EFF08A
:102ED000E4FF1231841210DCFE9001CD120FE412D7
:102EE000111190026DE0FFA3E0902E12CFF0A3EF3E
:102EF0001210B622122BF3E0602FE56CFFE56B1287
:102F00002C16E0FCA3E0FDD39FEC9E501CC3EF9D6C
:102F1000FFEE9CFE122C24C37401939FE4939E4009
:102F200008122BF6E4F07F01227F00221232535365
:102F3000A87F122F9912322C12312E12321743A869
:102F400080122B1E9000FFE0600B9002417401F094
:102F5000E49000FFF0122DE4122D0E122D66122BBC
:102F60001E80E100000000FFFFFFFF0000FFFFFFE9
:102F7000FFFFFFFFFFFF00FF000000FFFF0000005A
:102F8000FFFFFFFFFFFFFF00000000FFFFFFFFFF4D
:102F9000FFFFFFFFFF00000000758A50538AEFE437
:102FA000F58F9000027411F09000017422F09000EF
:102FB000037433F0E4F5AB75AC0C7589FF75913C87
:102FC000F595F592D28A90026A04F0D20C2275F03F
:102FD00002A42410F582E5F0342EF58322F582E474
:102FE0003CF583EFF022241AF582E43EF58322902B
:102FF000027DE0FEA3E02274542FF582E43400F554
:103000008322902E23E4F0FF74542FF582E43400E1
:10301000F583E0FE75F002EFA42400F582E5F034BC
:103020002EF583E4932420F582E4342EF583EEF02C
:103030000FEFB411D322900271EFF0123002E4903E
:103040000272F0900271E0FFA3E0C39F500B1215D3
:10305000D6900272E004F080EA902E20E4F0122074
:103060007F9001ADEEF0A3EFF022E4FEE4FFEF75F8
:10307000F003A42425F582E43401F583E5822EF5DE
:1030800082E43583F583E4F00FEFB40AE10EEEB489
:1030900003DA7F09900199E4F0A3DFFC2290002974
:1030A000E0B4202590001BE0B4201190025BE0709A
:1030B000031210B790025B7401F08005E490025B8C
:1030C000F0122CB2120BFA80031231010231D0C07F
:1030D000E0C083C082900198E0600DE4F0538B7FE4
:1030E000758B11438B088012538B7F53A8FBE5B57A
:1030F00090010FF0E5B4900193F0D082D083D0E03E
:1031000032E4F5B2F5BA758D20438D20538D7F538F
:10311000AAF7F58BE5DB20E211200B0EE4F58A75AA
:103120008703000000758A50D209758B1122900226
:103130007DE0FFA3E0900281CFF0A3EFF0E4F5DAA9
:1031400075DA4043DA2075D74675DA5875D90143E8
:10315000A80275B80475F80422122BF3E060037F0F
:103160000122122BF67401F0122C24E493FE740158
:1031700093FFEF256CFFEE356B122C16EEF0A3EFEC
:10318000F07F0022CDEFCD12107C123002ED6008EE
:103190001232397F071223941231EA7F01122394ED
:1031A00043890A1210825380F52201F40028002876
:1031B00001F4009603E801F403E81770006403E8E3
:1031C000003202580258012C01F403E8271000C80D
:1031D000E5B230E005E5A820E40F75B28E75B6F9CA
:1031E000E4F5B743B20143A81022E568902E21B45C
:1031F00001057411F080037491F01211487402F00B
:1032000022A3E0FCA3E02FF582E43CF58322E0FE5C
:10321000A3E0F5828E83227E007F0A7D007B017A07
:103220000179031215AA12081602306A12247412C8
:1032300026219002417401F022902E217411F01287
:1032400011487480F022538B7F758B10438B084399
:10325000A804225391FC4392039002837446F02207
:10326000EE30E707C3E49FFFE49EFE2274992F121D
:103270002BF9E4F022000000000000000000000034
:10328000000000000000000000000000000000003E
:10329000000000000000000000000000000000002E
:1032A000000000000000000000000000000000001E
:1032B000000000000000000000000000000000000E
:103FD000000000000000000000000000000000A63B
:103FE00000000000000000000000000000000000D1
:103FF00000000000000000000000000000000000C1
:00000001FF
