:100000000061000000080000781C000000000000F3
:1000100000000000000000000000000000000000E0
:1000200078FFE4B8200118F6D8F99000007F007E30
:1000300007E4F0A3DFFCDEFA7581740222BA121A1B
:100040007B1220429002117401F022022BE774AA65
:100050007583F5758255A574557583FA7582AAA5C1
:1000600074A57583F5758255A52200021E3A90404D
:100070007FE493FF64326003EF7002002253A87F95
:100080000080FD0218F812112A740FF0902EC77428
:100090000112111A7402F022D2AF32020878E70975
:1000A000F608DFFA8046E709F208DFFA803E888228
:1000B0008C83E709F0A3DFFA8032E309F608DFFA60
:1000C0008078E309F208DFFA807088828C83E30984
:1000D000F0A3DFFA806489828A83E0A3F608DFFA5E
:1000E000805889828A83E0A3F208DFFA804C80D2AC
:1000F00080FA80C680D4806980F28033801080A628
:1001000080EA809A80A880DA80E280CA803389827F
:100110008A83ECFAE493A3C8C582C8CCC583CCF02B
:10012000A3C8C582C8CCC583CCDFE9DEE7800D89D2
:10013000828A83E493A3F608DFF9ECFAA9F0EDFBD9
:100140002289828A83ECFAE0A3C8C582C8CCC58321
:10015000CCF0A3C8C582C8CCC583CCDFEADEE8807A
:10016000DB89828A83E493A3F208DFF980CC88F0EC
:10017000EF60010E4E60C388F0ED2402B40400501D
:10018000B9F582EB2402B4040050AF232345822347
:100190009008CE73EF8DF0A4A8F0CF8CF0A428CEF9
:1001A0008DF0A42EFE22C2D5EC30E709B2D5E4C30F
:1001B0009DFDE49CFCEE30E715B2D5E4C39FFFE45F
:1001C0009EFE120BF2C3E49DFDE49CFC8003120B27
:1001D000F230D507C3E49FFFE49EFE22C5F0F8A3EA
:1001E000E028F0C5F0F8E582158270021583E0384A
:1001F000F022BB010A89828A83E0F5F0A3E0225055
:100200000687F009E71922BBFE07E3F5F009E319B9
:100210002289828A83E493F5F074019322BB01075B
:1002200089828A830209BC500B09C5F027F7C5F003
:100230001937F722BBFE0D09F8E325F0F3C5F019D5
:10024000E338F322F889828A8374019325F0C5F09C
:10025000F8E4933822BB010A89828A83F0E5F0A38F
:10026000F0225006F709A7F01922BBFE06F3E5F0CD
:1002700009F3192275F008758200EF2FFFEE33FEA7
:10028000CD33CDCC33CCC58233C5829BED9AEC996E
:10029000E58298400CF582EE9BFEED9AFDEC99FC10
:1002A0000FD5F0D6E4CEFBE4CDFAE4CCF9A8822257
:1002B000B800C1B90059BA002DEC8BF084CFCECD77
:1002C000FCE5F0CBF97818EF2FFFEE33FEED33FDB0
:1002D000EC33FCEB33FB10D703994004EB99FB0F95
:1002E000D8E5E4F9FA227818EF2FFFEE33FEED336C
:1002F000FDEC33FCC933C910D7059BE99A4007ECE4
:100300009BFCE99AF90FD8E0E4C9FAE4CCFB22752A
:10031000F010EF2FFFEE33FEED33FDCC33CCC833BE
:10032000C810D7079BEC9AE899400AED9BFDEC9A20
:10033000FCE899F80FD5F0DAE4CDFBE4CCFAE4C898
:10034000F922EB9FF5F0EA9E42F0E99D42F0EC6461
:1003500080C864809845F022EB9FF5F0EA9E42F059
:10036000E99D42F0E89C45F022E8600FECC313FCE5
:10037000ED13FDEE13FEEF13FFD8F122ECF0A3ED29
:10038000F0A3EEF0A3EFF022A8828583F0D083D013
:1003900082120B7F120B7F120B7F120B7FE473E430
:1003A00093A3C583C5F0C583C8C582C8F0A3C58320
:1003B000C5F0C583C8C582C822EC8EF0A4CCC5F0B8
:1003C000CCCDF8EFA4CEC5F02DFDE43CFCE8A42E86
:1003D000C8C5F03DFDE43CFCEFA4FFE5F028FEE4D9
:1003E0003DFDE43CFC22EF4E6012EF60010EEDBBE0
:1003F000010B89828A83F0A3DFFCDEFA2289F050A8
:1004000007F709DFFCA9F022BBFEFCF309DFFCA91A
:10041000F022BC000BBE0029EF8DF084FFADF0226E
:10042000E4CCF875F008EF2FFFEE33FEEC33FCEE72
:100430009DEC984005FCEE9DFE0FD5F0E9E4CEFD65
:1004400022EDF8F5F0EE8420D21CFEADF075F00838
:10045000EF2FFFED33FD4007985006D5F0F222C391
:1004600098FD0FD5F0EA22208A03020FD0900214E3
:10047000E07002A3E06003020FD0900171E070020F
:10048000A3E06003020FD01211656003020FD09049
:100490000132E0703090011D120FE5FFAEF09001C7
:1004A0000B120FE5D39FE5F09E4003020FD0121010
:1004B00056E490017DF0A3F01211B89002181211C9
:1004C000CFF56F8003756F00757014E4F5B2F5BA5F
:1004D000900181E0F55BA3E0F55CC209758D2043D6
:1004E0008D20758D8043AA08D2AF758B02758EAFB3
:1004F000200624121165701F200C1CE5DB20E2177A
:10050000758AC4200C0DE5DB20E208758703000026
:10051000008006D2098002D209758B11758A50536A
:10052000AAF7D3900213E09490900212E094014055
:100530000EA3E02470F0900212E034FEF08007E495
:10054000900212F0A3F0D390021FE0949090021E4C
:10055000E09401400EA3E02470F090021EE034FE0F
:10056000F08007E490021EF0A3F01229C490005519
:10057000E075F006A4902EC3F0A3E4F0A3F01210EF
:100580004953997F12086612114D902EC0E030E257
:10059000F9902EC0E4F0902E02E0F571A3E0F57220
:1005A00043890212104F43800212114A902EC0E07C
:1005B00030E2F91211E3F522A3E0F523E42572FFFE
:1005C000E5713424FEC3EF9523F525EE9522F5243D
:1005D000D3E5259488E5249437400675243775259E
:1005E00088902EC4E4F043998090016FE524F0A335
:1005F000E525F0C3E55C9525FFE55B9524FE122B10
:10060000C88E5D8F5E1211F64003020FA9AE24AFB3
:10061000257C007D14120B991212007FE07E817DF3
:10062000027C009002C4121008FBD3120B38900217
:10063000C440171210F094E0FFEE9481FEED940296
:10064000FDEC9400FC1212008007120B6800000001
:1006500000E47F607EEAFDFC9002C4121008FBD328
:10066000120B38400A9002C4120B680000EA6012B4
:100670000FE2FFAEF07C007D09120B999002C412CC
:1006800010082FFFEA3EFEE93DFDE83CFC12118513
:10069000121200900132E07033AE5BAF5CFC7D095A
:1006A00012113AE4FCFDEB2525FFEA3524121078FF
:1006B0001211858E5B8F5C9002C4120FF312102A08
:1006C0001210D7120FFD12102A020FA91210D71202
:1006D0000FFD12102A90010E120FE5FFAEF09002EE
:1006E000C4121005FBD3120B385003020FB9120FBE
:1006F000D112115EFEC3EF9574EE95735003020F95
:10070000B990010B120FE5FFAEF07C007D02120BD9
:1007100099C8ECC8EDC0E0EEC0E0EFC0E0120FD128
:1007200012115EFEE4FCFDD0E0FBD0E0FAD0E0F96F
:10073000EB2FFFEA3E1210787B0312118790010B1A
:10074000120FFD12109490010B120FE5D39430E5B7
:10075000F094754008747575F030120A3590018474
:10076000E06066121176406190010B120FE51211E4
:100770005EFE122BC89002C8EEF0A3EFF090010BC2
:10078000120FE5FFC312103250199002C9E0941EF7
:100790009002C8E09400400B120FFAF9E475F005DE
:1007A0001209FD900185E0602090010B120FE51207
:1007B00010304015D39002C9E094289002C8E0940C
:1007C000004006120FFA1211ED20090D1211F65019
:1007D000081211657003020CBC900183E004121131
:1007E000051210139001337401F090021612118E4D
:1007F0002290010EE0FBA3E0FAA3E0F91209D2FF78
:10080000AEF0900108E0FBA3E0FAA3E0F90209D200
:10081000900134A3A3E0F9A3E0FF90010EE0FBA355
:10082000E0FAA3E022E4FCFDE0F8A3E0F9A3E0FA9B
:10083000A3E0227A0079647E007F0B7D007B0002BA
:100840000BC6A3F0A37401F0A322C98FF0020A35EE
:10085000D3FF900189E09F900188E095F022A3F0FA
:10086000A37403F0A374E8F02243AB025389FD5351
:1008700095FD5396FD227F087A0179347E007D0034
:100880007B01020BC6E50A25E02426F8E6FE08E611
:1008900022F9EB2FFFEA35F0FEED39FDEC38FC22B2
:1008A000A3E0FEA3E0FBCAEECAE4F9F822F9E4F5FE
:1008B000F0020A35F9EE8FF0020A35902E42E0FE82
:1008C000A3E0FF7C007D1412097490012622E50D3F
:1008D00025E02475F582E43401F583E0FEA3E0FF12
:1008E000229002C6E0FEA3E0FF2290018AE0FCA372
:1008F000E0FDC3EF9DFF229002C4A3A3E0F9A3E0B3
:10090000FF900108229002147402F0A37458F022A0
:10091000E0FCA3E0FDA3E0FEA3E022900186F0A3AB
:10092000F0A3F0A322F07E007F057D007B007A001B
:10093000795F020BC6902EC07402F0902EC4E4F0D2
:10094000A322FFE5F0F0A3EFF022902EC07402F096
:10095000902EC27412F0902ECA22120B99C8ECC8C5
:10096000C9EDC9CAEECACBEFCB22122BB2902EC072
:100970007419F022E4F50EF50DF50CF50B22C39F6A
:10098000FFE5F09E2290001BE0642022D3EF941438
:10099000EE6480948022900188E0FEA3E0FFD3946F
:1009A00000EE9400227B0AE4FAF9F8020A90E4F0DF
:1009B000A374C8F022AB0EAA0DA90CA80BD3020B8E
:1009C0003890016FE56AF0A3E56BF02225E024265C
:1009D000F8A60F08A61022E490021AF0A3F022F95C
:1009E000746175F0A8020A3590003A7410F022F094
:1009F000A3F0900220F0A3F022FEEF2401FFE43EDA
:100A0000C31322902EC0E4F0902E1EE022F974FF52
:100A100075F0FB0209FDC3E55E9570E55D956F22FB
:100A20009002C4020B5C90018C121008FBE9C0E03C
:100A3000EAC0E0EBC0E0900123120FE5FFE4FCFD0B
:100A4000D0E0FBD0E0FAD0E012107190018C120BD4
:100A50005C900191E004F07006900190E004F09049
:100A60000192E07002A3E060030213CE90018C12A9
:100A700010F0FFEEC0E0EFC0E0121080D0E0FFD039
:100A8000E0FE120A9090018C120B5C90018CA3A3E3
:100A9000E0FFA3E090018ACFF0A3EFF0A3120B6870
:100AA00000000000E49001901210FE74C8F0900263
:100AB00012E07002A3E060030213CE900132E070F6
:100AC00003021360900186E0FEA3E0FF4E702290C7
:100AD000018AE0FDA3E0900186CDF0A3EDF0900146
:100AE0000B120FE5FD900188E5F0F0A3EDF0021385
:100AF000491210CAEE9CFE122BC8900198120FFDED
:100B0000121094900184E07026900198120FE5C3B2
:100B10009412E5F09400500F90010B120FE5FF9036
:100B2000018812112380209001847401F0801890B4
:100B30000198120FE5C39402E5F094005009E41205
:100B400010FBF0900184F090018AE0FEA3E0FFD357
:100B5000900187E09F900186E09E4007E490018528
:100B6000F080069001857401F0E4900194F0A3F008
:100B700090019EF090019B120FFD12108D0213CE7A
:100B8000900194E0FEA3E0FF4E701290018AE0FD18
:100B9000A3E0900194CDF0ED12103E80511210CAE6
:100BA000EE9CFE122BC890019B120FFD1210949028
:100BB0000196E07002A3E0703590019B120FE5D31F
:100BC0009419E5F09400400C9001967413F0A3740E
:100BD00088F0800BE490019EF090019612104190F5
:100BE000018AE0FFA3E0900194CFF0A3EFF0900121
:100BF00032E070081210FBF0900184F022120FD145
:100C0000FDACF0D39FEC9E403490010E120FE5FF37
:100C1000C3ED9FFFEC95F0FED3EF9430EE9475405A
:100C20000D9002C67475F0A37430F0021460120FB8
:100C3000DC12115E9002C6F0A3EFF08043120FE2C7
:100C4000FFAEF090010E120FE5FDACF0C39FFFEC7C
:100C50009EFED3EF9410EE9427400C9002C674D8F9
:100C6000F0A374F0F08012120FE2FFC3ED9FFEECD0
:100C700095F09002C6F0A3CEF0E49002C6F0A3F087
:100C8000900132E060501210C1D39400EE64809461
:100C900080401A900120120FE5FDD3EF9DEE95F0F4
:100CA000400B900218E4F0A37464F0801BD3900210
:100CB00019E09400900218E09400400C90010B128F
:100CC0000FE59002C6121122D20B90021E740FF093
:100CD000A374A0F0800D90021C1210417A0079508C
:100CE000121017D39002C7E094009002C6E064800F
:100CF00094805003021587E0F9A3E0FF90010B12E6
:100D00000FFD12102A1210C1EE3395E0FDFCE47BBA
:100D1000B87A88F9F8C3120B22500A9002C6748878
:100D2000F0A374B8F0D390021BE0940090021AE094
:100D30009400500790001BE0B4201D1210C1C39412
:100D400096EE648094805010EF9400EE648094805E
:100D500040257C007D0A801430001C1210C1C39411
:100D6000A0EE6480948F500F7C007D321209869033
:100D700002C6EEF0A3EFF0900132E0600C90021C8E
:100D8000E07002A3E0700280009002C6E0F9A3E0E8
:100D9000FF900114120FFD12102A900114120FE59A
:100DA00024A8FFE5F0801D90010B120FFD12108D9D
:100DB000900114120FFD12108D9002C7E024A8FFBD
:100DC0009002C6E03461F9900111120FFD12102A51
:100DD00022121115F053997FF50BF50CF50DF50E58
:100DE000F50A12086612104912114D902EC0E0301B
:100DF000E2F9902EC0E4F043890212104F438002C2
:100E0000902E02E0FEA3E0250CF50CEE350BF50B61
:100E100012114A902EC0E030E2F91211E3FEA3E075
:100E2000250EF50EEE350DF50D050AE50AC39406FF
:100E300040B0439980902EC5E4F0D3740C950C74A7
:100E400022950B4012900171E07002A3E0700F90A8
:100E500001711210418007E4900171F0A3F0E425C4
:100E60000CFFE50B3424FEC3EF950EF510EE950D47
:100E7000F50FD3E5109488E50F94374006750F37CA
:100E8000751088900167E50FF0A3E510F090016BF5
:100E9000E50DF0A3E50EF0A3E50BF0A3E50CF0AF34
:100EA00010AE0F1221C990016FEEF0A3EFF0900089
:100EB0001BE0B4200312101390016FE0FEA3E0FFCB
:100EC000E4FCFDE5672FF567E5663EF566ED356503
:100ED000F565EC3564F5640569E56970020568C37C
:100EE000E56D94E8E56C9403402AAE68AF69CBEFFA
:100EF000CB121086AF67AE66AD65AC64120A908EF9
:100F00006A8F6BE4F567F566F565F564F568F56974
:100F1000F56CF56DD3E56B9400E56A940040539051
:100F20000170E0956BFF90016FE0956AFE9002CA38
:100F3000F0A3EFF0D394F9EE6480947F4015E09431
:100F4000079002CAE06480948050081211A1E4F571
:100F50006E801F9002CAE0FEA3E0FF122BC81211A0
:100F60006C4003756E03E56EC3940350051211A126
:100F7000056E90016FE0F54EA3E0F54F78267C00FA
:100F80007D007B007A0079287E007F2802094E9040
:100F90000132E0700302180C121056900216121063
:100FA00041900184E070030218F712117650030299
:100FB00018F790010B120FE512115EFE122BC8906C
:100FC00002C6EEF0A3EFF0D39496EE9400400CE44A
:100FD000900184F0900186F0A3F022900185E060FA
:100FE0002090010B120FE51210304015D39002C76C
:100FF000E094289002C6E094004006120FFA121105
:10100000ED90010B120FE5C312103140030218F7E7
:101010009002C7E0941E9002C6E0940050030218AC
:10102000F7120FFAF9E475F0050209FD9001341288
:101030001008FBE9C0E0EAC0E0EBC0E0120FE2FFFD
:10104000E4FCFDD0E0FBD0E0FAD0E012107190019A
:1010500034120B5C900139E004F07006900138E026
:1010600004F0900216E07002A3E060030218F7900B
:1010700001341210F0FFEEC0E0EFC0E0121080D09B
:10108000E0FFD0E0FE120A90900134120B5C900158
:101090000E120FE5241EFFE435F0FE90013412100D
:1010A00005FBD3120B38403F900212E07002A3E020
:1010B000703590019EE0702F200B2C90013BE004D6
:1010C000F0700690013AE004F0D390013BE0940503
:1010D00090013AE09400401E120FF012102AE490A2
:1010E000013AF0A3F0800F120FF012102AE49001E1
:1010F0003AF0A3F0C20B900134120B68000000001C
:10110000E4900138F0A3F090019EE0900216600494
:1011100012118E2212104122C0E0C083C082C0D0C2
:10112000D2AF900225E004F0D3900213E094009037
:101130000212E09400400CA3E024FFF0900212E0C1
:1011400034FFF0D3900215E09400900214E0940074
:10115000400CA3E024FFF0900214E034FFF0D390A1
:101160000217E09400900216E09400400CA3E024E3
:10117000FFF0900216E034FFF0D3900219E09400E3
:10118000900218E09400400CA3E024FFF0900218B5
:10119000E034FFF0D390021BE0940090021AE09438
:1011A00000400CA3E024FFF090021AE034FFF0D3DB
:1011B000900223E09400900222E09400400CA3E00F
:1011C00024FFF0900222E034FFF0D3900221E0945B
:1011D00000900220E09400400CA3E024FFF0900275
:1011E00020E034FFF0D390021DE0940090021CE058
:1011F0009400400CA3E024FFF090021CE034FFF0C8
:10120000C3E56D94E8E56C94035008056DE56D70D9
:1012100002056CC3E55994E8E55894035008055954
:10122000E55970020558D3900193E0940090019223
:10123000E09400400CA3E024FFF0900192E034FF22
:10124000F0D3900197E09400900196E09400400C58
:10125000A3E024FFF0900196E034FFF0D3900172F8
:10126000E09401900171E09400400CA3E024FFF0B1
:10127000900171E034FFF0D390021FE094009002DF
:101280001EE09400400CA3E024FFF090021EE03426
:10129000FFF0D0D0D082D083D0E0327E007FFF7DBF
:1012A000007B017A007904120BC69002D67400F01C
:1012B000A37404F09001C57401F0A37400F0A3744A
:1012C000B8F09001CB7401F0A37400F074AC122953
:1012D000427400F0A37494F09001C87401F0A374F8
:1012E00000F0A374C6F09001D17401F0A37400F073
:1012F00074D21229427400F0A3741F12294374019E
:10130000F0A37402F0902DE0E493FF9002D6E0FC8D
:10131000A3E0FDF5828C83A3EFF0900002E0FFEDE7
:10132000240412291C900001E0FFED240512291C61
:10133000900003E0FFED240612291C902DE2E493B7
:10134000FFED241212291C902DE3E493FFED2414E9
:1013500012291C9001DA7401F0A37400F0A3743C0C
:10136000F0E4FF75F002EFA42401F582E5F0342EDD
:10137000F583E493FE74542FF582E43400F583EE94
:10138000F0EF25E0242DF582E4342EF583E493FE7E
:1013900012294AEEF012294AE0FEEF25E0242CF54E
:1013A00082E4342EF583E49324C0F582E4342EF5F0
:1013B00083EEF00FEFB416AB902F56E0900058F08C
:1013C000902F56E090006EF0902F56E0900059F06C
:1013D000902F56E090006FF09000FF7401F09000A5
:1013E000FEF090003A7410F090001BF0900028F08E
:1013F000A37420F09002127413F0A37488F02212E8
:101400001154F515F51685261185271285261385A5
:101410002714F50A121065FFD3E5149FE5139E40CB
:10142000078E138F14850A16C3E5129FE5119E508F
:10143000078E118F12850A15050AE50AB414D5E442
:10144000F50FF510F50AE516650A602EE515650A33
:101450006028E510450F7010E50A25E02426F8E61F
:10146000F50F08E6F51080121210652510FFE50F44
:101470003E1211D9F50FEF13F510050AE50AB41461
:10148000C5900181E50FF0A3E510F0E516C39411B6
:101490005005E5161211ACE515C394115005E5157C
:1014A0001211AC121154F50A121065FFC3E5109F1A
:1014B000FFE50F9EFE122BC8D3EF9419EE648094C3
:1014C00080400FE4FCFDE50E2510F50EE50D350F0F
:1014D000800F121065FFE4FCFDE50E2FF50EE50D03
:1014E0003EF50DED350CF50CEC350BF50B050AE56D
:1014F0000AC3941440B27FE07E817D027C00121109
:1015000095401AE50E94E0F50EE50D9481F50DE594
:101510000C9402F50CE50B9400F50B8003121154AA
:10152000E47F607EEAFDFC121195400BE4750E60CD
:10153000750DEAF50CF50BAE0DAF0E2290017DE0B6
:10154000FEA3E0FFC39404EE9400502F900106E048
:10155000FCA3E0FDEF25E0FFEE33FE74752FF5826E
:1015600074013EF583ECF0A3EDF090017EE004F011
:10157000700690017DE004F0021DDC750D01121073
:10158000AEE50D25E02473F582E43401F583EEF039
:10159000A3EFF0050DE50DB404E4120FE2FF900196
:1015A000061210CDE5F09CFE122BC8C3EF9428EE76
:1015B000648094805037900132E0702390010E12C5
:1015C0000FE5FFC3900107E09FFF900106E095F053
:1015D000FE122BC8C312116D500590010E800390AE
:1015E0000108120FE5FF90017BE5F0800B900106EA
:1015F000E0FFA3E090017BCFF0A3EFF0E4F50CF562
:101600000BF50AF509F50DD390017EE0950D9001DB
:101610007DE09400401E1210AEE4FCFDE50C2FF5B9
:101620000CE50B3EF50BED350AF50AEC3509F5092D
:10163000050D80D3AF0CAE0BAD0AAC09EEC0E0EFE8
:10164000C0E090017D121081D0E0FFD0E0FE120AD0
:10165000908F0C8E0B8D0A8C0922C0E0C083C08253
:10166000C0D0ECC0E0EDC0E0EEC0E0EFC0E0D2AF33
:10167000E5DB30E419D20CC208E5DB30E102802E54
:101680009002D5E5DFF09002D8E4F0021F38E5DBE8
:1016900030E50FD206300805C208021F38C20C021E
:1016A0001F38C208E5DB30E13AE5DB30E01090029C
:1016B000D9E0FF04F0122B9CE0F5DF021F38900206
:1016C000D9E0FFB40813208A10D28A9002D6E0FC39
:1016D000A3E02407122BA2E4F0EF641A707AD20779
:1016E000021F389002D8E0700EA3E5DFF09002D818
:1016F0007401F0D20880619002D9E090298E93FFA6
:10170000B4FF089002D5E5DFF08047EF640F702941
:101710009002D9E0FFA3E0FCA3E0FD122BA1E0546E
:101720000FF09002D9E0FF04F0ED122BA1E0FFE5ED
:10173000DF54F0FEEF4EF0801F9002D9E0FF122B35
:101740009CE5DFF0EFB4240A9002147401F0A37456
:10175000F4F09002D9E004F075DBFFD0E0FFD0E0B8
:10176000FED0E0FDD0E0FCD0D0D082D083D0E032FB
:101770009002C8EFF09002CDE4F0A374FFF0E4A370
:10178000F0A3F0A304F0A374FFF0902EC07402F055
:10179000902EC37408F0E49002C9F0A3F09002C93F
:1017A000E0FEA3E0FFC39409EE9400400302203F53
:1017B000EF9407EE940040067E007F0180199002AE
:1017C000C9A3E004FFE47E01C8EFC8088006CEA2EA
:1017D000E713CE13D8F8FF9002CBEEF0A3EFF09012
:1017E0002EC07419F0902EC0E030E2F99002C8E0EB
:1017F000FF75F002A42400122931E0FCA3E0FD9063
:101800002EC07402F0D3ED94FFEC940F40179002B9
:10181000CBE0FCA3E0FD75F002EF12292EEC8DF079
:101820001209BC80299002C8E075F00212292EC06E
:1018300083C082E0FEA3E0FF9002CBE0FCA3E0FDCA
:10184000C3EF9DFFEE9CD082D083F0A3EFF0900217
:10185000CAE004F070069002C9E004F0021F7D7F28
:1018600000227F997A01790612105C9001087401B8
:10187000F0A37400F074441210227400F074461245
:1018800010227400F0A374481210237400F0A374A3
:10189000321210237400F0A3742E1210237400F07F
:1018A000A3742CF09001237401F0A37400F0A374CE
:1018B00026F09001987401F0A37400F0A3748412D0
:1018C00010237400F0A37486F09001267401F0A335
:1018D0007400F0A3741C1210237400F0A37422F09F
:1018E00090011A7401F0A37400F0A374361210234F
:1018F0007400F0A3742A1210237400F0A37438F05B
:101900007573007574C890011A120FFDF9E573859F
:1019100074F0120A3590011D120FFDF9E475F064A0
:10192000120A35900120120FFDF9E475F096020AB3
:10193000359002C6EEF0A3EF1211059002C6E070DA
:1019400002A3E0600312246F1225F2E490017DF0FF
:10195000A3F07F141229F79002147402F074581245
:10196000103E900106E0F9A3E0FFA3120FFD121054
:101970002A90010B120FFD12108D900111120FFD14
:101980001211BF900114120FFD12108D9001171249
:101990000FFD1211BF1211C8E4900132F090013412
:1019A000120B6800000000E49001381210FEF09065
:1019B0000106120FF512102AE4900133F090022272
:1019C0001211CF90021EF0A3F0FE7F14FD7B017A6E
:1019D000017984120BC6900123120FE590018A123F
:1019E000112290019212118E229002CCEEF0A3EF00
:1019F000F0E5624561700C9002CCE0F561A3E0F582
:101A00006280169002CDE02562FF9002CCE0356145
:101A10001211D9F561EF13F5620563E563D3940AFA
:101A2000400D85615F856260E4F561F562F563D321
:101A3000E5609400E55F9400405C9002CDE0956025
:101A4000FF9002CCE0955FFE122BC8C3EF940AEE24
:101A5000648094805028AE5FAF607C007D031211DB
:101A60003A9002CCE0FEA3E0FFE4FCFDEB2FFFEA9E
:101A70003E1210787802120B499002CC801390022B
:101A8000CDE02560FF9002CCE0355FC313FEEF137D
:101A9000FFEEF0A3EFF09002CCE0FEA3E0FF220205
:101AA0002A52E493A3F8E493A34003F68001F208DA
:101AB000DFF48029E493A3F85407240CC8C333C48B
:101AC000540F4420C8834004F456800146F6DFE4F6
:101AD000800B01020408102040809026A4E47E01BF
:101AE0009360BCA3FF543F30E509541FFEE493A369
:101AF00060010ECF54C025E060A840B8E493A3FA7B
:101B0000E493A3F8E493A3C8C582C8CAC583CAF006
:101B1000A3C8C582C8CAC583CADFE9DEE780BE3074
:101B2000000875731B75745880067573007574C84A
:101B300090010B120FE5FFAEF0C39574EE95735054
:101B400015900132E06020900120120FE5FDC3EFF7
:101B50009DEE95F0401190021AE07002A3E070270C
:101B600090013204F0802090001BE0B42005121197
:101B7000B7800690021A12118EE4900132F09002A2
:101B800018F0A3F01211C8900132E0601190002803
:101B9000E090003AB410047410F0227420F0229007
:101BA000022FE014601B1460432402705D90023920
:101BB000E0B4010A90022F1223EBD205D200C20337
:101BC000227F0212285FEF60077F02122BD4C2052A
:101BD000900239E0703490022F7402F0D203C205F3
:101BE000C2007F03122BD47F030226FA7F03122840
:101BF0005FEF60167F03122BD4900239E090022F22
:101C00007003F080031223EBC203227401F07F0201
:101C1000122BD47F021226FA22CDEFCD43AD105302
:101C200099EF439A10539BEF902EC07402F0147EEC
:101C300000C8EDC8088005C333CE33CED8F9FF9075
:101C40002EC4EEF0A3EFF0902EC8EEF0A3EFF074E8
:101C500010122B05902EC0E030E2F9902EC0E4F077
:101C60007402F07420122B05902EC0E030E2F9903F
:101C70002E00E0FEA3E0FF902EC4E4F0A3F0902E2F
:101C8000C0F0439910539AEF539BEF5390EF2212F9
:101C90002AA9902E42E0FEA3E024BBFFEE34FEFE14
:101CA00012116C400A902E427401F0A37445F05357
:101CB000997F122BB2902E5EE4F0A374FFF07F0F99
:101CC000121F50902E5EE0FEA3E0D394F0EE94013C
:101CD0004007902E5EE4F0A3F0902EC4E4F0439908
:101CE00080A3F0900105E0900021F012109B120FEC
:101CF000FDF9EE8FF0020A359002C47408F0A3E4F7
:101D0000F0A3743FF0A374DFF0E4FDFCF9758A10D2
:101D1000538AEF009002C4E0FEA3E02DF582EE3C72
:101D2000F583E493FF69F90DBD00010CBC37E5BDF7
:101D3000DFE29002C6122BA9E493699002D67009E3
:101D4000122BA9A37408F08006122BA9A3E4F07546
:101D50008A50538AEF0022200A0620030330050927
:101D6000E4FFFE122111C20A22900220E07002A3B9
:101D7000E06005121165703A200003122955122502
:101D8000F27F011229F7121D1C9002C4EEF0A3EF9E
:101D9000F07B017A0279C41227939002C41210DCFE
:101DA000120FFD12102A1213DD1222FF1212061258
:101DB000176F1228E122900211E024FE60131460D4
:101DC00023146027240370499002117402F0122B2F
:101DD000E37F017E001221119002117403F0E49060
:101DE0000230F0229002117404F02212237F122795
:101DF0004B12237F900171E07004A3E06401700C2A
:101E0000900171F0A3F09002117402F0E4900225A9
:101E1000F0224389025395FD5396FD438002122B15
:101E20003F7F0C1223F9CAEECACBEFCB7F0C1223F3
:101E3000F9EF2BFFEE3A9002C9F0A3EFF0122B114D
:101E4000F91209D245F07006122AF6EE801812092E
:101E5000D2FBAAF0122AF6EF2BFFEE3AC313F9EFEA
:101E600013FF122B11C98FF0120A352212293AF5ED
:101E7000828E83A3E0B4AA031224D812293AFF1257
:101E80002925E0B41008EF122925E4F0D20A12291E
:101E90003AFF241B122927E0700DEF241C1229277A
:101EA000E0B410031227DA12293A2413122927E08A
:101EB000FFB410069002397401F0EFB42005E490ED
:101EC0000239F022C10C41023300410234004102C8
:101ED000300041023800C102C101C1044102390091
:101EE00041022F00C103C100C1054102D8004102D7
:101EF000D9004202D30000C106C108C1074102D582
:101F0000104101030041010510C10BC10A41019FAD
:101F1000004101041041023A00009002C4EFF0E0D9
:101F200024BB122B1FE060037F01229002C4E0FF5C
:101F300024BB122B1F7401F0EF122B27E493FE74C5
:101F40000193FFE4FCFD902F60E0F8A3E0F9A3E02B
:101F5000FAA3E02FFFEA3EFEED39EC389002C4E030
:101F6000122B33EEF0A3EFF07F00221211657029DF
:101F700090019FE070031210E590019F7401F090B2
:101F80000029E0B42008122537120C478003122ADA
:101F9000259002247401F08017E490019FF09000D6
:101FA00029E0B42003122537900224E06002E4F017
:101FB000022B629002C6EBF0A3EAF0A3E9F09002D4
:101FC00014E07002A3E07031900133E0602BE490E4
:101FD0000133F01225F21210E57508017F01122974
:101FE000F7121D1C9002C6120FFD1210940508E591
:101FF00008C3941440E61211B72212082EE4F5F239
:1020000075F30875EEFF75EF3F75EA81F5F675EB30
:102010000700E5EC30E7FBE4F5EC9002D6E0FEA328
:10202000E0FF241BF582E43EF583E5F3F0EF241C8A
:10203000F582E43EF583E5F2F075EB3022758B1105
:10204000902F647440F0E4FEE4FFEF75F003A424E5
:102050004DF582E43402F583E5822EF582E4358382
:10206000F583E4F00FEFB40AE10EEEB403DA7F0972
:102070009002BBE4F0A3DFFC902F647480F022CBCD
:10208000EFCB122B1CE06036902F60A3A3E0FEA3E1
:10209000E0FFEB122B33E0FCA3E0FDD39FEC9E505E
:1020A0001DC3EF9DFFEE9CFEEB122B27C374019323
:1020B0009FE4939E4008122B1CE4F07F01227F00D6
:1020C00022758A50538AEF9000027411F09000013B
:1020D0007422F09000037433F0E4F5AB75AC1DF599
:1020E000ADF5AF7589FF75913F7599FFF5967593BD
:1020F0001CF59BF595F592F59A5388FCD28AD20D82
:102100002290003AE0FC900104E06C602E90003ACE
:10211000E0FE900104F090000BE0900238F0540FC4
:10212000F0EEB42005E04420800AECB4100B9002DD
:1021300038E04410F090000BF0C28A22F582E43CB3
:10214000F583EFF022241AF582E43EF58322A424DD
:1021500040F582E5F0342EF583229002D6E0FEA30E
:10216000E022A3F0A37401F0A322746A2FF582E4A5
:102170003400F58322300735C207902E42E0FFA3DA
:10218000E09002C6CFF0A3EFF0122AA912109B1222
:102190000FFD121094902EC07402F09002C6E0FF62
:1021A000A3E0902E42CFF0A3EFF01210E522000042
:1021B0000000FFFFFFFF0000FFFFFFFFFFFFFFFF2B
:1021C000FF00FF000000FFFF000000FFFFFFFFFF18
:1021D000FFFF00000000FFFFFFFFFFFFFFFFFFFF0B
:1021E00000000000121115F0FF74542FF582E43442
:1021F00000F583E0FE75F002EFA42400F582E5F01F
:10220000342EF583E49324C0F582E4342EF583EE76
:10221000F00FEFB416D3229002C9EFF01229C4E4F4
:10222000F5099002C9E0FFE509C39F50071215B1F7
:10223000050980EE902EC0E4F0121BDF900106EE3F
:10224000F0A3EFF022E4F5B2F5BA758D20438D20AE
:10225000538D7F53AAF7F58BE5DB20E211200C0E9E
:10226000E4F58A758703000000758A50D20A758BE1
:10227000112212084E53A87F1228A112081E122AFA
:102280007E43A880122BDD9000FFE06006900211D3
:102290007401F0122B8012264C12259680F59002C4
:1022A000D6E0FFA3E09002DACFF0A3EFF0E4F5DA96
:1022B00075DA4043DA2075D74075DA5875D901438D
:1022C000A90875B80875F8082212104953997F12A9
:1022D00029C4902E42E4F0A374FFF01208667F0137
:1022E000121F5043890212104F43800243998022EB
:1022F00001F40028002801F4009603E801F403E843
:102300001770006403E8003202580258012C01F4EF
:1023100003E8271000C89002C9E0FEA3E0FF7C009C
:102320007D14020974902EC2F0902EC0E04419F082
:1023300022900123E0FBA3E0FAA3E02274BB2BF57B
:1023400082E43402F5832225E024E4F582E4342A91
:10235000F5832225E0243BF582E43402F5832290C4
:102360002EC07402F0902EC77474F0902ECD74C0FD
:10237000F0A374FFF0A3F0902EC37401F0902ECA66
:10238000F022E5B230E005E5AA20E013E490022651
:10239000F075B28E75B6F9F5B743B20143AA0122C2
:1023A000E4FF3006169002D6E0FCA3E0F5828C83B1
:1023B000E0FE54F0FFEE540FF0C20622A3E0FCA3AF
:1023C000E02FF582E43CF58322E0FEA3E0F5828E67
:1023D000832212112A7409F0902EC77401F0902EF6
:1023E000C47480F0A3E4F022EE30E707C3E49FFF5B
:1023F000E49EFE2274BB2F122B1FE4F022122BEA64
:1024000002281D1211C822D2AF32022B6200000036
:1024100000000000000000000000000000000000BC
:1024200000000000000000000000000000000000AC
:10243000000000000000000000000000000000009C
:10244000000000000000000000000000000000008C
:10245000000000000000000000000000000000007C
:10246000000000000000000000000000000000006C
:10247000000000000000000000000000000000005C
:10248000000000000000000000000000000000004C
:10249000000000000000000000000000000000003C
:1024A000000000000000000000000000000000002C
:1024B000000000000000000000000000000000001C
:1024C000000000000000000000000000000000000C
:1024D00000000000000000000000000000000000FC
:1024E00000000000000000000000000000000000EC
:1024F00000000000000000000000000000000000DC
:1025000000000000000000000000000000000000CB
:1025100000000000000000000000000000000000BB
:1025200000000000000000000000000000000000AB
:10253000000000000000000000000000000000009B
:10254000000000000000000000000000000000008B
:10255000000000000000000000000000000000007B
:10256000000000000000000000000000000000006B
:10257000000000000000000000000000000000005B
:10258000000000000000000000000000000000004B
:10259000000000000000000000000000000000003B
:1025A000000000000000000000000000000000002B
:1025B000000000000000000000000000000000001B
:1025C000000000000000000000000000000000000B
:1025D00000000000000000000000000000000000FB
:1025E00000000000000000000000000000000000EB
:1025F00000000000000000000000000000000000DB
:102600000803AB61000000000000000000000000B3
:1026100000000000000000000000000000000000BA
:10262000021203030A0F0DA00EB60FFF0C020BFFE0
:1026300023F724062504070127082A0828022B026D
:1026400029032C032D082E082F0426080211030647
:102650000A100D400E800FFF0C020BFF23F4240420
:102660002504070127102A1028042B0429032C0312
:102670002D202E202F10262000000000000000003A
:10268000000000000000000000000000000000004A
:10269000000000000000000000000000000000003A
:1026A000000000000000000000000000000000002A
:1026B000000000000000000000000000000000001A
:1037F000000000000000000000000000000000AA1F
:1038000000000000000000000000000000000000B8
:1038100000000000000000000000000000000000A8
:00000001FF
