:100000005446495312280104000008000000000073
:10001000000000800000000059919D2800001000A1
:100020000000000000000000400000000000000090
:1000300000000000010000000000000000000000BF
:10004000544643530000100000D50100240697F1E8
:10005000000001200101100007011000090110003B
:100060000B0110000D0110000F0110001F01100006
:100070001F0110001F0110001F01100011011000CE
:10008000130110001F011000150110001F34100093
:100090001B3510001901100019011000CD79110055
:1000A00019011000E9111000EF11100019011000E2
:1000B000190110008F30100019011000F511100007
:1000C00083841000F90210002F1E10001901100087
:1000D0000000000000000000000000000000000020
:1000E0000000000000000000000000000000000010
:1000F0000000000000000000000000000000000000
:1001000000000000000000000000000000000000EF
:1001100000000000000000000000000000000000DF
:1001200000000000000000000000000000000000CF
:1001300000000000000000000000000000000000BF
:1001400000000000000000000000000000000000AF
:1001500000F010F8FEE7FEE7FEE7FEE7FEE7FEE749
:10016000FEE7FEE7FEE7FEE701480047FEE7FEE7A1
:100170001F01100000F002F800F04AF80AA090E811
:10018000000C82448344AAF10107DA4501D100F052
:100190003FF8AFF2090EBAE80F0013F0010F18BFD5
:1001A000FB1A43F0010318475896010078960100A6
:1001B0000A4410F8014B14F00F0508BF10F8015B5A
:1001C000240908BF10F8014B6D1E05D010F8013B43
:1001D0006D1E01F8013BF9D1641E03D0641E01F8C5
:1001E000015BFBD19142E4D370470000002300245F
:1001F00000250026103A28BF78C1FBD8520728BF37
:1002000030C148BF0B6070471FB51FBD10B510BD92
:10021000DFF80CD0FFF7F8FF03F056FE17F0B7FA3F
:100220000000012003B4FFF7F1FF03BC17F0B6FA9A
:1002300000210028D8BF704700BF491C8842FBDC62
:100240007047704770477047704770477047017834
:10025000002908BF704710F8011F0029FBD1704723
:1002600082B0010F8DF80010C0F303618DF801100A
:10027000C0F303518DF80210C0F303418DF8031051
:10028000C0F303318DF80410C0F303218DF805107D
:10029000C0F303118DF8061000F00F008DF8070071
:1002A00000206A46115C0A2934BF303137311154BD
:1002B000401CC0B2082828BF0020F3D3401CC0B2A5
:1002C0000828FBD302B0704782B001098DF80010F6
:1002D00000F00F008DF8010000206A46115C0A2929
:1002E00034BF303137311154401CC0B2022828BF0E
:1002F0000020F3D3401CC0B20228FBD302B07047E9
:1003000082B0010B8DF80010C0F303218DF80110AD
:10031000C0F303118DF8021000F00F008DF80300F8
:1003200000206A46115C0A2934BF3031373111543C
:10033000401CC0B2042828BF0020F3D3401CC0B228
:100340000428FBD302B0704712484FF6FF710160DA
:1003500070471048104A0021016012681020506157
:100360000E48012203685A6003684022DA6003687D
:100370004FF40C621A6102685161026840F6FF7125
:1003800011620068EA21016305A010F8011F00292D
:10039000FBD17047007000209C8911008C891100EE
:1003A00055415254204F50454E21210D0D00000063
:1003B0000B0ACAB2FD49D1F800C0CCF81C0043F4C6
:1003C000FE400B6858610868006840F00103086847
:1003D00003600868C06810F0010FFAD008688068F0
:1003E0000B6840F00100986002F07F024FF400407B
:1003F00040EA022208684261086800680B6840F021
:10040000010018600868C06810F0010FFAD0086891
:1004100080680B6840F001009860086842610868D5
:1004200000680A6840F0010010600868C06810F0B9
:10043000010FFAD0086880680A6840F001009060F7
:1004400008688069C0B2704700F07F0041EA00216F
:10045000D6480268516101680968026841F00101EB
:1004600011600168C96811F0010FFAD0016889684C
:10047000006841F001018160704700F07F014FF496
:10048000004040EA0122C94801684A6101680968E0
:10049000036841F0010119600168C96811F0010F9A
:1004A000FAD001688968036841F001019960016828
:1004B0004A6101680968026841F001011160016840
:1004C000C96811F0010FFAD001688968026841F02B
:1004D0000101916000688069C0B2704710B58C4618
:1004E0000446FFF7CAFF20EA0C01E0B2BDE8104065
:1004F000AAE7704710B503F0EFFCAC4B84464FF011
:1005000004301968086219680014486219680120EB
:100510000861196888601968486000217F20FFF72A
:1005200093FF40210120FFF78FFFBCF1050F18BF9B
:1005300010BD00201968C1F8100310BD9B4A00B51A
:1005400012680321D16100284FF000014FF07F00B5
:1005500006D0FFF779FF032100205DF804EB73E775
:10056000FFF772FF012100205DF804EB6CE78F4A72
:1005700000B512680321D16100284FF000014FF04F
:100580007F0006D0FFF760FF012100205DF804EB3B
:100590005AE7FFF759FF03210020FFF755FF00211D
:1005A00008465DF804EB4FE7804900B50968032071
:1005B000C86100217F20FFF747FF00205DF804EBB2
:1005C0005BE77A4900B509680320C86100217F20F4
:1005D000FFF73AFF082102205DF804EB34E7734986
:1005E0000A68926C0123096803FA00F010438864DA
:1005F000704770476D490968896D80F001000122DC
:10060000801C02FA00F00840704768480168496C95
:10061000026841F4006151640168496C006821F48A
:10062000006141647047614A012303FA00F0002928
:100630001168096C03D0084311680864704721EA07
:100640000000116808647047584900280868C06DA8
:100650000AD00A6840F00200D0650868C06D0968D9
:1006600040F01000C86570470A6840F00100D0658E
:100670000868C06D096840F00800C86570472DE93A
:10068000F043DFF8289180462025D9F8001009278B
:100690000220C861002404217F20FFF7D5FEA44674
:1006A00011E0BCF1030F03D0BCF1060F0BD105E044
:1006B00005217F20FFF7C8FE002404E006217F20EB
:1006C000FFF7C2FE00240023002D88BF08EB4C1664
:1006D00008D9F15C2046FFF7B7FE601C5B1CC4B272
:1006E0009D42F6D80CF1010C6745DAD8D9F8001014
:1006F0000120C861002404217F20FFF7A5FEA44645
:10070000002F13D8BDE8F083BCF1030F03D0BCF178
:10071000060F0BD105E005217F20FFF795FE002491
:1007200004E006217F20FFF78FFE00240023002D28
:1007300088BF08EB4C160AD9F01890F82011204613
:10074000FFF782FE601C5B1CC4B29D42F4D80CF122
:10075000010C6745D8D8BDE8F08370B5134904464D
:1007600003200968C8610425E9B27F20FFF76CFE09
:100770000023E1B2D8B2FFF767FE03F12000E1B237
:10078000C0B2FFF761FE03F14000E1B2C0B2FFF773
:100790005BFE5B1C202BECDB0AF00BFC002808BF87
:1007A00000246D1C072DDFDB70BD0000A089110047
:1007B00010B5044603F090FB964B84464FF004308E
:1007C00019680862196800144862196801200861F4
:1007D000196888601968486000217F20FFF734FE9F
:1007E00040210120FFF730FEBCF1050F03D119684D
:1007F0000020C1F8100319680320C861DFF818C28F
:1008000001233CF82300C0F307217F20FFF71CFEE3
:10081000E15C1CF82300FFF717FE5B1CB3F5A67F15
:10082000EFDB10BD7B4803210268D1610268012122
:10083000C2F8141302681121C2F8301300684FF097
:100840000111C0F8201300217F20FDE5714B00B598
:1008500019680320C86100217F20FFF7F5FD4021C2
:100860000120FFF7F1FD00210320FFF7EDFD02213C
:100870007F20FFF7E9FD15210220FFF7E5FD892123
:100880000420FFF7E1FD0F217F20FFF7DDFD0121AF
:100890000320FFF7D9FD19680120C1F81403196876
:1008A0001120C1F8300319684FF00110C1F820037E
:1008B00003217F20FFF7C8FD01210020FFF7C4FDC1
:1008C00000210120FFF7C0FD21210520FFF7BCFD1D
:1008D00004216D20FFF7B8FD08216E20FFF7B4FD5D
:1008E00010216F20FFF7B0FD01217F20FFF7ACFD45
:1008F00008210020FFF7A8FD04210120FFF7A4FD37
:100900001868406C196840F4006048641868406CCE
:10091000196820F40060486400BD3E4B00B51968BA
:100920000320C86101467F20FFF78EFD09210320C7
:10093000FFF78AFD01210F20FFF786FD19680120CE
:10094000C1F8140319689920C1F8300319686FF0D1
:10095000FE20C1F8200303217F20FFF775FDFF2152
:100960000020FFF771FD03210120FFF76DFD21211C
:100970000520FFF769FD01217F20FFF765FD0021BC
:100980007520FFF761FD012176205DF804EB5BE542
:100990007047224B00211A46E0FB03214809C0EBB7
:1009A0000010800070470020704700207047002032
:1009B0007047002070470846704700207047704716
:1009C000002070477047704700207047704770479D
:1009D00000207047002070470020704700207047BB
:1009E000704770470020704770477047704700207D
:1009F000704700207047704770477047002070476D
:100A0000002070477047002070477047704770475C
:100A100070470000A0891100000000205BB0055B5A
:100A2000FF4910B509680320C86100217F20FFF746
:100A30000BFD02210020FFF707FD01210220FFF737
:100A400003FD0121BDE810400020FFF7FDBCF44983
:100A500010B509680320C86100217F20FFF7F4FC6E
:100A600002210020FFF7F0FC01210220FFF7ECFC3F
:100A70000121BDE810400020FFF7E6BCE94808B5B9
:100A800001684969C1F30721009101684969009A29
:100A9000C1F307219142F8D0E1480168D1F82C1345
:100AA000006841F00401C0F82C13FFF77DFD002819
:100AB00008BF08BD0020BDE80840FFF758BDD94871
:100AC00008B501684969C1F30721009101684969C6
:100AD000009AC1F307219142F8D0D1480168D1F8BA
:100AE0002C13006841F00401C0F82C13FFF75CFDE3
:100AF000002808BF08BD0020BDE80840FFF737BD4B
:100B000010B503F0E9F9052809D0C5480068D0F808
:100B10002C0310F0040F0CBF0120002010BDC248B0
:100B20000068006810BD70B50546FFF7E9FF0128B1
:100B300018BF70BD03F0D0F9B94C0326052827D0A3
:100B4000FFF7BDFF012D18BF70BD2068406C216804
:100B500040F40060486400BF00BF00BF2068406CE4
:100B6000216820F4006048642068C66100217F206D
:100B7000FFF76AFC02210020FFF766FC012102203A
:100B8000FFF762FCBDE8704001210020FFF75CBC6C
:100B90000020FFF7ECFCD8E710B5FFF7ABFC012015
:100BA000FFF7C1FF102003F044FC0121052002F0F3
:100BB00090F90121062002F08CF99C4901208870EF
:100BC00010BD10B5602002F0DAF9602002F0CAF919
:100BD000934903200968C86410BD944A01465079BE
:100BE000002818BF0120002918BF0121517170474A
:100BF0008E4A11691061084670478C4800210171C6
:100C0000C17001898A4816F024BD8848002101710D
:100C1000C1700189864816F01CBD00B583B0002064
:100C20008DF80000ADF8040003F056F902281CBF4F
:100C300003B000BD0AF0BDF902281CBF03B000BD1F
:100C4000012077490968C86103217F20FFF7FCFB79
:100C500089210520FFF7F8FB67210620FFF7F4FB49
:100C600045210720FFF7F0FB23210820FFF7ECFBCD
:100C700003B0F12109205DF804EBFFF7E5BB2DE996
:100C8000F14F88B0002004464FF0100B0290009006
:100C900003F022F9674905280BD0086890B10128B4
:100CA00008BF01240ED002280BD0032808BF03245C
:100CB00008E00868022814BF4FF0360B4FF0000B15
:100CC000EBD102245C485D494FF0200900680969B6
:100CD000406BFF3100F5E03021F0FF01503004FBA4
:100CE000010512200026069001E0032E01D21427F0
:100CF0001AE0F01E032838BF152715D3B01F0328AC
:100D000038BF162710D3A6F10900032838BF2427BF
:100D10000AD3A6F10C00032838BF252704D3A6F177
:100D20000F00032838BF26270298B84209D03C4854
:100D3000029739090068C16107F00F017F20FFF7B2
:100D400083FB0AF036F900280CBF4FF07F084FF004
:100D500048080024B9F1000F35D938090590384802
:100D6000A0FB06104008A0EB800000EB060A354807
:100D7000A0FB06104008404200EBC0008119089813
:100D800000EB41100490089800EB46100390059882
:100D9000012820D0C4F11F0000EB4A1080B201905E
:100DA00001226946284601F054FB6D1C03F094F8BB
:100DB00002284CD051E0202C45F10005E7D3601CFF
:100DC000C4B24C45F7D3701CC6B2069886428CD389
:100DD00009B0BDE8F08F04EB4A1080B20190012207
:100DE0006946284601F035FB6D1C03F075F80228B2
:100DF00005D10098804502D880384F2806D203F0EC
:100E00006BF8052804BF0098FF2801D1CDF800B089
:100E10000098C1B2039801550198C0B214E00000D7
:100E2000A0891100BC891100A4891100300500209F
:100E300064080020C4050020A0060020A4060020AD
:100E4000ABAAAAAA398EE338FFF7FEFAB7E70098F3
:100E5000804502D880384F2806D203F03DF8052897
:100E600004BF0098FF2801D1CDF800B00498009984
:100E70002044C9B280F820110198C0B2FFF7E4FA0B
:100E80009DE7FE49C860704710B503F025F80528B6
:100E900002D0BDE8104012E6FFF732FE012818BF6D
:100EA00010BD0020BDE81040FFF761BB70472DE981
:100EB000F04F804683B00C460120FFF734FE03F06C
:100EC0000BF80127EE4D06464FF00009002C78D0B4
:100ED00003F002F8052812D0FFF7F1FD6068002842
:100EE0001CBF206800286CD06FF0FE2A4FF0990BD1
:100EF000052E0CD0022E27D0012E40D058E0FFF74F
:100F0000FFFD012804BF0020FFF731FBE6E707F0F3
:100F10002AFD022801D080B14AE0D4E90010FFF791
:100F200047FC2868C0F814732868C0F820A3286814
:100F3000C0F830B3FFF7F1FC3AE0D4E90010FFF756
:100F400037FCFFF783FC33E00AF033F8022801D0C6
:100F500070B12DE0D4E90010FFF72AFC2868C0F832
:100F600014732868C0F820A32868C0F830B31FE0C5
:100F7000D4E90010FFF71CFCFFF754FC16E002F068
:100F8000AEFF20B102F0ABFF022808D010E0D4E998
:100F90000010FFF70DFC2868C0F8147308E0D4E9CE
:100FA0000010FFF705FC2868C0F81473FFF72DFB4D
:100FB0002868C0F82893B148C0F80C80A068FFF7F3
:100FC0005EFE8DF80090ADF8049002F085FF0228D7
:100FD0001DD109F0EEFF022819D12868C76103214D
:100FE0007F20FFF731FA89210520FFF72DFA6721CD
:100FF0000620FFF729FA45210720FFF725FA2321CC
:101000000820FFF721FAF1210920FFF71DFA9B4C78
:1010100084F8049084F8039021899A4816F019FB0B
:10102000C4F81090607900206071602001F0A7FF83
:10103000602001F097FF29680320C86403B0BDE871
:10104000F08F602001F092BF10B5602001F08EFF9C
:10105000BDE81040012066E58848C06870478748B1
:101060000078002818BF0120704738B5864C00254D
:1010700020684069C0B20090FFF742FD002818BF09
:1010800038BD7E480571C57001897E4816F0E1FAC9
:101090007B4A1068406C116840F40060486400BFEF
:1010A0001068406C116820F4006048642068406952
:1010B0000099C0B28842F9D021680220C861106846
:1010C000D0F82C03116820F00400C1F82C0310683C
:1010D000C0F81053FFF768FA002818BF38BD012088
:1010E000BDE83840FFF743BA70B502F0F5FE0025C1
:1010F000624C052803D02570BDE87040B5E7FFF7C6
:10110000FFFC002818BF70BD2571E57021895D487E
:1011100016F09FFA25705A480168D1F82C13006820
:1011200021F00401C0F82C13BDE870400120FFF746
:101130001EBA524901200870704770B502F0CCFE0B
:101140004E4C0125052808D0FFF7DAFC002818BF0F
:1011500070BD2570BDE8704087E7FFF7D1FC00281F
:1011600018BF70BD00202071E0702189454816F03D
:1011700070FA2570BDE870400120FFF7F8B9012032
:10118000D1E470B53D4C0025E57002F0A5FE0528C0
:1011900003D02570BDE8704067E7FFF7B1FC002879
:1011A00018BF70BD2571E5702189364816F051FAD7
:1011B000257033480168D1F82C13006821F0040130
:1011C000C0F82C13BDE870400120FFF7D0B92B4ABE
:1011D000516950610846704728498861704727481F
:1011E00080697047254840787047244948707047A7
:1011F000012888BF7047254900280868406E04D040
:10120000096840F0020048667047096840F0010034
:1012100048667047012888BF70471C490028086845
:10122000406E04D0096820F00200486670470968E3
:1012300020F0010048667047002000F0D2BB01207A
:1012400000F0CFBB10B50D4CE069401CE0610C48CC
:101250000168096D006841F004010165FFF7D5F9E7
:10126000FFF7AFF9207800281CBF0120FFF75BFCD7
:101270006069002818BF804705480BE03005002052
:10128000A089110064080020BC8911009C8911000C
:1012900064050020016841F40061016010BD10B5D3
:1012A0000120FFF740FCBDE8104000F0DEBBFE4827
:1012B0007047FE487047FE48006A7047FC48406A25
:1012C0007047FB48806A7047F9490020086248620D
:1012D00088627047F74900EBC00001EBC01070470F
:1012E00048434FF6FF7101EA4000F1490881704719
:1012F000F14A107051707047EF49085C7047F0B5C3
:101300000746A1B0202401210220FFF78CF9EB4D04
:1013100000216E46286830F8110026F81100491C9B
:10132000A142F7D300210220FFF77DF9012100201F
:10133000FFF779F90021002C09D9286806EB410252
:1013400030F81100491CA2F840008C42F5D8002169
:101350000846FFF768F9A2006946384616F0D8F843
:1013600021B0F0BD70B50E46D1490500E0B04FF098
:10137000800008814FF020044FF001010CBF0520D0
:101380000420FFF750F9CD4900206B46096801EBB6
:10139000053101EB800202F58052D2F800C043F81B
:1013A00020C003EB800CD2F88020401CCCF88020B9
:1013B000A042EED3002D4FF0000114BF0420052001
:1013C000FFF731F9E2006946304616F0A1F860B047
:1013D00070BD70B50400B6480E464FF00101058996
:1013E0000CBF05200420FFF71EF9B4482A46006808
:1013F00000EB043000F58051304616F089F84FF0CC
:10140000000124B1BDE870400420FFF70CB9BDE82D
:1014100070400520FFF707B910B590B020220021D9
:101420000091019102910391049105910691079118
:10143000089109910A910B910C910D910E91EC4636
:101440000F9100EB410430F81130B4F840422344CE
:101450002CF81130491CC9B29142F2D352006146B6
:1014600016F056F810B010BDF0B5914F934EADF296
:10147000844D00243D89002C4FF001010CBF052054
:101480000420FFF7D0F830682A4600EB043000F55E
:101490008051684616F081F8002C4FF000010CBF17
:1014A00005200420FFF7BFF8641C022CE2DB0020BB
:1014B000FFF7B0FE0120FFF7ADFE0DF2844DF0BD49
:1014C0007F4A80490020136803EB8003D3F8C030C3
:1014D00021F81030401C0728F5D31068D0F8E4003C
:1014E00048827047764A784B002818BF00201DD0EC
:1014F000116801EB8001D1F880110904090C18BFB3
:1015000023F81010401C2028F2D30020116801EBB2
:101510008001D1F880120904090C1CBF03EB400CB8
:10152000ACF84010401C2028F0D37047116801EB44
:101530008001D1F800110904090C18BF23F810101C
:10154000401C2028F2D30020116801EB8001D1F863
:1015500000120904090C1CBF03EB400CACF840104E
:10156000401C2028F0D37047F8B5044600200090B6
:1015700002F0B2FC01264E4D052809D009F019FDF4
:10158000002820463DD0FFF735F8002845D013E06D
:1015900007F0E9F90228204603D0FFF72BF8E0B165
:1015A00023E0FFF727F838B984F001042046FFF75D
:1015B00021F8002808BFF8BD3E492046FFF709FF83
:1015C000FFF77EFF2046FFF78DFF2046FFF722FE44
:1015D0002E7184F00100E870F8BD84F0010420460B
:1015E000FFF708F8002808BFF8BD32492046FFF78A
:1015F000F0FE2046FFF70EFE2E7184F00100E87029
:10160000F8BDFEF7F7FF0028EFD184F00104204673
:10161000FEF7F0FF0028E8D1F8BD84F00104204671
:10162000FEF7E8FF0028C7D1F8BDF8B5002000900C
:1016300002F052FC01251E4C05280CD009F0B9FC23
:1016400000284FF00006304642D0FEF7D3FF0028B6
:1016500008BFF8BD1AE007F086F902284FF000062F
:1016600030460ED0FEF7C6FF002808BFF8BD11496E
:101670003046FFF7AEFE3046FFF7CCFD2571E57032
:10168000F8BDFEF7B7FF002808BFF8BD094930468E
:10169000FFF79FFEFFF714FF3046FFF723FF3046AA
:1016A000FFF7B8FD257111E038080020410800203F
:1016B000300500206408002036050020C489110090
:1016C000A0891100640D0020E40C0020E570F8BD35
:1016D000FEF790FF0028CAD1F8BD10B50446D648E1
:1016E000FFF70DFED54901220A7184F00100C87090
:1016F00010BD70B5D14D04466879002804BFE87864
:10170000FFF732FF2879002808BF70BDCA4AAB69CD
:1017100002F5A060A0F18001A0610020C4E90210E0
:1017200020616061C4E90032012070BD70B5C34D15
:1017300004466879002804BFE878FFF776FF287927
:10174000002808BF70BDBC4AAB6902F5A060A0F1DB
:101750008001A0610020C4E9021020616061C4E939
:101760000032012070BDB5490020087170472DE995
:10177000F14F82B00020009012204FF02008002589
:10178000019001E0032D01D214261AE0E81E03287F
:1017900038BF152615D3A81F032838BF162610D327
:1017A000A5F10900032838BF24260AD3A5F10C00AF
:1017B000032838BF252604D3A5F10F00032838BF1E
:1017C00026260098B04209D09D480096310900684D
:1017D000C16106F00F017F20FEF736FE0024B8F14C
:1017E000000F28D902984FEA161B00EB451A9548BE
:1017F000A0FB05104008A0EB800047199248A0FB11
:1018000005104008404200EBC0000299284401EB5B
:101810004019BBF1010F16D0C4F11F0000EB4710B7
:1018200080B2FEF72AFE09EB040181F82001601C5A
:10183000C4B24445EDD3681CC5B201988542A1D31A
:1018400003B0BDE8F08F04EB471080B2FEF715FE41
:101850000AF80400EBE7012070477047002070474A
:101860002DE970431C4616460D468046FFF748F9A1
:101870005FEA00091CBF0120FFF755F92819A842AB
:1018800088BF01210FD900234446B34238BF202C22
:1018900006D201FA04F23A4218BF5B1C641CF4E75A
:1018A0006D1C8542EFD3B9F1000F08BFBDE870830E
:1018B000BDE8704365E42DE9F047994614460E46AD
:1018C0000746089DFFF71CF95FEA00081CBF0120CE
:1018D000FFF729F902F00AFCDFF870C106EB0903F3
:1018E000B342CCF8000088BF381913D93C460AE04F
:1018F000DCF80010097825F8021BDCF80010491C00
:10190000641CCCF80010844238BF202CF0D3761C25
:101910009E42EBD3B8F1000F08BFBDE8F087BDE8E9
:10192000F0472EE4704710B5FFF74AF84349488165
:1019300010BD424AC1B200F470635289914288BF1F
:1019400011464FF0640C01FB0CF1B1FBF2F11A0AE5
:1019500002FB0C1189B210F4805F12BF08B248423A
:1019600000B270470028B8BF404280B2B4BF002127
:101970004FF4805100F470621143304AC0B2528972
:10198000504341EA1020704708B50921732000F048
:10199000C3F8BDF8001000F01F0021F0FF0108435C
:1019A000ADF800000D21732000F0B6F8BDF800106E
:1019B00000F01F0021F47F4141EA0020ADF8000053
:1019C000BDF8000008BD7047FFF710B820484FF47D
:1019D0001071006800F5405015F03BBE0020FEF786
:1019E000E4BF70B5044601280AD81A48002C0168E3
:1019F000496E14BF41F0020141F0010100684166E7
:101A00000E4DA869401CA861296900291CBF204609
:101A10008847287800281CBF0120FFF784F8084871
:101A2000002C0CBF02210121006801650A480168F1
:101A300041F02001016070BD6408002030050020E5
:101A4000A0891100ABAAAAAA398EE338D8050020D4
:101A5000C48911009C8911006405002005490028F3
:101A600014BF00200120087070477047704770470E
:101A7000704700005C050020704710B501F065FD5F
:101A8000234B244900224C6824B14A6001F062FDD6
:101A9000204610BD1878002818BF0A80F3D10888A6
:101AA000B0F57A7F87BF30BF0A80401C0880EAE724
:101AB00010B501F04AFD17484468002C08BF30BF3C
:101AC000FAD00021416001F045FD204610BD70B5FF
:101AD00001F03BFD0F4D6C682CB10020686001F0F7
:101AE00039FD204670BD30BF01F06EFA0028F2D0FB
:101AF00001F06EFAA860EEE70020704730BF704733
:101B000072B662B670477047704772B662B6704779
:101B10002806002060050020FE4BC2081B681A64DE
:101B200001F0FC0141EA002040F4704040F08040A8
:101B300000687047F74BC2081B681A6401F0FC028A
:101B400042EA002040F4704040F08040890700687D
:101B5000C90EC840C0B27047EF4810B500210170EF
:101B6000EC490E2009680864EC48007810F0800FFA
:101B700004BF002010BD40F4881242F088520C21AE
:101B8000012008F038FE012010BDE24B10B41C68A3
:101B90004FEAD00CC4F840C001F0FC0141EA00203B
:101BA00040F4704040F0804002601868006C10F40F
:101BB000007F04BF10BC704700BF1868006C10F4B1
:101BC000007FF9D110BC7047DFF848C310B4DCF8CF
:101BD00000C0C308CCF8403001F0FC0343EA002306
:101BE00043F4704343F08043FF24D3F800C08B07D5
:101BF000DB0E9C402CEA040C9A4010BC42EA0C021A
:101C0000C3E7C7484FF4F46102681161016849688D
:101C1000026841F002015160006803218161704750
:101C2000BF4810B502681021116002684FF4F461DA
:101C3000116101684968026841F002015160006861
:101C400003218161072208217120FFF7BDFF0E20CB
:101C500001F06EF90E2001F078F90E2001F05DF927
:101C60000021BDE810400E2001F033B9A94910B59C
:101C70000968AC480862072201217020FFF7A4FF21
:101C8000A74810210268116002684FF4F4611161E5
:101C900001684968026841F002015160006803214F
:101CA0008161072208217120FFF78EFF0E2001F0CD
:101CB0003FF90E2001F049F90E2001F02EF9002124
:101CC000BDE810400E2001F004B9954800210268DB
:101CD000116002684FF4E0611161006801218161C7
:101CE00070478F4900200A6810600A68106109680F
:101CF000886170478A4806210268116002680221E3
:101D00005160006881617047854800210268116058
:101D10000068816170478249002009680860704747
:101D200010B57F4C08202168086021680220886176
:101D3000072208217120FFF747FF2068C06810F0D4
:101D4000080FFAD021680F20886010BD10B5044636
:101D500002460021F020FFF718FF22460121F02063
:101D6000FFF713FF22460021F120FFF70EFF224666
:101D70000121F120FFF709FF22460021FC20FFF797
:101D800004FF22460121BDE81040FC20FDE64FF48F
:101D9000807141EAD0025F490B681A64624A42EAE4
:101DA000002210600868006C10F4007F08BF7047C4
:101DB00000BF0868006C10F4007FF9D17047554AE5
:101DC0004FF4807141EAD00112681164564941EA2A
:101DD000002000687047082270200021F4E60022ED
:101DE00070201146F0E64B480168496E026821F404
:101DF000007151660168496E026841F48071516654
:101E00000168496E026841F4806151660168496E5B
:101E1000006821F480614166002270201146D3E6FB
:101E20003C480168496E026841F48061516601686E
:101E3000496E026821F4806151660168496E02684A
:101E400021F4807151660168496E006841F40071A7
:101E5000416670472F480168496E026841F480610D
:101E600051660168496E006821F4806141667047DF
:101E700028481B210268116400680164704710B58E
:101E8000274C2068C0682949086029484FF6FF712F
:101E9000006801602068C06810F0100F0BD01D4969
:101EA0001B200A681064096808642068806821683B
:101EB00040F0100088602068C06810F0080F0BD058
:101EC0004FF603720C21012008F095FC2068806811
:101ED000216840F0080088602068C06810F0040F96
:101EE00010D04FF602720C21012008F084FC20680B
:101EF0008068216840F004008860FF220021702083
:101F0000FFF762FE2068C06810F0010F08BF10BD27
:101F100020680FE09C8911006C05002000F2004051
:101F2000BC8911002222A26000F00040E8060020D7
:101F3000848911008068216840F00100886010BD2C
:101F40007047704770B50446C0F30741FE4D2868DE
:101F500001F0F5F9C4F30721286801F0F0F9E1B2C6
:101F60002868BDE8704001F0EAB92DE9F041F74F6B
:101F70000446164638680D46806A396840F003000A
:101F80008862DFF8C4830321D8F8000001F0D7F994
:101F90002046FFF7D7FF0024002E07D9D8F800000D
:101FA00001F0FBF92855641CA642F7D83868806A0E
:101FB000396820F0030088620120BDE8F081F8B59F
:101FC0000E0005464FF0000417D00422694628464B
:101FD000FFF7CBFF9DF800009DF801109DF803204E
:101FE00008409DF8021011400840FF2801D0002051
:101FF000F8BD641C2D1DB442E7D30120F8BD2DE9C6
:10200000F84391460D468046002401F0A8FA0027C7
:10201000B9F1000F88BF6E4619D9042269464046BF
:10202000FFF7A3FF0023F05CE95C88421CBF601C43
:1020300084B25B1C042BF6D32D1D7F1C08F1040811
:102040004F45EAD3002C1CBF0020BDE8F8830120D7
:10205000BDE8F8830120704770B5BC4C0646206887
:10206000806A216840F003008862B74D0521286826
:1020700001F065F9286801F090F92168896A226801
:1020800021F0030191623070012070BD38B5AF4C72
:102090002068806A40F0030120688162AA4D052112
:1020A000286801F04CF9286801F077F92168896AFD
:1020B000226821F0030191628DF8000010F0010008
:1020C00018BF012038BD10B5A04C2068806A216877
:1020D00040F0030088629C480621006801F02FF957
:1020E0002068806A216820F003008862012010BD0A
:1020F00070B50546FFF7CAFF00281CBF022070BD5F
:10210000FFF7E1FF914C2068806A216840F00300EE
:1021100088628D482021006801F011F92846FFF7F8
:1021200011FF2068806A216820F003008862FFF7B1
:10213000ADFF28B100BF00BFFFF7A8FF0028F9D10D
:10214000012070BD2DE9F84F8046032701F007FA02
:10215000DFF8F891DFF8F0A1FFF798FF10BBFFF769
:10216000B2FFD9F80000806AD9F8001040F00300EF
:1021700088622021DAF8000001F0E1F84046FFF71C
:10218000E1FED9F80000806AD9F8001020F00300C1
:102190008862FFF77BFF28B100BF00BFFFF776FF23
:1021A0000028F9D145464FF4806600240422694690
:1021B0002846FFF7DAFE9DF800009DF801109DF813
:1021C000032008409DF8021011400840FF2806D067
:1021D000381EA7F10107BFDC0220BDE8F88F641CA0
:1021E0002D1DB442E2D30120BDE8F88F2DE9F04166
:1021F00017460E460446FFF749FF00281CBF022081
:10220000BDE8F081FFF75FFFDFF84081D8F80000FC
:10221000806AD8F8001040F0030088624A4D02211D
:10222000286801F08CF82046FFF78CFE0024002F70
:1022300006D9315D286801F082F8641CA742F8D8FD
:10224000D8F80000806AD8F8001020F003008862F7
:10225000FFF71CFF28B100BF00BFFFF717FF0028E2
:10226000F9D10120BDE8F0812DE9F043C1B08846E5
:10227000814603276E4601F072F94FF480724146A1
:102280004846FFF7B3FF002445464FF48072694685
:102290004846FFF76AFE305D295D884205D07F1E03
:1022A000E9D241B00220BDE8F083641CB4F5807F20
:1022B000F1D341B00120BDE8F0832DE9F041244C79
:1022C0000646224FDFF880802068C0B00D4650B12E
:1022D000D8F8000001F033F82268FF2AB8BF501C7C
:1022E0001BDA20603CE001F03AF9FFF7ECFE3868B9
:1022F000806A396840F0030088620221D8F8000043
:1023000001F01DF83046FFF71DFE2946D8F8000001
:1023100001F015F82068401CE3E7002020603868D1
:10232000806A396820F00300886200244FF48072CC
:1023300069463046FFF719FE68462A5D015D914205
:102340000AD0022040B005E0B88911009C89110034
:1023500070050020BDE8F081641CB4F5807FECD3EB
:102360000120EFE770B50C46054601F0F8F8B4F52A
:10237000807F88BF70BDFE490A68926A096842F092
:1023800003028A62FB480321006800F0D8FF284658
:10239000BDE87040D6E5F748006800F0FEBFF4489D
:1023A0000168896A006821F003018162704770B595
:1023B0000C46054601F0D3F821462846BDE870409A
:1023C0004FF48072D1E570B5E94D04462868806A03
:1023D000296840F003008862E64E9F21306800F0D3
:1023E000AEFF306800F0D9FF2070306800F0D5FFF4
:1023F0006070306800F0D1FFA0702868806A29689A
:1024000020F003008862012070BD70B5044601F021
:10241000A6F8D74D2868806A296840F003008862D2
:10242000D44E9F21306800F08AFF306800F0B5FF7D
:102430002070306800F0B1FF6070306800F0ADFFD0
:10244000A0702868806A296820F003008862012053
:1024500070BD70B514460D46064601F080F8224660
:1024600029463046BDE870407FE52DE9F047DFF8AA
:10247000009304461746D9F800008846806AD9F8C8
:10248000001040F003008862BA4D0321286800F074
:1024900056FF2046FFF756FD0024B4EB970F18D2E5
:1024A000286800F07AFF0646286800F076FF46EAC2
:1024B0000026286800F071FF46EA0046286800F010
:1024C0006CFF46EA006048F82400641CB4EB970FE8
:1024D000E6D3D9F80000806AD9F8001020F0030094
:1024E00088620120BDE8F08770B514460D460646A7
:1024F00001F035F8224629463046BDE87040B4E781
:1025000010B5FFF7C3FD00281CBF022010BDFFF768
:10251000DAFD974C2068806A216840F003008862E9
:1025200094486021006800F00AFF2068806A2168F2
:1025300020F003008862FFF7A9FD28B100BF00BFAB
:10254000FFF7A4FD0028F9D1012010BD10B501F05E
:1025500006F8FFF79BFD00281CBF022010BDFFF707
:10256000B2FD834C2068806A216840F003008862D5
:1025700080486021006800F0E2FE2068806A2168DF
:1025800020F003008862FFF781FD28B100BF00BF83
:10259000FFF77CFD0028F9D1012010BD70B50C4675
:1025A000054600F0DCFF002600F0D9FF4FF48072F2
:1025B00021462846FFF7D9FC761C04F5807405F502
:1025C0008075102EF0D3012070BD2DE9F047C0B00A
:1025D0008846814600F0C3FF4FF0000A46460327B5
:1025E0006D4600F0BCFF4FF4807231464846FFF75D
:1025F000FDFD00244FF4807269464846FFF7B5FCA4
:10260000295D305D814205D07F1EEAD240B00220B4
:10261000BDE8F087641CB4F5807FF1D30AF1010AAC
:1026200008F5807809F58079BAF1100FD6D340B05B
:102630000120BDE8F0872DE9F04F81B00546ADF5EA
:10264000804D000514468846000DEB4633D02F46DA
:102650006FF30B07BA465E4600F081FF4FF00009AA
:1026600000F07DFF4FF4807231463846FFF77DFC65
:1026700009F1010906F5807607F58077B9F1100FA9
:10268000EED3C5F30B00C0F58056A64288BF2646A0
:1026900058443246414614F03BFF5046FFF752FD86
:1026A000022850D059465046FFF78FFF02284CD0E1
:1026B0003544B044A41BB4F5805F19D34FF4805265
:1026C0004146584614F024FF2846FFF73BFD0228F8
:1026D00039D059462846FFF778FF022835D0A4F5AF
:1026E000805405F5805508F58058B4F5805FE5D233
:1026F0001CB3D9462E4600F032FF002700F02FFF12
:102700004FF4807259463046FFF72FFC7F1C06F5C8
:1027100080760BF5807B102FF0D322464146484649
:1027200014F0F6FE2846FFF70DFD02280BD04946AF
:102730002846FFF74AFF022807D0012001B00DF517
:10274000804DBDE8F08F0A20F8E70B20F6E770B562
:102750000646FFF79BFC00281CBF022070BDFFF758
:10276000B2FC034C2068806A216840F0030003E05B
:102770009C891100B88911008862B14D0121286837
:1027800000F0DDFD3146286800F0D9FD2068806A40
:10279000216820F003008862FFF778FC28B100BFB1
:1027A00000BFFFF773FC0028F9D1012070BDF8B518
:1027B00000F0D5FEA34D2868806A296840F0030028
:1027C00088629F4E0521306800F0B9FD306800F046
:1027D000E4FD2968896A2A6821F00301916240F0CA
:1027E00040048DF80040FFF751FC002818BFF8BDE9
:1027F000FFF769FC2868806A296840F00300886256
:102800000121306800F09BFD2146306800F097FD03
:102810002868806A296820F003008862FFF736FC88
:10282000002808BFF8BD00BF00BFFFF72FFC00283D
:10283000F9D1F8BD70B505460024FFF727FC40B17B
:10284000AC4201D9002070BD641CFFF71FFC0028BA
:10285000F6D1012070BD70B57A4C06462068806ABA
:10286000216840F003008862754D0921286800F056
:1028700066FD286800F091FD2168896A226821F0D0
:10288000030191623070012070BD38B5FFF7FEFB87
:10289000002836D1FFF717FC6A4C2068806A40F0A8
:1028A000030120688162664D2F21286800F047FDF2
:1028B0002068806A216820F003008862FFF7E6FB49
:1028C00028B100BF00BFFFF7E1FB0028F9D1206865
:1028D000806A216840F0030088620921286800F0BE
:1028E0002EFD286800F059FD2168896A226821F0D0
:1028F000030191628DF8000010F0020F1CBF01204F
:1029000038BD022038BD4E4810B50421006800F0E3
:1029100016FD012010BD70B5FFF7B8FB00281CBFE5
:10292000022070BD474C2068806A216840F0030097
:102930008862434D0521286800F001FD286800F0F9
:102940002CFD06462068806A216820F0030088621A
:102950002068806A216840F003008862FFF7B3FBBB
:102960000121286800F0EBFC26F04001286800F007
:10297000E6FC2068806A216820F00300886201205C
:1029800070BD70B50546FFF781FB00281CBF022013
:1029900070BDFFF798FB2B4C2068806A216840F0DF
:1029A0000300886226485221006800F0C8FC2846CF
:1029B000FFF7C8FA2068806A216820F00300886267
:1029C000FFF764FB28B100BF00BFFFF75FFB0028E3
:1029D000F9D1012070BD10B50446FFF757FB002860
:1029E0001CBF022010BDFFF76EFB1548D821006800
:1029F00000F0A5FC2046FFF7A5FA12480168896A95
:102A0000006821F003018162FFF740FB28B100BF9D
:102A100000BFFFF73BFB0028F9D1012010BD08489B
:102A200010B5B921006800F08AFC012010BD0448EF
:102A300010B5AB21006800F082FC012010BD000041
:102A4000B88911009C891100012101FA00F0414967
:102A50000A6810430860404909680860704701210E
:102A600001FA00F03B490A6822EA000008603A498E
:102A70000968086070473749096821FA00F000F0DA
:102A800001007047334A116821FA00F313F0010F77
:102A90004FF0010303FA00F02F4B05D021EA0000AC
:102AA0001060196808607047084310601968086072
:102AB000704729490968096821FA00F000F001000F
:102AC000704725490A6852680123096803FA00F033
:102AD00010434860704720490A685268012309681A
:102AE00003FA00F022EA0000486070471A490A68B9
:102AF000126A0123096803FA00F010430862704764
:102B000015490A68126A0123096803FA00F022EAEB
:102B10000000086270471049086840680A6840F081
:102B200001005060086840680A6840F00200506088
:102B3000084A106840F0010010600B6818601068C7
:102B400040F002001060096808600449002009682C
:102B5000C860704774050020948911009C89110099
:102B600070477047B24810B502683F21D1600268D3
:102B7000002191640068C0F8B41003210A2000F01D
:102B8000A8F9BDE810400A2000F0C7B9A84A1368A8
:102B90001860136859604843116888607047A44AF8
:102BA0001368186013685960484310F0010F18BF8C
:102BB000401C1168886070479D490968C1F8B400DD
:102BC00070479B4918B109680120886470470968FB
:102BD00000208864704796480168C968006841F021
:102BE0000201C1607047DFF848C210B4DCF8004051
:102BF0002062DCF800004162DCF800008262DCF850
:102C00000000C362DCF8001001200863DCF800005B
:102C1000406B10F0010F09D000BF00BF00BF00BF24
:102C2000DCF80000406B10F0010FF5D110F002004D
:102C300018BF4FF0FF3010BC70477D480168C9686D
:102C4000006821F00201C160704779480168C968D5
:102C5000006841F00101C1607047754BD3F800C0B6
:102C6000CCF8200018684162186882621968012057
:102C700008641868406C10F0010F08D000BF00BF56
:102C800000BF00BF1868406C10F0010FF6D110F0C3
:102C9000060018BF4FF0FF30704765480168C968EB
:102CA000006821F00101C160704761480168C9688E
:102CB000006841F00401C1607047027C017B02F0B2
:102CC0003F0241EA02415A4A136899651368016854
:102CD000596213684168996213688168D962136800
:102CE000012119651168496D11F0010F08D000BF6D
:102CF00000BF00BF00BF1168496D11F0010FF6D190
:102D00001368DB6D83821368DB6D1B0CC382136851
:102D10001B6E038313681B6E1B0C438313685B6E6F
:102D200083831268526EC2F30E42C28311F0020016
:102D300018BF4FF0FF3070473D480168C968006810
:102D400021F00401C160704701684FEA31423849FF
:102D50000B68C3F89C200A684068C2F8A0000868A5
:102D6000C068096840F02000C8607047304A1368A6
:102D700018621068416211680120C1F89000106863
:102D8000D0F8980010F0010F09D000BF00BF00BFBD
:102D900000BF1068D0F8980010F0010FF5D110F0C6
:102DA000060018BF4FF0FF30704721480168C9681E
:102DB000006821F02001C16070471D480168C968A2
:102DC000006841F01001C1607047A3F1050C184B79
:102DD00010B41C68C4F888C0D3F800C0CCF8200038
:102DE000186842621868816219680120C1F8800081
:102DF0001868D0F8840010F0010F09D000BF00BFA0
:102E000000BF00BF1868D0F8840010F0010FF5D1A2
:102E100010F0060018BF4FF0FF3010BC7047044898
:102E20000168C968006821F01001C16070470000A6
:102E3000A8891100234810B50268012111660268B3
:102E400010215167026841F20601516602680021B3
:102E5000916602680A21C2F8881002689021C2F8BF
:102E600084100168D1F88410026841F00101C2F8B1
:102E7000841002684FF481711166006801660320B6
:102E800000F04BF80021032000F023F80E49022047
:102E900009688862002010BD10B5032000F048F8D2
:102EA00008484FF4807102681166026800211166BB
:102EB000006810218167002010BD044900200870BF
:102EC0007047000098891100A4891100780500203E
:102ED000704700F00303DA004FF0FF0C0CFA02F227
:102EE0004FF0050C0CEBC303994000F00C030028D5
:102EF00008DA304800681844436911409343194385
:102F0000416170472C4800681844D0F800331140E4
:102F100093431943C0F80013704700F01F010122CA
:102F200002FA01F1244A4009126842F82010704761
:102F300000F01F01012202FA01F11F4A4009126844
:102F400002EB8000C0F88010704700F01F010122E2
:102F500002FA01F1184A4009126802EB8000C0F839
:102F60008011704714490968086070471249096860
:102F7000C1F88000704710480068006870470E492B
:102F80000968C1F8800170470A4800688068704786
:102F900008490A6892680968886010467047054ABF
:102FA0001268926800F1100352F8230042F82310CF
:102FB00070470000888911008489110070477047AC
:102FC0007047704770477047002070470020704777
:102FD00000207047704770471B4A11681060084610
:102FE0007047704718484068704710B500F0ACF85B
:102FF000164804210268C2F8881002684FF6FF7173
:10300000C2F88C1072B600684FF40071016662B6A7
:1030100010BD72B60D484FF400310268116662B6F9
:103020000068D0F8040268B14FF6FF71081A06492B
:10303000074A8860A0F50840B93890423CBF4FF07D
:103040000110C86000F085B87C050020AC89110033
:10305000372B1A001A4801684969026841F4007167
:10306000516101680969026821F006011161016876
:103070000969006841F0100101617047104801685A
:103080000969026821F00601116101680969026895
:1030900041F00401116101680969006841F0100103
:1030A000016170470649096888607047BFF34F8F18
:1030B000034904480968C860BFF34F8FFEE700006A
:1030C000888911000400FA05022824BF00207047F7
:1030D000874B53F8202043F820101046704770B5F6
:1030E000844C2068006F824D10F0010F06D02168DB
:1030F0000120C8662868002818BF80472068006F34
:1031000010F0020F08BF70BD02202168C866686811
:10311000002808BF70BDBDE870400047754810B575
:10312000026802211165036801221A6603680322FE
:10313000DA66006841650920FFF7EFFE0221BDE86D
:1031400010400920FFF7C5BE6A49022009680865DA
:103150007047684902200968486570470020704739
:1031600064480168096F11F4007F04D000684FF4CF
:1031700040710166704700684FF4807101667047C6
:1031800010B55C4C2068C06F10F0020F4FF00100CA
:1031900018BF0320226850670520B1FBF0F02268B9
:1031A0004FF405710009C2F8801015F0A3F9524AD6
:1031B000524B15F0EFF915F059F92168C1F8840068
:1031C0002068006F10F4007F04D021684FF4407035
:1031D000086610BD21684FF48070086610BD454830
:1031E0000168096F11F4807F04D000684FF44071CA
:1031F0000166704700684FF40071016670473D4BEF
:1032000030B41A68D26F12F0010F1DBF0322D3F839
:1032100000C0CCF874204FF0020C04BF1A68C2F84A
:1032200074C04FF0020C00EB4005C5EBC0104FF42A
:103230009674C1EBC0004C4300EB8000304904EBB6
:103240004010A1FB0010C0080521B0FBF1F00022E6
:10325000B0F5803F05D3511C4008CAB2B0F5803F9D
:10326000F9D242EA0C211A6841F01001C2F8881024
:103270001968C1F88C001868006F10F4807F05D0C1
:1032800019684FF44070086630BC704719684FF4F5
:103290000070086630BC704716480168096F11F469
:1032A000003F04D000684FF4403101667047006869
:1032B0004FF48031016670470E480168096F11F4C0
:1032C000803F04D000684FF44031016670470068C9
:1032D0004FF400310166704706480068006FC0F384
:1032E0000020704703480068006FC0F3402070471B
:1032F00090050020AC8911007B14AE47E17A843F31
:10330000CDCCCCCC30B40025DDE9024C056001F019
:103310000F0141EA8C1101600168D2B241EA022139
:10332000016023F47F41016110214160416804F094
:10333000040211436FF3CF11416030BC7047C26883
:1033400012F0010F18BF8160C16811F0100FFBD19E
:10335000C16811F0040F08BF70478168C16811F09F
:10336000040FFAD170470023002A0BDD11F803C0C7
:10337000C0F808C0D0F80CC01CF0100FFAD15B1CCC
:103380009342F3DBC16811F0040F08BF70478168F6
:10339000C16811F0040FFAD17047FF22C16811F023
:1033A000100FFBD18260C16811F0100FFBD1C16812
:1033B00011F0040FFBD08068C0B270470023002AD0
:1033C000D8BF704710B4FF24D0F80CC01CF0100F09
:1033D000FAD18460D0F80CC01CF0100FFAD1D0F8EC
:1033E0000CC01CF0040FFAD0D0F808C001F803C0DC
:1033F0005B1C9A42E7DC10BC7047416841F0020157
:103400006FF3CF1141607047416821F4C17121F41D
:103410007E41416070470000704702480068406884
:10342000704770479C891100264900200A68906007
:103430000968086024494860704710B5214C21682C
:1034400048602168002088600221401EFFF741FD8E
:1034500021680720086010BD1A490020096808602B
:103460007047194908707047174800787047164927
:103470000120087070471448806870472DE9F041BA
:10348000114C002705466780A0684FF47A71B0FBA5
:10349000F1F00C4E401E31684860306887600221B0
:1034A000C81EFFF716FD3168072008606188A94231
:1034B000FCD330680760BDE8F08104494843024905
:1034C00088607047808911009805002040420F00F5
:1034D000704770B52C4C05464FF40D502168886636
:1034E00021680320C86621682848486621684CF294
:1034F0007100086621682648C1F88000216842F200
:103500004630886602210020FFF7E3FC0020FFF729
:1035100004FD002D08BF70BD2068806E42F241316D
:1035200008432168886670BD174810B502680121FC
:10353000916700684FF40D5181660020FFF7F8FC99
:10354000BDE810400020FFF700BD0F4901200968C9
:10355000486770470C4901200968886770470A4925
:103560004CF27100096808667047074881B04CF258
:103570007101026811660168096F0268D16600680E
:10358000006F009001B070479089110007383937FB
:10359000009C1C9170B5FB4C00254FF49061257088
:1035A0006570F94814F055F84FF49061F74814F03D
:1035B00050F84FF49061F64814F04BF86560A57030
:1035C0008021F44814F045F8BDE870408021F248AD
:1035D00014F03FB8EB488078002818BF01207047EE
:1035E000E8484078002818BF0120704770B50546AC
:1035F000EA48EB490078097800FB01F4FFF7C6FAC6
:10360000E34A2B46A2F510610846FFF7ECFA620088
:103610002946DF4813F07CFFDA490120487070BD6D
:103620002DE9F0411D4616460F468046069C00F0E7
:1036300053FC022802D107F0BCFC30B100F04CFC76
:10364000052803D105F08FF900B90224FFF788FAA5
:1036500021462846FFF7A3FA3A4631464046FFF78F
:10366000FCFABDE8F041FFF77CBAC64840687047F5
:10367000CC4A10B5127801469200C64813F048FFB4
:10368000C0490120887010BD2DE9F04FDFF8F4A289
:10369000002689B09AF801809AF80270B346FDF7C7
:1036A000E3FEC1480168496C026841F4006151645D
:1036B00000BF0168496C006821F400614164BB49A6
:1036C0000220096808660020FDF787FAFDF70CFD67
:1036D00004F01DFA01280BD06846FEF70AF800280E
:1036E000F6D0684604F04DFE029870B11FB10CE0B0
:1036F0004FF0010B69E00146AA4800788200A54816
:1037000013F006FF01208AF802000198002854D027
:10371000B8F1000F51D104469AF80000A8BBDAF8BE
:10372000045095B39D48007807909D4890F800900C
:1037300000F0D2FB022802D107F03BFC30B100F0D0
:10374000CBFB052804D105F00EF908B94FF00209AA
:10375000FFF706FA49460798FFF721FA21462A465D
:103760000846FFF77AFAFFF7FCF9DFF8449299F878
:103770000000022804BF284604F03FFC99F800002E
:10378000092804BF204604F038FC254683488449B4
:103790000078097800FB01F4FFF7F8F97C4A2B4622
:1037A000A2F510610846FFF71EFA62002946784824
:1037B00013F0AEFE01208AF80100FDF7D4FF761C5D
:1037C000042E85D3BBF1000F03D08AF801808AF85C
:1037D00002700120FDF7A7F9744802210068016614
:1037E00009B05846BDE8F08F6648002101704BE7EC
:1037F00038B50F2100F0E6FB624C012806D100200D
:103800002070FFF741FF009000F061FC6078002815
:103810001BBFA07800280020012038BD0F2138B53B
:1038200000F0D0FB574C012806D100202070FFF794
:103830002BFF009000F04BFC607800281BBFA078A5
:1038400000280020012038BD00214E4841708170C1
:1038500070474D4870474D48704770B505464FF466
:103860009061494813F0F5FE4FF49061484813F019
:10387000F0FE444C29464448227800F0B4F82278FF
:103880002946BDE87040424800F0ADB8002818BF96
:1038900001203C49487070472DE9F043DFF8E4808F
:1038A00083B007004BD04FF41079002400F014FBD4
:1038B000052808BF01243F483F4D00686969806BB7
:1038C000FF3100F5E03021F0FF01503004FB01042E
:1038D00000F002FB022807D107F06BFB20B96869F2
:1038E000FF3020F0FF00044400F0F6FA022802D175
:1038F00007F05FFB40B300F0EFFA052802D105F0B6
:1039000032F808B30025661C204601226946FEF7FE
:10391000A0FD741C012201A93046FEF79AFD019812
:10392000C1B2009861F31F2027F815006D1C3946BD
:103930004D45E8D30122214800F055F81F48C8F84A
:10394000040003B0BDE8F08340210020024627F8C0
:103950001020401C3B468842F9D3012219461848E2
:1039600000F041F81648EAE710B5064C002804BFFD
:10397000606010BD01220146104800F034F80F4885
:10398000606010BDA4050020840D002004120020FA
:10399000841600200424002084240020B605002082
:1039A000B7050020BD050020A08911009C891100E9
:1039B00025060020A0060020A4060020041B0020ED
:1039C000841F002018487047002818BF012017499D
:1039D000887070471549002200284A708A7018BF05
:1039E0000120087050E62DE9F041074610480E46C8
:1039F00004781048057800F06FFA022802D107F029
:103A0000D8FA78B100F068FA052802D104F0ABFFCB
:103A100040B104FB05F0420031463846BDE8F041B4
:103A200013F076BD6000F6E704240020A405002012
:103A3000B6050020B70500202DE9FF4F85B03220E4
:103A40000390FE484FF0000B0C460578FC485F469B
:103A5000DA460078D9464FF0FF38019000F03CFA82
:103A6000052807BF1E267042142670420290FFF7F9
:103A7000F0FE00900198002300287BDD0022002D3D
:103A80004BDD03FB052081B234F9110000F11E0C5F
:103A9000EC4810EB0C0004D3DDF81CC00220ACF89D
:103AA000000034F91100B042D3BFDDF808C00BF1BB
:103AB00001000FFA80FB604506DA07F1010C404275
:103AC0000FFA8CF724F8110034F911000028B4BF64
:103AD000C0F1000C8446E04511DA0028ACBF8446F2
:103AE000C0F1000CDDF80CE0E64508DA0028B8BFAC
:103AF00040420FFA80F81FFA83F91FFA82FA0598FC
:103B000030F91100002804DADDF814C040422CF826
:103B10001100501C02B2AA42B3DB581C03B2019838
:103B20009842ABDCB8F5E16FC2BF042009B0BDE834
:103B3000F08FB8F5C87F1DDDC34A0023911E1088A1
:103B4000484504BF508850450FD10878401CC0B28A
:103B5000087005280ED90B704FF47A7010805080D1
:103B600009B00420BDE8F08F04E00B70A2F80090CB
:103B7000A2F802A05BEA070004BF09B0BDE8F08F1D
:103B8000BBF1000F02D1002F00F3CF80A5F1010E91
:103B90004FF0000B1FFA8EFCB8F1000F40F3CC8001
:103BA00009FB05A0019034F9103003EBD370B3F199
:103BB000FF3F4FEA6000B8BF404202B209FB05F088
:103BC0001FFA80F8012F7DDD0FFA8AF08246012866
:103BD00034DB08EB000189B2002B16DD34F91170DB
:103BE00004EB410131F9021C7F1A05D50029B4BF4D
:103BF0004F420F46974204DB0029B8BF4942B14209
:103C000018DA401E1FFA80FB18E013DA34F911703D
:103C100004EB410131F9021C7F1A002F05DD002958
:103C2000B4BF4F420F469742EBDB0029B8BF494271
:103C3000B142E6DB401E00B20128CADAF24537DAAB
:103C400008EB0A0080B2002B17DD34F9101004EBEA
:103C50004000B0F90200091A05D50028B4BF41425E
:103C60000146914204DB0028B8BF4042B04219DA55
:103C70000AF101001FFA80FC1AE013DA34F910107F
:103C800004EB4000B0F90200091A002905DD002804
:103C9000B4BF414201469142EADB0028B8BF40422E
:103CA000B042E5DB0AF101000FFA80FAF245C7DB0A
:103CB000019881B209FB05B082B209FB05C01FFA69
:103CC00080FC00E038E0009B009833F9123034F8B3
:103CD000122030F911009A1A15B2009A34F8111016
:103CE00032F91C2034F81CC0411A09B2A2EB0C0CAA
:103CF0000FFA8CFC4C1B48BF6C1AB1EB0C0548BF8B
:103D0000ACEB010561190CB2C11A48BF191A831A2C
:103D100048BF131AC81805B207F0F3F918B10AF032
:103D200011FE012806D0AC4206DA09B04FF0FF3090
:103D3000BDE8F08FAC42F8DB09B00120BDE8F08FA0
:103D40002DE9F05FDFF804A180460026DAF80000D4
:103D5000374690F8241100291CBFB0F83001002824
:103D600079D0FDF73CFADAF8001091F82411B0FB95
:103D7000F1F201FB120000286DD101F04AFB5FEA6D
:103D8000000968D032480078102804BF484604F083
:103D900034F92A484FF0000C444690F800B0284807
:103DA000634690F800E0BEF1000F19DD34F9020B14
:103DB0000125BBF1010F10DD34F9022B101A01B2FD
:103DC0000029B8BF494208B2604502DD84461E465C
:103DD0002F466D1C10465D45EEDB5B1C7345E5DB35
:103DE000DAF80020B2F83001844534DB06FB0B70B2
:103DF00008EB400338F8101033F8023CC91A39F8C0
:103E0000103009EB400009B230F8020C181A081AF9
:103E100000B20028B4BF434203460029B8BF49425C
:103E20008B4218DA0028B8BF4042B2F832118842FB
:103E300011DA01F0F8FA0020BDE8F09FB605002085
:103E4000B7050020EDFDFFFFAE050020E4060020D1
:103E500025060020FFE70120EEE770B515460E4667
:103E6000044607F0A6F8002C18BF70BD042818BF40
:103E7000052806D01348006890F82400A84288BF9F
:103E800070BD3046BDE87040FFF7F2BB70B5154617
:103E9000044607F08EF8B4F1FF3F0AD0002C18BF9B
:103EA00070BD002D08BF70BD2846BDE87040FFF70B
:103EB0009DBB002D08BF70BD2846BDE87040FFF7D0
:103EC000CCBC0000E406002010B505F01FFE05F094
:103ED000ABFE002010BD000081480078704780488C
:103EE0000078022805D005281CBF0020704704F088
:103EF0003ABD07F05EB87A490870704710B50446BD
:103F0000072C28BF10BDDFE804F013040810130CC1
:103F10000800084600F0ECF80AE0084607F03EF812
:103F200006E0084604F014FD02E0084606F024FD11
:103F30006B48047010BD6B4900200968B1F864102B
:103F400011F4807F08BF7047FDF797BD65490020D9
:103F50000968B1F8641011F4807F08BF7047FDF75D
:103F6000A7BD604900200968B1F8641011F4806FA2
:103F700008BF7047FDF7C0BD5949487800281CBFED
:103F8000401E4870704710B572B6FFF7CDFABDE815
:103F90001040FFF78BB810B55348FEF75BF872B6C8
:103FA000FFF7C2FABDE81040FFF780B84C4800693F
:103FB00070474B48C0687047494948617047484856
:103FC00040697047F0B5ADF2CC4D0F4604464FF452
:103FD0009061684613F03DFB414D20462C6105F091
:103FE000B1FCE860002851D00278AA7041780446FC
:103FF000E97080782871501C00F0FE006871002084
:10400000E87128721223AB7105F10A031870587019
:10401000207868721046FDF763F90DF5906120462F
:1040200005F0ADFC608A6E6900281CBF7043060B6A
:10403000002017F0040F18BF062017F0080F18BF54
:1040400040F00200616A0840DDF88014CDF8C01429
:10405000DDF89C14CDF8C414DDF89014CDF8C81424
:104060000DF59861FCF723FFDDF88C0420B1334691
:10407000EA78A97804F076FF6421304605F025F847
:10408000287802280FD0052810D016E015480068BF
:10409000B0F8640010F4807F18BFFDF709FD002020
:1040A0000DF2CC4DF0BD06F084FF01E004F05BFCA6
:1040B000022808BFDDF8940400D06846FFF7ECFB47
:1040C000002001F0A5F90DF2CC4D0120F0BD10B596
:1040D000FCF7BAFF02490020C860012010BD0000B3
:1040E000B4050020E406002000FE1100FE487047E1
:1040F000FE4948707047FD4840787047FC4810B44E
:10410000FC4A0168914218D14168B1F5887F14D802
:104110000022D0F808C003461146B2EB9C0F24BF22
:1041200010BC704753F82140491C2244B1EB9C0F4E
:10413000F8D3002A04BF10BC7047002010BC7047A1
:10414000EB48FDF787BFE949012048707047E74910
:1041500000200870704770B5ADF5107D0446FFF77C
:1041600028FF054614F0020F04BF0DF5107D70BD49
:104170000426FFF7B4FE002818BFDF4C08D095F9DD
:104180002C102246304605F01FFC0DF5107D70BD49
:104190006C462046FDF7EBFAF1E770B50D46064692
:1041A0001024FFF706FF16F0020F18BF05242A4659
:1041B000102C28BF70BD002A08BF70BD204490F9A4
:1041C00028102046BDE8704005F0FEBB2DE9F04FF9
:1041D00087B08146122000244FF0200A2746009025
:1041E000FFF77AFE022802D106F0E3FE30B1FFF7B6
:1041F00073FE052804D104F0B6FB08B90220009034
:104200000098002500289CBF07B0BDE8F08F00266D
:10421000BAF1000F7CD9B94A681EA2FB00314908E7
:10422000A1EB810108440590E81E0490A81F0390AB
:10423000C01E0290C01E0190A2FB05104008A0EB1A
:104240008000A5F10F0B00EB0508FFF745FE0228E3
:1042500003D106F0AEFE00283AD0FFF73DFE052858
:1042600003D104F080FB002832D0032D38BF142482
:1042700017D30498032838BF152412D303980328B2
:1042800038BF16240DD30298032838BF242408D33E
:104290000198032838BF252403D3BBF1030F38BF8F
:1042A0002624A7420AD09648C4F303112746006883
:1042B000C16104F00F017F20FCF7C6F8C4F30310BE
:1042C00001281CBFC6F11F0000EB481018D127E0E1
:1042D000002D0CBF14242424A74209D088482109AA
:1042E00027460068C16104F00F017F20FCF7ACF89D
:1042F0002009012814D00598C6F11F0101EB4010D8
:1043000019F8011BC0B2FCF79FF8761C56459CD3E8
:1043100000986D1C8542FFF47AAF07B0BDE8F08FBE
:1043200006EB4810ECE72DE9F84F83466F484FF055
:10433000000A0C46B0F904804FF0120920275046BD
:104340000091FCF7C7FF0546CBF10706FFF7C4FD58
:10435000022802D106F02DFE30B1FFF7BDFD052881
:1043600004D104F000FB08B94FF00209BBF1000FC3
:104370001CD0002E57DB4FF0000CB9F1000F49D9CB
:10438000012101FA06F3701E01FA00FB0021002F43
:104390003CD935F8020B2278A0EB080000B25FEAA6
:1043A000D21E23D0002827DA2EBB1BE00023B9F150
:1043B000000F2FD90021002F10D935F8022B2078BB
:1043C000A2EB080212B2642AC8BF40F0800040F09D
:1043D0004000491C04F8010BB942EED35B1C4B456D
:1043E000E8D317E010F1FA0F05DB0AE0002803DD3F
:1043F0000EB9FA2805DD9A43002EC4BF4BEA02002D
:10440000C2B204F8012B491CB942C2D30CF1010C11
:10441000CC45BBD3FCF738FD0098FFF7D7FE002E44
:1044200008BF4FF0010A5046BDE8F88F2F49888039
:10443000704770B52D4E3249F08009680320C8617D
:104440000425E9B27F20FBF7FFFF0024B179E0B239
:10445000FBF7FAFF04F12000B179C0B2FBF7F4FFDB
:1044600004F14000B179C0B2FBF7EEFF641C202CD0
:10447000ECDB6D1C072DE4DB70BD2DE9F04F89B03E
:104480000026FCF701FD1E490720096808651D4844
:10449000016841F0200101600020FFF7CAFF1349C5
:1044A0004FF4006088804FF41071134813F0D1F876
:1044B0000020FCF792FBFCF740FE00252C460795F8
:1044C000FFF70DFD03F023FB01282ED06846FDF712
:1044D00010F940B30120FCF780FB684603F051FF60
:1044E0006D1C012D1FD00FE004250020CC050020FD
:1044F00000F811005443524644270020ABAAAAAA50
:10450000A0891100640500200025FE492046FFF720
:104510000AFF072C1CD00020FCF75FFBFDF723F9F6
:10452000FCF70BFE641C002ECCD0FFF7D8FCF64A3B
:10453000F44B0020D16813F800C0401C01F801CBF7
:10454000D160B0F5107FF5D3079800283CD135E055
:1045500012200890EC4800274FF0200BB0F90460BF
:104560003846FCF7B7FE0546BA460024BBF1000FFB
:1045700018D9304613F0A7FFE44AE54B14F00AF8C7
:104580008946804635F9022B901B48BFB01A13F0BC
:104590009AFF42464B4614F0FBF838BF7F1C641C60
:1045A0005C45EFD308980AF1010A8245DDD3002F5C
:1045B0004FF001061CBF01200790B6E7002E1EBF7A
:1045C000002009B0BDE8F08F012009B0BDE8F08FF0
:1045D0002DE9F04F89B000270120FCF7A4FACD485F
:1045E000016841F0200101600020FFF722FFC64E64
:1045F0004FF40060C849B0800020C1F88000C1F8C5
:104600008400C1F88800C1F88C00C1F89000C1F89E
:104610009400C1F89800C1F89C00C1F8A000C1F84E
:10462000A400C1F8A800C1F8AC00C1F8B000C1F8FE
:10463000B400C1F8B800C1F8BC00FCF7CEFAFCF732
:104640007CFD00252C46AB4603F061FA012818D00A
:104650006846FDF74EF890B10120FCF7BEFA6D1CDC
:10466000012D0CD00025AD492046FFF75CFE072C3C
:104670000DD00020FCF7B1FAFCF75FFD641C002FA1
:10468000E2D0FCF731FDBBF1000F40D139E0202032
:104690004FF0000808904746B6F904404046FCF742
:1046A00019FE06460025600013F00DFF974A984B4F
:1046B00013F070FF814660428A46079036F9022B5C
:1046C000A242B8BF08F10108079812EB400048BFAA
:1046D000C2EB440013F0F7FE4A46534614F058F874
:1046E00038BF7F1C6D1C0898B5EB400FE6D3002F38
:1046F00018BFB8F1000F4FF0010718BF4FF0010BC2
:10470000BFE7002F1EBF002009B0BDE8F08F0120D9
:1047100009B0BDE8F08F2DE9F04F81460020ADF5DE
:10472000137D0446074690907D480078022808BF14
:10473000022703D0052804BF02240427DFF8E48100
:10474000DFF8E4A100F07BB9204605F0FBF8002873
:1047500000F07481008900EA090525F0CC0030F4EE
:104760007C4000F06B81714E30684069316840F4E4
:104770000070486130680069316820F00600086107
:1047800030680069316840F0100008613CB1012CCC
:1047900035D0022C7DD0032C55D000F0EEB802218C
:1047A0000846FFF7ABFB0020FCF7BDF904F02BFF38
:1047B0000F212046FFF706FC002800F03F81D8F8C3
:1047C0000000406CD8F8001040F40060486400BF5E
:1047D00000BF00BFD8F80000406CD8F8001020F4EB
:1047E00000604864FCF733F904F0F4FE012006F0A1
:1047F0009FFC0020FCF7F1F9FCF7B5FFBDE00021BC
:104800000220FFF77BFB0020FCF78DF90F212046EB
:10481000FFF7D8FB002800F01181D8F80000406CA9
:10482000D8F8001040F40060486400BF00BF00BF2B
:10483000D8F80000406CD8F8001020F400604864FC
:10484000FCF705F999E000210520FFF757FBFCF77D
:104850001BFB30680069316820F006000861306891
:104860000069316840F0040008613068006931680F
:1048700040F0100008610AF0FDFC0F210220FFF754
:10488000A1FB00287ED0DAF8001007208860042001
:1048900000E014E0DAF80010486002212020FCF764
:1048A0001FFD0020FCF799F9FCF71EFCDAF8000068
:1048B0000068DAF8001040F0010008605DE00221B5
:1048C0000520FFF71BFBFCF7DFFA30680069316851
:1048D00020F00600086130680069316840F004008B
:1048E000086130680069316840F0100008610AF022
:1048F000C1FC04F06FFE0F210320FFF763FB0028CB
:1049000040D015E044270020CC0500209A999999C1
:104910009999B93F640500200429002084290020CA
:104920001D060020A0891100A489110088891100AA
:10493000DAF800107F208860DAF800100220486062
:10494000D8F80000406CD8F8001040F400604864CB
:10495000012006F035FAD8F80000406CD8F80010B5
:1049600020F400604864FCF7BFFBDAF80000006840
:10497000DAF8001040F0010008609098002859D142
:10498000002600E05AE015F0010F19D00120FCF7D5
:10499000CAF8FFF7A4FA60B1FCF766FDFF210F200B
:1049A000FFF76BFD06460020FCF717F9909868BBEF
:1049B00006E0FCF759FDFF210F20FFF709FEF1E7A4
:1049C00015F0060F22D0FFF78AFA02281ED1FEF753
:1049D000E1FD0020FEF7FEFF0120FCF7A4F8FEF742
:1049E00038FF0546FFF7E5FA05232A0004D090F9C1
:1049F0002D10184604F0E8FFFEF72BFFFEF7B4FF7A
:104A0000FEF727FF4FF4906112F001FEFFF7D1FA95
:104A1000834604209190FFF762FA002818BFFE4DEC
:104A20001FD09BF92C102A46919804F0CDFFFCF77B
:104A30005BFB56B1FFF750FAFFF749FB641CBC4221
:104A400003D2909800283FF47FAEF449002008700C
:104A5000909800280CBF012000200DF5137DBDE8C3
:104A6000F08F6D462846FCF782FEDAE72DE9F04F1D
:104A7000EA48CDB04478FFF72FFA012870D1E84812
:104A80000068B0F93610B0F9340004F091FB14F06E
:104A9000020F7DD0E34FE44E40AC38683D46B04253
:104AA00012D16868B0F5887F0ED80021AB682A461D
:104AB0000846B1EB930F08D252F820C0401C614465
:104AC000B0EB930FF8D301B100254FF000084FF081
:104AD00030094FF4887A4FF0FF3B45B10FCD0FC43A
:104AE0000FCD0FC495E80F0084E80F0017E0FF22F8
:104AF0003021204612F083FD5020C4F80890C4E90C
:104B00000380C4F81480C4F82CB0C4F828B0C4F8EA
:104B100024B0C4F81880C4E9006AC4E9078B384699
:104B2000FDF798FA4598401C459040F27770FFF7E2
:104B3000F2FD012815D047980022401C47901F2104
:104B4000022005F058FE40AC04F0EDFE78B181691A
:104B50004891C169499141694A91C0684B900EE002
:104B600047E0A12044904698401C4690EBE7CDF8E2
:104B70002CB1CDF828B1CDF824B1CDF820B1CDE9D4
:104B8000406ACDE94298002022460146A36800E031
:104B900020E052F821C0491C6044B1EB930FF6D3DA
:104BA0004542FF22511C6846E56012F028FDA268CC
:104BB000F4E804018DE827000FCC04AD85E80F0070
:104BC00094E80F0008AD85E80F0038466946FDF708
:104BD0004BFB0CE014F0010F09D040F22220FFF74C
:104BE0009AFD20B901221F21022005F004FEFEF7E4
:104BF0002BFE4DB0BDE8F04F02F085BF70B50C46FE
:104C00008A49054603200968C86101217F20FBF716
:104C10001BFC00217520FBF717FC01217620FBF718
:104C200013FC60210820FBF70FFC00210920FBF793
:104C30000BFC3C210A20FBF707FC00210B20FBF7B3
:104C400003FC0F210E20FBF7FFFBE1B22620FBF750
:104C5000FBFBE1B22720FBF7F7FBE1B22820FBF7D3
:104C6000F3FBE1B22920FBF7EFFBE1B22A20FBF7CF
:104C7000EBFBE1B23020FBF7E7FBE1B23120FBF7C1
:104C8000E3FBE1B23220FBF7DFFBE1B23320FBF7BD
:104C9000DBFBE1B23420FBF7D7FBE1B23620FBF7B8
:104CA000D3FBE1B23720FBF7CFFBE1B23820FBF7B3
:104CB000CBFBE1B23920FBF7C7FBE1B23A20FBF7AF
:104CC000C3FBE1B24020FBF7BFFBE1B24120FBF7A1
:104CD000BBFBE1B24220FBF7B7FBE1B24320FBF79D
:104CE000B3FBE1B24420FBF7AFFBE1B24620FBF798
:104CF000ABFBE1B24720FBF7A7FBE1B24820FBF793
:104D0000A3FBE1B24920FBF79FFBE1B24A20FBF78E
:104D10009BFBE1B25020FBF797FBE1B25120FBF780
:104D200093FBE1B25220FBF78FFBE1B25320FBF77C
:104D30008BFBE1B25420FBF787FBE1B25620FBF777
:104D400083FBE1B25720FBF77FFBE1B25820FBF772
:104D50007BFBE1B25920FBF777FBE1B25A20FBF76E
:104D600073FBE1B26020FBF76FFBE1B26120FBF760
:104D70006BFBE1B26220FBF767FBE1B26320FBF75C
:104D800063FBE1B26420FBF75FFBE1B26620FBF757
:104D90005BFBE1B26720FBF757FBE1B26820FBF752
:104DA00053FBE1B26920FBF74FFBE1B26A20FBF74E
:104DB0004BFB02217F20FBF747FB40F20220FBF771
:104DC0005CFB20F0F0010220FBF73EFB4FF401708A
:104DD000FBF753FB20F007010420FBF735FB7021A4
:104DE0000720FBF731FB15B1012D05D008E00421A8
:104DF0000620FBF729FB03E008210620FBF724FB34
:104E000003217F20FBF720FB01211420FBF71CFB73
:104E1000012116200CE0000044270020CC050020D2
:104E2000E406002000F8110054435246A089110006
:104E3000FBF70AFB20212120FBF706FB012127209D
:104E4000FBF702FB20213220FBF7FEFA012138207C
:104E5000FBF7FAFA20214320FBF7F6FA012149205B
:104E6000FBF7F2FABDE8704020215420FBF7ECBAC2
:104E700010B50322FD49062828BF10BDDFE800F069
:104E80000327FDFCFBFA0868C26101217F20FBF7C4
:104E9000DBFAAF210820FBF7D7FA73210A20FBF7D2
:104EA000D3FA0A210E20FBF7CFFA02217F20FBF76D
:104EB000CBFA00210720FBF7C7FA1F210120FBF7DF
:104EC000C3FA1021BDE810400620FBF7BDBA086800
:104ED000C26103217F20FBF7B7FA00211120FBF705
:104EE000B3FA00211220FBF7AFFA00211320FBF7E1
:104EF000ABFA00211420FBF7A7FA00211520FBF7DD
:104F0000A3FA01211620FBF79FFA06211720FBF7D1
:104F10009BFA00211820FBF797FA00211920FBF7D4
:104F200093FA00211A20FBF78FFA00211B20FBF7D0
:104F30008BFA01212020FBF787FA60212120FBF763
:104F400083FA00212220FBF77FFA00212320FBF7C0
:104F50007BFA00212420FBF777FA00212520FBF7BC
:104F600073FA01212620FBF76FFA00212720FBF7B7
:104F70006BFA06212820FBF767FA00212920FBF7AE
:104F800063FA00212A20FBF75FFA00212B20FBF7B0
:104F90005BFA01213020FBF757FA00213120FBF7A3
:104FA00053FA60213220FBF74FFA00213320FBF740
:104FB0004BFA00213420FBF747FA00213520FBF79C
:104FC00043FA01213620FBF73FFA00213720FBF797
:104FD0003BFA00213820FBF737FA06213920FBF78E
:104FE00033FA00213A20FBF72FFA00213B20FBF790
:104FF0002BFA01214020FBF727FA00214120FBF783
:1050000023FA00214220FBF71FFA60214320FBF71F
:105010001BFA00214420FBF717FA00214520FBF77B
:1050200013FA01214620FBF70FFA00214720FBF776
:105030000BFA00214820FBF707FA00214920FBF773
:1050400003FA06214A20FBF7FFF900214B20FBF76A
:10505000FBF901215020FBF7F7F900215120FBF764
:10506000F3F900215220FBF7EFF900215320FBF761
:10507000EBF903E01BE015E00FE009E060215420AC
:10508000FBF7E2F90021BDE810405520FBF7DCB941
:10509000AA21BDE810400020B0E55521BDE8104030
:1050A0000020ABE5AA21BDE810400120A6E555216E
:1050B000BDE810400120A1E510B5FEF7CAFB04468B
:1050C000FEF7C9FB2146BDE810404FF4906212F094
:1050D0001FBA2DE9F0416648047866480578FEF766
:1050E000BAFB0646FEF7B5FB0022002D98BFBDE8CF
:1050F000F0810021002C10D902FB04FC06EB4C03CC
:1051000000EB4C0C11F0010F1CBF33F811702CF8A0
:105110001170491CC9B2A142F4D3511CCAB2AA42AF
:10512000E7D3BDE8F08100B5ADF2844DFEF793FB07
:1051300001464FF49062684612F0EAF96846FEF7BD
:105140008CFB0DF2844D00BD2DE9F04F83B0122091
:1051500001904A4848494FF020090024C16001E00D
:10516000032C01DA14261AE0E01E032838BF1526A6
:1051700015D3A01F032838BF162610D3A4F10900A9
:10518000032838BF24260AD3A4F10C00032838BF13
:10519000252604D3A4F10F00032838BF2626B345E3
:1051A00009D032483109B3460068C16106F00F01E9
:1051B0007F20FBF749F90025B9F1000F2ADD3048BF
:1051C0004FEA161A80FB0410A0EBE070A0EB800001
:1051D00000EB0408BAF1010F0EBF05EB4810C5F152
:1051E0001F0000EB481087B22449C86810F8012B53
:1051F0000092C860F8B21146FBF726F900BF00BF65
:1052000000BF00BF00BFF8B20099FBF71DF96D1C8D
:105210004D45DFDB0198641C8442A1DB03B0BDE88F
:10522000F08F2DE9F84FDFF854B013484FF0200805
:10523000CBF80C0012200024009001E0032C01DACE
:10524000142627E0E01E032838BF152622D3A01F0E
:10525000032838BF16261DD3A4F10900032838BF40
:10526000242617D3A4F10C0003280BE0A089110019
:10527000B6050020B705002004250020CC0500203D
:105280005655555538BF252604D3A4F10F000328E1
:1052900038BF2626B24509D083483109B246006896
:1052A000C16106F00F017F20FBF7CEF80025B8F1B1
:1052B000000F1EDD7D484FEA161980FB0410A0EB9D
:1052C000E070A0EB80000719B9F1010F0EBF05EBEC
:1052D0004710C5F11F0000EB471080B2FBF7CDF877
:1052E000DBF80C106D1C454501F8010BCBF80C10D8
:1052F000EADB0098641C8442A0DBDBF80C00BDE80C
:10530000F88F6B48C08870472DE9F04F8DB00020B2
:1053100007900B90FBF7B8FD654C4FF40060A08040
:10532000FBF76BFC0020FBF758FC5A204FF00009FC
:105330000A904846FFF77DF8FBF7D6FE02F0E7FB40
:105340006846FCF7D6F900284BD0684603F019F8F8
:105350002020099056484FF000084746B0F9044015
:105360004046FBF7B7FF06460025600013F0ABF898
:10537000504A514B13F00EF9824660428B4608901A
:1053800036F9022BA242B8BF08F10108089812EBC7
:10539000400048BFC2EB440013F095F852465B460C
:1053A00013F0F6F938BF7F1C6D1C0998B5EB400F60
:1053B000E6D3002F18BFB8F1000F18D00A98814526
:1053C00018D2FBF761FD1FFA89F009F10109FFF717
:1053D00030F8FBF789FE05F0ECFD002808BFFCF76C
:1053E00074FC07980028A9D00B9868B905E0012043
:1053F0000790F9E7FBF748FD06E0079800281EBF75
:1054000000200DB0BDE8F08F01200DB0BDE8F08F99
:1054100070472748816800291BBF017811F0020FEF
:105420000020C068704725482149006890F8252170
:105430008878401CC0B28870824228BF7047002024
:10544000887001210846FEF759BD174910B5096853
:105450000320C86101217F20FAF7F6FF962108207A
:10546000FAF7F2FF63210A20FAF7EEFF0A210E2075
:10547000FAF7EAFF02217F20FAF7E6FF7121BDE883
:1054800010400720FAF7E0BF074910B5096803206C
:10549000C86101467F20FAF7D7FFBDE8104040F20F
:1054A0000F30FAF7EABF0000A08911005655555594
:1054B000CC0500209A9999999999B93FE406002062
:1054C0000020704708B503F00700012806D18DF8C9
:1054D0000000024669460B2002F0F5FA002008BDE4
:1054E00008B503F00700012807D100208DF800005F
:1054F000012269460B2002F0E6FA002008BD10B533
:1055000003F00700012808BFFEF73DFD002010BD95
:1055100008B503F00700012807D103208DF800002B
:1055200001226946002002F0CEFA002008BD08B52D
:1055300003F00700012807D103208DF800000122A5
:105540006946002002F0BFFA002008BD1FB513F025
:10555000070F08D19DF80800F02807D0012202A902
:10556000072002F0B0FA04B0002010BDFEF7E8FDFD
:10557000F9E71FB513F0070F04D1012202A9104665
:1055800002F0A1FA04B0002010BD2DE9F84303F0A9
:1055900007020026FF4D089C0F468046012A02D0D4
:1055A000022A06D002E00520E870EE810020BDE866
:1055B000F883E87805281CD1E889A04211D2FDF7CC
:1055C0002CFFAC208DF800006F208DF801007020BA
:1055D0008DF80200EA891DF8020088F80000501CCE
:1055E000E88180B2A04204D1EE810120387003200E
:1055F000E8700120BDE8F883F8B403F00705002740
:10560000E44E059A012D0BD0B446022DBCF80EC015
:105610000CF10104A4B209D013F0070F29D002E065
:105620000520F070F781F8BC00207047F378052B57
:105630001CD1944512D2D84B1B787372F3798DF834
:105640000030337A8DF80130737A8DF80230B37AF6
:105650008DF803301DF80C300370F481F08990420E
:1056600004D1F781012008700320F070F8BC0120FC
:105670007047944538BFF481F089904208BFF781A4
:10568000D1E72DE9F007DFF814C383B003F0070A70
:10569000BCF81240BCF810500027DFF8F8820A9AD4
:1056A000BAF1010F0ED0C4464FF00109BCF80EC08C
:1056B000BAF1020F0CF10106B6B20DD013F0070FCC
:1056C00040D004E0052088F80300A8F80E7003B06D
:1056D0000020BDE8F007704798F80330052B2CD167
:1056E00094451FD2230A8DF800408DF804408DF8B0
:1056F00001308DF8053012238DF808304FEA152A55
:1057000020238DF802508DF806508DF809308DF861
:1057100003A08DF807A08DF80A701DF80C300370F7
:10572000A8F80E60B8F80E00904206D1A8F80E70E6
:1057300081F80090032088F8030003B00120BDE841
:10574000F00770479648944580F8009038BFA8F855
:105750000E60B8F80E00904208BFA8F80E70B6E7C9
:105760002DE9F04383B0804603F007000026894D01
:105770000A9C0F46012802D0022807D002E005202B
:10578000E870EE8103B00020BDE8F083E8780528DA
:105790002DD1E8894FF00109A04220D20021B2208A
:1057A000FCF7BAF98DF80000010A8DF80110010C20
:1057B0008DF80210000E8DF8030079208DF804009A
:1057C0001D208DF8050002208DF807008DF8069049
:1057D000E8891DF8001088F80010401CE88180B2AC
:1057E000A04204D1EE8187F800900320E87003B056
:1057F0000120BDE8F0832DE9F84303F007020026FD
:10580000644D089C0F468046012A02D0022A06D029
:1058100002E00520E870EE810020BDE8F883E8781A
:10582000052814D1E889A04209D26846FCF7EDFDAD
:10583000EA891DF8020088F80000501CE88180B257
:10584000A04204D1EE81012038700320E8700120CD
:10585000BDE8F88310B403F00701DFF838C101296F
:1058600006D013F0070F4F4B08D0022910D00CE0E0
:105870000020ACF80E00ACF8100006E0BCF80E00FA
:1058800019680A54401CACF80E0010BC0020704788
:10589000BCF810101A68525C0270481CACF810007A
:1058A00010BC01207047F0B583B003F00702012758
:1058B00000253C4C374EDDF820C0012A04D0022AD6
:1058C00000F0D38000F0AAB8FDF7A7FD012202A9DD
:1058D00012200295FCF7BDFD0520F07021687A20AA
:1058E0000870206847702168212088702E4822683F
:1058F0000168897CD17000682268017C1171017E89
:1059000011F0040F0ED0C18A2268090A5171226871
:10591000817D9171818A2268090AD1712168007D97
:1059200008720DE0818A2268090A51712268017D9E
:105930009171C18A2268090AD1712168807D08723B
:105940000422694610460095FCF783FD2168009803
:1059500048722268010A91722268010C000ED1720D
:10596000216804220873694614200095FCF771FD34
:105970002168009848732268010A91732268010C1B
:10598000000ED1732168087402980095002848D051
:1059900004220BE0E4050020390600200C40002022
:1059A00034070020CC891100E406002001A948201A
:1059B0000195FCF74EFD0198042250300190694694
:1059C0001C30FCF746FD2168009848742268010AE3
:1059D00091742268010C000ED174216804220875AC
:1059E000009501A948200195FCF733FD0198042298
:1059F0005030019069462C30FCF72BFD216800984F
:105A000048752268010A91752268010C000ED17553
:105A1000216808762168FF204876F58103B00020D0
:105A2000F0BD04226946FA48FCF713FD216800988E
:105A300048742268010A91742268010C000ED17426
:105A40002168042208756946F2480095FCF701FDBB
:105A50002168009848752268010A91752268010C36
:105A6000000ED17521680876D4E7F278052A0ED1A8
:105A7000F289624504D223689B5C0370501CF0815C
:105A8000F089604503D1F5810F700320F07003B0F9
:105A90000120F0BD30B403F00704DF4BDF4D029A64
:105AA0004FF0000C012C02D0022C38D034E0022040
:105AB000E870DB48A5F80EC00168880A444211EB83
:105AC000842418BF401C404201EB8000C01C20F021
:105AD0000300D449B0F5003F014414D8CC780868DD
