:100000005446495300010000981B02008EA22EE9BD
:1000100009380112180126094A504F3009380202E6
:10002000180126094A504F300938010318012609E2
:100030004A504F30030000000000000000000000A4
:1000400054464353002000001C030200000000003F
:10005000000002100121000025210000F5320100FE
:10006000292100002B2100002D2100003D2100004E
:100070003D2100003D2100003D2100002F21000016
:10008000312100003D21000033210000A157000074
:1000900087580000372100003D21000035BB0010CB
:1000A000372100005D3C0000633C00003D21000062
:1000B0003D210000D7530000214B0000693C0000A7
:1000C00049510000372100003D2100003D21000082
:1000D0000000000000000000000000000000000020
:1000E0000000000000000000000000000000000010
:1000F0000000000000000000000000000000000000
:1001000000000000000000000000000000000000EF
:1001100000000000000000000000000000000000DF
:1001200000000000000000000000000000000000CF
:1001300000000000000000000000000000000000BF
:1001400000000000000000000000000000000000AF
:1001500000F003F800F020F8FEE70D480168890878
:100160008900002001C101C101C101C17047000027
:1001700014E40010FEE7FEE7FEE7FEE7FEE7FEE719
:10018000FEE7FEE7FEE703480047FEE7FEE7000064
:10019000202100003D21000000F002F800F068F886
:1001A0000AA090E8000C82448344AAF10107DA45D2
:1001B00001D100F05DF8AFF2090EBAE80F0013F0BC
:1001C000010F18BFFB1A43F001031847141C01006C
:1001D000641C01000A444FF0000C10F8013B13F0BE
:1001E000070408BF10F8014B1D1108BF10F8015B90
:1001F000641E05D010F8016B641E01F8016BF9D183
:1002000013F0080F1EBF10F8014BAD1C0C1B09D1D9
:100210006D1E58BF01F801CBFAD505E014F8016B4B
:1002200001F8016B6D1EF9D59142D6D370470000DD
:10023000103A24BF78C878C1FAD8520724BF30C812
:1002400030C144BF04680C607047000000230024E4
:1002500000250026103A28BF78C1FBD8520728BFD6
:1002600030C148BF0B6070471FB51FBD10B510BD32
:10027000DFF80CD0FFF7F8FF04F04AFD11F054F856
:100280000000021003B4FFF7F1FF03BC11F054F8B3
:1002900008B5002103200B460A4600910FF0AAFF83
:1002A00008BD38B5F84D0024AC80EC802C810FF0EF
:1002B0007AFF6861FF20A870F44823462246046054
:1002C000446004720120E8700320214600940FF07E
:1002D00091FF012038BD38B5EB4D0228AC7822469D
:1002E0000DD0052810D0A24208BF38BD002003461B
:1002F0000246214600900FF07DFFAC7038BD022908
:1003000014BF01240224EEE7022914BF64246524EB
:10031000E9E738B513460A464FF0010C00240146C0
:10032000604600940FF066FF38BDD7490120087081
:100330007047D54800787047D3490020087070474F
:100340002DE9F04104460127002503F00700CE4EB9
:100350008846012804BF0020308146D0022844D1BD
:10036000308904280BD2002818BF306902D110F060
:100370005EF8306110F8011B217030612EE0062814
:1003800008D210F056F83189C1F10501C900C84002
:10039000207023E0082808D210F04FF83189C1F10D
:1003A0000701C900C840207018E00C2808D20FF0DF
:1003B000FAFE3189C1F10B01C900C84020700DE07F
:1003C0000E2808D20FF0F1FE3189C1F10D01C900EC
:1003D000C840207002E0FF20207000273089401CB8
:1003E00080B230810E2828BF012588F80050384699
:1003F000BDE8F08130B403F007000024DFF888C2C4
:1004000001280BD06046BCF808308088022B0CD243
:10041000120242EA1020ACF8040010E0ACF80440EC
:10042000ACF80640ACF808400CE01844851EB5F561
:10043000806F04DADCF81450284400F8022C581CB1
:10044000ACF808000C7030BC00207047F0B40746D0
:10045000002003F007048C4D0646012C04BF2E81BA
:10046000EE6025D0DFF820C2022CBCF806C003D015
:1004700013F0070F0DD01BE02A890CEB0203B3F534
:10048000806F15D26869C05C3870501C28810120CB
:100490000EE0120242EA1C22EA80EB68012B05D131
:1004A000B2F5806F24BF40F2FF32EA805A1CEA6046
:1004B0000E70F0BC704738B503F0070000240D46FD
:1004C00001280AD1704821460B4604818480C480EB
:1004D00002200A4600940FF08DFE2C70002038BDDB
:1004E00030B50C006AA183B009684FF00002029198
:1004F00008BF03250AD0217802AB5D5C002D18BF30
:10050000022D41D0012D7ED0032D0DD10F21017080
:100510000321417042808280C280028142818281B7
:10052000817B21F001018173002D1EBF012D03B0DD
:1005300030BD04F003FC05281CBF03B030BD09F03A
:10054000B6FD042804BF03B030BD002D0CBFC02091
:10055000C1208DF8000060788DF8010060880123CB
:10056000000A8DF80200A0788DF80300A08806220A
:10057000000A8DF8040020798DF8050069460720EF
:100580000CF0E0FB03B030BD617800EB011202F823
:10059000101C617800EB011101F80F5C6278618832
:1005A00000EB021222F80E1C6278A18800EB021206
:1005B00022F80C1C6278A17900EB021222F80A1CC6
:1005C0006278217A00EB021222F8081C6278617AC4
:1005D00000EB021222F8061C6278217B00EB02126B
:1005E00022F8041CE1790529617800EB011010F86C
:1005F000021C0EBF41F0010121F0010100F8021CB4
:1006000092D132E0FFE7617800EB011303F8101C90
:100610006378012100EB031303F80F1C63786188F2
:1006200000EB031323F80E1C6378A18800EB03137F
:1006300023F80C1C617800EB011121F80A2C617879
:1006400000EB011121F8082C617800EB011121F871
:10065000062C617800EB011121F8042C617800EB85
:10066000011010F8021C21F0010100F8021C5BE7E8
:100670000549002048707047034840787047024998
:100680000120487070470000000401107807011035
:1006900003000201154A1154704700B583B0017878
:1006A0008DF8001041788DF8011081788DF80210D6
:1006B000C1788DF8031001798DF8041041798DF817
:1006C000051080798DF8060000208DF80700684637
:1006D00010F048FE03B000BD70470549002818BF60
:1006E0000120C87070470248C07870477807011031
:1006F000000401107047FE48D0F8C00000F001006F
:10070000704770B5FA4C05000AD001F04DFA38B9BF
:10071000D4F8C00010F0010F1CBF0020A06005D16C
:100720000120A060002D08BF002000D00120206221
:10073000002D18BF70BDD4F8D410D4F8D00011F03B
:10074000010F18BF11F0600F24D0D4F8B02222F4AA
:100750008032C4F8B02241F0610242F0FF22C4F8B6
:10076000D42040F0610242F0FF22C4F8D02021F0F2
:100770006102C4F8D42020F06102C4F8D020D4F87B
:10078000B02242F48032C4F8B022C4F8D410C4F8C5
:10079000D00070BD10F0010F18BF10F0600FD4D161
:1007A00070BDD348006A002818BF01207047C00000
:1007B00000F1804000F5A04041637047C00000F1A7
:1007C000804000F5A040006B00F48070704710215D
:1007D000C00000F1804000F5A04041637047C4496B
:1007E000D1F8402160F30D22C1F840217047C04884
:1007F000D0F84001C0F3052070470207520DC0F346
:10080000031002EB401000F1804000F5A0400029E9
:10081000D0F8401114BF41F0010121F00101C0F8EE
:10082000401170470107490DC0F3031001EB401060
:1008300000F1804000F5A040D0F8400100F0010038
:100840007047AB4900230B6202680A6042684A6045
:1008500082688A60C268CA60426A0A64826A4A64BC
:1008600002698A614269CA61426B0A66826B0A67E1
:10087000C26B4A67026C8A67426CC1F88020826C46
:10088000C1F88420C26CC1F88820026DC1F88C20A8
:10089000026EC1F89C20426EC1F8A020826EC1F8A1
:1008A000A420C26EC1F8A820C26FC1F8C020D0F841
:1008B0008020C1F8C420D0F88420C1F8C820D0F826
:1008C0008820C1F8CC20D0F88C20C1F8D020D0F8F6
:1008D0009C20C1F8E020D0F8A420C1F8F020D0F886
:1008E000A820C1F8F420D0F8AC20C1F8F820D0F846
:1008F000B020C1F8FC2021224A63CA63C2694A625F
:10090000C26A8A64026BCA64026FC1F8AC20D0F874
:100910009020C1F8D420D0F89420C1F8D820D0F885
:10092000A020C1F8E420426FC1F8B020826FC1F866
:10093000B420D0F8F821C1F88022D0F8FC21C1F809
:100940008422D0F80022C1F88822D0F80422C1F80D
:100950008C22D0F80822C1F89022D0F80C22C1F8DD
:100960009422D0F81022C1F89822D0F81422C1F8AD
:100970009C22D0F8182222F48032C1F8B022D0F89C
:10098000B420C1F80021D0F8B820C1F80421D0F873
:10099000BC20C1F80821D0F8C020C1F80C21D0F843
:1009A000C420C1F81021D0F8C820C1F81421D0F813
:1009B000CC20C1F81821D0F8D020C1F81C21D0F8E3
:1009C000D420C1F82021D0F8D820C1F82421D0F8B3
:1009D000DC20C1F83021D0F8E020C1F84021D0F867
:1009E000E420C1F84421D0F8E820C1F84821D0F82B
:1009F000F020C1F85021D0F8F420C1F85421D0F8EB
:100A0000F820C1F85821D0F8FC20C1F85C21D0F8BA
:100A1000EC20C1F84C21D0F82021C1F88021D0F879
:100A20002421C1F88421D0F82821C1F88821D0F8E8
:100A30002C21C1F88C21D0F83021C1F89021D0F8B8
:100A40003421C1F89421D0F83821C1F89821D0F888
:100A50003C21C1F89C21D0F84021C1F8A021D0F858
:100A60004421C1F8A421D0F84821C1F8B021D0F820
:100A70004C21C1F8C021D0F85021C1F8C421D0F8D0
:100A80005421C1F8C821D0F85C21C1F8D021D0F898
:100A90006021C1F8D421D0F86421C1F8D821D0F860
:100AA0006821C1F8DC21D0F86C21C1F8E021D0F830
:100AB0007021C1F8E421D0F87421C1F8E821D0F800
:100AC0007C21C1F8F021D0F88021C1F8F421D0F8C0
:100AD0008421C1F8F821D0F88821C1F8FC21D0F890
:100AE0005821C1F8CC21D0F87821C1F8EC2101E0DF
:100AF00000500040D0F88C21C1F80022D0F890219D
:100B0000C1F80422D0F89421C1F80822D0F8982125
:100B1000C1F80C22D0F89C21C1F81022D0F8A021F5
:100B2000C1F81422D0F8A421C1F81822D0F8A821C5
:100B3000C1F81C22D0F8AC21C1F82022D0F8B02195
:100B4000C1F82422D0F8B421C1F83022D0F8B8215D
:100B5000C1F84022D0F8BC21C1F84422D0F8C0210D
:100B6000C1F84822D0F8C821C1F85022D0F8CC21D1
:100B7000C1F85422D0F8D021C1F85822D0F8D4219D
:100B8000C1F85C22D0F8D821C1F86022D0F8DC216D
:100B9000C1F86422D0F8E021C1F86822D0F8E82139
:100BA000C1F87022D0F8EC21C1F87422D0F8F021FD
:100BB000C1F87822D0F8F421C1F87C22D0F8C42101
:100BC000C1F84C22D0F8E421C1F86C22FB4A12682B
:100BD00032F0FF0C05D1D1F890C062F3030CC1F8DC
:100BE00090C0F74A5370C36F13F0010F1CBF01236D
:100BF0005370D1F8C03023F00103C1F8C030D0F8F1
:100C00008C3013F0010F03D0537843F0020353707C
:100C1000D1F8D03023F00103C1F8D030D0F89000E3
:100C200010F0010F03D0507840F004005070D1F85C
:100C3000D40020F00100C1F8D4007047E0480078EB
:100C40007047DF4880787047DD49C8707047DC48DE
:100C5000C0787047DB490028D1F8C00014BF40F0CD
:100C6000010020F00100C1F8C0007047D54951F8DB
:100C7000C42F60F309020A607047D248D0F8C4005C
:100C8000C0F309007047CE4948607047CD48C0683E
:100C900070472DE9F047DFF82893054615F4003F2B
:100CA00099F8010099F8031000EA010418BF24F034
:100CB000010415F4802F18BF24F0020415F4002F4E
:100CC00018BF24F0040415F4801F18BF24F0080492
:100CD000DFF8F082D8F8B00220F48030C8F8B00213
:100CE00014F00F0F59D0D9F80460D8F8B8020027D3
:100CF00040F00100C8F8B802D8F8B80220F00100AE
:100D0000C8F8B802D8F8B00240F48030C8F8B00291
:100D10004FF0630A0DE002F0D4FD5046D8F8B81247
:100D200011F0010F01D0012703E0011EA0F1010025
:100D3000F4DC301EA6F1010601DD002FEBD067B315
:100D4000D8F8C00014F0010F0CBF20F0010040F0F3
:100D50000100C8F8C000D8F8D00014F0020F14BF8A
:100D600040F0010020F00100C8F8D000D8F8D4000D
:100D700014F0040F14BF40F0010020F00100C8F887
:100D8000D40089F80240012089F80000D8F8B002A8
:100D900040F48030C8F8B00233E0D8F8C00020F04A
:100DA0000100C8F8C000D8F8D00020F00100C8F851
:100DB000D000D8F8D40020F00100C8F8D4000020FA
:100DC00089F80200ACB1022089F80000D8F8B0021E
:100DD00040F48030C8F8B002D8F8B80240F0010002
:100DE000C8F8B802D8F8B80220F00100C8F8B80274
:100DF00007E0D8F8B01221F48031C8F8B01289F8B1
:100E00000000D8F8400115F0020F20F00D0018BFC7
:100E100040F0010015F0080F18BF40F0040015F075
:100E2000040F18BF40F00800C8F8400115F0010F8A
:100E300021D001F0A9F8044601F0A9F80146D8F83C
:100E40000C0000280EBF2046084621460028D8F88E
:100E5000C00114BF40F0010020F00100C8F8C0013B
:100E6000D8F8E001002914BF40F0010020F0010093
:100E7000C8F8E0010BE0D8F8C00120F00100C8F884
:100E8000C001D8F8E00120F00100C8F8E00115F039
:100E9000200F18BF002417D0204601F07FF800284B
:100EA0004FEA441000F1804000F5A040D0F8401215
:100EB00014BF41F0010121F00101C0F84012641C8F
:100EC000022CE9D3BDE8F087D8F8400220F00100F9
:100ED000C8F84002D8F8600220F00100C8F86002AB
:100EE000BDE8F0872DE9F0030246002011074C0D04
:100EF000C2F3031104EB411101F1804101F5A0415E
:100F0000D1F8401111F0010F11D142F01001C1F3DD
:100F1000031104EB411101F1804101F5A041D1F829
:100F2000401111F0010F04BFBDE8F0037047D60176
:100F300006F1804101F5A041D1F81C31C3F3080945
:100F4000204BDB69D1F8001103F008071FFA81F884
:100F5000002142EA0113C3F3031304EB431303F12B
:100F6000804303F5A043D3F8403113F0010F18D0AC
:100F700006EB411303F1804303F5A043D3F844C1CA
:100F8000CCF3080517F1000C1CBFD3F844C1CCF317
:100F9000023CD3F8403105FA0CFCC3F3054360442E
:100FA0001844491C0229D4D300FB08F0C9EB0911ED
:100FB000BDE8F00300EB410070470000E0FE0300D5
:100FC000180401100050004010B50120FFF78AFFFF
:100FD00004460220FFF786FF044400F0E0FB2044B3
:100FE0004FF47A71484347F23051B0FBF1F010BD35
:100FF0002DE9F041FE4E0546306810F01F0408BF91
:1010000001240120FFF76EFF07460220FFF76AFF69
:10101000074400F0C4FB3918F64F002D18BF002913
:101020004DD0D6F8C000002210F0010F34D0782047
:10103000B0EB151F08D9D6F8CC0020F00F0040F017
:101040000100C6F8CC002CE0D6F8C400EA4BC0F38F
:1010500009006043A0EB001003EB4003E748A0FB4E
:1010600005C04FEA502CB3FBF1F0102828BF0F2029
:10107000844598BF6046002808BF012005D001289C
:1010800084BF00FB1132B2FBF0F2D6F8CC3060F333
:101090000303C6F8CC3004E0B7FBF5F0884288BF04
:1010A000421AC4EB04104000B2FBF0F0B0F5005F50
:1010B00028BF41F6FF70726860F30C0272607068BE
:1010C000C0F30C006043C0EB001001EB4000B7FB25
:1010D000F0F0BDE8F081C648D0F8C01011F0010F63
:1010E00007D0D0F8CC0000F00F00C0EB001080015A
:1010F000704770B50168406801F01F05C0F30C0629
:101100000120FFF7EFFE04460220FFF7EBFE044448
:1011100000F045FB06FB05F1C1EB011104EB4101B9
:101120000844B449B1FBF0F070BDB148D0F8CC0030
:1011300000F00F007047AE494A684B68C2F30C02DA
:1011400060F30C034B6010467047A9484068C0F339
:101150000C007047C00100F1804000F5A040D0F8BD
:1011600000014EF6602180B2B1FBF0F0401C400857
:10117000704730B44EF6602331B1B3FBF1F1491C36
:101180004A08B2F5804F01D343F6FF72B3FBF2F188
:10119000491C4D08C101530801F1804101F5A041EE
:1011A000002807BF981FA3F10C0CD1F8040180B2EE
:1011B00018BFA2F1060C2CF0010CD1F8004162F32B
:1011C0000F04C1F80041D1F8002163F31F42C1F8B8
:1011D0000021D1F8042160F30F02C1F80421D1F8F5
:1011E00010016CF30F00C1F81001284630BC7047A5
:1011F000C00100F1804000F5A040D0F80001000CD3
:101200007047C20102F1804202F5A042D2F80031DB
:1012100061F31F43C2F80031002818BF70478A1FCE
:10122000901F20F001017248D0F8043162F30F03DF
:10123000C0F80431D0F8102161F30F02C0F810217A
:1012400070470107490DC0F3031001EB401000F196
:10125000804000F5A040D0F84401C0F3080070477A
:101260000207520DC0F30310654B02EB401000F172
:10127000804000F5A0409B58D0F84421CB1A61F380
:101280000802C0F84421D0F844119B1E63F31841B2
:10129000C0F8441170475649C9695A4A11F0100FF5
:1012A0004FEA00714FEA5151C0F3031001EB4010B7
:1012B00000F1804000F5A0405258D0F84401D2B26D
:1012C000C0F3080008BF0022801A0004000C08BF09
:1012D000012070470309DB0103EB810101F140515B
:1012E00001F5C0410007C00E0B6802FA00F0184378
:1012F000086070470209D20102EB810101F14051FF
:1013000001F5C04100070968C00E21FA00F000F0A5
:10131000030070470207520DC0F3031002EB4010A8
:1013200000F1804000F5A040C0F84C117047010763
:10133000490DC0F3031001EB401000F1804000F5AF
:10134000A040D0F84C017047294A0021D26912F020
:10135000080F0DD00107490DC0F3031001EB401039
:1013600000F1804000F5A040D0F84401C0F3023104
:10137000084670471E4AD36943F00803D361020749
:10138000520DC0F3031002EB401000F1804000F555
:10139000A040D0F8442161F30E32C0F844217047D8
:1013A000134A0021D26912F0080F0DD00107490D30
:1013B000C0F3031001EB401000F1804000F5A040A5
:1013C000D0F84801C0F30241084670470207520DA9
:1013D000C0F3031002EB401000F1804000F5A04084
:1013E000D0F8482161F31242C0F84821704700004C
:1013F0000050004000389C1C1B81070089888888A9
:101400001451004020510040042988BF704710B497
:101410000023FD4CE26912F0080F4FEA00724FEA18
:101420005252C0F3031002EB401000EB04021CBF49
:10143000D2F84401C0F302330020D4F81CC01CF0E1
:10144000080F1CBFD2F84801C0F30240C91A084473
:10145000042803DD081A011D042003E00028BCBF96
:10146000014400201944E36943F00803E361D2F822
:10147000443161F30E33C2F84431D2F8481160F3BD
:101480001241C2F8481110BC7047DF490028886932
:1014900014BF40F0080020F0080088617047DA4867
:1014A0008069C0F3C00070470207520DC0F30310FB
:1014B00002EB401000F1804000F5A040D0F8482138
:1014C00061F30F02C0F8482170470107490DC0F3CE
:1014D000031001EB401000F1804000F5A040D0F86F
:1014E000480180B27047C84AD2F8CC10022903D113
:1014F00010F0010F18BF7047D2F8400110F0010F33
:1015000008BF7047D2F84801D2F844110304C1F370
:1015100002311B0C14BF002970474FF6FF71484081
:10152000C2F848017047B84A0021D26912F0080F8A
:101530000DD00107490DC0F3031001EB401000F17D
:10154000804000F5A040D0F84801C0F300510846A3
:1015500070470120704710B4022ADDF804C026BF8E
:10156000921E52080022022B26BF9B1E5B080023FE
:10157000A64CA4FB0C4C4FEA1C144FEA007C4FEA2B
:101580005C5CC0F303100CEB401000F1804000F5F0
:10159000A040D0F854C161F31B6C62F3134C63F3A9
:1015A0000B2C64F3070CC0F854C110BC704770B426
:1015B0000407640DC0F3031004EB401000F18040F9
:1015C00000F5A040DDF80CC0D0F854010029C0F3AC
:1015D0000366C0F30345C0F30324C0B218BF0E6016
:1015E00012B16900891C116013B16100891C196076
:1015F000BCF1000F04BF70BC704700EB800080009E
:10160000CCF8000070BC704770B491B000224FF469
:1016100080456C10EC4601E0082A05D2531C03EB10
:101620008303B5FBF3F304E0D31F03EB8303B4FBA5
:10163000F3F35B1A48BF5B424CF82230521C102A6D
:10164000EAD30026009B01215CF821209A42BCBF0E
:1016500013460E46491C1029F6D30107490DC0F365
:10166000031001EB401000F1804101F5A041D1F8D9
:101670005801D1F8582100F00F0066F30302C1F8B9
:101680005821082807D2401C00EB8000B5FBF0F081
:1016900011B070BC7047C01F00EB8000B4FBF0F0CD
:1016A00011B070BC70470107490DC0F3031001EB86
:1016B000401000F1804000F5A040D0F8580100F043
:1016C0000F00082834BF401CC01F00EB800034BF4F
:1016D0004FF480414FF40051B1FBF0F0704710F02F
:1016E0000F0F08BF70470007400D00F1804000F564
:1016F000A0400029D0F824110CBF21F4803141F41E
:101700008031C0F824117047002110F00F0F0BD06A
:101710000007400D00F1804000F5A040D0F8240102
:1017200010F4803F18BF012108467047364AD2F8AE
:10173000AC0011F0010FD2F8AC10C0F3C00014BF20
:1017400041F0080121F00801C2F8AC1070472E4AA0
:101750005067916770472C490028D1F8AC0014BF3E
:1017600040F0020020F00200C1F8AC0070472649AA
:101770000028D1F8AC0014BF40F0010020F00100B7
:10178000C1F8AC0070472048D0F8DC0070471E4913
:10179000C1F8E00070471C48D0F89800704770B45A
:1017A000194E0020D6F8401111F0010F04BF70BC93
:1017B000704711F0040FD6F81C3101F00805D6F877
:1017C00000C1C3F308031FFA8CF4D6F844C1CCF36C
:1017D000080C18BFC1F30740F269C1F3052112F0EC
:1017E00008021CBFD6F84421C2F30232002D18BFF4
:1017F000491C0CFA02F201FB0200604370BCC3EB0F
:10180000031100EB4100704700500040CDCCCCCC20
:10181000FEF7C7BF10B5FEF7C4FF012818BF10BD03
:101820000020FEF76EFF21210020FEF7C0FF2121DE
:10183000BDE810400120FEF7BABF10B5FEF75AFF11
:10184000FEF7AFFF01280AD10020FEF75AFF212141
:101850000020FEF7ACFF21210120FEF7A8FF0121A7
:10186000052001F06CFB0121052001F068FBFC491B
:101870000020087110BD10B54FF4066001F0B5FBF3
:10188000BDE810404FF4066001F0A0BBF44A0146E9
:10189000107B002818BF0120002918BF01211173F7
:1018A0007047EF4A516A506208467047EC49002081
:1018B000C872887048707047E9490020C872887003
:1018C000487070470007C00EE64A801E02EBC01049
:1018D0004FF480720FF04BBD70B50646FEF787FFE0
:1018E000E14D0446C6B1A201314628460FF03FFD46
:1018F00005EB84100021016041608160C1600161DD
:1019000041618161C161016241628162C1620163C1
:1019100041638163C16370BD800100F140012846CD
:10192000BDE870400FF028BD10B5CD4CE061FFF769
:10193000B0F9FFF783F9A1696FF30F01A161A26903
:10194000C1B242EA0121A161022818BF10BDA069FD
:1019500040F00100A06110BDC4488168C44A114331
:1019600081600168521C1143016000F0D4BD2DE973
:10197000F047BE4A0D4606469368BD48184390603E
:101980001068BC490843106000F0C5FD0024002D1C
:101990006FD00020FEF7B5FE286820B1FEF751FF9A
:1019A0000020FEF7AEFE3046FFF7BEFF0020FEF738
:1019B00039FF002852D0D5F80480FEF718FFDFF871
:1019C000A89201260746B8F1000F1ED0BA01414681
:1019D00048460FF0CCFC09EB87100460446084603B
:1019E000C460046144618461C461046244628462CD
:1019F000C462046344638463C4639F48E96859B163
:101A00004FF480720FF0B3FC21E0800100F140013F
:101A100048460FF0B1FCF0E7984F4FF480710FF09B
:101A2000ABFC0020395600290EDB0A09D20102EB7B
:101A3000800202F1405202F5C0420907C90E136844
:101A400006FA01F119431160401C2028EAD38C48A2
:101A5000696949B14FF480720FF089FC0120FEF7EB
:101A6000E1FE804E50B905E04FF480710FF084FC28
:101A7000F4E719E01120FEF7D5FE30B1A96821B1D5
:101A800030464FF480720FF072FC0220FEF7CAFE5F
:101A900018B91220FEF7C6FE30B1296921B1794884
:101AA0004FF480720FF063FC6D48C4728470447010
:101AB0004462017B002101734FF4066001F095FA46
:101AC000BDE8F0474FF4066001F080BA10B5002081
:101AD000FEF717FE00F00CFD6148C078002808BF33
:101AE00010BD6248016821F0030141F00D7141F021
:101AF00080510160816821F0020141F00D7141F0D7
:101B00008051816010BD4FF4066001F064BA10B5D9
:101B10004FF4066001F05FFAFEF743FE01280AD198
:101B20000020FEF7EEFD21210020FEF740FE2121DE
:101B30000120FEF73CFE5448D0F8B01221F4803169
:101B4000C0F8B0120020FEF7DCFD00F0D1FC4448E4
:101B5000C078002808BF10BD4448016821F0030187
:101B600041F00D7141F080510160816821F0020166
:101B700041F00D7141F08051816010BD10B501F050
:101B80002FFA10F0600018BF012010BD3448C06962
:101B9000704733488069704772B631498A6922EAD2
:101BA0000000886162B670472D480078002818BF91
:101BB0000120704770B5FEF7F4FD002818BF70BD16
:101BC0000024274DEC72AC706C7021212046FEF78A
:101BD000EEFD21210120FEF7EAFD2C70BDE87040EA
:101BE0000120FEF78EBD70B50446FEF7DAFD002831
:101BF00018BF70BD00211A4DE972A97069702121CA
:101C00000020FEF7D4FD21210120FEF7D0FD022C9B
:101C10003CBF0120FEF7DBFD012028702C62BDE8EF
:101C20007040FEF76EBD10B5FEF7BBFD002818BF73
:101C300010BD00200A4CE072A07060702121FEF7F8
:101C4000B6FD21210120FEF7B2FD0120FEF7BFFD08
:101C5000012020702062BDE81040FEF752BD000058
:101C60002004011040480030004000300080004057
:101C700002003412030034120060003081070110AA
:101C80000080003040490030005000400020FEF746
:101C900038BDFF490020887048700120FEF731BD33
:101CA000FB4988627047FA48806A7047002000F05C
:101CB00068BB012000F065BB10B5FFF764FD04466A
:101CC000FFF765FDF348044208BF10BDF048816985
:101CD00041F0040181610E2101EAD43104F00102D6
:101CE0000A43816962F31F418161EB48016841F059
:101CF0002001016010BD002818BF0120E449C87010
:101D00007047E6487047E6487047E148C06A704748
:101D1000DF484179C279914214BF006B406B704734
:101D2000DB48406B70472DE9F00FDC4E4FF0000CA4
:101D300088B006F14007E1464FF0FF3806F80C8006
:101D400007F80C900CF1010CBCF1200FF6DB4FF002
:101D5000000C002807DD12F80C4006F80C400CF1CE
:101D6000010C6045F7DC002422464FF0010A0028F0
:101D70000EDD16F902C0BCF1000F06DBBCF1200F2E
:101D80003CBF0AFA0CFC4CEA0404521C8242F0DB11
:101D9000002294466D460AFA02FB1BEA040F1ABFA2
:101DA00005F802C00CF1010C05F80280521C202A33
:101DB000F1DB0022002810DD16F902C0BCF1000F93
:101DC00008DBBCF1200F3ABF15F80CC007F802C0C1
:101DD00007F80280521C8242EEDBAD4C0022002844
:101DE000C4F82C9008DD17F902C0944501D0E762D1
:101DF00002E0521C8242F6DBAA4F0020A7F1600CE1
:101E0000A7F120060CF8008006F8009007F8009073
:101E1000401C2028F6DB0020002905DD1A5C0CF8A8
:101E20000020401C8142F9DC0022104600290BDD15
:101E30001CF90030002B04DB202B3CBF0AFA03F313
:101E40001A43401C8842F3DB002003460AFA00FBD9
:101E50001BEA020F1ABF2B545B1C05F80080401CC4
:101E60002028F3DB002000290ADD1CF90030002BBC
:101E700003DB202B3CBFEB5C3B54401C8842F4DB73
:101E80000020C4F83490002907DD3B56834201D07E
:101E9000676302E0401C8842F7DB11F0010F18BFB6
:101EA0001F2009D00AFA00F3134203D10AFA00F006
:101EB000024301E0401EF5D5002003460AFA00F770
:101EC00017421ABF2B545B1C05F80080401C2028C9
:101ED000F4DB002000290ADD1CF90020002A03DBC6
:101EE000202A3CBFAA5C3254401C8842F4DB00200C
:101EF000C4F830900029DEBF08B0BDE8F00F70478D
:101F00003256824204D0266308B0BDE8F00F704715
:101F1000401C8842F4DB08B0BDE8F00F704762490E
:101F200000EB401001EB8010704700EBC0005F49F0
:101F300000EB400001EB80007047DFF854C1012B3B
:101F40008CF805008CF8061003D9401C20F0010025
:101F500011468CF807008CF8081000FB01F24FF6D0
:101F6000FF7101EA4202ACF8122001EA4000ACF82D
:101F7000140070474648007A70474548C07970475A
:101F8000434A5072917270474148807A7047404886
:101F9000407A7047464A1070517070474449085C57
:101FA00070472DE9F047DFF8E890044699F80C00F7
:101FB000002804BF99F801000FF0E3F999F80B002D
:101FC000002808BFBDE8F0874FF00008D9F81C00D2
:101FD00047464646454610F0020F1CBFDFF8C88052
:101FE00010F0040F05D0B9F812102F4A21F00101AA
:101FF0008F1810F0010F18BF2C4E10F0200F18BFD3
:102000002C4DD9F828002060FEF71BFE10F0010FC0
:1020100006D0FFF78AF8022828BF99F8020000D2FC
:102020000020E760C4E90108C4E904650120BDE8B7
:10203000F08717490020C872704710B50446FEF7B4
:10204000D6FB82012046BDE810401B490FF08FB936
:102050002DE9F041FEF7CBFB04460020FFF767F9BE
:102060000022002C84BF012541F6F07635D90021ED
:102070004FEA821C05FA01F3034228D04B080CEB0F
:10208000830303F1405303F58043CF071B6815E03A
:1020900020040110010007005C04011081070110F9
:1020A000A10701100108011074980110B4A00110DB
:1020B0002D0401108CA1011000400030FF0EFB40E8
:1020C000C3F30C03B34202D90020BDE8F081491CE0
:1020D0002029CFD3521CA242C9D30120BDE8F081F0
:1020E0000B460007C00EC549801E01EBC0114FF41E
:1020F000807218460FF03BB92DE9F05F00F00F0633
:1021000070000025A0F1020B012741F6F07846EAA5
:1021100005194846FEF786FB002835D04846FFF7EC
:1021200013F907FA00F4022C88BF02244846FFF78F
:10213000FEF80022002C84BF0BEB05014FEAC11A08
:1021400022D900210AEB821907FA01F3034215D0C4
:102150004B0809EB830303F1405303F580434FEA37
:10216000C17CD3F840384FEADC6C23FA0CF3C3F39C
:102170000C03434502D90020BDE8F09F491C2029EB
:10218000E2D3521CA242DCD36D1C022DBFD301202E
:10219000BDE8F09F2DE9F05F0026994C4FF6FF75E2
:1021A00000280F4644D000F00F01C0F303100129AE
:1021B0000EBF00210229BDE8F09F022828BFBDE81C
:1021C000F09F01EB0009FEF7ECFA5FEA00081CBF84
:1021D0000020FEF796FA00204FEAC919002209EB09
:1021E0008011530801EB830303F1405CD307DB0E3E
:1021F0000CF5804C05FA03FBDCF840A807FA03F362
:102200002AEA0B0A4AEA0303521CCCF84038202A77
:10221000E7D3401C0228E1D3B8F1000F08BFBDE8A6
:10222000F09FA6706670BDE8F05F0120FEF769BA06
:10223000FEF7B7FA5FEA00081CBF0020FEF761FA5C
:10224000002000228101530801EB83034FEAC27C86
:1022500003F140534FEADC6C03F5804305FA0CFAB6
:10226000D3F8009007FA0CFC29EA0A0949EA0C0C99
:10227000521CC3F800C0202AE5D3401C2128E0D31B
:10228000B8F1000FCDD1BDE8F09F10B5FFF703F80E
:102290005B49088210BD5A4AC1B200F4F853128A51
:1022A000914288BF11464FF0640C01FB0CF1B1FB69
:1022B000F2F11A0A02FB0C1110F4005F12BF08B20F
:1022C000484200B2704710B54FF480714D4C4E48F3
:1022D0000FF052F8002001232156002910DB0A09D3
:1022E000D20102EB800202F1405202F5C04209071E
:1022F000C90ED2F800C003FA01F14CEA01011160E5
:10230000401C2028E8D310BD10B53E4C4FF480711E
:102310003D480FF031F8002001232156002910DB41
:102320000A09D20102EB800202F1405202F5C042DA
:102330000907C90ED2F800C003FA01F14CEA010105
:102340001160401C2028E8D3BDE810404FF4246100
:102350002E480FF011B82A4810B5808B00F4817018
:10236000FFF7E2FA4FF4807127480FF005F84FF4B9
:10237000046126480FF000F8BDE810400020FEF789
:10238000DABE70B51E4C0546A06A401CA0622078DB
:1023900050B1206A10B1206A401E2062206A0028D5
:1023A00004BF0020FEF7ADF920212846FEF7FFF913
:1023B000616A00291CBF28468847FEF73FFC0228B7
:1023C00015D11348D0F8B81211F0010F0FD0D0F882
:1023D000B81241F00101C0F8B812D0F8B81221F0DB
:1023E0000101C0F8B812A06940F00200A0610948DC
:1023F000016841F02001016070BD000040480030DC
:1024000020040110810701100060003000400030FE
:10241000005000405C0401102DE9F0410027634D9D
:102420000126002808BF2E701FD001282F7018BF6A
:102430006F701AD0DFF87881D8F800005D49084342
:10244000C8F8000029785C4C002914BF4BF608300E
:102450005A48E06014BF5A484FF0BB70A06059481A
:10246000006830F0FF0206D101E06E70E2E7E2683A
:1024700060F30302E26051B1A06840F01800A06070
:10248000012000F071F8A06840F48050A0600120A5
:1024900000F06AF8687818B1E06840F03000E06059
:1024A000D4F8B00040F00100C4F8B000012000F002
:1024B0005BF8E6674FF4E0602061C4F88870287824
:1024C000002818BFC4F89460E06820F03000E06095
:1024D000A06820F48050A060D8F8000020F004002C
:1024E00040F00D7040F08050C8F80000BDE8F08169
:1024F0003148C16821F03001C160816821F4805108
:1025000081602B48016821F0040141F00D7141F018
:1025100080510160704726480268264911430160D6
:10252000224925480A783AB1826842F0180282604E
:10253000826842F480528260497819B1C16841F0E2
:102540003001C160D0F8B01041F00101C0F8B01006
:1025500070471D49C0B241EA00201749086470471E
:1025600015491A480864704782B040F24C42009006
:1025700013E000BF00BF00BF00BF00BF00BF00BF2F
:1025800000BF00BF00BF00BF00BF00BF00BF00BF53
:1025900000BF0198411E0191EBD20098411E0091AD
:1025A00028BF0192F5D202B0704700005804011014
:1025B00000800040040034120060004005F4010077
:1025C0002000BB00D0FE030013005FA000005FA04E
:1025D000414840498161891CC161491E41630268CB
:1025E00022F0030242F00D7242F080520260426912
:1025F00022F0010242F00D7242F080524261026903
:1026000011430161354981603549C1603549002078
:102610000860704710B501F04CF932480468002C8E
:1026200008BF30BFFAD00021016001F046F9204612
:1026300010BD10B501F03DF926482A4B2649421C31
:102640001C682CB10020186001F037F9204610BD3D
:1026500072B648638A6120BF88614A6362B6BFF37D
:102660006F8FBFF34F8FEBE71B48016821F0030129
:1026700041F00D7141F0805101601B498160016999
:102680001A4A1143016130BF704772B611491248AE
:102690004163C91CC161891E816162B670470E48E1
:1026A0000168134A1143016070470B48016821F02B
:1026B000030141F00D7141F080510160704772B625
:1026C000044905488161891CC161491E416362B6A4
:1026D0007047000000003412008000403C003412BB
:1026E000280034125C040110080034120100341276
:1026F000030034127047002818BF01204FF4E02176
:10270000486070470022B2EBD10F26D20368B3F1C4
:10271000FF3F04BF4368B3F1FF3F17D18368B3F1B4
:10272000FF3F04BFC368B3F1FF3F0FD10369B3F1AB
:10273000FF3F04BF4369B3F1FF3F07D18369B3F1A2
:10274000FF3F04BFC369B3F1FF3F01D000207047D2
:102750002030521CB2EBD10FD8D30120704710B4F7
:102760000023B3EBD20F30D2D0F800C00C68A445E0
:1027700022D1D0F804C04C68A4451DD1D0F808C0BF
:102780008C68A44518D1D0F80CC0CC68A44513D1EE
:10279000D0F810C00C69A4450ED1D0F814C04C6913
:1027A000A44509D1D0F818C08C69A44504D1D0F84B
:1027B0001CC0CC69A44502D010BC0020704720305A
:1027C00020315B1CB3EBD20FCED310BC012070477D
:1027D0002DE9F041054601F074F8002021264FF460
:1027E000825784464FF4E0221660C5F800C0116895
:1027F00041F004011160116811F0040FFBD1176062
:1028000040232C460021D4F80080B8F1FF3F04BFDC
:10281000D4F80480B8F1FF3F1DD1D4F80880B8F196
:10282000FF3F04BFD4F80C80B8F1FF3F13D1D4F8B8
:102830001080B8F1FF3F04BFD4F81480B8F1FF3F17
:1028400009D1D4F81880B8F1FF3F04BFD4F81C8038
:10285000B8F1FF3F08D0C2F800C0401CC0B2082841
:10286000C2D30220BDE8F081491C2034B1EBD30F64
:10287000C9D3C2F800C00120BDE8F0812DE9F041C4
:10288000054601F01EF80020092684464FF4E02397
:102890001E60C5F800C0196841F00401196019688C
:1028A00011F0040FFBD12C464FF480620021276801
:1028B000B7F1FF3F04BF6768B7F1FF3F17D1A768C3
:1028C000B7F1FF3F04BFE768B7F1FF3F0FD12769BA
:1028D000B7F1FF3F04BF6769B7F1FF3F07D1A769B1
:1028E000B7F1FF3F04BFE769B7F1FF3F08D0C3F876
:1028F00000C0401CC0B20328CAD30220BDE8F0814A
:10290000491C2034B1EBD20FD1D3C3F800C0012051
:10291000BDE8F0812DE9F05F0F46804604264FF0B8
:10292000020A4FF0000B4FF4E02900F0CAFF4446C2
:102930003846C9F800A00F21B0E82C10A4E82C10EC
:10294000491EF9D2D9F8000040F00400C9F800008F
:10295000D9F8000010F0040F06D000BF00BFD9F86E
:10296000000010F0040FF8D1C9F800B04546384611
:102970000F21D5E90023D5E902C4D0F800E096453F
:1029800004BF42689A4205D18268624504BFC268AA
:10299000A24208D0761E03D34046FFF719FFC4E7D2
:1029A0000220BDE8F09F10301035491EE1D2012011
:1029B000BDE8F09F70B50D46044600F082FF4FF46D
:1029C0008072214628460EF0D2FC012070BD2DE910
:1029D000F041C0B014460E46054610F0FF0F23D05C
:1029E00025F0FF086F4600F06CFF4FF480724146FF
:1029F00038460EF0BCFCE8B2C0F58077A74288BF2D
:102A0000274668443A4631460EF0C0FC4046FFF780
:102A1000DFFE022843D069464046FFF77BFF0228CD
:102A200041D03D443E44E41BB4F5807F19D34FF4BC
:102A30008072314668460EF0A9FC2846FFF7C8FEB2
:102A400002282CD069462846FFF764FF02282AD0C6
:102A5000A4F5807405F5807506F58076B4F5807F61
:102A6000E5D2C4B16F4600F02CFF4FF480722946C6
:102A700038460EF07CFC2246314668460EF086FC55
:102A80002846FFF7A5FE022809D069462846FFF729
:102A900041FF022807D040B00120BDE8F08140B0DE
:102AA0000A20BDE8F08140B00B20BDE8F0810000B5
:102AB0002E490860086100F010B82C490860486190
:102AC00000F00BB829494867704728498867704764
:102AD000264801210166016570474FF04022116BC5
:102AE00010F0010F18BF21F4404110F0020F1CBF7D
:102AF00021F4405141F4805110F0040F18BF21F42B
:102B0000406110F0080F18BF41F4407110F0100F31
:102B100018BF41F0C00110F0200F18BF41F0300184
:102B200010F0400F18BF41F00C0110F0800F18BFDB
:102B300041F0030141F4BE0141F020411163D2F89C
:102B4000901010F4807F1CBF21F0030141F00201BE
:102B500010F4007F1CBF21F00C0040F0080141F48C
:102B6000BE0040F02040C2F89000704700100040C6
:102B70007047D0488268D0490A438260C2681143D6
:102B8000C1604169CD4A114341617047C9484169FB
:102B900021F0010141F00D7141F080514161C168A6
:102BA00021F0400141F00D7141F08051C160816818
:102BB00021F0400141F00D7141F08051816070477A
:102BC00010B5BC4CA168BC480143A160E168084352
:102BD000E0606069B94908436061B94843F63F71F4
:102BE000C160002181638164C0F8B01003210A2014
:102BF00000F0A5F90A2000F0C5F9606920F0010095
:102C000040F00D7040F080506061E06820F04000BE
:102C100040F00D7040F08050E060A06820F040006F
:102C200040F00D7040F08050A06010BDA44A1060CC
:102C30005160484390607047A14A1060516048431A
:102C400010F0010F18BF401C906070479C49C1F8FC
:102C5000B00070479A49002818BF01208864704767
:102C600097498863C86840F00200C8607047DFF881
:102C700050C2CCF82000CCF82410CCF82820CCF896
:102C80002C300120CCF83000DCF8340010F0010FBB
:102C900005D020BFDCF8340010F0010FF9D110F09E
:102CA000020018BF4FF0FF3070478548C16821F01F
:102CB0000201C16070478248C16841F00101C160F2
:102CC00070477F4B186259629A6201201864586CF1
:102CD00010F0010F04D020BF586C10F0010FFAD192
:102CE00010F0060018BF4FF0FF3070477448C168FD
:102CF00021F00101C16070477148C16841F00401D1
:102D0000C1607047027C017B02F03F0241EA024150
:102D10006B4A916501685162416891628168D16234
:102D200001211165516D11F0010F04D020BF516DCB
:102D300011F0010FFAD1D36D8382D36D1B0CC382C6
:102D4000136E0383136E1B0C4383536E8383526E87
:102D5000C2F30E42C28311F0020018BF4FF0FF30E1
:102D600070475748C16821F00401C160704754485A
:102D7000C16841F00801C1607047DFF844C1CCF878
:102D80007820CCF82000CCF82430CCF82810012092
:102D9000CCF87000DCF8740010F0010F05D020BFF3
:102DA000DCF8740010F0010FF9D110F0060018BF24
:102DB0004FF0FF3070474248C16821F00801C16000
:102DC000704701684FEA31423D49C1F89C20406894
:102DD000C1F8A000C86840F02000C86070470168D2
:102DE0004FEA31423649C1F89C208088C1F8A000E2
:102DF000C86840F02000C8607047314B18625A62C2
:102E000099620120C3F89400D3F8980010F0010FE4
:102E100005D020BFD3F8980010F0010FF9D110F0C1
:102E2000060018BF4FF0FF307047254A106251620C
:102E30000120C2F89000D2F8980010F0010F05D0E0
:102E400020BFD2F8980010F0010FF9D110F0060061
:102E500018BF4FF0FF3070471948C16821F02001BA
:102E6000C16070471648C16841F01001C1607047E9
:102E7000A3F1050C124BC3F888C018625A6299621C
:102E80000120C3F88000D3F8840010F0010F05D0B2
:102E900020BFD3F8840010F0010FF9D110F0060024
:102EA00018BF4FF0FF3070470548C16821F010018E
:102EB000C1607047008000404000341201003412AD
:102EC000009000401B4810B5022140F8501F01211E
:102ED00001611021416241F20601416100218161DD
:102EE0000421816390214163416B41F00101416301
:102EF0004FF4817101610161032000F043F800216A
:102F0000032000F01CF8002010BD10B5032000F0D5
:102F100045F808484FF480710166002101661021D0
:102F2000816702214165002010BD0349002008701F
:102F3000704700000030004060040110704700F04E
:102F40000303DA004FF0FF0C0CFA02F24FF0050C0D
:102F50000CEBC30301FA03F300F00C0101F1E021D3
:102F6000002807DAD1F8140D90431A401043C1F835
:102F7000140D7047D1F8000490431A401043C1F873
:102F80000004704700F01F01012202FA01F140091C
:102F9000800000F1E020C0F80011704700F01F0130
:102FA000012202FA01F14009800000F1E020C0F89E
:102FB0008011704700F01F01012202FA01F140095F
:102FC000800000F1E020C0F8801270474FF0E0214F
:102FD000C1F8000170474FF0E021C1F8800170474F
:102FE0004FF0E020D0F8000170474FF0E021C1F829
:102FF00080027047084800687047074A11681060EF
:1030000008467047044A126800F1100352F8230082
:1030100042F823107047000008ED00E002210C2068
:10302000FFF78DBFB8488268B8490A438260C2681A
:103030001143C1607047B448816821F4805141F068
:103040000D7141F080518160C16821F4805141F0DF
:103050000D7141F08051C1607047AD4881B0016F82
:1030600011F4007FFBD1816E11F0010F1CBFD0F86D
:103070008410009104D0D0F88410009A9142FAD0C4
:10308000016F11F4007F04BF4CF27101016642F23E
:103090004131816601B070479D4981B04FF40D52B6
:1030A0008A660A6FCA66012898BF012005D9401EAA
:1030B000B0F5803F28BF4FF6FF7082B24FF05C50F2
:1030C00040EA022048664FF01140C1F88000086FC6
:1030D00010F4007FFBD1886E10F0010F1CBFD1F8F7
:1030E0008400009004D0D1F88400009A9042FAD075
:1030F000086F10F4007F04BF4CF27100086642F2C2
:103100004130886601B07047814881B0016F11F489
:10311000007FFBD1816E11F0010F1CBFD0F884102D
:10312000009104D0D0F88410009A9142FAD04FF464
:103130000D51816601B070477348806810F480506B
:1031400008BF70477248806E00F0010070477048F9
:10315000406EC0F30F2070476D48D0F88400704770
:1031600010B50C20FFF726FF0C20FFF70BFF684976
:103170000220486710BD664910B5032088670C20FF
:10318000FFF70CFFBDE810400C20FFF713BF614AAA
:1031900011681060084670475D4810B5016FC16640
:1031A0005C480068002818BF80475B48016841F40C
:1031B0008051016010BD574840687047524810B5B3
:1031C000826852490A438260C2681143C160504913
:1031D000032088670C20FFF7E1FE0C20FFF7EAFED2
:1031E00000F066F94D4B0420C3F888004FF6FF70DD
:1031F000C3F88C0072B66033FFF74EFF4FF40070D7
:10320000186062B610BDF8B572B64148016F11F48E
:10321000007FFBD1816E11F0010F1CBFD0F884102C
:10322000009104D0D0F88410009A9142FAD04FF463
:103230000D51816639494FF400320A6662B6D1F801
:103240000412314D002946D0324C4FF6FF73591A03
:10325000A160AA69D5F81CC002F00F020CF00F0C97
:103260006244121D01FA02F2A2F5EA41DFF8B0C091
:10327000313961452FD2D0F88400191AE160B1F5D7
:10328000803F28D2274B4FF0000CA1FB03070CFB1B
:10329000037301FB0C3163460EF07DF8401C4008BF
:1032A0002061B0F57A7F38BF4FF47A701E4B996871
:1032B000002908BF98605A681A609968C3E901102C
:1032C0008A421BD9824205D9814201D9616002E05C
:1032D000606000E0626000F0F7F8A86820F48050B9
:1032E00040F00D7040F08050A860E86820F48050F5
:1032F00040F00D7040F08050E860F8BD8242E9D89F
:103300008142E5D8E2E7000000800040001034125E
:1033100000C00040640401105C04011000A00040E3
:103320002F6E160000879303240801100F48816850
:103330000F4A114381600F48016841F40471016034
:10334000001F016841F004010160016841F01001B3
:1033500001607047084908607047BFF34F8F084904
:1033600006480860BFF34F8FFEE700000080004072
:103370000400341214ED00E008ED00E00400FA054A
:103380000CED00E018488168184A11438160100371
:10339000416941F001014161016A21F00F021449C4
:1033A0000A430262134B8A1EC3F8C42001657047AA
:1033B0004FF04020006900F0700070474FF040204F
:1033C0000D4940F8301F0D4941600D4901660D4916
:1033D000416670474FF0402148680B4A904202BF57
:1033E000496C0029094870470080004004003412ED
:1033F00003005FA000600040C0845FA050995FA000
:103400000A005FA000005FA061A5650561B66505C3
:10341000022824BF00207047DE4B53F8202043F8D9
:1034200020101046704770B5DB4C206FD94D10F05E
:10343000010F05D00120E0662868002818BF8047EA
:10344000206F10F0020F08BF70BD0220E0666868B0
:10345000002808BF70BDBDE870400047CF4810B5D8
:103460008268CF490A438260C2681143C160CA4979
:1034700002220A6501230B660323CB664A65816835
:1034800021F0800141F00D7141F080518160C168EF
:1034900021F0800141F00D7141F08051C16009209F
:1034A000FFF770FD0221BDE810400920FFF747BD7E
:1034B000BA488268BA490A438260C2681143C1604F
:1034C000B549022008657047B34902204865B348F2
:1034D000816821F0800141F00D7141F080518160DF
:1034E000C16821F0800141F00D7141F08051C1604F
:1034F0007047AA488068C0F3C0107047A648016FA3
:1035000011F4007F14BF4FF440714FF480710166D5
:10351000704710B5A04CE06F10F0020F4FF00100A3
:1035200018BF0320606700F068F99C498A69C9697F
:1035300002F00F02D04001F00F01C8400521B0FB9E
:10354000F1F04FF405710009C4F880109549A1FB12
:1035500000104009C4F88400206F10F4007F14BFED
:103560004FF440704FF48070206610BD8A48016FA0
:1035700011F4807F14BF4FF440714FF40071016665
:103580007047854B30B4DA6F12F0010F14BF03227D
:1035900002225A6700EB4005C5EBC0104FF4967449
:1035A000C1EBC0004C4300EB80007F4904EB4010AE
:1035B000A1FB0010794900224FF0020C8C69C00871
:1035C000C96904F00F0401F00F012144C84005212E
:1035D000B0FBF1F0B0F5803F05D3511C4008CAB2F2
:1035E000B0F5803FF9D242EA0C2141F01001C3F856
:1035F0008810C3F88C00186F10F4807F14BF4FF44C
:1036000040704FF40070186630BC70476248016F1C
:1036100011F4003F14BF4FF440314FF48031016684
:1036200070475D48016F11F4803F14BF4FF4403183
:103630004FF40031016670475748006FC0F3002017
:1036400070475548006FC0F3402070475349896860
:10365000C1F3C011002904BF002070474E49002863
:103660000CBFD1F80002D1F8040270474B4B9A68A6
:10367000C2F3C012002A04BF00207047464A002847
:103680000CBFD2F88000D2F88800C0F30A200CBF2B
:10369000D2F88020D2F8882002F00F02D3F818C0A8
:1036A000DB690CF00F0C03F00F0363441A449140E4
:1036B000012202EB400048433C49A1FB00100009F5
:1036C00070473B4901200870704770B4334BC1EB21
:1036D000011149009A69D3F81CC002F00F020CF0E6
:1036E0000F0C6244121DD14008BF012104D0B1F576
:1036F000803F28BF4FF6FF719A68C2F3C012002ABC
:103700001CBF70BC7047D3F808C0254A4CEA020CB5
:10371000C3F808C0D3F80CC04CEA0202DA601E4AB3
:103720004FF0020CC2F850C04FF400341466042568
:10373000C2F88850C2F88C101E4DD566C2F874C00D
:103740001D4902283CBF134E46F82010002118489E
:1037500001704FF400711166017819B920BF01782A
:103760000029FBD014669567D566C2F854C09868E6
:1037700020F0800040F00D7040F080509860D868D4
:1037800020F0800040F00D7040F08050D86070BC98
:10379000704700007C04011000A000400080004041
:1037A000800034121F85EB51CDCCCCCC8988888821
:1037B0007804011002000202735600004FF0E0216D
:1037C0000020886108611F494860704710B54FF0BC
:1037D000E02460610020A0610221401EFFF7AFFBE2
:1037E0000720206110BD4FF0E021002008617047E4
:1037F00014480188491C018070471248806870474E
:103800002DE9F0410F4C002705462780A0684FF4B2
:103810007A71B0FBF1F04FF0E026401E7061B761A5
:103820000221C81EFFF78BFB072030612188A942C7
:10383000FCD33761BDE8F081034948430149886002
:10384000704700008404011040420F00704770B5BB
:1038500005464FF40D500406A0660320E066264896
:1038600060664CF2710020662448C4F8800042F281
:103870004630A06602210020FFF761FB0020FFF721
:1038800081FB002D08BF70BDA06E42F2413108439C
:10389000A06670BD012110B5880781674FF40D51F6
:1038A00081660020FFF77AFBBDE810400020FFF79B
:1038B00081BB012081074867704701208107886725
:1038C00070474CF271008107086670470C4A116816
:1038D0001060084670470A4808B5006818B180476C
:1038E000002818BF08BD4CF2710188070166016FFE
:1038F000C166006F009008BD07383937009C1C91E5
:103900009004011070B5FF4D00244FF4A0612C709D
:103910006C70EC70FC480DF02FFD4FF4A061FB487B
:103920000DF02AFDFA48AC602C71C0F80043C0F8D5
:103930000443C0F80843C0F80C43C0F81043C0F873
:103940001443C0F81843C0F81C43C0F82043C0F823
:103950002443C0F82843C0F82C43C0F83043C0F8D3
:103960003443C0F83843C0F83C43C0F84043C0F883
:103970004443C0F84843C0F84C43C0F85043C0F833
:103980005443C0F85843C0F85C43C0F86043C0F8E3
:103990006443C0F86843C0F86C43C0F87043C0F893
:1039A0007443C0F87843C0F87C436C716821D948EF
:1039B0000DF0E2FC6821D8480DF0DEFCEC6070BD33
:1039C000D049002048707047CE4840787047CD48B5
:1039D0000079002818BF01207047CA4840790028A4
:1039E00018BF01207047C748C078002818BF0120C1
:1039F0007047C448407800EB800101EBC000C54926
:103A000001EBC00070472DE9F041BE4D0446C149AD
:103A10006A78C24F02EB820000EBC200C04E01EB9D
:103A2000C0033A78307821461044420018460DF021
:103A3000ADFC6A78B84902EB820000EBC20001EBF2
:103A4000C0033A78307821461044420018460DF001
:103A50009DFC01206871BDE8F081AA48C0687047EC
:103A6000A848A949407800EB800001EB002070478E
:103A70002DE9F041A34E07463078002814BFA9482D
:103A8000A948047814BFA948A948057804FB05F89B
:103A9000FFF76FF829462046FFF7C8F870789B4C6F
:103AA00000EB8000984904EB002201EB00203B462C
:103AB0000146FFF7DCF8FFF769F870784FEA480233
:103AC00000EB800004EB002039460DF05FFC012084
:103AD000F070BDE8F0812DE9F0478A4D04468A492F
:103AE0006878DFF8408200EB800001EB002C28783A
:103AF000DFF834928D4E8E4F2146002815BF98F87E
:103B0000002099F8002033783B7802FB03F04FEA5D
:103B1000400260460DF03AFC68787C4900EB80007A
:103B200001EB002C28782146002815BF98F80020CA
:103B300099F8002033783B7802FB03F04FEA40020B
:103B400060460DF023FC0120E870BDE8F0876D4869
:103B50008068704770B5774C0546014622787648F4
:103B600052000DF013FC22782946520073480DF0E4
:103B70000DFC64490120087170BD2DE9F04FADF2D4
:103B8000445DDFF880910120CDF8240599F8030009
:103B9000CDF8200599F80400CDF81C0599F805002A
:103BA000CDF81805FDF734FECDF83C05FDF7FCFF18
:103BB000CDF83805FDF7C9FACDF83405FDF741F821
:103BC0000446FDF727FEFCF796FDCDF830050020F2
:103BD000FDF740F8D9F8140024F001040428BCBF14
:103BE0000420C9F8140099F80200B9F81410000272
:103BF00040EA014040F0010200239121072009F032
:103C000071F814F0010F05D0FDF7D4FF0020CDF8B6
:103C1000240504E00020FDF78EFAFEF704F80026E4
:103C20003746B3464FF0010A05F08DF901281DD043
:103C30000DF5A060FEF7B5F9002800F000820DF543
:103C4000A06005F0D5FF002089F80100D9F8140024
:103C5000C01E8642CABF874201250025DDF80C053B
:103C6000002836D0DDF81C0520B132E04FF0010B02
:103C700000F0CBB96846DDF80C150DF091FB8046DD
:103C80007DB12C4C4146207842002B480DF07EFB44
:103C900020784146420029480DF078FB89F804A0BD
:103CA00017E0FEF766FF234C01212078FEF7BEFFE8
:103CB000224A4346A2F140010846FEF7D8FFFEF72C
:103CC00065FF2078414642001C480DF05FFB89F8F3
:103CD00004A0DDF80805002800F0EB80DDF82005E1
:103CE000002840F0E68099F80000DDF8084500283B
:103CF00062D1D9F80880B8F1000F44D009480078A3
:103D00001EE0000094040110D0A101103008011041
:103D100030140110D0A60110B0170110CC0401100E
:103D2000CD040110CA040110C7040110CB04011016
:103D3000C8040110CE0401103017011070170110D3
:103D4000CDF82C05FC480078CDF82805FEF711FFCA
:103D5000DDF82815DDF82C05FEF76EFF21464246FA
:103D60000846FEF7AEFFFEF711FFF4480078022880
:103D700004BF404605F00FFDF0480078092804BF55
:103D8000204605F008FDEE480078012814D9DFF838
:103D9000AC8398F80000042804BF204605F0FBFC23
:103DA000214668460DF001FB044698F800000528FE
:103DB00004BF204605F0EFFCADB399F8010099F877
:103DC000002000EB8001DF48002A00EB01202146A3
:103DD0000CBFDD4ADD4A137814BFD74ADC4A12789B
:103DE00003FB02F24FEA42020DF0D0FA99F801000B
:103DF00000EB8001D74800EB012399F80000214631
:103E0000002814BFD148D048007814BFCA4AD04A0D
:103E1000127800FB02F04FEA400218460DF0B6FAA5
:103E200089F803A038E0FFE7CDF8284599F80000AD
:103E3000002814BFC548C44890F8008014BFBE488D
:103E4000C348047808FB04F0CDF82C05FEF791FE7A
:103E500021464046FEF7EAFE99F80100BD4C00EB12
:103E60008000B84904EB002201EB00200146DDF898
:103E70002835FEF7FCFEFEF789FEDDF82C05DDF89F
:103E80002815420099F8010000EB800004EB0020A7
:103E90000DF07CFA89F803A0A8480078032808D11F
:103EA00099F8010000EB8001A64800EB012005F025
:103EB00072FCDDF8100500287DD0DDF8180500281B
:103EC00079D199F80000DDF8104548BBD9F80C808D
:103ED000B8F1000F24D0A0480178A0480078084429
:103EE000401C4008019002200090FEF742FEDDE9F0
:103EF0000010FEF7A1FE214642460846FEF7E1FE0D
:103F0000FEF744FE96480078022804BF404605F0BC
:103F100054FD93480078092804BF204605F04DFD64
:103F200045B399F801008C4D00EB800101EBC00115
:103F30008C48DFF8288200EBC1032A7898F800004B
:103F400021461044420018460DF020FA99F801006D
:103F50002A7800EB800101EBC001834898F800301B
:103F600000EBC1001A44214652000DF00FFA89F807
:103F700005A02EE07848A0460178784800780C1813
:103F8000FEF7F7FD601C40080221FEF74FFE99F88E
:103F90000100754D00EB800101EBC000714905EB9C
:103FA000C00201EBC00108464346FEF760FEFEF783
:103FB000EDFD620000E01BE099F8010000EB8001DC
:103FC00001EBC00005EBC00041460DF0DFF989F8B8
:103FD00005A06348007803280AD199F8010000EB96
:103FE000800101EBC0015F4800EBC10005F0E5FC7A
:103FF000FEF71FF8D9F81400761C7F1C8642A8BF74
:10400000874215DBD9F8100090B1FDF703FCDDF80D
:104010003405FDF790F8DDF83005FCF71BFEDDF800
:104020003C0588B1DDF8380560B1FDF7FCFD0BE01B
:10403000DDF82405002818BFFDF7F5FDF4E500F0D4
:10404000CAFEF1E5FDF7B6FDBBF1000F04BF042089
:10405000C9F814000BD0DDF8200589F80300DDF85D
:104060001C0589F80400DDF8180589F80500B9F881
:1040700014104FEA0B2040EA01420023912107204F
:1040800008F030FE0DF2445D5846BDE8F08F10B5E3
:104090000024FDF77BFD354910F0020F0AD0CA78E5
:1040A000002A08BF012410F0040F03D00A79002A67
:1040B00008BF012410F0010F03D04879002808BF81
:1040C00001240020002C08BF10BD00200870BDE8AE
:1040D000104052E508B50F2100F08BFF012804D1F4
:1040E000FFF7D5FF009001F0D1F82048C1780029F2
:1040F0001CBF4179002904D0007900281CBF012091
:1041000008BD002008BD08B50F2100F072FF01288E
:1041100004D1FFF7BCFF009001F0B8F81348C17854
:1041200000291CBF4179002904D0007900281CBF58
:10413000012008BD002008BDCB0401104905011075
:10414000C9040110D0A10110C7040110CA04011054
:10415000C804011030080110CC040110CD04011076
:104160004E050110D0A60110B017011094040110E3
:104170007047FB490020C8700871487109F0E2B926
:1041800010B54FF4A061F7480DF0F6F8BDE8104007
:104190004FF4A061F4480DF0EFB8F4487047F448CC
:1041A0000178F448007848434100F0480DF0E4B845
:1041B00070B50646EE480478EE480578FEF7D9FC5F
:1041C00029462046FEF738FDE548E649407800EBF1
:1041D000800001EB00223146E448FEF772FDFEF755
:1041E000D5FCE5480078152818BF70BDDF48BDE84C
:1041F000704005F0D0BA002818BF0120D849C87017
:10420000704710B5D64C002804BFA06010BDDFF881
:104210006CC3DB490B78DB490A7801465A435200EC
:1042200060460DF0B3F8D548A06010BDD649002017
:10423000C1F80003C1F80403C1F80803C1F80C0376
:10424000C1F81003C1F81403C1F81803C1F81C0326
:10425000C1F82003C1F82403C1F82803C1F82C03D6
:10426000C1F83003C1F83403C1F83803C1F83C0386
:10427000C1F84003C1F84403C1F84803C1F84C0336
:10428000C1F85003C1F85403C1F85803C1F85C03E6
:10429000C1F86003C1F86403C1F86803C1F86C0396
:1042A000C1F87003C1F87403C1F87803C1F87C0346
:1042B0007047B6487047002818BF0120A849087108
:1042C000704710B56821B2480DF056F8BDE81040AF
:1042D0006821B0480DF050B8002818BF0120A0494F
:1042E0004871704710B59E4C002804BFE06010BDB7
:1042F00068220146A8480DF049F8A748E06010BDC3
:1043000070B5974C00210546E1702171617109F08B
:1043100019F9002D14BF012000202070BDE8704065
:104320002BE42DE9F04F8BB04FF4A06193480DF0D2
:1043300023F8682198480DF01FF8FDF727FC044684
:10434000FDF766FA0990FDF72FFC0890FCF7FDFEDB
:104350000790FDF75FFAFCF7CEF906900020FCF716
:1043600079FC0020FCF7E7FEFDF75DFC00252E46FA
:1043700004F0E9FD012853D06846FDF712FE00283D
:104380005ED0684605F034FC14F0020F1CD07C4867
:10439000DFF8E8B1DDF8089090F800807948DA4657
:1043A0000778FEF7E6FB0120FEF754FC394640464D
:1043B000FEF742FC524649465846FEF782FC002072
:1043C000FEF748FCFEF7E2FB14F0010F20D0734823
:1043D000DFF8C4B14FF0020801787148DA46DDF821
:1043E000109000780844401C4708FEF7C2FB0120EB
:1043F000FEF730FC41463846FEF71EFC5246494661
:104400005846FEF75EFC0020FEF724FCFEF7BEFBDC
:10441000FDF70FFE6D1C102D03D2FDF704FCA7E77E
:104420000126FDF7F7F90798FCF785FE0698FCF7DB
:1044300011FC099848B1089828B1FDF7F4FB04E095
:1044400000F0C9FC94E7FDF7B5FBCEBB444F14F078
:10445000020F18D04A48494B01784A489C460078D8
:1044600001FB00F210200021002A0AD93CF911803A
:1044700008EB5008B8FBF0F523F81150491C8A42AC
:10448000F4D83E48B86014F0010F19D04348DFF863
:1044900008C101784248634600780A184FF01001BD
:1044A0004FF000000AD033F9105005EB5105B5FB71
:1044B000F1F42CF81040401C8242F4D83648F860E1
:1044C0000BB03046BDE8F08F01207047354870478B
:1044D00034480068704733490A68B2F1FF3F15D08D
:1044E000052804BFC87A704728DC012804BF087972
:1044F0007047022804BF087A7047032804BF487A2F
:104500007047042804BF887A704727E0052813D035
:1045100007DC012822D002281CBF032804280BD066
:104520001CE0142812BF15282D207047162804BF40
:1045300028207047172811D100207047142804BF85
:10454000087B7047152804BF487B7047162804BFB6
:10455000887B7047172804BFC87B7047FF207047CF
:1045600094040110D0A1011030080110300D011089
:10457000C7040110C80401104905011030120110D0
:10458000CA040110CB0401103014011030170110BF
:10459000D0A60110B017011018180110CC0401109A
:1045A000CD04011000AE020030B5C1B000244FF4BC
:1045B000807168460CF0E0FEFF22CD4D511C68462C
:1045C0000CF0F8FEFF21224661F307022D2321465D
:1045D00063F3070163F30F2128234BF6BB3063F32A
:1045E000174164F31F61CDE90002CDE90241049453
:1045F0002846FEF7EDF869462846FEF78BF941B0EC
:1046000030BD2DE9FF4FDFF8E882C1B08346D8F80E
:1046100000004E9F91468A464446B0F1FF3F08BFD6
:10462000FFF7C2FFD4E901106BF307018B466AF371
:104630000700449969F30F2061F317402568D4E916
:10464000036467F31F600746FF22511C68460CF0A5
:10465000B1FE0297CDE90364CDE9005B4046FEF769
:10466000B7F869464046FEF755F9012818BF002003
:1046700045B0BDE8F08F2DE9F74FDFF8749283461F
:104680000020D9F80060C0B08A464C46B6F1FF3F22
:1046900004BF43B0BDE8F08FD4E902856768FF220C
:1046A000511C6846D9F810400CF084FE6BF30705E6
:1046B00042986AF30F2560F31745012060F31F65E8
:1046C000CDF80880CDE903544846CDE90067FEF7F0
:1046D0007FF869464846FEF71DF943B0BDE8F08F04
:1046E0002DE9F04F8248834E00250368C1B0744223
:1046F0002F461720FFF7EFFE84461420FFF7EBFE4E
:1047000040B2B3F1FF3F04D0BCF1000F03D12D281C
:1047100001D0FFF749FF1420FFF7DDFE40B2029001
:104720001520FFF7D8FE4FFA80F91620FFF7D3FEC9
:1047300040B201901620FFF7CEFE404240B20090FA
:10474000FDF724FADFF8B0A1834600208AF80300C1
:104750008AF804008AF8050008F0F4FE00208AF8C0
:104760000000FFF70AFA1BF0010F04D00CF027FE3F
:10477000012808BF01251BF0020F7DD05F489AF881
:104780000110604A90F800C05D4801EB810102EB26
:10479000012200784FF000080028C8BFACF1010AE0
:1047A0001EDD0021BAF1000F16DD01F1010B01FB46
:1047B00000830BFB008B32F8133032F81BB0A3EBF5
:1047C0000B031BB2002BB8BF5B421BB2BB42C8BF7E
:1047D0001F46491C5145E8DB08F101088045E0DB34
:1047E000B945B8BF45F002054FF00008C146BCF11D
:1047F000000FC8BFA0F1010A1BDD0021BAF1000FB4
:1048000013DD09FB001332F813B002EB43035B889E
:10481000ABEB03031BB2002BB8BF5B421BB243459B
:10482000C8BF9846491C5145EBDB09F10109E14538
:10483000E3DB02994145B8BF45F004054FF000099C
:10484000BCF1000F13DD002300280CDD09FB003153
:1048500032F91110B142C8BF0E46A142B8BF0C4692
:104860005B1C8342F2DB09F10109E145EBDB0198B6
:10487000B04204DB009800E003E0A04201DD45F017
:10488000080560421A4C08F0FF0B00F0FF08206892
:1048900007F0FF0A06F0FF09B0F1FF3F08BFFFF77E
:1048A00083FED4E901106BF307006AF30F2026683A
:1048B00069F31740D4E9037465F3070168F31F60D7
:1048C0000D468046FF22511C68460CF073FDCDF862
:1048D0000880CDE90374064CCDE900652046FDF75C
:1048E00077FF69462046FEF715F841B0BDE8F08F26
:1048F00000AE0200F1D8FFFF94040110C8040110BB
:10490000C7040110D0A10110FA4920F07E400861CF
:104910007047F84800697047F64880897047F54845
:10492000C08970477047084318BF7047F148006955
:1049300010F0807F1CBF0020107070472DE9FF5FD2
:104940008346ED480027DDF838A005780398109ECF
:10495000B9463C4650452CD006FB050E0F983BF956
:104960001EC006FB05093BF91900BCEB000348BF5C
:10497000A0EB0C0306FB05A83BF91840B4EB000CB8
:1049800048BFA0EB040C03EB0C0004B231F91EC0CD
:1049900031F91900BCEB000348BFA0EB0C0331F95F
:1049A00018C0BCEB000148BFA0EB0C0158180FFA6F
:1049B00080F9012A2DD04FF001080CF005FDCF49F8
:1049C000002C0A782EDD0F9906FB05113BF911101A
:1049D0001431282926D9039902EB0A0C11448C457D
:1049E00020D9119B129D13442A448B421CBF8D1A5F
:1049F00015F1020F30F9115000EB4106B6F90260D3
:104A0000A5EB060508D01E353C2D08D94FF000084F
:104A100008E0A1450CDD0AE00A35142DF6D8491C42
:104A20008C45E2D8A14503DDB8F1000F00D0012785
:104A300004B03846BDE8F09FB14A028042800021B0
:104A40008280C1800181534243818181C181018281
:104A500041828182C18202837047A6480078002883
:104A600018BF0120704710B54FF4A061A5480CF0A5
:104A700083FC4FF4A061A4480CF07EFC9D4900200B
:104A8000087010BD2DE9FF4F85B09846DDE913A7EA
:104A900091460446DDF848B008F065FD0026954DC6
:104AA000002840F0C88000F049F9052800F0C380D4
:104AB0000698CDE902070A20049094481E27007842
:104AC00000908E4800780190A88910B96878012874
:104AD00019D108F083FDB0B9BAF1010F13D0BBF1C1
:104AE000010F02D1E889C8280DD808F028FD012857
:104AF0000BD0DDE900120020891812D0029A32F999
:104B00001020BA4209DDEE711BE0052004900398E5
:104B1000012814BF3C274627EBE7401C80B28142A6
:104B2000ECD8286910F4803F0BD0E879401CC0B263
:104B3000E8710499884204D9012068714FF0FF346C
:104B4000EE7108F0FCFC012875D1BBF1000F2BDCE5
:104B5000BAF1010F28D0286910F4003F0AD0A879D3
:104B6000401CC0B2A8710A2804D9012068714FF016
:104B7000FF34AE710A200190644800274FF01E0BED
:104B8000007800905D4890F800A00CF022FC0146EF
:104B90000020AAF1010CBCF1000F17DD31F9102043
:104BA000C82A03DD2E7246E0AE71E3E701EB400355
:104BB000B3F90230002BB8BF002A03DAD21ABA4286
:104BC000C8BF17B2401C80B26045E7DB31F9100066
:104BD000C828E7DC00985044431E534515DD31F9E1
:104BE0001A00C828DEDC01EB4A02B2F90220002AD2
:104BF000B8BF002803DA801AB842C8BF07B20AF16A
:104C000001001FFA80FA5345E9DC31F91A00C8287F
:104C1000C8DC286910F4002F0DD05F45C2DD287A6A
:104C2000401CC0B228720199884204D901206871E1
:104C30004FF0FF342E72B4F1FF3F28D0002C07BF95
:104C4000E878012809B0BDE8F08FEE704FF4A0615C
:104C50002C480CF091FB4FF4A0612B480CF08CFB1E
:104C60002E7000F071F8042832D0B9F1000F1CBF8B
:104C70004846FEF730FFB8F1000F04BF09B0BDE8A9
:104C8000F08F404609B0BDE8F04FFEF7BCBE687932
:104C900001281CBF09B0BDE8F08F4846FFF788FA2D
:104CA0006E714FF4A06117480CF066FB4FF4A061E1
:104CB00015480CF061FB2E70B9F1000F1CBF48467F
:104CC000FEF709FFB8F1000FDBD109B0BDE8F08FA6
:104CD000B9F1000F1CBF4846FEF7CAFEB8F1000F3D
:104CE00004BF09B0BDE8F08F404609B0BDE8F04F01
:104CF0000CF074BBAC040110C7040110CD0401100A
:104D0000F1D8FFFF801D011080180110CC040110A4
:104D100010B506F0DDF806F086F9002010BD0000A1
:104D2000FD4988707047FC488078704704283CBF74
:104D3000F949C8707047F848C0787047F64800785D
:104D40007047F54840787047F3480078022805D04E
:104D500005281CBF0020704705F0A9B908F0D2BB98
:104D6000ED490870704770B5EB4E04460D4630783B
:104D7000A04212D002281AD0052814BF002005F046
:104D800096F944EA05213278002341EA024141EADA
:104D900000626121072007F0A5FF7570072C28BF6E
:104DA00070BDDFE804F016070B13160F160008F0AD
:104DB000A9FBE6E7284600F077FA0AE0284608F063
:104DC00042FC06E0284605F067F902E0284608F0B4
:104DD00041F8347070BDD14900200968B1F8641001
:104DE00011F4807F08BF7047FDF714BCCB49002049
:104DF0000968B1F8641011F4807F08BF7047FDF7AF
:104E000018BCC64900200968B1F8641011F4007F8D
:104E100008BF70470CF0E7BAC04900200968B1F834
:104E2000641011F4806F08BF70470CF0E1BABA4902
:104E3000087900281CBF401E0871704770B5B8493A
:104E4000D1F8CC00B44C10F0030F0AD040F4BE00EF
:104E500040F02040C1F8C8002079002804BF01209C
:104E60002071B0488068AD4D10F0020F296807D15D
:104E70004FF04020406910F0010F01D0207940B17F
:104E8000B1F86410002011F4807F18BFFDF7D1FB4A
:104E900007E0B1F86410002011F4806F18BF0CF027
:104EA000A7FAA149084208BF70BD2968496E090CDC
:104EB000217170BD10B572B6FEF7ECFCBDE8104074
:104EC000FEF74BBA10B5012802D0022805D008E041
:104ED0004FF42F30FDF77CFC03E04FF04021934866
:104EE000086772B6FEF7D6FCBDE81040FEF735BA8B
:104EF000894900284A7918BF01204871C0B282420E
:104F000008BF70470022002818BF0122002301219A
:104F1000022007F0E7BE80484079002818BF012032
:104F200070477D48807970472DE9F0417A4E00281E
:104F30001CBF0020B07104D1B079002818BFBDE8B3
:104F4000F0814FF040273D6B0120FDF7B6FD0420B6
:104F5000FDF7B3FD764C0520E066FEF7B2FC40F2AB
:104F6000CF70216F11F0010F04D0B07940F00E0026
:104F7000B07103E0011EA0F10100F2DCB07978B15C
:104F8000FEF79FFC6B48216F11F0040F04D0B0793D
:104F900040F00100B07103E0011EA0F10100F2DC5D
:104FA00045F4BE0040F020403863BDE8F0815A4827
:104FB00080697047584840697047574840690028E1
:104FC00018BFC07A70475449C86170475248C069D9
:104FD00070475149086270474F48006A70474F4810
:104FE000026802F5C073118A508A02F5A072FCF7BC
:104FF0009ABE2DE9F04FDFF8209197B00E46C9F820
:10500000180005F086FEC9F8140000287ED090F83C
:1050100000C089F807C0417889F8081083780446F1
:105020000CF1010089F8093000F0FE0089F80A004F
:10503000E27889F80B20207989F80C00607989F8EA
:105040000D0009F10F004FF0000B80F800B080F860
:1050500001B0207889F80E006046FCF76EFF99F8E1
:105060000D1099F80C00FCF78BFF6946204605F0FF
:1050700079FE608AD9F81C5000281CBF6843050BD4
:10508000678BD9F82080002F08BF4FF480574FF46A
:10509000805A002016F0040F18BF4FF4857016F0E8
:1050A000080F18BF40F0040016F0020F1CBF40F2BA
:1050B0000121084316F0010F18BF40F48460616AB3
:1050C0006FF30F0608406FF30F0108430643009883
:1050D00010900498119008981290019813900798D6
:1050E0001590CDF850B010A93046FCF740FC16F0F2
:1050F000020F73D005F093F95FEA000B45D005F07D
:10510000A5F96843050B5946002000E030E0FCF7A4
:1051100030F8218A00290FE0C0040110F4050110C5
:10512000006000400080004008000300AD2007B090
:10513000001000403F0D03001CBF0020FCF790F85A
:1051400005F0A4F908FB00F0000B8030010A0820EC
:10515000012202FA00F30B4201D1401EF9D5A0F161
:105160000408A07B002818BFA0F1010B17D112E0A2
:105170004B480068B0F8640010F4807F18BFFDF75A
:1051800058FA002017B0BDE8F08FB4F80CB0BBF1AE
:10519000000FB8D1BDE70020FCF7D6F88346E07BCE
:1051A000002814BF401EFCF7FBF80BEB0801042994
:1051B00005DDA8EB010101F10408042104E0002948
:1051C000BCBFA8EB010800218044B8F1040F06DD44
:1051D000A8F10400C5404FF0040808E00EE0B8F163
:1051E000000F04DAC8F1000085404FF000080020ED
:1051F000FCF7C0F841460020FCF7E8F816F0010F74
:1052000023D0A18A00291CBF0120FBF7B2FF268B07
:105210003EB131460120FCF723F831461120FCF75E
:105220001FF8A67D3EB1711E0120FCF7A3F8711E88
:105230001120FCF79FF8E67D3EB1711E0120FCF7BE
:10524000C5F8711E1120FCF7C1F8E07A00281CBFD8
:105250000001FBF7CDFE029805F0BDF8039830B1D0
:105260002B4699F8082099F807100CF0C6F852461A
:10527000394628460CF0C6F80598FEF7C2FF099893
:10528000FFF730F817B00120BDE8F08F10B5FCF73C
:105290003EFC05F0A8F8034900204861012010BD3C
:1052A000F4050110C0040110FB4908707047FA486A
:1052B00000787047F94810B4F94A0168914218D152
:1052C0004168B1F5907F14D80022D0F808C0034699
:1052D0001146B2EB9C0F24BF10BC704753F821401D
:1052E000491C2244B1EB9C0FF8D3002A04BF10BC28
:1052F0007047002010BC7047E848FDF769BAE649DE
:1053000001200870704770B50E4605461024FFF75F
:1053100051FE15F0020F18BF052403D115F0010F3F
:1053200018BF09243246102C28BF70BD002A08BFC0
:1053300070BD204490F928102046BDE8704005F06B
:1053400044BDF0B5ADF6040D0446FFF733FE054647
:1053500014F0020F0AD06F4604263846FCF76DFEA3
:1053600095F92C103A46304605F02FFD14F0010F48
:1053700004BF0DF6040DF0BD08246E463146012031
:10538000FCF7AEFE95F930103246204605F01DFDC3
:105390000DF6040DF0BD2DE9F34F8BB00020079002
:1053A0000868089008790290487901908879B1F9E5
:1053B0000890B1F90AA08A6904928A89D1E9078420
:1053C000C0F5807602EA00070B98096910F0010F1A
:1053D00009914FF0000016D000900198002840F28B
:1053E000FF800098012101FA00F20998104018BFCF
:1053F00001200390009A0499002001EB821183465A
:10540000059100F0E3B8FCF7A4F88346DDE901015B
:105410004843032101EB400020F0030241462046AF
:105420000BF0B4FF5846FCF794F801984FF0000BCE
:10543000002840F2D5800122099802FA0BF10840B9
:1054400018BF01200021039004988C4600EB8B10BC
:1054500005904DE0012000FA01F20898024244D084
:1054600038F9020B039AA0EB0A000CF1010C002A98
:105470000CBF09EB0004A9EB00044808059A06904C
:1054800052F82000CA07D50E0090E84082B2C2F35D
:105490000420D3B212F4005F02D0002C02DB03E040
:1054A000002C01DD9C1B00E09C19BC4205DD1F287F
:1054B0003ABF0024401C3C4606E0002C04DA0028D9
:1054C000C6BF3C46401E002402F4005242EA0020BF
:1054D0004FF6FF73009AAB4020439A43A84042EA3C
:1054E0000003DDE9050240F82230491C202902D2E0
:1054F00002988445AED301980BF1010B83459AD3F2
:105500006EE0012101FA00F208990A425BD034F9F9
:10551000021B039AA1EB0A010BF1010B002A0CBF3D
:105520004944A9EB010138F9022BA2EB0A0214BF8E
:10553000A9EB02024A440029B4BF4B420B46002AA1
:10554000B8BF52429A423ED9059B4208069253F890
:105550002220C3074FEAD36E0A9222FA0EF293B2C8
:10556000C3F3042203F0FF0C13F4005F02D0002900
:1055700002DB04E0002902DD0CEB060501E0ACEBE8
:105580000605BD4205DD1F2A3ABF0025521C3D46D7
:1055900006E0002D04DA002AC6BF3D46521E002553
:1055A00003F4005141EA022129434FF6FF730A9A9E
:1055B00003FA0EF39A4301FA0EF142EA0103DDE920
:1055C000051241F82230401C202802D202998B4556
:1055D00097D300980199401C00908842FFF401AFD6
:1055E0000B98032826BF0120079007980DB0BDE84F
:1055F000F08F2DE9F04F8BB0002205920D794E7996
:1056000091F806C00C68CDF808C0B1F90830B1F9BE
:105610000A2006928A690392D1F810C0CA69CDF8AF
:105620001CC08989DDF808C001EA0C07C0F1080137
:105630000091F0B1081EC0F2DF804FF0000A002E8A
:105640007DD9012101FA00F004900098401E01FA72
:1056500000F00A904FF00108079808FA0AF1084094
:1056600018BF01200021019003988C4600EB8A1B93
:10567000B4E04FF0000A002E61D94FF001080798FE
:1056800008FA0AF1084018BF012000210190039890
:105690008C4600EB8A1B4FE0E404011000AF0200CF
:1056A0005443524601208840204242D032F9028BB6
:1056B00006980CF1010CA8EB0000DDF80480B8F1AD
:1056C000000F0CBF03EB0008A3EB0008480808908C
:1056D0005BF820004FEAC1794FEAD969049020FABB
:1056E00009F080B210F4005F0AD0B8F1000F0FDAB1
:1056F00010F4F85018BFA0F5807040F4005007E097
:10570000B8F1000F04DD10F4F85018BFA0F5807058
:1057100040F080004FF6FF7EDDF810800EFA09FEA3
:1057200028EA0E0800FA09F048EA000808984BF841
:105730002080491C202901D2AC45B3D300E054E0BD
:105740000AF1010AB24598D34FE001208840204277
:1057500041D032F9028B06980CF1010CA8EB000045
:10576000DDF80480B8F1000F0CBF03EB0008A3EBD9
:105770000008480809905BF820004FEAC1794FEA19
:10578000D969089020FA09F080B210F4005F03D0C4
:10579000B8F1000F07DA02E0B8F1000F03DDDDF821
:1057A000108020EA0800DDF80080B8F1000FC4BFC7
:1057B000DDF8288048EA00004FF6FF7EDDF8208003
:1057C0000EFA09FE28EA0E0800FA09F048EA000875
:1057D00009984BF82080491C202901D2AC45B4D34C
:1057E0000AF1010AB245FFF435AF00980028C2BFA4
:1057F00005980BB0BDE8F08F4FF0000B002E45D997
:105800000298C0F580700090029840F4807001907A
:10581000039A0020014602EB8B1A31E001224FEA85
:10582000184C82404FEA0C4C224226D04FEA5009D5
:10583000C2075AF82980D20E28FA02F39BB2DDF88B
:1058400000E003F0FF0C0CEB5E0EDDF804C0491C19
:105850000EEA0C0CBC4588BFBC4623F0FF0343EAAC
:105860000C034FF6FF7C0CFA02FC28EA0C0C03FA3E
:1058700002F24CEA02024AF82920401C202801D2F8
:10588000A942CBD30BF1010BB345C1D30120059045
:105890000BB0BDE8F08F2DE9F04F89B000220292E5
:1058A0000A790F6804924A790092B1F90830B1F987
:1058B0000A608A690592CA6909690391FE494969C2
:1058C000A0EB010CCCF1050881424AD84AD10098DE
:1058D0004FF0000A002844D90121039801FA0AFC7C
:1058E0001CEA000018BF01200190059900208446A1
:1058F00001EB8A1B2DE001218140394226D032F98B
:10590000021B019C891B4FEA19454FEA05450CF122
:10591000010C002C0CBF5D185D1A4FEA500EC10738
:105920005BF82E90CC0E29FA04F189B2002DC8BF85
:1059300041F4005141F480514FF6FF75A54029EA2A
:105940000505A14045EA01044BF82E40401C2028E3
:1059500002D204998C45CED300980AF1010A8245FF
:10596000BAD35BE0B8F1000F5DDB00984FF000099F
:10597000002853D908F10800012101FA00FB401E5C
:1059800001FA00F008900124039804FA09F1084094
:1059900018BF01200021019005988C4600EB891A60
:1059A00034E00120884038422DD032F9020B019CAE
:1059B000801B0CF1010C002C0CBF1C181C1A480891
:1059C00007905AF82000CD07ED0E0690E84080B20F
:1059D00010F4005F02D0002C04DA01E0002C01DD9D
:1059E00020EA0B00B8F1000FC4BF089C20434FF61B
:1059F000FF7E0EFA05FE069CA84024EA0E0404432E
:105A000007984AF82040491C202902D2049884456E
:105A1000C7D3009809F101098145B4D3B8F1000F4B
:105A200004BF01200290029809B0BDE8F08F2DE973
:105A3000F04FD5B08346002088464990489072B612
:105A4000FCF7A4F80646FDF754FD48B1FDF7F4FD58
:105A50004990FDF7DBFDFDF7F4FD4890FDF7E1FD12
:105A6000FBF77AFFFBF7D4FE4E90FCF79DF84D90C4
:105A7000FBF7D0FE0120FBF728FD52901120FBF729
:105A800024FD5190FDF758FB4C90FDF73DFB4FF482
:105A90009350FDF7AAFA62B6FBF701FD4B90012087
:105AA000FBF7F3FC0120FBF754FD53900020FBF7BC
:105AB000F8FE50900020FBF7E9FE4F900020FBF726
:105AC0003AFB5490FAF717FE4A900020FBF7C2F811
:105AD0000020044636AF47F82040401C0628FAD381
