:100000004D434C46030002000000000002000000C7
:100010000300000001000000FFFFFFFF00000000E0
:10002000000000000000007200000000010000005D
:1000300000100000449E030000C0030038090000C7
:10004000905607006955020001000000FFFFFFFF06
:10005000FFFFFFFF000000000000000000000000A4
:100060000000000000000000000000000000000090
:100070000000000000000000000000000000000080
:10008000000000003C000000000000000000000034
:10009000F41E0B001000000000000000140001001E
:1000A0000000000000000000000000000000000050
:1000B00000000000000000000000000000F08AF8CE
:1000C000002000F091F9002070471046704710B5ED
:1000D000C1B20BA000F075F8012010BD014608A0C8
:1000E00000F06FB800F080F9FFF7E8FF05A000F01E
:1000F00061F84FF4967000F077F9FFF7F7FF000012
:10010000256300003E3E3E5445455F50616E696385
:10011000286469766973696F6E206279207A6572E6
:100120006F293C3C3C0A00001A4AD2F88C300A463F
:100130000146B320184738B5184B174AD3E90014C5
:10014000174BC3E9001442B10020694600901068C3
:10015000FFF7EAFF48B9009838BD124929B1124AA1
:100160001AB1106801EB800038BD00F03DF90F496D
:100170000F4800B1006882000648D0F88C304FF07C
:100180000040984739F05DFE0548D0E9000105F0D0
:10019000CDF900000010000000000000C01F0B009F
:1001A000C01F0B00D8C906003C680200D8C9070070
:1001B00040680200524AD2F88C300A4601460520B7
:1001C00018470FB410B503A90298FFF7F3FF10BC4E
:1001D0005DF814FB70B5044615460E4649A0FFF7BE
:1001E000F0FF2A46314652A0FFF7EBFF214652A00E
:1001F000FFF7E7FFBDE8704055A0E2E72DE9F84FB3
:10020000102A15468846074601D9012600E0002637
:100210004FF010044FF000090FB1384601E016B15D
:100220004DA0FFF7CEFF35B15EB12A4641464DA045
:10023000FFF7C7FF09E017B14FA0FFF7C2FF4FA0BC
:1002400048E017B14CA0FFF7BCFFA54200D22C46F6
:100250002EB149464DA0FFF7B4FF09F11009002760
:1002600005E018F807104BA0FFF7ABFF7F1CA74273
:10027000F7D3102C06D22EB1C4F1100000EB4000D1
:1002800000F02BF845A0FFF79CFF0027BA460FE0CF
:1002900018F80700A0F120015F2900D32E20CDF827
:1002A00000A069468DF800003DA0FFF78AFF7F1C83
:1002B000A742EDD36EB1102C03D2C4F1100000F0B0
:1002C0000CF838A0FFF77DFF2D1BA044BDD1BDE881
:1002D000F88F20A0BDE8F84F73E710B5044603E09F
:1002E0003148FFF76EFF083C082CF9D2002C06D0ED
:1002F000C4F10800BDE810402B49084461E710BD77
:10030000001000000A232323230A2323232320543D
:10031000525553544C4554204153534552540A238B
:1003200023232320536F757263653A200000000079
:1003300025733A25750A000023232323204578706E
:1003400072657373696F6E3A2025730A00000000AE
:10035000232323230A0000006D656D6F72792064EA
:10036000756D7000202825702C202564206279741A
:100370006573293A0A0000003A2000005B6C656E44
:1003800067746820697320305D0A00007C20257046
:10039000207C200025327820000000007C20000016
:1003A00025730000207C0A0038AE03000248D0F814
:1003B0008C10072008470000001000000249D1F807
:1003C0008C2001460620104700100000054B30B479
:1003D000D3F88C4013460A460146A44630BC0E2092
:1003E00060470000001000000249D1F88C2001464F
:1003F0000420904700100000FEB5064CDDE90856C9
:10040000D4F88C408DE8680013460A4601461B204C
:10041000A047FEBD001000000FB410B503A902985C
:1004200000F004F810BC5DF814FB0000034AD2F899
:100430008C300A46014605201847000000100000D5
:100440000249D1F88C2001461E2010470010000000
:10045000034AD2F88C300A4601461C201847000097
:1004600000100000F07FA0E80000A0E301001EE300
:100470000EF0A0011EFF2FE1F07FB0E80100B0E117
:100480000100A00301001EE30EF0A0011EFF2FE1FA
:10049000012020E0030012E32100001A032010E2F3
:1004A0000300C0E30310C1E304C090E404309104EE
:1004B0000600000A032022E28221A0E1FF34E0E3EB
:1004C0003322A0E1043091E402C08CE1023083E1E8
:1004D00004402DE50140A0E3044484E1044884E1A4
:1004E00004204CE003005CE10C20C20184031201F3
:1004F00004C0900404309104F8FFFF0A0C0CA0E142
:100500002CC4A0E1010050E3030C50212334A001CE
:10051000F9FFFF0AFF3003E2200C63E004409DE492
:100520001EFF2FE1030010E30600000A0120D0E4C3
:100530000130D1E4010052E303005221F8FFFF0A29
:10054000030042E01EFF2FE104502DE504402DE59D
:100550000120A0E3022482E1022882E103C001E23B
:100560000310C1E3044090E4045091E402005CE312
:100570001700000A2D00008AFFC4C4E325045CE1D3
:10058000023044E00430C3E10700001A823313E074
:10059000045091040600001A04C02CE0050C5CE134
:1005A0000800001A044090E4F2FFFFEA2554A0E19D
:1005B000370000EAFF34D3E33100001A0050D1E5E0
:1005C00024CCA0E1320000EA24CCA0E1FF5005E2F7
:1005D0002F0000EA04C8A0E1023044E02CC8A0E1EA
:1005E0000430C3E125085CE10E00001A823313E0F9
:1005F000045091040400001A04C02CE005085CE1DA
:100600000600001A044090E4F1FFFFEA0338B0E16D
:100610001B00001AB050D1E124C8A0E11C0000EA80
:100620000558A0E124C8A0E12558A0E1180000EA7F
:10063000FFC004E2250C5CE1023044E00430C3E179
:100640000700001A823313E0045091040600001AD8
:1006500004C02CE005045CE10600001A044090E4AC
:10066000F2FFFFEA255CA0E1090000EAFF0014E3C5
:100670000300000A045091E424C4A0E1FF54C5E340
:10068000030000EA0000A0E304409DE404509DE460
:100690001EFF2FE1FF200CE2FF0005E2010050E306
:1006A000020050212CC4A0012554A001F8FFFF0A2C
:1006B000000042E004409DE404509DE41EFF2FE151
:1006C000012051E21EFF2F013600003A010050E1E7
:1006D0002200009A020011E12300000A0E0211E339
:1006E0008111A0010830A0030130A013010251E3E1
:1006F000000051310112A0310332A031FAFFFF3A5C
:10070000020151E3000051318110A0318330A0314A
:10071000FAFFFF3A0020A0E3010050E10100402071
:1007200003208221A10050E1A1004020A3208221CA
:10073000210150E12101402023218221A10150E12A
:10074000A1014020A3218221000050E32332B011F7
:100750002112A011EFFFFF1A0200A0E11EFF2FE1FE
:100760000100A0030000A0131EFF2FE1010851E3C8
:100770002118A0211020A0230020A033010C51E358
:100780002114A02108208222100051E32112A0216F
:1007900004208222040051E303208282A12082905F
:1007A0003002A0E11EFF2FE1000050E30000E01343
:1007B000748F00EA000051E3FAFFFF0A03402DE9BD
:1007C000BEFFFFEB0640BDE8920003E0031041E0EE
:1007D0001EFF2FE1000051E34300000A01C020E0AA
:1007E00000106142012051E22700000A0030B0E110
:1007F00000306042010053E12600009A020011E13E
:100800002800000A0E0211E38111A0010820A003B4
:100810000120A013010251E3030051310112A03164
:100820000222A031FAFFFF3A020151E303005131E5
:100830008110A0318220A031FAFFFF3A0000A0E32E
:10084000010053E10130432002008021A10053E167
:10085000A1304320A2008021210153E12131432016
:1008600022018021A10153E1A1314320A201802175
:10087000000053E32222B0112112A011EFFFFF1A52
:1008800000005CE3000060421EFF2FE100003CE13D
:10089000000060421EFF2FE10000A033CC0FA0013A
:1008A000010080031EFF2FE1010851E32118A02160
:1008B0001020A0230020A033010C51E32114A0211B
:1008C00008208222100051E32112A021042082225C
:1008D000040051E303208282A120829000005CE3A7
:1008E0003302A0E1000060421EFF2FE1000050E350
:1008F0000201E0C30201A0B3228F00EA000051E32D
:10090000F9FFFF0A03402DE9B3FFFFEB0640BDE806
:10091000920003E0031041E01EFF2FE1021121E2EB
:10092000000000EA023123E230402DE98140A0E1DD
:100930008350A0E1050034E10200300100C09411B1
:1009400002C09511C4CAF011C5CAF0118C00000A8A
:10095000A44AA0E1A55A74E0005065B2060000DA8E
:10096000054084E0022020E0033021E0000022E086
:10097000011023E0022020E0033021E0360055E39F
:100980003040BD881EFF2F81020111E30116A0E156
:1009900001C6A0E321168CE10100000A000070E20C
:1009A0000010E1E2020113E30336A0E123368CE1FB
:1009B0000100000A002072E20030E3E2050034E1A9
:1009C0006900000A014044E220E075E2050000BA37
:1009D00012CEA0E1320590E00010A1E2130E90E0EB
:1009E0005315B1E0060000EA205045E220E08EE217
:1009F000010052E313CEA0E102C08C23530590E026
:100A0000C31FB1E0025101E20200005A00C07CE2C3
:100A10000000F0E20010E1E2010651E30F00003AAD
:100A2000020651E30600003AA110B0E16000B0E117
:100A30006CC0A0E1014084E2842AA0E1010572E3D8
:100A40006B00002A02015CE3A0C0B0010000B0E22C
:100A5000041AA1E0051081E13040BDE81EFF2FE13E
:100A60008CC0B0E10000B0E00110A1E0010611E38C
:100A7000014044E2F2FFFF1A000031E31430A013FA
:100A80003430A0030010A0010000A0030120A0E169
:100A9000010852E32228A02110304322010C52E326
:100AA0002224A02108304322100052E32222A02158
:100AB00004304322040052E302304322A230433088
:100AC000A23143E0202053E2070000AA0C2092E26A
:100AD000040000DA14C082E20C2062E2110CA0E1F2
:100AE0003112A0E1040000EA142082E220C062D2A8
:100AF0001112A0E1301C81D11002A0D1034054E0BA
:100B0000041A81A0051081A13040BDA81EFF2FA1AD
:100B10000440E0E11F4054E20F0000AA0C4094E2C0
:100B2000060000CA144084E2202064E23004A0E100
:100B3000110280E1311485E13040BDE81EFF2FE154
:100B40000C4064E2202064E23002A0E1110480E164
:100B50000510A0E13040BDE81EFF2FE13104A0E107
:100B60000510A0E13040BDE81EFF2FE1000034E396
:100B7000013623E201162102014084020150451290
:100B80008FFFFFEAC4CAF0E1C5CAF0111D00000AD8
:100B9000050034E1020030010400000A00C094E1C5
:100BA0000310A0010200A0013040BDE81EFF2FE1AC
:100BB000030031E10010A0130000A0133040BD1865
:100BC0001EFF2F11A4CAB0E10400001A8000B0E19A
:100BD0000110B1E0021181233040BDE81EFF2FE17A
:100BE000014594E2011681323040BD381EFF2F319D
:100BF000025101E27F1485E30F1681E30000A0E3B8
:100C00003040BDE81EFF2FE1C4CAF0E10310A0117F
:100C10000200A011C5CAF0010130A0110020A011EE
:100C2000014690E10356920103003101021781133E
:100C30003040BDE81EFF2FE1000030E30010A003AC
:100C40001EFF2F0130402DE9014BA0E3324084E22A
:100C50000050A0E30010A0E386FFFFEA000030E3AD
:100C60000010A0031EFF2F0130402DE9014BA0E32F
:100C7000324084E2025110E2000060420010A0E322
:100C80007CFFFFEA8020B0E1C211A0E16110A0E189
:100C9000020EA0E1FF341212FF0433130E132112CF
:100CA0001EFF2F11000032E3FF0433131EFF2F013C
:100CB00030402DE90E4DA0E3025101E20211C1E3E3
:100CC0006CFFFFEA012090E11EFF2F0130402DE96B
:100CD0000050A0E3060000EA012090E11EFF2F0172
:100CE00030402DE9025111E20100005A000070E28B
:100CF0000010E1E2014BA0E3324084E221CBB0E1FD
:100D000044FFFF0A0320A0E3ACC1B0E1032082123C
:100D1000ACC1B0E103208212AC2182E0203062E25B
:100D200010C3A0E13002A0E1110380E13112A0E183
:100D3000024084E037FFFFEA00C0E0E3020000EA7F
:100D400001C0A0E3000000EA01C0A0E304C02DE55B
:100D500081C0A0E1CCCAF0E183C0A0E1CCCAF0110F
:100D60000E00000A04D08DE281C090E183C09201A0
:100D700003003111020030010000A0031EFF2F010B
:100D8000000070E3030031E1030051510200500103
:100D9000C30FA021C30FE031010080E31EFF2FE14C
:100DA00081C0A0E1CCCAF0E10100001A01C690E1C7
:100DB0000400001A83C0A0E1CCCAF0E1E8FFFF1AEA
:100DC00003C692E1E6FFFF0A04009DE41EFF2FE147
:100DD00000C0A0E10200A0E10C20A0E101C0A0E160
:100DE0000310A0E10C30A0E1FFFFFFEA01402DE974
:100DF000D4FFFFEB000050E3000070430140BDE86A
:100E00001EFF2FE108E02DE5F7FFFFEB0100A00337
:100E10000000A01308E09DE41EFF2FE108E02DE58F
:100E2000F1FFFFEB0100A0330000A02308E09DE4E8
:100E30001EFF2FE108E02DE5EBFFFFEB0100A09383
:100E40000000A08308E09DE41EFF2FE108E02DE5EF
:100E5000DEFFFFEB0100A0930000A08308E09DE40B
:100E60001EFF2FE108E02DE5D8FFFFEB0100A033C6
:100E70000000A02308E09DE41EFF2FE1000053E3E3
:100E8000000052030400001A000051E30000500368
:100E90000010E0130000E013BC8D00EA08D04DE222
:100EA00000602DE9140000EB04E09DE508D08DE220
:100EB0000C00BDE81EFF2FE1F0472DE920909DE5D5
:100EC0000280A0E103A0A0E10060A0E10170A0E128
:100ED000190000EB980103E00020A0E1984085E0B4
:100EE0009A3222E0055082E0044056E00550C7E007
:100EF000300089E8F047BDE81EFF2FE1F8432DE9F7
:100F000020909DE50060A0E10170A0E10280A0E1D9
:100F10000340A0E13C0100EB900403E0904885E031
:100F2000913828E0055088E0044056E00550C7E0BD
:100F3000300089E8F843BDE81EFF2FE1F04F2DE9AE
:100F4000004070E20050E1E2000051E30060E0E3A5
:100F50000040A0A10150A0A10060A0A3000053E3A5
:100F600014D04DE2980000BA000053E304C0A0E1A1
:100F700005B0A0E102A0A0E10310A0E10280A0E181
:100F80000470A0E10590A0E14000001A050052E1C4
:100F90005200009A0200A0E1370200EB000050E38B
:100FA000203060123433A0111A80A01115908311E3
:100FB0001470A0112848A0E10410A0E10900A0E1EC
:100FC000BEFDFFEB0410A0E100B0A0E10900A0E12C
:100FD000F7FDFFEB08A8A0E12AA8A0E19A0B00E02A
:100FE0002728A0E1011882E1010050E10700009AE2
:100FF000081091E001304BE20300002A010050E1AB
:1010000002B04B82081081800000008A03B0A0E18A
:10101000019060E00900A0E10410A0E1A7FDFFEB52
:101020000410A0E10050A0E10900A0E1E0FDFFEB09
:10103000950A0AE00778A0E12778A0E1011887E186
:1010400001005AE10600009A088091E0013045E273
:101050000200002A08005AE1025045820000008A7E
:101060000350A0E10B3885E10040A0E3000056E307
:101070000300A0E10410A0E10100000A000070E2FA
:101080000010E1E214D08DE2F04FBDE81EFF2FE129
:10109000050053E10040A0830430A081F2FFFF8AE5
:1010A0000300A0E10C108DE508C08DE5F20100EB16
:1010B000005050E20C109DE508C09DE57F00001A2D
:1010C0000B0051E10C005A210040A0830140A09385
:1010D0000130A0930540A0910430A081E2FFFFEA17
:1010E000000052E30300001A0210A0E10100A0E397
:1010F00072FDFFEB0080A0E10800A0E1DE0100EB43
:10110000003050E23400001A08A8A0E1099068E01D
:101110002AA8A0E12858A0E10140A0E30510A0E121
:101120000900A0E165FDFFEB0510A0E100B0A0E122
:101130000900A0E19EFDFFEB9A0B00E02728A0E14B
:10114000011882E1010050E10600009A081091E0C8
:1011500001304BE2A400002A010050E102B04B82B2
:1011600008108180A000009A012060E00200A0E148
:101170000510A0E10C208DE550FDFFEB0C209DE556
:101180000090A0E10510A0E10200A0E188FDFFEBC6
:10119000990A0AE00778A0E12778A0E1011887E121
:1011A00001005AE10600009A088091E0013049E20E
:1011B0000200002A08005AE1029049820000008AD9
:1011C0000390A0E10B3889E1A7FFFFEA0660E0E1A8
:1011D000002072E20030E3E262FFFFEA1883A0E140
:1011E00020B063E2394BA0E137BBA0E12858A0E171
:1011F0000510A0E10400A0E119B38BE11773A0E191
:101200002EFDFFEB0510A0E10030A0E10400A0E1FD
:1012100004308DE566FDFFEB08A8A0E104309DE5F4
:101220002AA8A0E19A0300E02B28A0E1011882E19E
:10123000010050E10600009A081091E0012043E20D
:101240006F00002A010050E10230438208108180C3
:101250006B00009A019060E00900A0E10510A0E198
:1012600004308DE515FDFFEB0510A0E10040A0E185
:101270000900A0E14EFDFFEB9A0409E00BB8A0E1E4
:101280002BB8A0E101188BE1010059E104309DE584
:101290000700009A081091E0012044E20300002AB0
:1012A000010059E102404482081081800000008A58
:1012B0000240A0E1019069E0034884E196FFFFEA63
:1012C000203065E23A83A0E1118588E13B23A0E16B
:1012D0003733A0E12898A0E10910A0E10200A0E1C5
:1012E0001BB583E10C208DE5F4FCFFEB0C209DE5A4
:1012F0000030A0E10910A0E10200A0E104308DE57A
:101300002BFDFFEB0848A0E104309DE52448A0E157
:10131000940300E02B28A0E1011882E1010050E1D4
:101320001AA5A0E10600009A081091E0012043E20E
:101330003100002A010050E1023043820810818010
:101340002D00009A01C060E00C00A0E10910A0E1AE
:1013500008108DE9D9FCFFEB08C09DE50020A0E155
:101360000910A0E10C00A0E10C208DE510FDFFEBC1
:101370000C209DE5920404E00BB8A0E12BC8A0E18D
:1013800001C88CE10C0054E104309DE50600009A90
:1013900008C09CE0011042E21500002A0C0054E154
:1013A0000220428208C08C801100009A031882E15A
:1013B000912A83E00C4064E0030054E10700003A06
:1013C0000040A0130140A003170552E10040A09384
:1013D00001400482000054E30130A00122FFFF0A13
:1013E000013041E20040A0E31FFFFFEA03B0A0E1AB
:1013F0005CFFFFEA0120A0E1EBFFFFEA0230A0E181
:10140000CFFFFFEA0230A0E191FFFFEAF04F2DE9A4
:10141000000053E30CD04DE20370A0E10080A0E196
:101420000150A0E10260A0E10240A0E10090A0E133
:1014300001A0A0E13A00001A010052E14800009A20
:101440000200A0E10C0100EB000050E320A06012BC
:1014500038AAA0111640A01115A08A112458A0E1A5
:101460001890A0110510A0E10A00A0E193FCFFEB89
:101470000510A0E10070A0E10A00A0E1CCFCFFEBA8
:101480000488A0E12888A0E1980700E02938A0E1BD
:10149000011883E1010050E10700009A041091E077
:1014A000012047E20300002A010050E10270478258
:1014B000041081800000008A0270A0E101A060E0B9
:1014C0000A00A0E10510A0E17CFCFFEB0510A0E103
:1014D0000060A0E10A00A0E1B5FCFFEB960808E07F
:1014E0000998A0E12998A0E1011889E1010058E1DB
:1014F0000500009A044091E0013046E2CC00002A49
:10150000040058E102604682C900009A070886E19B
:101510000060A0E30610A0E10CD08DE2F04FBDE822
:101520001EFF2FE1010053E10060A0830600A081AF
:10153000F7FFFF8A0300A0E1CF0000EB009050E22C
:101540004200001A050057E1080056210060A08300
:101550000160A0930100A0930960A0910600A08102
:10156000EBFFFFEA000052E30300001A0210A0E1C3
:101570000100A0E351FCFFEB0040A0E10400A0E16A
:10158000BD0000EB003050E27400001A04A8A0E196
:10159000055064E02AA8A0E12478A0E10160A0E35E
:1015A0000710A0E10500A0E144FCFFEB0710A0E15B
:1015B0000080A0E10500A0E17DFCFFEB9A0800E0BF
:1015C0002938A0E1011883E1010050E10600009AEA
:1015D000041091E0012048E29700002A010050E148
:1015E00002804882041081809300009A01B060E07C
:1015F0000B00A0E10710A0E130FCFFEB0710A0E119
:101600000050A0E10B00A0E169FCFFEB950A0AE0A5
:101610000998A0E12998A0E1011889E101005AE1A7
:101620000500009A044091E0013045E28400002A60
:1016300004005AE1025045828100009A080885E1C1
:101640000610A0E10CD08DE2F04FBDE81EFF2FE1A7
:10165000203069E23623A0E1177982E13523A0E149
:101660003833A0E12748A0E10410A0E10200A0E186
:10167000155983E104208DE510FCFFEB04209DE566
:1016800000B0A0E10410A0E10200A0E148FCFFEBE3
:1016900007A8A0E12AA8A0E19A0B00E02538A0E164
:1016A000011883E1010050E11669A0E10300009AEE
:1016B000071091E001204BE26800003A02B0A0E17F
:1016C000013060E00300A0E10410A0E104308DE5EA
:1016D000FAFBFFEB04309DE50020A0E10410A0E13F
:1016E0000300A0E104208DE531FCFFEB04209DE523
:1016F000920A0AE00558A0E12558A0E1011885E109
:1017000001005AE10300009A071091E0013042E223
:101710004D00003A0320A0E10B0882E1904685E0ED
:1017200001A06AE005005AE10600003A0060A0133B
:101730000160A003180954E10060A09301600682D3
:10174000000056E372FFFF0A0060A0E3010040E2E0
:101750000610A0E10CD08DE2F04FBDE81EFF2FE196
:101760001443A0E120B063E2356BA0E138BBA0E1F7
:101770002478A0E10710A0E10600A0E11893A0E101
:1017800015B38BE1CDFBFFEB0710A0E10080A0E1DA
:101790000600A0E106FCFFEB04A8A0E12AA8A0E156
:1017A0009A0800E02B38A0E1011883E1010050E124
:1017B0000600009A041091E0013048E22C00002A53
:1017C000010050E102804882041081802800009AC4
:1017D000015060E00500A0E10710A0E1B7FBFFEBBE
:1017E0000710A0E10060A0E10500A0E1F0FBFFEB25
:1017F0009A0605E00BB8A0E12BB8A0E101188BE137
:10180000010055E10700009A041091E0013046E222
:101810000300002A010055E1026046820410818025
:101820000000008A0360A0E1015065E0086886E1DD
:101830005AFFFFEA0360A0E133FFFFEA0280A0E164
:1018400069FFFFEA0350A0E17BFFFFEA01005AE1D4
:101850000220428207108180AEFFFF8AACFFFFEAC0
:10186000010050E102B04B820710818093FFFF8A94
:1018700091FFFFEA0380A0E1D4FFFFEA1C10A0E380
:10188000010850E32008A02110104122010C50E370
:101890002004A02108104122100050E32002A021C2
:1018A0000410412208208FE20000D2E7010080E00E
:1018B0001EFF2FE1040302020101010100000000EC
:1018C0000000000000207047704741F6DC10C0F2B5
:1018D0000B00017819B10120CFF6FF70704780B579
:1018E0006F460121017000F051F9002080BD704762
:1018F000084611461A4600F000B8F0B503AF2DE9CE
:101900000007ADF5805D82B041F61C280646C0F2A6
:101910000B081446D8F800000D4647F81C0C684622
:1019200000214FF4805221F024EF05F00F00022E29
:1019300008BF05282FD1204643F20F0510F8041FD9
:10194000CFF6FF7542788378C07841EA022143EAF6
:10195000002041EA0042B2F5805F63D8E678A378C0
:101960006178207843EA062340EA012040EA0341F7
:10197000684600F038F99DF882109DF8810040EA31
:10198000012040F67C7188424CD86846012100F065
:1019900059F8054646E00625012ECFF6FF7508BF2B
:1019A00007283FD1204643F20F0510F8041FCFF659
:1019B000FF7542788378C07841EA022143EA00202B
:1019C00041EA0046B6F5805F2CD8E378A2786178CA
:1019D000207842EA032240EA012040EA02416846B8
:1019E000324600F000F99DF882109DF8810040EA2F
:1019F000012040F67C71884214D86846002100F02E
:101A000021F8054675B9E378A2786178207842EA32
:101A1000032240EA0120694640EA0240324600F0D3
:101A2000E2F80025D8F8000057F81C1C401A01BF46
:101A300028460DF5805D02B0BDE8000708BFF0BD87
:101A400003F057FDF0B503AF2DE9000F89B041F663
:101A50001C280546C0F20B088946D8F80000062667
:101A60000890CFF6FF7695F8821095F8810040EA4D
:101A7000012ABAF1000F544618BF05F18304B9F1E9
:101A8000010F77D8287806280BD0042815D0022813
:101A90005AD102211422C3F2000101F1E040079261
:101AA00014E004204022CAF20000079202300490A1
:101AB0000220C3F20000011D09E002202022C3F22F
:101AC0000000811C04200792CAF2000004904FEA33
:101AD000C20B06A8039204225B4601F0A5FA064653
:101AE000002E47D1049805AA594601F073FA41F631
:101AF0001C280646C0F20B08E6BB05985146DDF8E7
:101B00000C8000220023CDE90080204600F0E0F8A0
:101B100006462EBBDDE9051002F0D4F90646FEB9F3
:101B200006980021002205F14104013502F023FB53
:101B30000698B9F1010F09D1294642462346CDF84E
:101B4000008002F0DCFB08E0043613E007A90091F6
:101B500029464246234602F04BFB064606B90026BC
:101B6000059800F064F9069802F027F941F61C2860
:101B7000C0F20B08D8F800000899401A01BF30469F
:101B800009B0BDE8000FF0BD03F0B3FC80B56F46AF
:101B900082B045F2C75045F2B05145F2BE53C0F293
:101BA00002000090C0F20201C0F2020304201022E1
:101BB00000F03EF802B080BDF0B503AF4DF804BDB3
:101BC0000E4600210446FEF743FC05462EB925B11A
:101BD00028460021224621F0CCED28465DF804BBC2
:101BE000F0BDFEF72DBC22F0DFBC22F0C9BC22F014
:101BF000D3BCD0B502AF84B0044645F20760C0F252
:101C0000020045F2BE53CDE90004C0F20203CDE963
:101C1000021245F2FC51C0F2020106205C2200F0E3
:101C200007F84CF638102146C0F20300FEF724EC0A
:101C3000F0B503AF2DE9000B84B041F61C290D4629
:101C4000C0F20B090828D9F800101C46039116466B
:101C50009FBF4CF20C01C0F20301096881421DD8FC
:101C6000D7F8088000F025F8024645F23060C0F24F
:101C70000200002C009608BF0446002D08BF054650
:101C800045F21F602146C0F202002B46FEF7C4FB5E
:101C900007F10C0140460291FEF7C8FBD9F800009D
:101CA0000399401A02BF04B0BDE8000BF0BD03F079
:101CB00020FC0138062882BF45F26660C0F20200AF
:101CC000704745F2A061C0F2020151F82000704750
:101CD000F0B503AF2DE9000F85B092460546002010
:101CE000BA68CFF6FF7000F106081E460C46002ABF
:101CF00000F08880F968002900F08480887E8007E1
:101D000000F185808868D2000392824200F28780C9
:101D1000002C2046294618BF0120002D18BF0121A4
:101D200011EA000808BF0B24002E3046514618BFA8
:101D30000120BAF1000F18BF01210840049008BF2C
:101D40000D26012106EB040BC8F200015846FFF7EF
:101D500033FF8146B9F1000F4FD045F2C961B8F1A8
:101D6000000FC0F20201484618BF2946224621F062
:101D7000EEEB049845F2BC61C0F202013246002845
:101D800009EB040018BF514621F0E0EBFB68002589
:101D9000CFF6FF7505F10A08186800F1C041132954
:101DA00027D8BC687F220120C0F20B0200FA01F1A3
:101DB00011421ED0D3F884200021CDE9000148460D
:101DC00059462346FEF718FBFA680028A84610D1AA
:101DD0004FF04040946210620120D0614FF0000843
:101DE000039850609069D2F88410516240F400303A
:101DF00090614846FFF7F5FE04E00020CFF6FF7043
:101E000000F10C08404605B0BDE8000FF0BD45F2FA
:101E1000D4610120C0F202012522FFF7EAFE45F25B
:101E2000D4610120C0F202012C22FFF7E2FE30B1A2
:101E3000817EC90718BF02F0F2BA02F0A5BB704755
:101E4000F0B503AF2DE9000F81B092460246907EB7
:101E50009B46800740F18B82880000F19182C80088
:101E600003D4107BC00700F09482D6690820CFF617
:101E7000FF70012EC0F2778202F1200300251C685A
:101E80008C4204D001350C33B542F8DB6BE26E1C9A
:101E900000F06982BBF1000F00F08482D3F8089053
:101EA000BAF1000F03D0DBF80060B14503D9CBF8DD
:101EB0000090083057E216684025CAF20005AE428D
:101EC00011DC06F1C045132D5ED8012404FA05F596
:101ED0007D24C0F20904254256D0596850464A462E
:101EE000FFF781FE3CE23025CAF20015AE4230DD3C
:101EF000A6F12145413D022D30D33123CAF2001312
:101F00009E424CD03223CAF200139E4240F02B82F4
:101F1000D2F8842041F23103CDF20003994240F31C
:101F20004A8141F23223CDF20003994200F0FA8156
:101F300041F23213CDF20003994200F0F68141F2F2
:101F40003203CDF20003994240F00D8202F1080005
:101F5000F0E1A6F12044413C022C56D240F241224D
:101F6000CCF2000291421EBF40F24122CDF20002AB
:101F7000914206D040F24112CDF20002914240F06F
:101F8000F281D3F80480E3E13023CAF200039E42D9
:101F90003ED03123CAF200039E4240F0E481D2F8E1
:101FA000842041F23003CDF20003994240F3908047
:101FB00041F23123CDF20003994200F00D8141F24C
:101FC0003113CDF20003994200F01F8141F2310339
:101FD000CDF20003994240F0C681D2F80C80404611
:101FE00003F0CDFF0730C11700EB5170DBF8001094
:101FF000C010884240F2AC8145F2E66140F20270C6
:10200000C0F20201FF22FFF7F4FDAE4240F0AB81C7
:10201000D2F8842040F22F73CCF2000399422BDCDB
:1020200040F22F53CCF20003994278DC40F2303377
:10203000CCF20003994200F0198140F23043CCF217
:102040000003994240F08F81D2F81C80404603F093
:1020500096FF0730C11700EB5170DBF80010C0107D
:10206000884240F2758145F2E66140F20270C0F2AA
:102070000201B022FFF7BDFD40F22F13CDF20003A5
:10208000994272DC40F23073CCF20003994200F0C6
:10209000048140F63003CCF20003994240F06381A2
:1020A000D2F82C80404603F06AFF0730C11700EBDE
:1020B0005170DBF80010C010884240F2498145F2AF
:1020C000E66140F20270C0F20201D422FFF791FDF6
:1020D00040F23123CCF20003994200F0AF8040F28D
:1020E0003113CDF20003994240F03D81D2F81880BF
:1020F000404603F044FF0730C11700EB5170DBF896
:102100000010C010884240F2238145F2E66140F29F
:102110000270C0F202014FF48D72FFF76AFD40F2C7
:102120003053CCF20003994200F0CE8040F230638D
:10213000CCF20003994240F01681D2F82480404648
:1021400003F01DFF0730C11700EB5170DBF80010E2
:10215000C010884240F2FC8045F2E66140F2027015
:10216000C0F20201C222FFF744FD40F23023CDF25B
:102170000003994200F0BF8040F23013CDF200031B
:10218000994240F0F080D2F81080404603F0F7FE0C
:102190000730C11700EB5170DBF80010C010884207
:1021A00040F2D68045F2E66140F20270C0F20201D0
:1021B0009522FFF71EFD40F23223CCF20003994234
:1021C00000F0B68040F23213CDF20003994240F0A5
:1021D000CA8002F11400ADE0D2F81480404603F04A
:1021E000CEFE0730C11700EB5170DBF80010C010B5
:1021F000884240F2AD8045F2E66140F20270C0F2E2
:10220000020140F21112FFF7F4FCD2F810804046B0
:1022100003F0B5FE0730C11700EB5170DBF800107A
:10222000C010884240F2948045F2E66140F20270AC
:10223000C0F202014FF48472FFF7DBFCD2F81C807D
:10224000404603F09CFE0730C11700EB5170DBF8ED
:102250000010C01088427BD945F2E66140F202705E
:10226000C0F2020140F22312FFF7C3FCD2F818803B
:10227000404603F084FE0730C11700EB5170DBF8D5
:102280000010C010884263D945F2E66140F2027046
:10229000C0F20201A722FFF7ACFCD2F8288040462A
:1022A00003F06DFE0730C11700EB5170DBF8001032
:1022B000C01088424CD945F2E66140F20270C0F28B
:1022C0000201CB22FFF795FCD2F82080404603F0B4
:1022D00056FE0730C11700EB5170DBF80010C0103C
:1022E000884235D945F2E66140F20270C0F202013F
:1022F000B922FFF77EFCD2F81480404603F03FFE7F
:102300000730C11700EB5170DBF80010C010884295
:102310001ED945F2E66140F20270C0F202019E222F
:10232000FFF767FC02F10C0004E002F1240001E079
:1023300002F11800D0F80080404603F020FE07307C
:10234000C11700EB5170DBF80010C010884232D882
:10235000B8F1000F04D04046514603F0D2FF814649
:102360000020CBF8009001B0BDE8000FF0BD45F2B1
:10237000E66140F20270C0F202015022FFF739FC20
:1023800045F2E66140F20270C0F202015622FFF708
:1023900030FC45F2E66140F20270C0F202015E22BA
:1023A000FFF727FC45F2E66140F20270C0F202013D
:1023B0007422FFF71EFC45F2E66140F20270C0F2A3
:1023C000020140F24F12FFF714FCF0B503AF2DE904
:1023D000000F81B004465CB3A07E800720D5206842
:1023E0004021CAF20001884226DC00F1C0411329D5
:1023F00000F2B980012202FA01F17D22C0F2090245
:10240000114200F0B080D4E920200021FFF7EFFB5B
:1024100004F1200000216022FFF7E9FB0020E061C9
:1024200000204FF0FF316060C4E90310C4E90500EB
:1024300001B0BDE8000FF0BD3021CAF200118842A2
:1024400041DDA0F121414139022942D33121CAF2B3
:102450000011884200F092803221CAF200118842B5
:1024600040F01D81D4F88450A84658F8080F08B1F0
:1024700003F094FDE86808B103F090FD2E4656F88D
:10248000240F08B103F08AFDA86A08B103F086FDA5
:10249000E86A08B103F0C4FC686B08B103F07EFD84
:1024A000686908B103F07AFDA86908B103F076FD08
:1024B00040460021142221F05CE93046002114221C
:1024C00021F056E9A4E7A0F12042413A022A80F027
:1024D0009080E069D4F88480012822DB40F2412911
:1024E00040F2411A40F2412B04F124060025CDF2BE
:1024F0000009CDF2000ACCF2000B56F8040C484556
:1025000018BF504505D0584506D1306803F046FD48
:1025100002E0306803F066FDE06901350C36854263
:10252000EBDB04F12000002160220025FFF75FFBB8
:10253000E56103F0E2FC4046002109F016F90028AD
:102540003FD000F06FFD6FF31F3041283FF468AFBC
:1025500000F068FD45F632010020C0F202014FF4A0
:10256000FA72FFF746FB3021CAF20001884242D0DE
:102570003121CAF20001884240F09180D4F88450A1
:10258000E86918B103F00AFD0020E861A86918B1F4
:1025900003F004FD0020A861E86818B103F0FEFC18
:1025A0000020E860686918B103F0F8FC0020686159
:1025B000286900283FF42CAF03F0F0FC00202861CC
:1025C00026E74046002109F0ABF8002848D000F08B
:1025D00029FD6FF31F3041283FF422AF00F022FDA8
:1025E00045F632010020C0F2020140F2FD12FFF771
:1025F00000FB884253D1D4F88450286918B103F005
:10260000CDFC00202861686918B103F0C7FC0020E8
:102610006861A86918B103F0C1FC0020A861E869ED
:1026200018B103F0BBFC0020E861286A18B103F080
:10263000B5FC00202862686A18B103F0AFFC0020E6
:102640006862A86A18B103F0A9FC0020A862E86AD1
:1026500000283FF4DDAE03F0A1FC0020E862D7E6DD
:102660004046002109F06FF888B100F0DBFC6FF301
:102670001F3041283FF4D4AE00F0D4FC45F63201BF
:102680000020C0F2020140F20522FFF7B2FA4046F4
:10269000C4F8848003F0E9FFC4F88000C0E645F682
:1026A00032010020C0F2020140F25322FFF7A1FAEA
:1026B000F0B503AF2DE9000F8DB041F61C2980461F
:1026C000C0F20B098845D9F800000C904FF00000CB
:1026D0000B90CDE9090000F03283D8F8182012F4ED
:1026E000003F40F03683887E800740F13C83D00372
:1026F00000F14383D8F8000031230C68CAF20013BC
:1027000084422AD03026CAF2000606F18075AC4217
:1027100008BFB04221D04226CAF20006B04218D00B
:102720004126CAF20006B04210D03126CAF2000695
:10273000B04208BF9C4210D045F2457140F60900F6
:10274000C0F2020140F2C522FFF753FA03F110066E
:1027500001E003F11106B442EED1D8F808604D68EB
:10276000B54200F2148342F40032C8F81820D8F8B9
:102770000C20CE683240C8F80C20CA6908925A1C56
:10278000944201BFD8F88420D1F884301B691361CA
:1027900000220592089A012AC0F21E82002201F14D
:1027A000200B049200220692002203920022029241
:1027B00000224FF0010A002501920791844203D1C3
:1027C000DBF80060584659E04122CAF2000290420C
:1027D00030D03122CAF20002904215D03022CAF223
:1027E0000002904240F0D08105EB4500DBF800602C
:1027F00040F2301201EB8000CDF200022030964210
:102800003CD040F2302234E005EB4500DBF80060BC
:1028100041F2301201EB8000CDF2000220309642EE
:102820001FDC40F23112CDF20002964226D041F276
:1028300031021EE0DBF8006005EB450040F241127A
:10284000CDF20002964201EB80001EBF40F24142F1
:10285000CFF20002964200F120000FD040F2412258
:1028600007E041F23112CDF20002964206D041F269
:102870003122CDF20002964240F08681424652F863
:102880001C3F03EB430902EB8902566040F2311210
:102890000068CDF2000290421BDD41F23012CDF211
:1028A0000002904241DC40F24022CDF20002904210
:1028B0007ADC40F23212CDF20002904250D040F267
:1028C0004112CDF20002904200F0058140F2302228
:1028D00041E040F22F52CCF2000290424ADD40F635
:1028E0002F02CCF20002904200F39F8040F230525F
:1028F000CCF20002904200F0188140F23062CCF23B
:102900000002904200F0CE8040F23072CCF2000221
:10291000904240F04581D8F884002C4600F128060A
:10292000D1F8840000F1280512E141F23122CDF204
:102930000002904256DC41F23112CDF20002904288
:1029400000F0BA8041F23212CDF20002904200F063
:10295000A98041F23122CDF20002904240F0208164
:10296000D8F884002C4600F11406D1F8840000F158
:102970001405EDE040F24022CCF20002904266DD08
:1029800040F24122CCF20002904200F09F8040F2DF
:102990003032CCF20002904266D040F23042CCF2AB
:1029A0000002904274D0FBE040F24122CDF20002DE
:1029B000904200F0A68041F23102CDF20002904236
:1029C0005CD041F23202CDF20002904240F0E88049
:1029D000D8F884002C4600F10806D1F8840000F1F4
:1029E0000805B5E041F23222CDF20002904245D016
:1029F00040F24142CFF20002904271D041F23232B5
:102A0000CFF20002904240F0CB8008F11C00DBF8CE
:102A1000042000EB89008260DBF80820C260D8F84F
:102A20001C000130C8F81C00AEE040F63002CCF2C9
:102A30000002904200F0838040F23012CDF200029A
:102A4000904239D040F23112CDF2000209E040F25A
:102A50003122CCF2000290421AD040F23222CCF263
:102A60000002904240F09C80D8F884002C4600F18F
:102A70001806D1F8840000F1180569E0D8F8840040
:102A80002C4600F10C06D1F8840000F10C055FE043
:102A9000D8F884002C4600F11C06D1F8840000F11F
:102AA0001C0555E0D8F884002C4600F12406D1F826
:102AB000840000F124054BE0D8F884002C4600F196
:102AC0001006D1F8840000F1100541E001202C46E9
:102AD00009AD039019E02C460BAD0120069014E0DF
:102AE000DBF8043008F11C0000EB89001A46019263
:102AF0008360D8F81C000130C8F81C000120029047
:102B000042E001202C4606900AAD2868DBF80460FC
:102B1000002803D003F042FA00202860304603F07A
:102B20000DFB0028286020D1ECE0D8F884002C466A
:102B300000F12006D1F8840000F1200508E0D8F863
:102B400084002C4600F12C06D1F8840000F12C05FD
:102B5000306818B103F022FA00203060286803F0D2
:102B6000EDFA0028306000F0B48008F11C01254621
:102B700001EB89018860DBF80800C860D8F81C0008
:102B80000130C8F81C0007990898824529DA0135F8
:102B90000AF1010A0BF10C0BD8F800000C680DE6E5
:102BA00008F11C00009500EB8905D8F88400049C0E
:102BB0002044A860DBE901163246FFF714F8DBF881
:102BC000080034440799E860D8F81C00009D0130E3
:102BD000C8F81C000494D7E7002200244FF0000B33
:102BE0000BE0019941F61C29D8F80000C0F20B094E
:102BF0000591DDF818B0DDE90224A0F12141413949
:102C0000022922BFA0F120404138012833D8D8F84A
:102C10008450C5B3002A4BD005980138042847D802
:102C200045F65001C0F2020151F8200008F0D3FD32
:102C30000646EEB32846314608F085FD824630460A
:102C400006F0A9FFBAF1000F32D02CB1099979B37F
:102C5000284608F08AFD58B3BBF1000F07D00B9946
:102C600039B30A9A2AB3284608F0CEFC00B32846A6
:102C700008F041FCE0B1D8F81800002440F400301E
:102C8000C8F8180032E000F0CDF900F0CBF96FF38E
:102C90001F3041280CD10B9808B103F0A3F90A9812
:102CA00008B103F09FF909980C24CFF6FF740CE0EB
:102CB0000B9911B1084603F095F90A9808B103F091
:102CC00091F901240998CFF2100478B103F066F964
:102CD0000CE000F0A7F96FF31F30412861D10C24FC
:102CE00041F61C29CFF6FF74C0F20B09D9F8000099
:102CF0000C99401A01BF20460DB0BDE8000FF0BD91
:102D000002F0F7FB00F08EF90B9808B103F06AF9B6
:102D10000A9808B103F066F9099841F61C29C0F237
:102D20000B09002818BF03F039F900F07BF96FF3A5
:102D30001F30412841D10C24CFF6FF74D6E745F26D
:102D4000457140F60900C0F202014FF42A72FEF705
:102D500050FF45F2457140F60900C0F2020140F211
:102D6000AD22FEF746FF45F2457140F60900C0F27C
:102D7000020140F2B222FEF73CFF45F2457140F6F7
:102D80000700C0F2020140F2B722FEF732FF45F21F
:102D9000457140F60900C0F202014FF43372FEF7AC
:102DA00028FF00F03FF945F2457140F60900C0F2F6
:102DB000020140F2C632FEF71CFF45F2457140F6B3
:102DC0000900C0F2020140F2AF32FEF712FF00002C
:102DD000F0B503AF2DE900070546002040F20A09CF
:102DE000C5F88000E861402090460E46CAF2000017
:102DF000CFF6FF79864215DC06F1C040102849D88D
:102E0000DFE800F0A1D595A59B0909D5D5D5D5D585
:102E1000D5D5D5D58B00A8F58070B0F5407F40F2B0
:102E20009B80C4E03020CAF2001086421DDDA6F16E
:102E30002140413802281DD33120CAF200108642B9
:102E400033D03220CAF20010864240F0B080A8F59C
:102E50008070B0F5E06F00F2AA8049F225114FF0C2
:102E6000000AC0F200014C2082E0A6F12041413965
:102E7000022938D2A8F1C000B0F5A87F00F29780EF
:102E800008F081FA0446002C00F08F80204603F001
:102E9000ECFB3DE03020CAF20000864225D0312014
:102EA000CAF20000864240F08280B8F5007F7ED3EF
:102EB000B8F5806F4FF0000048F4806198BF0120A2
:102EC000B1F5406F4FF0000108BF01214FF0000A3B
:102ED00018F03F0F6BD1084369D049F207414420F5
:102EE000C0F2000144E0864261D1A8F58070B0F5DF
:102EF000706F5CD806F0ACFB0446002C55D013F084
:102F0000C6F90146204606F0F5FB002853D05820AC
:102F1000C5F880004FF0000A2EE0B8F1800F18BF0E
:102F2000B8F5807F1BD0B8F1C00F18D03FE0A8F1F2
:102F30005000B0F5D87F0FD939E0A8F1C000B0F546
:102F4000507F09D933E0B8F5805F05D92FE0A8F1AB
:102F50007000B0F5C87F2AD818F0070027D108F113
:102F6000070043F6CF71C0F200014FF0010AC0081C
:102F7000C5F8800088470446C5F88440ACB1BAF172
:102F8000000F05D0D5F8802020460021FEF72FFE47
:102F90004FF000094FF0FF30C5E90069C5E9028034
:102FA000C5E90499C5F8189001E009F102094846FD
:102FB000BDE80007F0BD204606F0ACFB45F2F3711A
:102FC0000020C0F2020140F28962FEF712FE0021E9
:102FD000FEF7F2BDF0B503AF4DF8048D0E46044682
:102FE000882000219046FEF7E7FD05467DB1284682
:102FF00000218822FEF7FBFD284621463246FFF7D6
:10300000E7FE04463CB12846FEF7EBFD06E00C2443
:10301000CFF6FF7402E00024C8F8005020465DF8A7
:10302000048BF0BD00207047F0B503AF2DE9000F11
:1030300087B041F61C2B0390C0F20B0B40F20A0E36
:10304000DBF800000D4606900020CDE904000120C9
:10305000C5F20000CFF6FF7E854224DD42F230103B
:10306000C7F20000854242DD45F24000C7F2000091
:10307000854200F3828043F62F00C7F200008542AC
:1030800000F3E38043F24000C7F20000854200F302
:10309000678142F23110C7F20000854200F0818161
:1030A00042F6300078E140F2CF30C1F200008542B4
:1030B0003DDCBF20C1F20000854240F38A8040F22F
:1030C0000F10C1F20000854200F3E380A5F18050AB
:1030D000C038102800F21085012101FA00F0072104
:1030E000C0F20101084240F0968100F005BD40F2B7
:1030F0002F20C6F22100854256DD40F22F20C6F275
:103100006100854200F3928040F22F20C6F2410018
:10311000854200F3098140F23020C6F22100854249
:1031200000F00F8140F23020C6F2310006E10F209E
:10313000C1F20040854263DD0120C3F200008542F8
:1031400040F3E880A5F140500238042800F2D8820C
:103150000292DFE810F005003C0314032F03F30292
:10316000042A40F0C9840221032001904FF0400A54
:103170004FF01409CAF200018DE343F62F10C7F295
:103180003100854272DC46F62F00C7F2000085420E
:1031900000F3EF8045F24100C7F20000854200F0E5
:1031A000008145F63000F7E0A5F1A0400238042880
:1031B00000F2A6800292DFE810F00500D502B90205
:1031C000CE02B202052A40F0978498464FF01409C7
:1031D000B2E243F24100C8F2000085426ADD45F2E6
:1031E0004100C8F20000854200F3EE8043F2420045
:1031F000C8F20000854200F0EF8044F2420068E02F
:103200000F20C1F20020854269DD0F20C1F200309D
:10321000854200F3E9801020C1F20020854200F0D1
:10322000FA8040F21010C1F20020F1E041F24000BB
:10323000C7F20000854200F38A8040F23020C6F2D7
:10324000610085427DD04120A6E044F23010C7F2F3
:103250000000854200F3988043F63000C7F200007A
:10326000854200F09E8044F2410095E045F62F1023
:10327000C7F25100854200F39C8043F63010C7F23C
:103280003100854200F08D8044F63010C7F24100D5
:1032900084E040F20F20C1F20000854200F3AE80CE
:1032A00040F21010C1F20000854200F0B48040F2FC
:1032B000D010ABE03220C8F20000854200F06C82F2
:1032C00041F24200C8F20000854200F0858042F2DF
:1032D0004200C8F2000085427ED000F00DBC40F2F2
:1032E000D030C1F2000085421EBF1020C1F2001094
:1032F000854200F0908040F21010C1F2001087E08B
:103300003020C6F2000085421BD040F23010C6F2D9
:10331000000013E01020C1F2004085427BD040F253
:103320001010C1F2004073E040F23020C6F24100BC
:10333000854206D040F23020C6F25100854240F06E
:10334000DB83012A00F2D8834FF0060C49E041F2FA
:103350004100C7F20000854223D042F241001BE049
:1033600043F24100C7F2000085421AD043F2311007
:1033700012E046F63000C7F20000854211D042F656
:103380003010C7F2210009E044F23110C7F200000A
:10339000854206D044F63000C7F20000854240F076
:1033A000AB8342F00100032840F0A6834FF0070CE6
:1033B00017E045F63010C7F251008542F1D046F6CD
:1033C0003010C7F26100E9E745F24200C8F20000A0
:1033D000854201D0102019E0062A40F08D834FF07D
:1033E000080C4FF0000A1DE01020C1F200308542A9
:1033F00011D040F21010C1F2003009E040F210206C
:10340000C1F20000854206D040F2D020C1F2000097
:10341000854240F07183012A00F26E834FF0010C67
:103420004FF0100A40F22F200021C6F22100854201
:1034300022DC40F20F20C1F20000854242DD40F262
:103440000F10C1F2002085427CDD0F20C1F2004048
:10345000854240F3C8802F20C6F20000854200F369
:10346000D7811020C1F20040854200F00F8140F268
:103470001010C1F2004006E143F23010C7F2000024
:10348000854240DD45F62F00C7F2000085426EDD23
:1034900043F62F10C7F23100854240F3B48045F661
:1034A0002F10C7F25100854200F3BC8143F6301063
:1034B000C7F23100854200F0C18144F63010C7F2F6
:1034C0004100B9E11220C1F20000854266DC44F2FD
:1034D0004100C8F20000854200F3C68041F242007C
:1034E000C8F2000085421EBF42F24200C8F200004E
:1034F000854200F0D18043F24200C8F200008542CC
:1035000000F0CA809DE141F24000C7F20000854210
:1035100052DC40F22F20C6F25100854200F3C280F7
:1035200040F23020C6F2210085421EBF40F230201A
:10353000C6F23100854200F0818140F23020C6F2AF
:10354000410079E10F20C1F2001085426DDC40F2AC
:103550001020C1F2000085421EBF40F21030C1F2BF
:103560000000854200F0928040F2104089E044F271
:103570003010C7F20000854266DC43F23110C7F21A
:103580000000854200F0B78043F63000C7F200002B
:10359000854200F0538144F24100A1E040F20F1057
:1035A000C1F20000854200F32081A5F18050C038AF
:1035B00003286BD3132021E142F23010C7F2000040
:1035C00085427EDC41F24100C7F20000854200F0F6
:1035D0008C8041F63000C7F20000854200F02E8159
:1035E00042F241007CE040F21010C1F2002085421E
:1035F0001EBF1020C1F20030854247D040F21010AB
:10360000C1F200303FE045F63000C7F200008542CD
:103610001EBF46F63000C7F20000854200F00E8162
:1036200042F63010C7F2210006E11020C1F200106E
:1036300085421EBF40F21010C1F20010854225D015
:103640001020C1F200201EE044F23110C7F2000049
:10365000854250D044F63000C7F20000854200F0A9
:10366000ED8045F241003BE044F24200C8F2000028
:1036700085421EBF45F24200C8F2000085420BD0D1
:103680001020C1F20000854240F0DB800220CAF227
:10369000000000F10E01D4E03020CAF2001000F169
:1036A0001201CEE040F23020C6F2510085421EBF2A
:1036B00040F23020C6F26100854200F0BF80412018
:1036C0000EE042F23110C7F20000854213D042F6FC
:1036D0003000C7F20000854200F0B08043F24100A4
:1036E000C7F20000854240F0AC803020CAF20010E2
:1036F00000F11101A5E03020CAF20010411CA0E049
:1037000040F61000C4F20000854240F0F581012A25
:1037100000F2F2814FF0100A4FF0040CB6E7052AD0
:1037200040F0EA8198464FF0400921E0052A40F038
:10373000E38198464FF0200940201AE0042A40F027
:10374000DB8102204FF0000ACAF20000011D0320B5
:103750004FF0400947E0052A40F0CE8198464FF0EF
:10376000300905E0052A40F0C78198464FF01C0952
:10377000002000904FF0050A4FF0010BB0E0042A42
:1037800040F0BA8102204FF0400ACAF20000811CCA
:1037900003204FF0200926E0062A029240F0AC8177
:1037A00030204FF00009CAF20010811C08204FF0B1
:1037B000000A18E0042A40F09F8102204FF0000A1E
:1037C000CAF20000C11C03204FF030090BE0042AAC
:1037D00040F0928102204FF0400ACAF20000411CE2
:1037E00003204FF01C09019055E040F21010C1F287
:1037F000000085423FF44AAF40F21310C1F20000CE
:10380000854202BF0220CAF2000000F1110118E057
:103810003020C6F20000854210D040F23010C6F2CF
:10382000000009E045F63010C7F25100854205D08E
:1038300046F63010C7F26100854202D13021CAF24B
:10384000001144F23110CDE901C2C7F200008542F7
:1038500019D043F23110C7F2000085420FD042F276
:103860003110C7F20000854213D1A3F50070B0F506
:10387000007F00F2418113F03F000AD03CE1B3F534
:10388000006F06D038E143F48060B0F5406F40F03F
:1038900033814FF0000905AA0C46084619469846A0
:1038A000FFF798FB86464146BEF1000F40F02481A9
:1038B00040F21040C1F2000085420BD104AA20461C
:1038C000FFF788FB014629B105980C46FEF7AFFAD1
:1038D000A6460DE14FF0000BCDF800A0DDF804A0E6
:1038E000982000210026FEF767F90446002C00F01E
:1038F000EB80204600219822FEF779F9029BC4E96B
:10390000005A002BA3F10100C4E90239C4E904867E
:1039100008BF02260528A6610FD8C1B22F2222FABD
:1039200001F1009AC90709D045F68041C0F20201B1
:1039300051F820000643A66100E0009A3020C6F24C
:10394000000085420ED1012B05D81020002B08BFA6
:1039500020203043A0615846BBF1000F18BF4FF440
:10396000C0200EE040F21041BBF1000F5846C1F2FA
:10397000000118BF4FF4C0208D42E06102D140F435
:103980000020E0610026DDE90410C4E91D624FF06B
:10399000FF32C4E9086004F1280046C00F20C1F2DC
:1039A0000040854219DD40F60F00C4F20000854258
:1039B00040DC6FF040502844062853D246F693016D
:1039C000D020C0F20201002202F04BF90646002E80
:1039D00077D0304603F058FC66E040F20F20C1F289
:1039E0000000854212DCBF20C1F20000854243DDA9
:1039F000A5F18050C038032852D340F21010C1F214
:103A0000000085424CD040F213103BE00F20C1F281
:103A10000020854216DD0F20C1F20030854234DCE3
:103A20001020C1F2002085423AD040F21010C1F2BD
:103A3000002033E06FF0A0402844062868D202F04E
:103A400006FF2FE040F21020C1F2000085421EBFA9
:103A50001020C1F20010854222D040F21010C1F2B5
:103A600000101BE01020C1F20040854218D040F247
:103A70001010C1F2004011E01020C1F20000854298
:103A80000ED01320C1F2000008E01020C1F2003077
:103A9000854205D040F21010C1F20030854203D1BA
:103AA00003F0CBF8064666B12663BBF1010F03981D
:103AB000046017D1204600F04EF888B1204600F08F
:103AC000CAF82046FEF78DF80598FEF7B0F904987D
:103AD000FEF7ADF90A20CFF6FF7000F1020E07E005
:103AE00003980468204600F06BFD50BB4FF0000EB9
:103AF00041F61C2BC0F20B0BDBF800000699401AB4
:103B000001BF704607B0BDE8000FF0BD01F0F1FC49
:103B100040F61000C4F200008542C5D146F693017C
:103B20004FF4BC70C0F20201002202F09AF806467F
:103B3000002EC6D0304600214FF4BC72FEF757F875
:103B4000B2E745F6640140F60140C0F2020140F2DE
:103B50009E52FEF74EF8F0B503AF4DF8048D82B0DB
:103B600041F61C280546C0F20B080024D8F80000D6
:103B700001902869C11DC808B4EBD10F009005D091
:103B80000021FEF719F80446002C43D0686A50B1B2
:103B90006968032907D16B464FF040412246FEF782
:103BA0004FF900284ED128686FF040510144062992
:103BB00016D36FF0A041014405291CD82D6B00F0ED
:103BC0000DFC01462846002202F054FE98B945F645
:103BD000E5310020C0F202014FF45472FEF709F8FB
:103BE0002D6B009E00F0FAFB034628462146324624
:103BF00003F02AFBE8B15CB1009A204600210025C1
:103C0000FDF7F5FF207820702046FDF7EAFF04E07D
:103C1000002502E00C25CFF6FF75D8F800000199C9
:103C2000401A01BF284602B05DF8048BF0BD01F0D8
:103C300060FC45F6E5310020C0F2020140F263323B
:103C4000FDF7D7FF45F6E5310020C0F2020140F252
:103C50003B32FDF7CEFFB0B502AF04460F2120681E
:103C6000C1F20041256B884211DD40F20F71C4F2B0
:103C70000001884224DC6FF04051014406294AD2F9
:103C8000284603F060FB284602F0CAF887E040F2BD
:103C90000F21C1F2000188421BDD0F21C1F200217A
:103CA000884229DC0F21C1F2001188425FDC40F21A
:103CB0001021C1F2000188426ED040F2104153E061
:103CC0006FF0A041014406292FD2284602F02FFFB1
:103CD00065E0BF21C1F2000188423FDDA0F18051C3
:103CE000C039032958D340F21011C1F200018842B3
:103CF00052D040F2131137E00F21C1F20031884257
:103D00003FDC1021C1F20021884245D040F2101161
:103D1000C1F200213EE01021C1F2004188423BD0B7
:103D200040F21011C1F2004134E040F21071C4F2CF
:103D30000001884230D040F61001C4F200018842F0
:103D400030D1D5F8740100289DD00021F422FDF770
:103D50004EFFD5F8740102F063F894E71021C1F228
:103D60000001884218D01321C1F2000112E0102195
:103D7000C1F2001188420FD040F21011C1F20011BF
:103D800008E01021C1F20031884205D040F2101144
:103D9000C1F20031884205D1284603F080F80020A6
:103DA0002063B0BD002DFAD045F6F5310020C0F2F9
:103DB00002014FF42672FDF71CFFB0B502AF40F6CA
:103DC0000341044600F02BF8606A08B1FEF72FF8B3
:103DD000A06A08B1FEF72BF8206840F21071C4F217
:103DE0000001884210D1D4F88000FDF7FAFE0025CA
:103DF000C4E92055C4F88850D4F88C00FDF7F1FED2
:103E0000C4E92355C4F894502046FFF724FF204608
:103E100000F0EEFB2046BDE8B040FDF7E2BED0B5B5
:103E200002AF0C4618B100F0BCFB48B1D0BD45F65E
:103E300002412046C0F2020140F22D52FDF7D9FEA8
:103E400045F602412046C0F2020140F23352FDF72E
:103E5000D0FEB0B502AF40F605410446FFF7DFFFE4
:103E60006068052821D0606A10B3E06910F4802FE3
:103E70001ED0216840F21072C4F20002914211D1AA
:103E8000D4F88000FDF7ADFE0025C4E92055C4F844
:103E90008850D4F88C00FDF7A4FEC4E92355C4F87B
:103EA0009450E06920F40030E06100202062B0BD51
:103EB00045F6BD0140F60540C0F2020140F21C6229
:103EC000FDF797FE012200F000B8F0B503AF4DF802
:103ED00004BD0D4640F6064116460446FFF79FFF17
:103EE000206A08B1002E67D1606805281FBF2068CE
:103EF00040F21041C1F20001884267D0E06910F43D
:103F0000003F6DD1400309D5606AFEF75EFA204696
:103F100000F07AF8E06920F48020E061002D47D0BD
:103F2000A069E96861EA0000013063D12968402096
:103F3000CAF2000081420EDC3020CAF20000814249
:103F40001BD03120CAF20000814214D13020CAF2C5
:103F50000010421C1FE04120CAF20000814215D02F
:103F60004220CAF20000814205D13020CAF200107E
:103F700000F112020FE0606A12E0606A3023CAF2B8
:103F8000001302689A4208BF016009E03020CAF2BB
:103F9000001000F11102606A0368934200D10160D1
:103FA0002946FEF785FB20B9E06940F48020E061F6
:103FB00000205DF804BBF0BD45F6194140F606400F
:103FC000C0F2020140F24362FDF713FE45F61941CB
:103FD00040F60640C0F2020140F24C62FDF709FED5
:103FE00045F6194140F60640C0F2020140F2526225
:103FF000FDF7FFFD45F6194140F60640C0F202010B
:1040000040F26162FDF7F5FDB0B502AF0168046BE7
:10401000B1F1405F12DD40F60F00C4F200008142B2
:1040200028DC6FF04050084406284ED2002C00F0E7
:1040300087802046BDE8B04003F085B940F20F20EC
:10404000C1F20000814221DD40F20F10C1F20010E8
:1040500081422ADC40F21020C1F2000081421EBFE2
:1040600040F21040C1F20000814234D01020C1F271
:1040700000102EE06FF0A0400844062831D2002C3A
:1040800067D02046BDE8B04002F071BCA1F180507D
:10409000C03803281FD31020C1F2000081421AD07B
:1040A00040F21010C1F2000013E040F21010C1F213
:1040B000001081421EBF1020C1F2002081420AD0B0
:1040C00040F21010C1F2002003E040F21070C4F280
:1040D000000081421FD154B32046BDE8B04002F039
:1040E00099BE40F61000C4F20000814213D1CCB357
:1040F000D4F8745135B12846F42101F0DBFE28468E
:1041000001F08EFE204600214FF4BC72FDF76FFDDA
:1041100020782070B0BD002C08BFB0BD45F63E41F0
:104120000020C0F2020140F20B32FDF762FD45F6BD
:104130003E410020C0F2020140F20232FDF759FD7B
:1041400045F63E410020C0F202014FF43172FDF706
:1041500050FD45F63E410020C0F2020140F2B62279
:10416000FDF747FD45F63E410020C0F202014FF445
:104170003872FDF73EFDD0B502AF40F6037104463C
:10418000FFF74DFE206A012804BF2046FFF761FEBD
:104190006068032818D1E06910F4003F03D120467D
:1041A000FFF757FEE069400318D52046FFF7D3FC20
:1041B000E067D4E90701002940F40030E06100D055
:1041C000D0BD01202062D0BD45F6D11140F603706C
:1041D000C0F2020140F65532FDF70BFD45F6D11154
:1041E00040F60370C0F2020140F65E32FDF701FDB9
:1041F000F0B503AF2DE9000B0E4640F602711D46E7
:1042000090460446FFF70BFEE06F78BB8DB3D7F8FE
:104210000890B9F1000F2CD0E068D9F80010814265
:1042200003D21020CFF6FF7020E0606803282AD167
:10423000A07F800731D5206A012838D12068A0F1FD
:104240004050023804283CD8206B3146424603F0E7
:104250002BF800283FD0206B29464A4603F027F868
:10426000002842D02046FFF7F4FD0020BDE8000BF7
:10427000F0BD45F6112140F60270C0F2020140F691
:10428000BE32FDF7B6FC45F6112140F60270C0F2D1
:10429000020140F6C432FDF7ACFC45F6112140F6B0
:1042A0000270C0F2020140F6C932FDF7A2FC45F6E9
:1042B000112140F60270C0F2020140F6CE32FDF745
:1042C00098FC45F6112140F60270C0F2020140F65A
:1042D0001442FDF78EFC45F6112140F60270C0F243
:1042E000020140F6DD32FDF784FC45F6112140F66F
:1042F0000270C0F2020140F6E332FDF77AFCF0B53D
:1043000003AF2DE9000794B041F61C2A0546C0F220
:104310000B0A0C46DAF8000040F6017113902846AB
:1043200098469146FFF77BFD40200290EE6FDEB984
:1043300002A803AB0090284621464A46FFF758FFE3
:1043400006468EB9B8F1000F1AD0BA6843F271066A
:10435000E868CFF6FF76904206D103A94046FDF704
:1043600044FC002808BF0646DAF800001399401AFA
:1043700001BF304614B0BDE80007F0BD01F0B9F848
:1043800045F6382140F60170C0F2020140F62E4297
:10439000FDF72FFC00207047D0B502AF41F6E014C6
:1043A000C0F20B04207858B945F29530C0F20000F5
:1043B00001F016FC01F0C6F8012803D1012020709D
:1043C0000120D0BD072045F6D931CFF6FF70C0F2ED
:1043D000020141F2F132FDF70CFC0000A0F1405166
:1043E000023904290DD9A0F1A0400238042884BF65
:1043F00000207047DFE800F0030B0D0F110002F002
:10440000E2B9DFE801F0030406080A00F7E702F06A
:10441000DFB902F0E2B902F0E5B902F0E8B9D0B5CF
:1044200002AF044654B1D4F8800010B1204600F029
:1044300006F82046BDE8D040FDF7D3BBD0BDF0B5AF
:1044400003AF2DE9000F81B004462F212068CAF286
:104450000011884218DD4021CAF20011884227DC91
:104460003021CAF2001188427BD03121CAF20011FA
:10447000884218D03221CAF20011884269D1D4F89A
:10448000840003F09CFE70E0A0F120414139022934
:1044900013D33021CAF20001884262D03121CAF21E
:1044A0000001884255D1D4F8840003F0F9FF5CE0A4
:1044B000A0F12140413802284BD2D4F8840006F004
:1044C00086FF0025C4E92055E069012840DB40F261
:1044D000402840F2412940F2412B04F12406CDF25C
:1044E0000008CCF20009CDF2000B4FF0000A56F89C
:1044F000041C46F8045C414508DC494514D040F2F0
:104500004112CDF2000291420AD018E0594507D07D
:1045100040F24142CFF20002914210D130460CE00D
:10452000306801F05FFD02E0306801F037FD0AEB12
:104530004A00356004EB800028300560E0690146E0
:104540000828A8BF08210AF1010A0C368A45CEDBEB
:10455000E561D4F8840004F11C0558B1FDF741FB76
:1045600008E0D4F8840005F0D5F804F11C0500201B
:10457000C4E92000284600216C2201B0BDE8000FEC
:10458000BDE8F040FDF733BBD0B502AF04463CB107
:104590002046FFF754FF2046BDE8D040FDF721BB81
:1045A000D0BD4CF21001C0F203010968002904BF1C
:1045B000002070478A68824204BF01207047F4E7F8
:1045C000B0B502AF05460C2000210024FDF7F4FA37
:1045D00050B14CF2100104608560C0F203014A68DA
:1045E00042601060486001E04FF0FF342046B0BDEB
:1045F0004CF2100C0146C0F2030CDCF8000030B1A4
:10460000826803688A420CD0002B1846F8D180B526
:104610006F4645F698410020C0F202013722FDF7AF
:10462000E8FA191D002B08BF0CF1040142680A606A
:10463000D0E900121160FDF7D4BAF0B503AF2DE94F
:10464000000B82B0814600F095FA41F6E41800288C
:10465000C0F20B08C8F8000000F0FD8041F6E81534
:104660000021C0F20B05022907D12846102100F0D5
:10467000B2FB03210028F6D0DDE001311329F2D38B
:1046800046F2C8400024C0F2020000F1080555E9D6
:104690000212D5E90036D8F80000009600F0F5F9CE
:1046A000002840F0D08001341435122CEFD900F0EE
:1046B00061FA41F608280028C0F20B08C8F800008B
:1046C00000F0D48046F2F9160522C0F2020610234B
:1046D0003146CDF8009000F0D8F90546002D40F0A5
:1046E000D08046F21A26D8F8000009F11001C0F275
:1046F0000206009131460222012300F0C6F9054668
:10470000002D40F0D88046F23026D8F8000009F19C
:104710001101C0F20206009131460222012300F08D
:10472000B4F90546002D40F0E08046F24426D8F862
:10473000000009F11201C0F2020600913146022286
:10474000012300F0A2F90546002D40F0E88046F272
:104750005D26D8F8000009F11401C0F202060091AC
:1047600031460322042300F090F90546002D40F065
:10477000F08046F26D26D8F8000009F11801C0F269
:104780000206009131460322042300F07EF905461B
:10479000002D40F0F88009F15406D8F8005030465A
:1047A0001FF0B6ED009646F27E26431CC0F20206CC
:1047B00028463146012200F068F90546002D40F0F8
:1047C000FC8046F29C26D8F8000009F16501C0F291
:1047D0000206009131460222012300F056F90546F7
:1047E000002D40F0048146F2B826D8F8000009F107
:1047F0006801C0F20206009131460322042300F052
:1048000044F90546002D40F00C8146F2D625D8F833
:10481000000009F16C01C0F2020500912946032253
:10482000042300F032F90446002C40F0148102B059
:10483000BDE8000BF0BD45F65D714FF40072C0F2AB
:104840000201FDF7D6F945F65D7140F20D22C0F286
:104850000201FDF7CEF90C2045F65D71CFF6FF7031
:10486000C0F202014FF4FC72FDF7C3F90C2046F2CE
:10487000E611CFF6FF70C0F2020140F21A22FDF7F6
:10488000B8F946F2062046F2E61445F2BE53C0F2ED
:104890000200C0F20204CDE90006C0F202030620C5
:1048A00021464FF40872FDF7C3F92846214640F22D
:1048B0002122FDF79EF946F2062046F2E61445F263
:1048C000BE53C0F20200C0F20204CDE90006C0F2FD
:1048D00002030620214640F22722FDF7A9F92846C7
:1048E00021464FF40A72FDF784F946F2062046F29B
:1048F000E61445F2BE53C0F20200C0F20204CDE954
:104900000006C0F202030620214640F22E22FDF7E7
:104910008FF92846214640F22F22FDF76AF946F228
:10492000062046F2E61445F2BE53C0F20200C0F281
:104930000204CDE90006C0F202030620214640F23F
:104940003522FDF775F92846214640F23622FDF75B
:1049500050F946F2062046F2E61445F2BE53C0F284
:104960000200C0F20204CDE90006C0F202030620F4
:1049700021464FF40F72FDF75BF92846214640F2BD
:104980003D22FDF736F946F2062046F2E61445F2DE
:10499000BE53C0F20200C0F20204CDE90006C0F22C
:1049A00002030620214640F24322FDF741F9284642
:1049B00021464FF41172FDF71CF946F2062046F22B
:1049C000E61445F2BE53C0F20200C0F20204CDE983
:1049D0000006C0F202030620214640F24B22FDF7FA
:1049E00027F9284621464FF41372FDF702F946F2E3
:1049F000062046F2E61445F2BE53C0F20200C0F2B1
:104A00000204CDE90006C0F202030620214640F26E
:104A10005222FDF70DF92846214640F25322FDF7B8
:104A2000E8F846F2062046F2E61445F2BE53C0F21C
:104A30000200C0F20204CDE90006C0F20203062023
:104A4000214640F25922FDF7F3F82846214640F26C
:104A50005A22FDF7CEF846F2062045F2BE53C0F2C8
:104A60000200C0F20203CDE9000546F2E615C0F2ED
:104A70000205062029464FF41872FDF7D9F82046A2
:104A8000294640F26122FDF7B4F8F0B503AF2DE9F5
:104A9000000F83B041F61C2B9046C0F20B0B05466D
:104AA000DBF8000001AA0290284699460E4600F065
:104AB000A7F8044624B10820CFF6FF7084424DD1F8
:104AC00048460021FDF778F882460C20CFF6FF70AB
:104AD000BAF1000F22D0B96850464A46FDF783F874
:104AE0000C20CFF6FF700438844219D1304600F014
:104AF00059F90446ECB128462146012200F0B7F8E6
:104B000005462046FDF76DF80C24002DCFF6FF7406
:104B100024D005F1140080E8000708E004461DE0F9
:104B2000019CE06908B1FDF75CF8C4E9069A00242D
:104B300014E046F2063046F2AC3145F2BE53C0F204
:104B400002000090C0F20201C0F20203062040F20F
:104B5000A312FDF76DF80C24CFF6FF74DBF800000C
:104B60000299401A01BF204603B0BDE8000FF0BD16
:104B700000F0BFFCB0B502AF82B0202000210025BC
:104B8000FDF71AF804462CB30120C4E90250204670
:104B900040F8145FA06146F69300C0F2020000F0F6
:104BA00001F90028206128D146F2944046F249419B
:104BB00045F2BE53C0F202000090C0F20201C0F202
:104BC000020306204FF4F672FDF732F82046FDF797
:104BD00008F811E046F25D4046F2494145F2BE5305
:104BE000C0F202000090C0F20201C0F202030620EF
:104BF00040F2E312FDF71CF80024204602B0B0BDDD
:104C0000F0B503AF4DF8048D82B0804608461546D6
:104C100000F0C8F808240646CFF6FF747EB140467F
:104C20003146002200F023F828603046FCF7D9FF17
:104C30002868B8B1C068022808BF002412E046F214
:104C4000063046F2F42145F2BE53C0F20200009055
:104C5000C0F20201C0F20203062040F28B12FCF700
:104C6000E7FF0434204602B05DF8048BF0BDF0B5D8
:104C700003AF2DE9000F83B00D4690468146002D0D
:104C800000F08B8028462E211FF060EA8346BBF19E
:104C9000000F05D000204FF0010A0BF8010B03E0D4
:104CA0004FF0000B4FF0020AB9F1000F35D04E461D
:104CB00056F8144F00E02468002C06D020692946DD
:104CC000FBF7E6EB0028F6D121E0B8F1010F62D145
:104CD00020200021FCF770FF0446A4B3284600F012
:104CE00061F80028206141D020460021C4E9029AE1
:104CF00040F8141FA061D9F81400206000280EBFEE
:104D000009F1180030680430046034606660A14620
:104D1000BBF1000F5D46B5D13FE046F2443046F2AC
:104D2000333145F2BE534FF00009C0F20200C0F229
:104D30000201CDE90009C0F2020303204FF4B4726E
:104D4000FCF776FF29E046F2563046F24D3145F247
:104D5000BE53C0F202000090C0F20201C0F2020392
:104D600006204FF49F72FCF763FF14E046F2833095
:104D700046F24D3145F2BE53C0F202000090C0F23F
:104D80000201C0F2020306204FF4A272FCF750FFAA
:104D90002046FCF726FF4FF00009484603B0BDE867
:104DA000000FF0BDF0B503AF4DF8048D80461FF045
:104DB000B0EA451C002100262846FCF7FDFE04460B
:104DC0002CB1204641462A46FCF70DFF26463046C8
:104DD0005DF8048BF0BD102908BF00F019B880B54C
:104DE0006F4682B046F2586046F2446145F2BE53C7
:104DF000C0F202000090C0F20201C0F202030620DD
:104E00003D22FCF715FF0620CFF6FF7002B080BDF3
:104E1000F0B503AF2DE9000796B041F61C2A054610
:104E2000C0F20B0A1026DAF8000002AA1590002042
:104E3000CDE906008021CDE90400CDE902064FF05E
:104E40002040FEF7C7F8044684B146F27D6046F282
:104E50006A6145F2BE53C0F20200CDE90004C0F21F
:104E60000201C0F20203062054223CE0029846F2FE
:104E7000AC62C0F2020210211023CDE9006046F2BC
:104E80009C60C0F20200FCF723FF98B1002446F2B8
:104E90007D6046F26A6145F2BE53CFF6FF74C0F200
:104EA0000200CDE90004C0F20201C0F202030620B4
:104EB0005D2218E0029804AA03AB4FF04041FCF7D2
:104EC000BFFF0446ECB146F27D6046F26A6145F2EE
:104ED000BE53C0F20200CDE90004C0F20201C0F2EC
:104EE000020306206522FCF7A3FEDAF800001599FC
:104EF000401A01BF204616B0BDE80007F0BD00F023
:104F0000F8FA0298FCF793FF0DF120090024002124
:104F100020224846CDE91244CDE910441EF028EC89
:104F200046F2BC614846C0F202011022FCF75BFE6B
:104F300009F1100004A91022FCF755FE0DF14008FC
:104F4000484620211023424600F016F828464146E4
:104F50001022FCF748FE15F8060F02236978AA789C
:104F600040EA0120052161F31F3063F39F12AA700C
:104F70002870000A6870B8E7F0B503AF2DE9000F9C
:104F800085B041F61C2646F2CC6AC0F20B06A1F1B0
:104F9000010C36684FF0000B0496C0F2020A10F8BC
:104FA000019BEE460BEB09040229E4B21AF8045007
:104FB0000AD36446064616F8018B013C85EA0805CB
:104FC000EDB21AF80550F6D10EF80B500BF1010BAB
:104FD000BBF1100FE6D110460F2B8CBF10221A46E2
:104FE0006946FCF700FE41F61C20C0F20B00006889
:104FF0000499401A02BF05B0BDE8000FF0BD00F0F3
:1050000078FAF0B503AF2DE9000F8DB00D464AF6E2
:1050100032618046C0F2020100201EF0A8E9B8F11A
:10502000000F00F03C819420C0F20400854240F063
:10503000468141F6182040F22C0941F61421C0F2B5
:105040000B00C0F2030908EB0905C0F8008005F168
:105050001400C0F20B0108604CF63810C0F20300D7
:10506000FBF700EA002840F03E814CF698154024FA
:10507000C0F2030505F5403040F2310A00F1300678
:10508000A944C0F20304C0F2030A4FF0000BCDE9BB
:1050900003964FF0FF30FBF791F928464146224630
:1050A0001EF054EA3046032105F80AB000F8021B4E
:1050B000294680F801B080F800B0687A11F8082F0E
:1050C00042EA00208A78C97842EA01212A4640EA69
:1050D000014005A900F077F92D22010AC0F2030270
:1050E0000028A95449464FEA106201F8020B4A70A1
:1050F0004FEA10420A7018D046F6A20046F6940114
:1051000045F2BE53C0F2020000900620C0F2020138
:105110004522C0F20203FCF78BFD40462946224699
:105120001EF014EAFBF742F9B3E7EB78AA78697846
:10513000287842EA032240EA012040EA02414FF681
:10514000027081421ED04FF60170814245D141F676
:105150000C20C0F20B000068FCF7C9FB30460421AC
:1051600005F80AB0224600F8021B294680F801B073
:1051700080F800B040461EF0EAE9FBF717F9FCF7AB
:10518000A3FB86E741F61020C0F20B00006878B957
:1051900046F2CC70C0F20200FFF74FFAFCF792FB28
:1051A00041F61020C0F20B0001460868013008608B
:1051B000284605AC10F8081F42788378C07841EA89
:1051C000022141F60C22C0F20B0243EA002041EA20
:1051D00000402146FCF779FB14E0284605AC10F8A6
:1051E000082F43788678C07842EA0322234646EAAD
:1051F000002042EA004241F60C20C0F20B00006899
:10520000FCF776FBDDF80C902D26010AC0F20306B0
:10521000A955020E494601F8020B000C4A700870AD
:105220002946687A11F8082F42EA00208A78C9785E
:1052300042EA0121224640EA0140294600F060F896
:10524000F0B146F6C20046F6940145F2BE53C0F2F4
:10525000020000900620C0F202016522C0F20203A3
:10526000FCF7E6FC48460E2105F806B04024C0F2E3
:10527000030400F8021BFF21049E417001704CE7FB
:10528000049E0421402405F80AB0C0F2030430460D
:1052900000F8021B80F801B080F800B03DE746F648
:1052A000530046F6440145F2BE53C0F2020000909E
:1052B000C0F20201C0F2020306207A2210E046F694
:1052C0006C0145F2BE53C0F20201C0F20203CDE907
:1052D000001546F644010290C0F202010620802229
:1052E000FCF7A6FC09E0242008F80900FF20E8707C
:1052F000A87030206870FBF759F80120FBF774F8AC
:10530000F0B503AF2DE9000F40F2060C0029CFF6EF
:10531000FF7C53D0131D002206244FF00F094FF0DD
:105320000108A61F0CF1040E09FA06F5054025FA3E
:1053300006F6072E43D808FA06F616F0230F35D1E5
:1053400016F00C0F11D116F0C00F38D001EBC206C9
:1053500093F800B093F801E093F802A0DD7806F826
:1053600010BFF57086F802A01EE01D4613F803EC8E
:1053700015F8046D95F802A0ED7801F8146001EBC2
:105380004406F57086F802A086F801E001EBC2063B
:1053900093F800A093F801E09D7893F803B006F825
:1053A00010AFB57086F803B086F801E0013208331B
:1053B0000434042AB5D34FF0000E00E0E6467046F0
:1053C000BDE8000FF0BDF0B503AF2DE9000F40F2CE
:1053D0000608002ACFF6FF7800F0868002F12C0E36
:1053E0004FF0000C4FF00F090026012409FA0CF3CE
:1053F000034023FA0CF508F10403072D75D804FACD
:1054000005F515F0E00F2DD115F0050F62D115F05F
:105410000A0F6AD002EBC6031D4693F80DA015F8DB
:105420000CBF95F80280ED7801F836B001EBC60BA1
:105430008BF803508BF802808BF801A013F8108FC3
:105440005D7893F802A0DB788BF805500BF104052A
:1054500005F8028B40F20608CFF6FF7885F800A029
:105460006B7037E002EBC6031D4615F80C8F95F8FC
:1054700001A095F802B0ED7848EA0A284BEA052524
:1054800048EA054515B141F836500FE001EBC60872
:105490004FEA1E6501F836E088F803504FEA1E45D2
:1054A00088F802504FEA1E2588F8015013F810BF03
:1054B00001EBC60593F8018093F802A0DB7805F8AC
:1054C00004BFEB7085F802A085F8018040F2060861
:1054D000CFF6FF7801360CF1040C0EF5404E042E89
:1054E000FFF484AF002300E043461846BDE8000FF8
:1054F000F0BD80B56F460F2046F6E301CFF6FF7092
:10550000C0F202012C22FCF774FB80B56F4682B01A
:1055100000200421019001A81DF0C7FE41F61C20C7
:105520000199C0F20B00016002B080BDB0B502AFBE
:105530000C460546FEF730FFFFF7E7FF28462146F9
:10554000FFF75FFD80B56F4600F007F818B101F076
:10555000F8FA012080BD002080BD4CF6DC104FF42D
:10556000A831C0F2090000F000B8B0B502AF41F6B2
:1055700020250024C0F20B0500282C7024D04FF207
:1055800000020024C0F6FF728B1803F170439342AF
:105590001AD810F0030217D141F624224318C0F2A2
:1055A0000B02083990620124C2E9003000239060A8
:1055B000036040F8041FC0E90133C0E903334461CC
:1055C000D36000F003F82C702046B0BD2DE9F04107
:1055D00003AF0446002C71D041F62428201DC0F2F0
:1055E0000B0800211422D8F80C5000261EF0C0E849
:1055F000002D4FD020682E463168884250D006F1E9
:105600000C0138BF06F108010D68002DF3D166606A
:105610003068216881422CBFF460B4607069002852
:1056200048D1D8F80C0086423FD0706881688E421D
:1056300012D009B14A691AB3B068844203D1304626
:1056400000F0B8FA344660680121416100214068E9
:10565000416100F099FA19E0C16809B14A697AB16B
:10566000F068844203D1304600F08EFA3446606818
:105670000121416100214068416100F09BFA05E091
:10568000012204464A610021726141616668002E70
:10569000C4D10FE001206660C8F80C40606109E0E9
:1056A000306920613461BDE8F08101214161726996
:1056B000002AFBD0D8F80C0001214161BDE8F0813F
:1056C0002DE9F04303AF81B0054641F62020C0F23A
:1056D0000B000078012823D1142D38BF142515F0B4
:1056E0000300C0F1040018BF0544CDB141F62428E1
:1056F000C0F20B08D8F80C1091B10C462068A842F3
:1057000013D004F1080138BF04F10C010968002925
:10571000F3D100E02068A84207D26468002CF9D1D8
:105720000024204601B0BDE8F083204600F04BF88D
:10573000204650F8041D41F0010101602168491B19
:105740001B2915D900F1080445602D19A1F10800A5
:105750002E4646F8040F0ED0286844F001014FF0A1
:10576000000910F0010F08BF24F00101296005E0D5
:1057700000F10804D5E700254FF00109286820F062
:10578000010028603046FFF721FFB9F1000F01D07A
:10579000002002E03068284408300028C1D0D8F842
:1057A00000108142BDD9D8F804108142B9D80168EF
:1057B00005F1080242F0010311F0010F08BF22F0C9
:1057C00001030360ADE72DE9F04F03AF81B000287E
:1057D00000F01B81026882B141F62421C0F20B0166
:1057E000C96805E001F1080338BF01F10C0319682D
:1057F00019B10B689342F5D100E000210A6981429A
:105800000DD162B141F62421C0F20B01CB68834275
:1058100003D041688B6883421ED0CA601DE081427C
:1058200008BF002A11D10246014652F8084F2CB198
:10583000C36873B319468B68002BFBD1CC6801F1A8
:105840000802CCB14FF0000826E00A4611698142F7
:10585000FBD100691061D8E08A608168916081683D
:1058600001B14A60C168D160C16801B14A60416854
:10587000516040695061C8E041F624234FF00108AF
:10588000C0F20B0303F110048C60C3F8248059614B
:1058900002E04FF0000801464B6863604B6823B19B
:1058A0009E68B14205D19C6004E041F62423C0F219
:1058B0000B03DC604B69814219D046682EB1B56894
:1058C000854214BFF160B16004E041F62425C0F2C6
:1058D0000B05E96045694D6185681560C268CA605D
:1058E0004E60826802B15160C06800B14160012B16
:1058F0007AD141F6242B2246C0F20B0BDBF80C00C8
:10590000A0426FD04FF0010A4FF0000922465069C3
:10591000012867D1154655F8040F81688A422AD0BC
:105920004A693AB9C1F814A0C0F8149000F042F9DD
:10593000286881688A6812B15369012B12D1CB683B
:1059400073B35E69012E2BD012B15669012E09D1B5
:105950000846C3F814A0C1F8149000F015F928689F
:1059600081688A6843694B61C0F814A0C2F814A02A
:1059700000F020F92EE0C1684A693AB9C1F814A0D4
:10598000C0F8149000F000F92868C1688B6813B162
:105990005A69012A07D1CA6812B15369012B11D182
:1059A000C1F8149018E0CA6812B15669012E09D1E5
:1059B0000846C3F814A0C1F8149000F0FBF828685A
:1059C000C168CA6843694B61C0F814A0C2F814A04A
:1059D00000F0DAF80BF10C052A68DBF80C008242C3
:1059E0007FF495AF01205061B8F1000F0DD06068D1
:1059F00028B181688C4206D10021816005E041F622
:105A00002420C0F20B000021C16001B0BDE8F08F7E
:105A10002DE9F04F03AF81B0044641F62020C0F2DB
:105A20000B000078012812D141F62426C0F20B06A3
:105A30007168A1420BD83068A04208D9254655F8B4
:105A4000082D12F0010F02D014F0030F02D001B0A4
:105A5000BDE8F08F22F00109A9F10808414515D8E9
:105A6000404513D998F8002012F0010F0ED1A9F18A
:105A70000400FFF7A8FE59F8040C454654F8041C2E
:105A80000844083049F8040CD6E90001AA465AF83F
:105A9000042F0AF1040909EB0204A14229D8A0420B
:105AA00027D9207810F0010F20D1A04658F804BF64
:105AB0004046FFF788FE04EB0B0031680830814256
:105AC0000BD97168814208D8016849F0010211F0D0
:105AD000010F08BF29F001020260DAF80000D8F8CF
