:10000000011001002D00000020340000FF0000005E
:100010000211DCE4900230F0A3F022022C9C7E0559
:1000200090019DE06F6007EFF0E49001B7F0900160
:100030009DE070027E029001B7E004F0C39E500381
:100040007F00229001B7EEF07F01220225F753BA1C
:10005000FEE5B920E004E51D6005E5B930E1FBE40B
:10006000F5BF53B9FD53B9FEF51D220219EEBB01D0
:100070000689828A83E0225002E722BBFE02E32245
:1000800089828A83E49322BB010989828A83F8E00A
:1000900028F022500327F722BBFE05F8E328F322BD
:1000A0008A838982F8E4932822BB010689828A83A5
:1000B000F0225002F722BBFE01F322EF8DF0A4A83C
:1000C000F0CF8CF0A428CE8DF0A42EFE22BC000B25
:1000D000BE0029EF8DF084FFADF022E4CCF875F07E
:1000E00008EF2FFFEE33FEEC33FCEE9DEC9840055D
:1000F000FCEE9DFE0FD5F0E9E4CEFD22EDF8F5F023
:10010000EE8420D21CFEADF075F008EF2FFFED332A
:10011000FD4007985006D5F0F222C398FD0FD5F0A8
:10012000EA22C5F0F8A3E028F0C5F0F8E5821582D0
:1001300070021583E038F022BB0110E58229F582B8
:10014000E5833AF583E0F5F0A3E0225009E9258242
:10015000F886F008E622BBFE0AE92582F8E2F5F00F
:1001600008E222E5832AF583E993F5F0A3E99322D7
:10017000F8BB0111E58229F582E5833AF583E8F0C1
:10018000E5F0A3F0225009E92582C8F608A6F0227E
:10019000BBFE09E92582C8F2E5F008F222EF2BFF49
:1001A000EE3AFEED39FDEC38FC22C3EF9BFFEE9AF0
:1001B000FEED99FDEC98FC22E88FF0A4CC8BF0A426
:1001C0002CFCE98EF0A42CFC8AF0EDA42CFCEA8E29
:1001D000F0A4CDA8F08BF0A42DCC3825F0FDE98F4C
:1001E000F0A42CCD35F0FCEB8EF0A4FEA9F0EB8F43
:1001F000F0A4CFC5F02ECD39FEE43CFCEAA42DCE10
:1002000035F0FDE43CFC2275F008758200EF2FFF0D
:10021000EE33FECD33CDCC33CCC58233C5829BEDDE
:100220009AEC99E58298400CF582EE9BFEED9AFDE2
:10023000EC99FC0FD5F0D6E4CEFBE4CDFAE4CCF992
:10024000A88222B800C1B90059BA002DEC8BF08405
:10025000CFCECDFCE5F0CBF97818EF2FFFEE33FED3
:10026000ED33FDEC33FCEB33FB10D703994004EB8B
:1002700099FB0FD8E5E4F9FA227818EF2FFFEE3357
:10028000FEED33FDEC33FCC933C910D7059BE99A69
:100290004007EC9BFCE99AF90FD8E0E4C9FAE4CCFA
:1002A000FB2275F010EF2FFFEE33FEED33FDCC3364
:1002B000CCC833C810D7079BEC9AE899400AED9B4D
:1002C000FDEC9AFCE899F80FD5F0DAE4CDFBE4CC2C
:1002D000FAE4C8F922EB9FF5F0EA9E42F0E99D426C
:1002E000F0EC6480C864809845F022EB9FF5F0EA5A
:1002F0009E42F0E99D42F0E89C45F022E8600FEC58
:10030000C313FCED13FDEE13FEEF13FFD8F122E84B
:10031000600FEFC333FFEE33FEED33FDEC33FCD85B
:10032000F122BB010DE58229F582E5833AF58302CE
:1003300003805007E92582F80204CFBBFE07E925B8
:1003400082F802038CE58229F582E5833AF583027F
:1003500004DBBB010789828A830204065005E9F8A1
:10036000020508BBFE05E9F802041222BB010DE5F7
:100370008229F582E5833AF5830204065007E925D0
:1003800082F8020508BBFE07E92582F80204122262
:10039000E0FCA3E0FDA3E0FEA3E0FF22E2FC08E214
:1003A000FD08E2FE08E2FF22E0F8A3E0F9A3E0FA8C
:1003B000A3E0FB22E2FB08E2F908E2FA08E2CBF84C
:1003C00022BB010789828A830203985005E9F8025B
:1003D00004EBBBFE05E9F80203A489828A830204C8
:1003E000F87401FF3395E0FEFDFCA3A3A3E0CF2F3B
:1003F000F0E582158270021583E0CE3EF0E58215AD
:100400008270021583E0CD3DF0E582158270021501
:1004100083E0CC3CF022ECF0A3EDF0A3EEF0A3EFF0
:10042000F022ECF208EDF208EEF208EFF222A882D8
:100430008583F0D083D0821204351204351204353E
:10044000120435E473E493A3C583C5F0C583C8C51E
:1004500082C8F0A3C583C5F0C583C8C582C822D0B1
:1004600083D082E493F208740193F208740293F249
:1004700008740393F2740473A42582F582E5F035C1
:1004800083F58322FAE6FB0808E6F925F0F618E67C
:10049000CA3AF622E0FBA3E0FAA3E0F922EBF0A3CC
:1004A000EAF0A3E9F022E493FB740193FA74029357
:1004B000F922EC8EF0A4CCC5F0CCCDF8EFA4CEC5DB
:1004C000F02DFDE43CFCE8A42EC8C5F03DFDE43C65
:1004D000FCEFA4FFE5F028FEE43DFDE43CFC22E651
:1004E000FC08E6FD08E6FE08E6FF22E493FC740142
:1004F00093FD740293FE740393FF22E6FB08E6F972
:1005000008E6FA08E6CBF822E493F8740193F9744C
:100510000293FA740393FB22ECF608EDF608EEF66C
:1005200008EFF622E490020AF0EF70030205F212DF
:10053000003E90012812041E0000000090020AE014
:100540005403FF900208F0122EDC120A8090020B76
:10055000120406E4900209F090020B12038090024C
:1005600008E075F00CA424BEF582E43400F583C0E5
:1005700083C082900209E0D082D08375F004120417
:1005800068120406120AC9E0B403CD785EE6FFE4FF
:10059000FCFDFE90020B120A2A90020B1204069038
:1005A000020B12038090020AE025E025E02407F503
:1005B00082E43401F583120406900128120380902E
:1005C000020B12039812018D90012812040690026A
:1005D0000A120B28500302052CE4900209F0120BBA
:1005E0003694055012EF25E0242EF582E4340112F2
:1005F00009F0120AC980E79001391209F2E4900269
:1006000058F0900128120380120A5C9000AF120487
:10061000069000B512041E00000000E49000BBF03C
:10062000A3F07834120AEB7832120AEBE47836F24F
:1006300008F290012C1209F2E490013BF0A3F0A320
:100640001209F2A312041E001D4C0090014312096E
:10065000F2A312041E001D4C00900149740AF0E43C
:10066000900209F0120B3694035012EF25E0244A51
:10067000F582E434011209F0120AC980E7900153AF
:100680001209F29001961209F2E4900209F0120B9D
:100690003694205012EF25E02455F582E4340112FF
:1006A00009F0120AC980E79001511209F2900198ED
:1006B00012041E00000000229001FEECF0ED121466
:1006C00059400C9001FEE0FFA3E0A3CF0207EA909F
:1006D00000A9E025E024A3F582E43400F583E0FCE2
:1006E000A3E0FD123357900202EEF0A3EFF0900169
:1006F00050E0FF700CEF25E0244EF582E4340180D9
:100700000D900150E025E02448F582E43401120800
:1007100025900204120406900150E025E0244AF5D9
:1007200082E4340112082590020812040690015157
:10073000E0FEA3E0FF1214E4FEE4FCFD90020C12C4
:1007400004069002081203809001DD120406900254
:10075000041203809001E1120406900202E0FEA35D
:10076000E0FFE4FCFD9001E5120406D37837E29443
:10077000D018E2940750069001A2E070719001D069
:10078000E07002A3E070677FC812148E40028046BA
:10079000E47F3212148E500BE47F6E900208121424
:1007A000914042C3900203E09408900202E094005A
:1007B00040131214309001981204067F101230F783
:1007C0009001D28019D39001D3E094009001D2E03F
:1007D00094004002800F7F0F1230F79001D0EEF0AE
:1007E000A3EFF080091214309001981204069001D2
:1007F000981203801214E4900200F0A3EFF07B0142
:100800007A0179951214417420F09002001214D7E5
:100810007A017955122E5D7B017A0179557D20127E
:100820001EBB900196E538F0A3E539F0900200E098
:10083000FEA3E0FF22F583E0FCA3E0FD9001FEE0D3
:10084000FEA3E0FF123357E4FCFD227B017A01791D
:100850003FE4FCFD90020A7404F01228D390013D9D
:10086000EEF0EF12145940099002027405F00209EB
:100870003B300003020935900143E0FEA3E0FFC3D3
:1008800090013EE09FFF90013DE09EFE900200F04F
:10089000A3EFF0D39458EE648094824004E4A380E4
:1008A00028D3900201E0942C12152C9481400790DB
:1008B000020274058013D3900201E0949612152C65
:1008C000948040159002027408F07F0E1230F79069
:1008D00001C6EEF0A3EFF08072C3900201E094F144
:1008E00012152C947F40129001C6E07002A3E070B4
:1008F00008900202740AF08052900200E0FEA3E029
:10090000FFD3946AEE6480947F4005A3740780103F
:10091000D3EF94D4EE6480947E4009900202740672
:10092000F0E48019D3EF94A8EE6480947D400990A0
:1009300002027404F0E48005E4900202F09001C623
:10094000F0A3F080069002027403F0900202E0909F
:100950000149F090013DE0FEA3E0FFE4FCFD9002C0
:1009600002E090020AF07B017A0179451228D390C7
:1009700001FEEEF0A3EFF09001D4E07002A3E0706E
:10098000437F111230F79001D4EEF0A3EFF07A001C
:1009900079A912143F7403F07828E2FF08E2A3CF8C
:1009A000F0A3EFF07A0079A3122E5D7B017A017932
:1009B000501214417403F09001FE1214D77A017999
:1009C0004A122E5D9001FEE0FEA3E0FF221201A874
:1009D0009001FE1204069001D91203989001FE12B4
:1009E000038012023378081202EC9001FE12040612
:1009F0007F0FE4FEFDFC9001FE120398D30202DBA0
:100A0000F5837475F0A37430F02253BA0F43BA1013
:100A100075BBFF75A9C075AC0375ADC075AEC022BE
:100A2000120398900067E0FF02287190006BE0903D
:100A30002F519322E6FFE4FCFDFE1203981201A859
:100A400078070202EC9001FE120380C3EF940FFFBF
:100A5000EE9400FEED9400FDEC9400FC9001FE028B
:100A60000406E5BAF053BA0F43BA1022EF24D0FFC0
:100A7000EE348AFEED34FFFDEC34FFFC22EB25E082
:100A800025E02400F82225E025E02408F802038C64
:100A900012318290006BE0FF02287190024602033F
:100AA0008025E025E0244BF822A804A905AA06AB7E
:100AB0000722E47B32FAF9F8C30202DBFFF5AD8FBF
:100AC000AE53AACF2212041290024FE004F0221279
:100AD00004129001FFE004F022900209E004F022E9
:100AE000E0F5B3A3E0F5B2A3E0F5B12274017E0016
:100AF000A8030822120398C30202DB7475F208747B
:100B000030F222900067E0902F5193F5AB22E4F58C
:100B1000AB02318290025102038090024A1203809C
:100B2000900246229002021203809001FE2290025F
:100B3000021203809001FE22E004F0C39408229088
:100B400001FFE025E022900209E0FFC3229001FEB0
:100B500012040612145B40619001FE1203809000A3
:100B60009112040690009512041E00000000E4900B
:100B70000206F0900206E0FFC39404503CEF75F0CB
:100B80000CA424C6F582E43400F583120398C00057
:100B9000785EE6FFE4FCFDFED000121486900206AB
:100BA000E025E025E024EFF582E43400F58312042B
:100BB00006900206E004F080BA9000FF12041E00C6
:100BC000000000900095120398900091121453C0F9
:100BD00004C005C006C0079000951203989001FE5E
:100BE00012145390021012040690021412041E00F4
:100BF000010000D007D006D005D0041222B5900025
:100C0000991204069000FF120398900202121453E6
:100C1000C004C005C006C00790021012041E0001E7
:100C20000000900099120380900214120406D0076D
:100C3000D006D005D0041222B59002081204069006
:100C400000FF12038090020812143990010312046D
:100C500006201A05900103802A900127E0FFC39423
:100C6000045005EF24048006900127E024FC900244
:100C700007F0900207E025E025E02407F582E43440
:100C800001F5831203809002081204067A01792785
:100C90001214AE7408F09002081203801214D17A74
:100CA000017907122E1B7B017A0179077D08121A40
:100CB000CBAF41AE40AD3FAC3E22E4900200F0EF3E
:100CC0007003020D5612003EE49001FFF09001FF08
:100CD000E0FFC394005010EF120A9112044F00007D
:100CE0000000120AC280E6123182E49001FFF09007
:100CF00001FFE0C394005014E0FF120A91C00012FB
:100D0000286212018DD000120ABF80E39002001207
:100D10000B2840D3E49001FFF09001FFE0C3940062
:100D20005044A3E0FFE4FCFDFEC004C005C006C0C3
:100D3000079001FFE0120A9112038CD003D002D079
:100D400001D0001202339002011204069001FFE06C
:100D5000245BF8900201120A24120B2F25E02408CC
:100D6000F8120ABF80B3E49001FFF09001FFE0FFAA
:100D7000C394004003020E02EF120A76E47B107A5D
:100D800027120AA69001FFE0FB5027120A76EF24F3
:100D9000F0FFEE34D8120A63EB25E025E0243FF89B
:100DA000120412120B2F2410F87427F2087410F298
:100DB000801D25E025E0243FF812044F00000000CC
:100DC000EB120A76120B2F2410F8EEF208EFF290D5
:100DD00001FFE0FB120A9112044F00000000EB2516
:100DE000E02457F8E4F208F29001FFE0FF25E02448
:100DF00010F8E2FC08E2FDEF25E02414F8ECF2081C
:100E0000EDF2E025E02418F8E4F208F2E004F00244
:100E10000D5B229001FDEEF0A3EFF0E4A3F0D39080
:100E200001BFE094009001BEE094004006121C4215
:100E3000020F15300054121C02400890013BECF0E8
:100E4000A3EDF0121BB05005121BA34003020E913C
:100E5000121BCA502F9001CBE064016027782890C4
:100E6000009D121BE8120F4E400F9001FDE013FE93
:100E7000A3E013D3121BDC500BA215301401B340B6
:100E800003020F1B121BF3020F15121BB0500512A9
:100E90001BA34013121C02400890013BECF0A3ED91
:100EA000F0121BF3020F1B9001CBE0B4010990017B
:100EB00096121BF6020F159000B5120398C0007829
:100EC00032E2FE08E2FFE4FCFDD00012018D90004A
:100ED000B5120406121BCA50317828E2FE08E2FF60
:100EE00090009DE0FCA3E0FD120F4E501DA21530B6
:100EF0001401B340159001C2E0FEA3E0FFD39001BE
:100F0000C1E09F9001C0E09E40219000BBE0FEA3A5
:100F1000E0FFFBAA06E4F9F89000B5120380120284
:100F200033EE121BFB9001FF7401F09001FFE060B3
:100F30002CE49000BBF0A3F09000B512041E00005A
:100F40000000E490013BF0A3F0121C42E49001CBBE
:100F5000F09001C9F0A3F09001C0121BC22212331D
:100F600057D3EF9414EE9400229001FDEEF0A3EF1E
:100F7000F0E4900200F09001FFF09001FFE0FBC36D
:100F80009400400302103A9001BDE094009001BC2F
:100F9000E0940040109001FF12221E12044F000046
:100FA0000000021031EB25E02458F9E3700219E348
:100FB000700812223212229F80309001FFE0FD253E
:100FC000E02453122253ED122237123357C39001FB
:100FD000D8E09F9001D7E09E501012223212229F3B
:100FE00012221E12044F000000009001FFE01222A6
:100FF0002AC00012038CC006C0079001FFE025E064
:101000002410122293D007D00612018DD0001204B2
:10101000129001FFE0FF25E02457F808E22401F2D6
:1010200018E23400F2EF25E02458F99001FDE0FECB
:10103000A3E0FFC3E39F19E39E4006900200E00493
:10104000F09001FFE004F0020F6A900200E070648B
:101050009001FFF09001FFE0FFC394005054EF2592
:10106000E024571222534E6049E4FCFDC004C00541
:10107000C006C007E012222A12038CD003D002D08F
:1010800001D0001202339001FFE0FD25E02414F8A6
:10109000EEF208EFF2ED25E02457F8E4F208F2ED65
:1010A00012222A12044F000000009001FFE004F019
:1010B00080A2C217229001A7E475F001120112D399
:1010C0009001ACE094009001ABE094004003123238
:1010D00019D39001AEE094009001ADE0940040037C
:1010E000123219D39001B0E094009001AFE0940067
:1010F0004003123219D39001BDE094009001BCE08E
:1011000094004003123219D39001B6E0940090018C
:10111000B5E09400400F1232199001B5E07002A3BF
:10112000E07002D210D39001B4E094009001B3E0DB
:1011300094004003123219D39001B2E09400900160
:10114000B1E0940040031232199001A1E030E011A7
:10115000E49001BEF0A3F0A3F0A3F0A3F0A3F0800D
:1011600042D39001BFE094009001BEE09400401A89
:101170001232199001BEE07002A3E0700D7F0D12D3
:1011800030F79001C2EEF0A3EFF0D39001C3E094EA
:10119000009001C2E09400400A9001C0E475F001A3
:1011A000120112D39001C7E094009001C6E09400B0
:1011B0004003123219D39001D1E094009001D0E0A5
:1011C00094004003123219D39001D3E094009001AF
:1011D000D2E094004003123219D39001D5E094007C
:1011E0009001D4E09400400312321922439F04E49A
:1011F00053C6DFE5C600B5C6F37583007582077573
:10120000FD0DE4E5FEF4FF75830075820675FD0DA6
:10121000E4E5FEB50704F59E8003759E0078100096
:1012200000D8FC53C6E043C60843C68075960775D0
:10123000970575830075820475FD0DE5FD0404F5C1
:101240008F75830075820375FD0DE4E5FEF4FF756F
:10125000830075820275FD0DE4E5FEB50704F59582
:10126000800375958375BE0E5392FE9001007F003A
:101270007E02E4F0A3DFFCDEFA78007F00E4F208EF
:10128000DFFC78FFE4F6D8FD7581C50212BC0200D0
:1012900000021F70E493A3F8E493A34003F68001D7
:1012A000F208DFF48029E493A3F85407240CC8C3A0
:1012B00033C4540F4420C8834004F456800146F6DA
:1012C000DFE4800B010204081020408090323DE4EE
:1012D0007E019360BCA3FF543F30E509541FFEE438
:1012E00093A360010ECF54C025E060A840B8E493FA
:1012F000A3FAE493A3F8E493A3C8C582C8CAC5833C
:10130000CAF0A3C8C582C8CAC583CADFE9DEE780C0
:10131000BEE49001FDF09001FDE0C39400503FE079
:10132000FE75F008A4246BFBEE25E025E02408F808
:1013300012038C78041202ECAD07AC06AF03123333
:10134000BD9001FDE0FE75F008A42467FFEE25E0E6
:10135000241CF812141A9001FDE004F080B87F7B81
:10136000785DE6FD7C001233BD7F77C007782412DC
:10137000038CAD07AC06D0071233BD7F83900143C9
:10138000E0FCA3E0FD1233BD7F7F900153E0FCA39E
:10139000E0FD1233BD7F85902F62E493FC740193CE
:1013A000FD1233BD7F87902F6274019324E2FDE428
:1013B0009334FFFC1233BD7F897D647C001233BD02
:1013C0007F8F3018187D397C301233BD7F8D7D3989
:1013D0007C301233BD7F917D397C30801A78321297
:1013E000141A7F8D7836E2FC08E2FD1233BD7F913E
:1013F0007834E2FC08E2FD1233BD7F9FC007900104
:10140000DD1232CBD0071233BD7F9DC0079001E1C2
:101410001232CBD0071233BD7FA1C0079001E51275
:1014200032CBD0071233BD022BEDE2FC08E2FD12F5
:1014300033BD22E47FE87E03FDFC1203980201A87D
:1014400090019812038090020C12039802018D7B88
:101450000190021312048D90021622A804AA06AB72
:1014600007A90512038002019AA3F0D39001AEE010
:1014700094009001ADE094002290021812040690AE
:101480000210120398900218120380020233FFE444
:10149000FCFDFE1203A41201A878070202EC9002E0
:1014A00004FEFDFC120398C30202C59001FDE07525
:1014B000F00CA424BEF9740035F0FA7B01227B0104
:1014C00090020F12048D90021222900213120484D3
:1014D00002005E25E02418F8E2FE08E2FF22120373
:1014E0008C900213020406E0FFA3E0900217CFF0F5
:1014F000A3EFF022C39001FFE09FFF9001FEE09E6A
:10150000221202EC8F278E268D258C2422120406AF
:10151000E47FFF7EFFFDFC2225E02414F8E2FC08B6
:10152000E2FD22120406900214020380F8EEF20893
:10153000EFF2221204069000AF020380900200E056
:1015400064802212003E900250120A52E490024E31
:10155000F090024EE0FFC394005013EF120A6E1297
:10156000044F0000000090024EE004F080E390027F
:101570004E7405F012317FE490024FF090024FE07C
:10158000C394005014E0FF120A6EC00012286212C9
:10159000018DD000120AB580E3120AFEE490024FDA
:1015A000F090024FE0FFC39400502FEF120A6EC07C
:1015B0000012038CC004C005C006C00790024FE0B3
:1015C0002463122868120A99D007D006D005D004E7
:1015D00012019AD000120AB580C790024EE014F0B2
:1015E000E07091E490024FF090024FE0FBC3940052
:1015F000505190025112041E00148200120B04126A
:101600000A6D1203A4120233900251120406120B47
:10161000049002071204067F807E007D007C001289
:101620002FFB120AA2500B90024FE0245BF8768049
:10163000800C120B0490024FE0245BF8A607120AFC
:10164000B880A5900250E0F5BA22E4FDEDC3940005
:101650005029ED25E03005092472F582E4342F800D
:1016600007245AF582E4342FF583E493FE74019342
:10167000122210EEF0A3EFF00D80D1E4FDEDC39443
:1016800000400302173274017E00A805088005C3DC
:1016900033CE33CED8F9FF90019FE0FBEF5B7003B0
:1016A00002171AED25E0245B12225312225A402A17
:1016B000D3EB942CEA9401ED400E25E0245BF87402
:1016C00001F208742CF2801225E0241C122253ED42
:1016D00025E0245BF8EEF208EFF2ED25E0246AF550
:1016E00082E4342FF583E493FE740193FFED25E04B
:1016F000241DF9D3E39F19E39E4043122279CEC300
:1017000013CE13D8F9122210E0FAA3E0D39FEA9E79
:101710004009122211E0FEA3E0800A122279CEC312
:1017200013CE13D8F912226A8014122211E0FEA3FC
:10173000E012226AED25E0245BF8E4F208F20D02E3
:10174000166D229002447407F0FB90024612041EAC
:101750000000000012003E900244E0FF601F740190
:101760007E00A807088005C333CE33CED8F9FFAD7D
:10177000ACEF5D7008900244E014F080DAEB601684
:10178000120ADC8005C333CE33CED8F9FFADAEEFFD
:101790005D70031B80E7900244E0FF7401A8070816
:1017A0008002C333D8FCF5AC7401A803088002C3DF
:1017B00033D8FC120AAC900245120A52123182E46C
:1017C000900244F0900244E0FFC39400501F12289E
:1017D0006590024A120406120B0A120AE45006121D
:1017E0000B0A120406900244E004F080D7900246EF
:1017F000120398C000120A8B78031202ECD0001278
:10180000018D900246120406120A8B783A120412D5
:10181000120A8B78101202EC8FB3120A8B7808121E
:1018200002EC8FB2120A8B8FB143AA30900245E0CE
:10183000F5BA120A0622E49001FEF09001FEE0C320
:101840009400400302190EE0FF121508EF25E02472
:10185000101214C7D39DEE9C4014E0121508C3EF7C
:101860009DFFEE9CFEE4FCFDA3120406800A90019D
:10187000FF12041E000000009001FF120380780791
:101880001202FF9001FF1204069001FEE01214C341
:10189000E4FCFD78071202FF900203120406900197
:1018A0009DE070157F03FEFDFC9001FF12142A904D
:1018B00002031214397802800E9001FF1203809007
:1018C000020312143978011202EC9002031204068A
:1018D00090020312038078071202EC9001FEE0FDF3
:1018E00025E0241812151CED1214C37C007D64122F
:1018F00004A2C006C007E025E02447F8E2FE08E2A3
:10190000FBAA06E4F9F8D007D0061202339001FED4
:10191000E025E0241C12151CE004F002182B22E440
:101920009001FEF07A0079901214AE7403F07820E2
:101930001214CE7A007984122E1B7B017A007984EE
:101940001219D27B32FAF9F8C31202DB5006900169
:10195000FE7401F0900258E09001FDF0E49001FF68
:10196000F012149BC002C0017A0079EE1214B07418
:1019700003F0782A1214CED001D002122E1B1214BA
:101980009B1219D27BF47A01F9F8C31202DB5006DC
:101990009001FF7401F030000E9001FEE07004A38E
:1019A000E06004D21A8038C21A785DE678201214FA
:1019B0007E7824120412782412038CEC4D4E4F7062
:1019C000037F0222785EE6782A12147E782E1204B3
:1019D00012782E12038CEC4D4E4F70037F02227F43
:1019E00004227D03121ACBC3E539953DFFE53895F6
:1019F0003CFEE537953BFDE536953AFCE422C0E038
:101A0000C0F0C083C082C0D075D008C2CFD2113020
:101A1000CD03021AC020CC6130CB2385CE54E554CF
:101A2000C39480401675F003E554902AC5120468EB
:101A30001204968B518A5289538079021AB685CE48
:101A400035E5547022E535B41009900259E0F4529E
:101A500080807BE535B42008900259E04280806E9A
:101A600085354605548067E554C3940A500774468B
:101A70002554F8A63505548055E554B4C00575467F
:101A8000C0804BE554B4C1107858E630E105754686
:101A900090803B7546918036E554B4C2107858E684
:101AA00030E2057546A080267546A18021E554C325
:101AB000948040107851E475F00112047412005EB5
:101AC000F5CE800A0554E5502554F8E6F5CED2103F
:101AD000D0D0D082D083D0F0D0E03290020C12046B
:101AE0008D90020FEDF0E4F528F527F526F5257425
:101AF000FFF52CF52BF52AF529E4F530F52FF52E19
:101B0000F52DF52490020FE0FFE524C39F5070905F
:101B1000020C12048475F004E524A4F58285F08398
:101B20001203128F348E338D328C31AF28AE27AD35
:101B300026AC25D3123232400C85342885332785D4
:101B40003226853125AF2CAE2BAD2AAC29C31232FB
:101B500032500C85342C85332B85322A853129E58A
:101B6000302534FFE52F3533FEE52E3532FDE52DEA
:101B700035318F308E2F8D2EF52D0524021AF485E8
:101B80002839852738852637852536852C3D852BB0
:101B90003C852A3B85293A853041852F40852E3F5B
:101BA000852D3E90020FAF30AE2FAD2EAC2D1232F0
:101BB0002022D39001B0E094009001AFE094002285
:101BC000D39001AEE094009001ADE0940022F0A328
:101BD000F0A3F0A3F0A3F0A3F0229000BBE475F013
:101BE000011201129001FDE0FEA3E0C3FF9000BCD2
:101BF000E09F9000BBE09E22E2FE08E2FFE0FCA333
:101C0000E0FD2290013BE0FFA3E0CF7834F208EF43
:101C1000F22290013BE0FEA3E0FF90012CE0FCA348
:101C2000E0FDD39FEC9E229001C9E475F001120102
:101C300012FCD3E5F09FEC9E22FEC37839E29F1898
:101C4000E29E22E29DFF18E29CFE9001FDF0A3EFD0
:101C5000F0227828E2FF08E290009DCFF0A3EFF099
:101C600022D39001B2E094009001B1E09400229060
:101C70002F62E493FE740193FF22902F627401930C
:101C8000227B077A079001FE12041E00000000125A
:101C9000003EEB6016120ADC8005C333CE33CED88B
:101CA000F9FFADACEF5D70031B80E7EA601A7401C9
:101CB0007E00A802088005C333CE33CED8F9FFAD2D
:101CC000AEEF5D70031A80E3AF037401A8070880CC
:101CD00002C333D8FCF5AC7401A802088002C333F8
:101CE000D8FC120AAC43AA049001FD120A52120A4F
:101CF0001B42AB120A80900202120406120B1E1243
:101D00000AE45006120B1E1204069001FE120398FC
:101D1000C0009001FE12038078031202ECD0001282
:101D2000018D9001FE1204069001FE1203809000C6
:101D3000AA12040643AA3053AAFB9001FDE0F5BAAB
:101D4000120A1BF452AB120A0622E4900209F0EFC9
:101D5000607812003E90007C12041E000000001209
:101D6000318290007C120A1012018D90007C1204C6
:101D700006900209120B2840E6E0FFFBE4FAF9F8AE
:101D800090007C12038012023390020A120406783B
:101D90005D90020A120A247824120412E4900208C8
:101DA000F0900208E0FBC39403501F90020A120354
:101DB00080EB25E025E02484F582E43400F58312ED
:101DC0000406900208E004F080D7782412038C12F5
:101DD0000A5C90007812040690009D1209F2A3128A
:101DE000041E001D4C00E4900208F0900208E0FF81
:101DF000C394035015EF25E024A3F582E4340012C8
:101E000009F0900208E004F080E17828120AEB2241
:101E10007B077A079001FE12041E000000001200EA
:101E20003EEB6016120ADC8005C333CE33CED8F900
:101E3000FFADACEF5D70031B80E7EA601A74017EB2
:101E400000A802088005C333CE33CED8F9FFADAE6B
:101E5000EF5D70031A80E3AF037401A807088002E6
:101E6000C333D8FCF5AC7401A802088002C333D890
:101E7000FC120AAC9001FD120A52123182120A13AE
:101E8000900202120406120B14120AE45006120BFE
:101E9000141204069001FE120398C0009001FE1275
:101EA000038078031202ECD00012018D9001FE1223
:101EB00004069001FE12038090007312040643AAE8
:101EC000309001FDE0F5BA120A06229002101204C9
:101ED0008D900213EDF0E4F525F52674FFF527F556
:101EE00028E4F52EF52DF52CF52BF524900213E0C2
:101EF000FFE524C39F505990021012048475F0022C
:101F0000E524A4F58285F083120128F52A85F029BD
:101F1000D39526E52995254006852925852A26C3BA
:101F2000E52A9528E52995275006852927852A2819
:101F3000E4FCFDE52E252AFFE52D3529FEED352CA7
:101F4000FDEC352B8F2E8E2D8D2CF52B0524809CB2
:101F5000E4852639852538F537F53685283D8527EA
:101F60003CF53BF53A852E41852D40852C3F852B50
:101F70003E900213AF2EAE2DAD2CAC2B1232202290
:101F80001231A81233F71233DD1223DE1232A212FD
:101F9000302E122F17D2AF751C01E51C24FE601ED7
:101FA00014603614605314605D2404706A1233CDDB
:101FB0001233831233991233297F04122E9ED2D802
:101FC000E49001A7F0A3F0900230F0A3F01227E90B
:101FD000E51D70FC1231D08039D2D8E51D70FC129D
:101FE000190F8F1C12234F900258E09000BDF09003
:101FF000025804F01231D08021122FC38F1C12130B
:10200000011210A5801430010312246912216B12F1
:102010002A10751C038003751C01123402E51C6430
:10202000047003021F8A12201C021F8A20CA0302A6
:1020300020C4E54670030220C4E4FF74462FF8E68E
:10204000FE74FE2FF582E43401F583EEF0E4F60F22
:10205000EFB40AE79001FEE0FF54F0FEEF540F905A
:1020600001FDF0AF06EF24A0601724F0601B24D020
:10207000602E24E0605B2470705A7858E64401803A
:10208000057858E654FEF68044E4785AF6FF123399
:1020900012785AEFF67856BFFF0376012276FF22B8
:1020A0009001FDE0FD70127858E630E22754FBF60F
:1020B0009001D6E04408F08014EDB401177858E69A
:1020C00020E2114404F69001D6E04404F0751C02AD
:1020D00022122CEB2212003E9001FE120A527820AE
:1020E00012044F000000009001FD7405F012317FD2
:1020F00078201203A4120A1312018D782012041200
:10210000120AFE782012038CC004C005C006C00766
:10211000120A13120A99D007D006D005D004120172
:102120009A78201204129001FDE014F0E070BE785D
:10213000201203A47F007E5C7D447C001202339059
:1021400001FF1204069001FF12038090020712049F
:10215000067FB47E007D007C00122FFB120AA25085
:1021600006785D76B4800A9001FF120380785DA640
:10217000079001FEE0F5BA120AF3229001A1E09067
:1021800001A6F0121BB05005121BA34007E49001FA
:10219000A1F080081224EF9001A1EFF09001A1E0DE
:1021A000FF122F8AEF700A121BB05005121BA340BA
:1021B0006E9001A2E0702E12267B7F021230F71281
:1021C0001C51401E30140DEF7803CEC313CE13D82C
:1021D000F9FF800EEEC4F854F0C868FEEFC4540F47
:1021E00048FF120E039001A2E0FFA3E06F603012DF
:1021F0002D389001A4E030E420121BA25005121BE0
:10220000B14009E49001BEF0A3F0800D7F081230C8
:10221000F79001BEEEF0A3EFF09001A2E0A3F02250
:10222000FFED25E024FDF582E43401F58322E0FF93
:1022300025E02457F8E4F208F2EF25E025E0244BEE
:10224000F8229001FFE0FF25E02410F8E2FC08E20C
:10225000FD229001FEE025E024B8F582E43401F58A
:1022600083E422F8E2FE08E2FF22ED25E0241CF8D8
:10227000E2FA08E2FBD39FEA9E22FFED75F008A484
:102280002465F8A60608A60722ED25E0245BF9E3FD
:10229000FE09E3780222EE25E0241DF9C3E39D192F
:1022A000E39C22F8E2FE08E2FBAA06E4F9F822EF3A
:1022B00025E02453F8ECF208EDF222ED2404FF743B
:1022C00001A807082290020C120406E47BE87A03B6
:1022D000F9F890020C12147890021C120406900275
:1022E0001C12142390020C12144B9002201215138E
:1022F00090021C12142A12146990022412040690EF
:10230000021012038090022412142A900218121450
:102310004B90022812151390022012142A900218D2
:10232000120406900218120398C000C001C002C037
:1023300003900228121423D003D002D001D000123F
:10234000018D12146990022C120406E47FE87E03CA
:10235000FDFC90022412142A90022C12143922300F
:1023600011151233EA745AF07F0C1230F79001B352
:10237000EEF0A3EFF0C211A2149215200125300255
:10238000028020D39001AEE094009001ADE0940073
:1023900050119001B4E094009001B3E09400500318
:1023A00020100A1233EA745AF0C21480081233EA79
:1023B0007403F0D214301408E4FF1230C5123283D3
:1023C000A215301401B350179001A2E06004D21698
:1023D000800D7F031230F79001B1EEF0A3EFF09083
:1023E00001A2E07008301603122CEBC21622E4FFA3
:1023F0001233127856BFFF047601800276FFE4782C
:1024000055F67857762D08F6785AF6FFEFC3940004
:102410005039EF25E0245AF582E4342FF583E49314
:10242000FC740193FDEF75F008A42465F8A6040878
:10243000A605EF75F008A424671232D3246912327E
:10244000D3246BF8E4F608F60F80C1902F62E49372
:10245000FE740193FF7885A60608A607EF24E278AC
:1024600088F6EE34FF18F678897600087664E41270
:1024700032C01232C07550552212163A122B91906A
:10248000019CEFF012000EEF607490019DE0703E31
:10249000123154122A747F011230F7D39001ACE04C
:1024A00094009001ABE0940040028011301702804C
:1024B0000CC37860E2941E18E29400500EEEC4F84B
:1024C00054F0C868FEEFC4540F48FF120F59900132
:1024D0009DE0FF122AD690019DE0FFA3E06F601EF1
:1024E00012257390019FE054F0600D7F071230F7C2
:1024F0009001BCEEF0A3EFF090019DE0A3F022E488
:102500009001FDF09001A2E07046121C51403790FE
:102510000139E0FEA3E0FF90012DE09FFF90012C28
:10252000E09EFEE4FCFD9001FE120406121C5F7C9E
:10253000007D031200ABE4FD9001FE120398D3125C
:1025400002C54035802C121C5F121C2A402B8022B1
:10255000301610121C6A25E0FFE49333121C294048
:1025600018800F121C6A24E2FFE49334FF121C2926
:1025700040079001FDE04401F09001FDE0FF900272
:1025800057F0229001FDEFF0E4FAFE9001D6E070E2
:1025900075FDEDC3940050667401A805088002C360
:1025A00033D8FCF99001FDE059FC90019EE0596C94
:1025B00060079001D6E04401F090019EE059600D63
:1025C0001222AB8002C333D8FC4AFA800D7401A8F2
:1025D00005088002C333D8FC4AFA9001FDE0596037
:1025E0000F7401A805088002C333D8FC4EFE800B8F
:1025F0001222AB8002C333D8FC4EFE0D8094AF068E
:10260000EA5F90019FF022C0E0C0F0C083C082C0AA
:10261000D075D01053B9FDE51D64017025FBEBC3E7
:102620009400500F74632B122868120A6D12041262
:102630000B80EB7F0112326043B901D2D8751D02C5
:10264000803EE51D6402701F120A137820120412E6
:102650007F011232DE900258E0FF122EDC43B901F6
:10266000D2D8751D068019E51DB40614120A8378A8
:102670002A120412120A1BF452AB53AAFB751D0056
:10268000D0D0D082D083D0F0D0E0329001BEE070C4
:1026900002A3E07071300031783490012C121BE8F5
:1026A000C39FEC9E5021C3121C33C3121C6A9FE4CB
:1026B000939E50497F051230F7EEC313FEEF13FFD0
:1026C000121C174041802E80347834E2FE08E2FF6D
:1026D0007832E2FC08E2FDC39FEC9E5022C37835BD
:1026E000121C33D39432EE940040127F051230F75F
:1026F000121C1740119001CB7401F080028000E49D
:102700009001C9F0A3F0229001FE121523AB07AA95
:1027100006A8049001FE1214519002041214FD90B8
:102720000204120398D31202C5400A900204120454
:102730001E0000FFFF900204120380900202EEF0E0
:10274000A3EFF07A01793812143F7405F0A3EEF08C
:10275000A3EFF07A01792E122E5DA215301401B389
:1027600050157B017A01792E7D05121EBB9001392F
:10277000E544F0A3E545F0900202E0FEA3E0FF226D
:10278000782E12038C900202120406782412038C15
:10279000120B3D900128121523900128120398C3B3
:1027A0001202DB50037F02229001281203801226BE
:1027B000F790012CEEF0A3EFF0900143E0FFA3E0CF
:1027C000900151CFF0A3EFF090012CE0FEA3E0FFC9
:1027D00012083B900143EEF0FCA3EFF0FD7828E2F5
:1027E000FE08E2FF1206A8900153EEF0A3EFF07886
:1027F00032EEF208EFF27F05227858E6F520A208C3
:10280000300001B350147F041230F79001AFEEF0A6
:10281000A3EFF0122CEBA2009208A20A300201B33F
:102820005004A202920A301305122CEBC213A20D1F
:10283000300501B3503BE4FFEFC39400502FEF2568
:10284000E03005092472F582E4342F8007245AF51C
:1028500082E4342FF583E493FC740193FDEF75F06B
:1028600008A42465F8A60408A6050F80CBA205924B
:102870000D221203A474632FF582E43400F583E083
:10288000FFEFC39404500553B9EF800343B910EF31
:102890006003B4040B85B71985B61A85B51B803A59
:1028A000EF64016004EFB4050B85EB1985EA1A8526
:1028B000E91B8026EF64026004EFB4060B85F31970
:1028C00085F21A85F11B8012EF64036004EFB407F0
:1028D0000985FB1985FA1A85F91BAF1BAE1AAD19CC
:1028E000AC182290020612040690020312048D9086
:1028F000020612038078061202FF900206120406F6
:1029000090020AE0FF74017E00A807088005C33327
:10291000CE33CED8F924FFFFEE34FFFE3395E0FD31
:10292000FC1203B11201A890020612143990020A97
:10293000E0F9F81214F1900203120484120342AF7A
:1029400027AE26AD25AC2478061214F1229001D6CC
:10295000E0540360031229889001D6E054FCF09003
:1029600001A4E0540FFF60289001D6E0FE30E2069B
:102970007864A6078010EE30E31D9001A4E0540FA8
:10298000C454F07864F6E47855F6201803122988C8
:102990009001D6E054F3F022C2107F091230F79074
:1029A00001B5EEF0A3EFF0C2927F217E007D007CA6
:1029B000001232FAD29222E4FF90019DF0A3F0902F
:1029C00001B7F09001BCF0A3F090019FF0A3F0C21A
:1029D00017EFC39400501BEF25E0244712223B90D1
:1029E00001D7EC8DF0120112EF122246F0A3F00F86
:1029F00080DF9001D7E0FEA3E0FF7C007D001200A5
:102A0000BD9001D7EEF0A3EFF09001D7E0FEA3E078
:102A10007802CEC313CE13D8F9F0EE9001D7F0228E
:102A20009001A0E0FF90019FE0FE6F601D9001A566
:102A3000E0FD9001A4E0FC6D60103001047855A623
:102A4000063002337864A604802D90019FE0FE6F6B
:102A5000600D3001227855A606E47864F68018905F
:102A600001A5E0FF9001A4E0FE6F600B3002087842
:102A700064A606E47855F690019FE0A3F09001A4C7
:102A8000E0A3F022E49001FDF09001FDE0C394008A
:102A90005053E0FF25E0241412223BEF25E02410E0
:102AA000122253C39DEE9C5034E025E02415F8C358
:102AB000E29FFF18E29EFE7C007D641204A2C00625
:102AC000C007E025E02447122293D007D006120267
:102AD00033D3EF940AEE94004003D217229001FD05
:102AE000E004F080A4229001FDEFF0E4A3F0900157
:102AF000FEE0FFC39400504B74017E00A8070880DD
:102B000005C333CE33CED8F9FF9001FDE0FDEF5D74
:102B100060237F061230F712224275F00112011273
:102B2000FCD3E5F09FEC9E4012E490019CF0A3F0F2
:102B30001233FD8006122242F0A3F09001FEE00461
:102B4000F080AB22E49001FEF09001FEE0FFC39420
:102B500000504BEF25E025E0243FF81203A4C0000D
:102B60009001FEE025E025E02408F812038CD00057
:102B700012019A9001FF1214FD9001FF120398C3F5
:102B80001202DB40037F02229001FF1203809001BA
:102B9000FEE025E0241012151CE004F080AB7F0558
:102BA00022E4FFFEEEC39400504D90019DE07021A1
:102BB000EE75F008A42465F8E6FC08E6FD1222860E
:102BC00040327401A806088002C333D8FC4FFF804E
:102BD00023EE75F008A42466F8E624FBFD18E6341D
:102BE000FFFC122286400D7401A806088002C33340
:102BF000D8FC4FFF0E80AD900255EFF022E47FB37A
:102C00007E06FDFC78201203A41209BD4003120ABF
:102C1000357FFF1209E2400678C576FF800A9001F1
:102C2000FE12038078C5A607E47FB37E06FDFC9004
:102C300000C61203981209BD4003120A35E47FFF53
:102C40001209E34005789376FF229001FE1203807B
:102C50007893A60722FE0010FE0028FE0032FE0038
:102C600014FE0034FE0018FE0036FE001CFE003884
:102C7000FE0000FE0020FE002AFE0008FE0024FEEA
:102C8000002E0000000101DD0101E50101ED01015F
:102C9000F50100910100950100990101030101284E
:102CA00001012C01013D010143010153C0E0C0F0CD
:102CB000C083C082C0D075D000C000C28D758C3278
:102CC000758AEB900230E475F001120112C3900294
:102CD00031E09414900230E0940040129001A7A3D8
:102CE000E0785FF69001A7E4F0A3F0120004D000B2
:102CF000D0D0D082D083D0F0D0E032E51D70FCE49B
:102D0000FF121D3AE4FF120514E49001A2F09001B5
:102D1000A4F09001C8F09001BE121BBE9001C6F055
:102D2000A3F09001D4F0A3F09001CC121BBEA3F04D
:102D3000A3F0200005121BA2400D7F041230F79073
:102D400001AFEEF0A3EFF022A907E4FEFD9001D65B
:102D5000E0FC703FEF5401FB9001A3E054016B6075
:102D60000D30020A201807EC44029001D6F09001C1
:102D7000A3E030E006EE4410FE8004EE4401FEE9DC
:102D800030E006ED4401FD8004ED4410FDEE5D9061
:102D900001A4F0229001D912041E00000000E4FFFB
:102DA00012326075ABFF1231829001D9120A1012F3
:102DB000018D9001D9120406120AFE9001D9120366
:102DC00080C004C005C006C007120A13120A99D0B9
:102DD00007D006D005D00412019A9001D90204064A
:102DE000E4FFEFC39400501A783EE2FE74632FF5BF
:102DF00082E43400F583E0902F5193FDEE4DF20F05
:102E000080E0900067E0902F5193FF900077F09062
:102E1000006BE0902F5193FE9000AEF0783EE24FB1
:102E20004E42D442F442E4F452DC229002131203E4
:102E300080C003C002C00190020F1214BD75F004DF
:102E4000A4F58285F083D001D002D00312035C90F8
:102E5000020F120484740112007790020F1214BD45
:102E6000FF900212E0B50704E412009922900217C5
:102E7000E0FEA3E0FFC003C002C0011214BA75F067
:102E800002A4F58285F083D001D002D003EE8FF04A
:102E9000120160900213120484740112007712145C
:102EA000BAFF900216E0B50704E412009922EF6021
:102EB00003D38001C392099201EF6003D38001C361
:102EC000920A92027858A6079001A9E4F0A3745AD6
:102ED000F07F0A1230F79001ABEEF0A3EFF07F0B1A
:102EE0001230F79001ADEEF0A3EFF022900258E01F
:102EF000D394034002E4F0EF1460121460171460DE
:102F00001D24037021120A1BF452AB800D120A1B00
:102F1000F452AB800E120A1B42AB53AAFB22120AD8
:102F20001B42AB43AA0422E4FFEFC394005020EFFE
:102F300025E0247AF582E4342FF583E493F87401D4
:102F400093FDEF25E02447C8F208EDF20F80DA90F8
:102F50002F82E493FF7401939000B3CFF0A3EFF0BE
:102F60002201020408102040805303E803E8003CDB
:102F7000003C00C8003C003C003C00780078003C6D
:102F8000003C03E803E8003C003C0064006400648B
:102F9000006400640064006400647E05EF5401FD79
:102FA0009001A2E054016D6007EFF0E49001C8F0D9
:102FB0007858E630E0089001A2E070027E0A9001A5
:102FC000C8E004F0C39E50037F00229001C8EEF0D9
:102FD0007F01229001FD7405F0300113122B349013
:102FE00001FDEFF0BF0205D212E0FF2212182612F7
:102FF00030611227709001FDEFF0BF0205D213E09F
:10300000FF221230939001FDE0FF22900203120490
:1030100006900207120380900203120398D3120253
:10302000DB400B9002071203989002038009900284
:103030000312039890020712038012019A2243F8A8
:103040000875CD4053CC7F43CC4043CC2043CC10BB
:1030500043CC0453CCFD43CB0243CB0153CBBFD273
:10306000EB53E5FC43E30243F50343900343ED03D5
:1030700022900078120380AB07AA06782412038CF2
:10308000C3EF9BFFEE9AFE7B017A00799FE4FCFD83
:1030900090020A7408F01228D37828EEF208EFF2B2
:1030A0007F05227834E2FE08E2FF7832E2FC08E293
:1030B000FDD39FEC9E400BED9F7837F2EC9E18F20B
:1030C0008006E47836F208F27836E2FF08E208CFAC
:1030D000F208EFF222E4F51D53B9FD53B9DF43CCFA
:1030E00002C2D9539FFD438760C28DEF700675BD44
:1030F0000D75BC011233AC75BE0CD28C20C90343D4
:10310000870300000000227D017C00EFC394125071
:1031100020EF25E024F6F582E43431F583E493FFD3
:103120007E009001A9E0FCA3E0FD1200ABAC06AD6F
:1031300007AE04AF052253BA0F43BA2075BBFF7523
:10314000A950120A06783EE2F5B4EF7009F5B3759E
:10315000B24E75B12022783BE2F5B308E2F5B20831
:10316000E2F5B122781CE2FE08E2FF9001FDEEF0EC
:10317000A3EFF07D01EDC39400500C12225A4004DD
:10318000AE02AF030D80EE785FEEF208EFF222752B
:10319000ABFF75BF0F000000000000000000000042
:1031A00000000000000000D2D853B9FD43B901E58A
:1031B000B930E1FBE4F5BF22E4F5E3439F107F0360
:1031C000FEFDFC1232FA439F027F037E007D007CED
:1031D000001232FA75BE0EE4F5BFF5B9759276228B
:1031E0007F01300108123126751D01800612326000
:1031F000751D0275BF0F43B92053B9FD43BA014392
:10320000B901D2D822000701010208030504010513
:103210000106060701080109010A030B140C010D40
:10322000010E030F0A100A110174FFF5F0020112DA
:10323000E0FBE4FAF9F81202338F458E448D438C9B
:103240004222AB34AA33A932A8310202DB44006324
:10325000FFFFFFFF44006700FFFFFF44006B06FF16
:10326000FFFF44006FFFFFFFFF0418000000000095
:103270001209FA900077E0F5B4EF700AF5B375B271
:103280008875B1B88006900074120AD0120AF35300
:10329000AAFB22E49001FDF075BE0E439F027F035E
:1032A000FEFDFC1232FA75BC02E4F5BFD2D953CC54
:1032B000FD22438901C28DD2A953B8FD12000390AB
:1032C00001A7F0A3F0758C32758AEBD28CD2AF22B5
:1032D00008F608F608F608F608F622120380AD078D
:1032E000AC0622F8E4F608F6EF75F008A4221209FD
:1032F000FA9000AEE0F5B4EF7009F5B375B2D6758B
:10330000B1D8229000AB120AD0229001FE1204061E
:103310009001FE74FF1203D3EC4D4E4F600300800A
:10332000EF22E4FFF582F5837440FEE493F42FFF6F
:10333000A3EEB583F6227F0022E49001B5F0A3F05E
:103340007F0C1230F79001B3EEF0A3EFF0D2102211
:1033500043D50453F5FB53E5FB43E30443ED04E499
:103360009001D6F0D29222D3EF9DEE9C4007EF9DC4
:10337000FFEE9CFE22C3ED9FFFEC9EFE22E4FF12B7
:1033800031261215331217337F01123126120CAA7F
:103390000229A7E4FF1232601220C5121E007F012D
:1033A000123260121D3A022D84E4FF1232DE123313
:1033B000F1121C717F011232DE020514438901C231
:1033C0008CC28F120003758CFB758AED2220C90C0C
:1033D000C2AFA807A60408A605D2AF222275AA3B51
:1033E00053BAF343BA0843B92053B9BF22C2DA53E0
:1033F000D80F43D8D0D2D8D2D9229001A9E4F0A3D3
:1034000022785DE608F622122DD0023340E4FF0256
:103410000CAA02293DFFFFFFFFFFFFFFFFFFFFFF99
:10342000FFFFFFFFFFFFFFFFFFFFFFFFFFFFFFFFAC
:00000001FF
