:100000004808002035AB0108A1AF0008B5AF0008D3
:10001000C9AF0008DDAF0008F1AF00080000000024
:1000200000000000000000000000000005B0000813
:1000300019B000080000000085740008DBCD00083E
:1000400061AB010865AB010869AB0108A3D60008E4
:100050006DAB0108CBB4000875B0000871AB0108A6
:1000600023B2000803B3000875AB010879AB01089F
:100070007DAB010881AB010885AB010889AB0108A4
:100080008DAB010891AB010895AB010800000000A1
:1000900000000000000000000000000099AB010813
:1000A0009DAB0108F5820108A1AB0108A5AB0108D1
:1000B000000000000000000000000000A9AB0108E3
:1000C000ADAB0108B1AB0108B5AB0108B9AB010894
:1000D000BDAB0108C1AB0108C5AB010800000000C1
:1000E000C9AB0108DFB300080000000000000000F9
:1000F000000000000000000000000000CDAB01087F
:100100000000000000000000D1AB0108000000006A
:100110000000000000000000D5AB01080000000056
:10012000D9AB0108DDAB0108E1AB0108E5AB010883
:10013000E9AB010800000000000000000000000022
:1001400000000000000000000000000000000000AF
:100150009F820108EDAB0108F1AB0108F5AB010886
:10016000000000000000000000000000000000008F
:10017000000000000000000000000000000000007F
:10018000F9AB0108FDAB0108000000000000000011
:100190000000000001AC01080000000000000000A9
:1001A000000000000000000000000000000000004F
:1001B00000000000000000000000000005AC010885
:1001C00009AC01080DAC010870B500224FF41261B2
:1001D000DFF8140B02F002F9DFF8104B00221021B7
:1001E00004F11C0002F0FAF8DFF8045B0022182189
:1001F00005F10C0002F0F2F80022082104F12C00B5
:1002000002F0ECF80022082104F1340002F0E6F8D4
:100210000020E06320646064A0646862A862E86211
:10022000DFF8D06AB063F063E06428633064706420
:100230006863A863E863012028640020B064F06468
:100240004FF0FF306864A8640020E86430652065E2
:100250007065F06530667066B066F06202462C210B
:10026000304602F0BBF842F210707081B08100207D
:100270007060022030810020306002460C21204650
:1002800002F0ACF8DFF8700A6060DFF8700A2060F6
:10029000012020720020287028656880A880E880EE
:1002A0006065F0662881A06530636865A865606652
:1002B000A066E0667067306768662866E8650120BA
:1002C0002867E866A8660020E867A86768670620D0
:1002D000B0860020A082F067B0672067DFF8200AB0
:1002E000E065002020660120E082962068810620DB
:1002F000F0860C2020830020B06502464021DFF804
:100300005C0D02F06BF80022062104F10C00BDE840
:10031000704002F063B810B584B0DFF8D0490C2209
:10032000214600A802F098F8FFF74EFF0C2200A922
:10033000204602F091F81FBD2DE9F0472DED0C8B02
:1003400090B00024254600A821460A460B460EC060
:10035000302102F0B9F89FED9B8ADFF8906996EDA5
:100360001B0AD6ED140AC6ED1B0ADFF8887997ED53
:10037000149A86ED149ADFF8788998ED131AB8EE7E
:10038000411ADFED911AC1EE819AC7ED149AD8F89F
:100390004420D8F83490A9EB0200FA30FA21B0FBDF
:1003A000F1F1FA2303FB110080B2002800F0FE8374
:1003B0004C2880F28180D8F8401001297CD0D7F8F1
:1003C0004CA0BAF1040F21D3F4EE490AF1EE10FA71
:1003D0001CD5B4EE699AF1EE10FA17D59FED7B1A91
:1003E00020EE811AB4EE691AF1EE10FA0ED59FEDE7
:1003F000DB1AF4EE419AF1EE10FA07DB87ED149A5E
:10040000C6ED140A86ED1B0A00F009BC97ED0EAA92
:1004100087ED0FAAD7ED10AAC7ED11AA014600EE8D
:10042000101AB8EE400AD8ED0B8AC8EE800A98ED93
:100430000C1A81EE001A2146B963396420E0521C7F
:1004400092B2FA2A00D12246DFF89C3803EB8203ED
:10045000D3ED231A71EEE01AD3F8743402EE103A99
:1004600032EE412AD7ED0E2A41EEA12AC7ED0E2A1F
:10047000D7ED101A42EE021AC7ED101A491C89B2C4
:100480008142DCDBD7ED0E0A80EE80BA87ED0EBA32
:10049000D7ED100A80EE80CA87ED10CAD6ED1ABAE1
:1004A00098ED150AD8ED160A70EE60CAC6ED1ACAA4
:1004B00000F092FF012802D12046386376E3BAF1BA
:1004C000000F0BD1388E052802DB05462046388602
:1004D000788E052802DB4519204678861AFA85F0C1
:1004E000002824D1B6EE00DA3CEE2A0A20EE0D0AEE
:1004F000DFED9B0AB4EE600AF1EE10FA11D43BEE88
:100500000A0A20EE0D0ADFED970AB4EE600AF1EE5A
:1005100010FA06D4B3EE040AF4EE40CAF1EE10FA73
:1005200005D5388E401C3886C8F848903EE3388E92
:10053000002802D04519204638861AFA85F000288E
:1005400015D1B7EE000AF4EE409AF1EE10FA00F180
:100550002D839FED850AF4EE409AF1EE10FA03DB4D
:10056000788E401C788621E32046788603E0788EDA
:10057000451920467886284680B200F0C3FF01283E
:1005800008D187ED149AC7ED10AAC6ED1ABA87ED07
:100590000EAA0BE39FED750AF4EE409AF1EE10FA05
:1005A00002DBDFF8180C386520463886BAF1000FF8
:1005B0000ED1386D786586ED13BAC6ED19CA00F014
:1005C000A5FE3CE00000000000007A446666E63FBD
:1005D000B6EE00DA00F09AFE012816D197ED140A63
:1005E000F0EE000A20EE200A87ED140A6BEE0D0AE9
:1005F000C7ED0E0A2CEE0D1A87ED101AC7ED0F0A83
:1006000087ED111A86ED140A6D1C97ED140AD6EDCC
:10061000140A30EE200A20EE0D0A87ED150A97ED38
:100620000E0AD7ED0F0A30EE200A20EE0D0A86EDF5
:10063000130A3BEEAC0A20EE0D0A86ED190A98F873
:100640000100012840F0A782D8F80C00009000A813
:10065000D8F810104160D8F814108160214617E0D6
:1006600000AB03EB820393ED010A50F822C000EEC9
:1006700090CAB4EE600AF1EE10FA05D500EB820CD8
:100680008CED000AC3ED010A521C022AE8DB491C6A
:10069000022901DA2246F8E79DED000AB5EE400A8C
:1006A000F1EE10FA2AD5B5EE400AF1EE10FA01DCAF
:1006B000B1EE400AD0ED020A30EE800A80ED020A67
:1006C0009DED000AB5EE400AF1EE10FA01DCB1EE44
:1006D000400AD0ED010A30EE800A80ED010A9DED5E
:1006E000000AB5EE400AF1EE10FA01DCB1EE400A64
:1006F000DDED000A30EE800A8DED000A90ED010A72
:10070000D0ED020A30EEC01ADDED000A30EE600ACC
:10071000B4EE401AF1EE10FA05D5F0EE410AB0EE53
:10072000401AB0EE600AD6ED0B0AC6ED0C0A31EEA7
:10073000400A80EE010A9FED0E1A20EE010A86EDB6
:100740000B0A706BB063F4EE400AF1EE10FA11D5AB
:1007500070EE600AC6ED0D0A10E000BF01004040D7
:10076000000016430000A042666616400100A0404B
:100770000000C84270EEC00AC6ED0D0A386F796FEE
:10078000081800EBD070401002EE100A86ED0F2A18
:10079000C6ED108AD7ED100AC6ED110AD7ED141A6E
:1007A000DFF8300CC0EDC41A96ED121A31EE611A62
:1007B000D6ED122A72EEE12A21EE221A00F54471DA
:1007C00081ED011AC6ED121AD7ED1B1AC1ED021AFE
:1007D000D8F81810039103A9C1ED011AC1ED020A5E
:1007E000C1ED038AC1ED041AC1ED058AC1ED061AF7
:1007F000B8EEC22A81ED072AC1ED081A81ED090A77
:10080000C1ED0A1A81ED0B1ADDED032A9FEDD03AF6
:1008100062EE832A9FEDCF3A41EE832A9FEDCE3AD6
:1008200020EE833ADFEDCD3A08EEA33ADFEDCC3A85
:1008300061EEA33A9FEDCB4A48EE843A9FEDCA4A57
:1008400021EE844ADFEDC94A02EE244ADFEDC84AB0
:1008500061EEA44A9FEDC75A40EE054A9FEDC65A85
:1008600021EE855ADFEDC55A01EE255AF8EE085AF9
:10087000F4EE652AF1EE10FA00F18D81DFEDC05A39
:10088000B4EE653AF1EE10FA00F18581DFEDBD5A64
:10089000F4EE653AF1EE10FA00F17D81DFEDBA5A1F
:1008A000B4EE654AF1EE10FA00F175819FEDDF6A52
:1008B000F4EE464AF1EE10FA00F16D819FEDDC6A2C
:1008C000B4EE465AF1EE10FA00F16581DFEDD96A17
:1008D000F4EE662AF1EE10FAC0F25D81DFEDD62A61
:1008E000B4EE623AF1EE10FAC0F25581F4EE653AD8
:1008F000F1EE10FAC0F24F81B4EE464AF1EE10FA72
:10090000C0F24981F4EE654AF1EE10FAC0F243817B
:10091000DFEDCA2AB4EE625AF1EE10FAC0F23B8162
:10092000DFEDC72A9DED033AB4EE623AF1EE10FA1C
:1009300001D5CDED032ADDED032A9FEDD83AF4EE83
:10094000432AF1EE10FA02DBDFF8AC2B0392DFED65
:10095000D42AF4EE621AF1EE10FA01D5C1ED012AA3
:100960009FEDB83ADFEDB83A91ED014AB4EE634A33
:10097000F1EE10FA01DB81ED013A9FEDB44AF4EE9D
:10098000440AF1EE10FA01D581ED024AD1ED020AD6
:100990009FEDAF4AF4EE440AF1EE10FA02DBDFF805
:1009A0005C2B8A60DFEDBF0AF4EE608AF1EE10FA8C
:1009B00001D5C1ED030A9FEDBC4AD1ED034AF4EE27
:1009C000444AF1EE10FA02DBDFF8342BCA60F4EE91
:1009D000621AF1EE10FA01D5C1ED042AD1ED044AF4
:1009E000F4EE634AF1EE10FA01DB81ED043AF4EE25
:1009F000608AF1EE10FA01D5C1ED050AD1ED050AC4
:100A0000F4EE440AF1EE10FA02DBDFF8F42A4A6150
:100A1000F4EE621AF1EE10FA01D5C1ED062AD1ED1D
:100A2000060AF4EE630AF1EE10FA01DB81ED063AF4
:100A3000F1EE000AB4EE602AF1EE10FA02D54FF0A2
:100A40008142CA61D1ED070A9FEDA12AF4EE420A64
:100A5000F1EE10FA02DBDFF82C2CCA61F4EE621A18
:100A6000F1EE10FA01D5C1ED082AD1ED080AF4EE35
:100A7000630AF1EE10FA01DB81ED083ADFED950A29
:100A8000B4EE600AF1EE10FA01D5C1ED090A91ED5C
:100A9000090ADFED910AB4EE600AF1EE10FA02DB0A
:100AA000DFF8E42B4A62F4EE621AF1EE10FA01D597
:100AB000C1ED0A2A91ED0A0AB4EE630AF1EE10FACA
:100AC00001DB81ED0A3AB5EE401AF1EE10FA01D5DC
:100AD0002246CA6291ED0B0ADFED800AB4EE600A8D
:100AE000F1EE10FA02DBDFF8A42BCA62214612E015
:100AF0001B1FD3ED000A92ED031AF4EE410AF1EE4A
:100B000010FA01D59FED760AB8EEC00AD2ED020ABE
:100B100000EE208A491C312938DA9FED720A0B0158
:100B20001A18D2F804C0BCF1010F0DF10C0C1B58BF
:100B30000CEB8303DCD11B1FD3ED000A92ED031AEB
:100B4000F4EE410AF1EE10FADEDB9FED650ADBE719
:100B5000168733BDB0568DBD03275BB9E23C9CB907
:100B6000983115BEBF49D3B97061FDBD55C128BCD0
:100B700036CB05BE3D7FDABBDDED0ABEE4BE353EB9
:100B80006666A6BF3333F3BFCDCC4CBFB5EE408A0B
:100B9000F1EE10FA0ADC97ED150A284680B200F053
:100BA000B1F800F057F80446C8F84890C8F84490E7
:100BB0000020C8F84C00C8F82C00C8F83000C8F86D
:100BC00040000246102106F11C0001F007FC002243
:100BD0000C2108F10C0001F07FFC4948F065002071
:100BE0003066F88800281AD1F86F00280CD0B86C4D
:100BF0003969401AB98EB0EB510F02DB0020388101
:100C00000DE0012038810AE0388E798E11FA80F0EB
:100C1000032802DB0120388101E0022038812046D0
:100C200010B0BDEC0C8BBDE8F08700BFCDCC8CBF05
:100C3000333333BFCDCC0CC09A9919BFCDCC4CBE49
:100C40005017C93F15E6684016E668407D90A341FD
:100C5000A2F2924438B50025DFF8BC4B0120E067D2
:100C600000F0F0FC2060E06CA18E884214D3A06CF0
:100C70002061A08DA080E08DE080A06DA061E06D7E
:100C8000E061206E2062606E6062A06EA062012052
:100C9000A0672846E0670125284632BDC9AC454219
:100CA000A9F56E3EBA9F17443564EC4411480169BA
:100CB00081640021C1644160022101810021C1627F
:100CC000016A0166816A81660021C1677047000080
:100CD000010058427B4D4F3D47FFC742BEBA984185
:100CE00001000000FFFFFFFF04260020341D00204C
:100CF000341C0020B41C002000002F430000704270
:100D000000007A442DE9F84F2DED048B82B0834624
:100D1000F0EE400A00239E461846DFF8FC4AE56CD8
:100D200005F10F0101F00F01EA1D02F00702009228
:100D3000CA4A02EB8106C6ED000ABBF1000F15D0CE
:100D4000064611E04F1EBF1B10374FEAE70C07EBBA
:100D50001C7C4FEA2C1CB7EB0C1703D402EB870763
:100D6000C7ED000A761C36B25E45EBDB102D02D2D1
:100D7000294609B200E00F219FEDB68A9FEDB51A12
:100D8000DFEDB51A06461BE052F8217000EE107A2E
:100D9000B5EE400AF1EE10FA10DD38EE008AB4EE3E
:100DA000401AF1EE10FA01D5B0EE401AB4EE610A25
:100DB000F1EE10FA01D5F0EE401A761C491E09B288
:100DC0000029E1D536B2314603290BDB38EE410A62
:100DD00030EE610A891E01EE101AB8EEC11A80EEDB
:100DE000018A07E0012905DB00EE106AB8EEC00AAF
:100DF00088EE008AB5EE408AF1EE10FA01D0002E9E
:100E000001D1B0EE608A84ED168A9FED950AB4EEAA
:100E1000408AF1EE10FA02D5B0EE408A08E09FED6C
:100E2000910AB4EE408AF1EE10FA01DBB1EE028ACB
:100E3000B0EE040AB4EE408AF1EE10FA08D494ED54
:100E40001B0AF0EE080AB4EE600AF1EE10FA02D5C1
:100E50000321A18501E00421A185A66C06F0070805
:100E6000DFF8BC7908EB070CA18D8CF8B818BBF142
:100E7000000F0AD0721E02F00702D21906F007090D
:100E8000B94499F8B89882F8B89808220EE0B9F1F8
:100E9000040F00D1401CA8F101080FFA88F8B8F13E
:100EA000000F01D508F10808521E12B2012A16DB04
:100EB0000FFA88F808EB070999F9B898B9F1030F08
:100EC00002D10EF1010E03E0B9F1040F00D15B1C59
:100ED000062AE0DBB9F1030FD9D1401EDBE7E28D32
:100EE0009BB21FFA8EFE734507D39E4502D20420A3
:100EF000E0850DE000B2002802D50320E08507E080
:100F0000012802DB0420E08502E09CF9B808E085B6
:100F1000B4F82E80B8F1040F01D1184600E07046F5
:100F2000424509D000202081E088002820D1042DEE
:100F30001ED3012020811BE013FA8EF2012A15DB5B
:100F4000052A10DB00EE102AB8EEC00AF6EE080AF9
:100F500020EE200A00EE900AF8EE600AF4EE400A55
:100F6000F1EE10FA02D50120208101E0022020815B
:100F7000DFF8B09849B2B0EE480A484600F020F9D0
:100F8000DFED8D0AB4EE600AF1EE10FA01D5B0EE95
:100F9000600A84ED170A584600F1010A00EE90AA93
:100FA000F8EEE08AD4ED180A48EE800AC4ED180A7B
:100FB0009FEDCB9A20EE080A20EE090A009907EB74
:100FC000810101F65C0181ED000ABBF1000F16D032
:100FD000002212E00099491E891A08318B1001EB9A
:100FE0005373DB10B1EBC30105D407EB810101F6AC
:100FF0005C0181ED000A521C12B28242EADB082D2C
:1010000002D2284600B203E0072001E0401E00B2F1
:101010000028FBD584ED190A414649B2484600F044
:1010200047F968EE090AB7EE001AC1EE200A20EE71
:10103000800AD4ED1A0A48EE800AC4ED1A0A0AEBB7
:101040000600A0640AEB0500E06402B0BDEC048B6E
:10105000BDE8F18F000000000000C842046F0020CE
:101060006666A63F0100904049B2032944D1DFEDF6
:101070009D0AB4EE600AF1EE10FA01DBB0EE600AF0
:101080009FED991ADFED990A40EE010A90ED011AE1
:101090009FED970AB4EE401AF1EE10FA43DADFED55
:1010A000951AB4EE611AF1EE10FA74DBB4EE401A40
:1010B000F1EE10FA6FD59FED900A31EE000ADFEDE8
:1010C0008F1A60EE211A9FED8E0A9FED8E2A01EE97
:1010D000002A22EE200A20EE210A9FEDB72ADFED3A
:1010E000B72A41EE022A62EEA00AB7EE001A31EEEC
:1010F000611A00EE810A56E0DFED830A60EE200AF5
:1011000060EE800A9FEDAE1A40EE410A9FEDAD0AF7
:1011100070EE800A90ED011A9FED750AB4EE401A48
:10112000F1EE10FA0ADB90ED010A9FED751ADFED82
:10113000751A40EE011A21EEA00A34E0DFED6D1AB7
:10114000B4EE611AF1EE10FA25DBB4EE401AF1EEBE
:1011500010FA20D59FED680A31EE000ADFED671A1C
:1011600060EE211A9FED660A9FED662A01EE002AC5
:1011700022EE200A20EE210A9FED8F2ADFED8F2A32
:1011800041EE022A62EEA00AB7EE001A31EE611AB1
:1011900000EE810A07E090ED010A20EE800ADFED03
:1011A0008A0A20EE200A007A022803D1DFEDCA0A5B
:1011B00020EE200A70470000CDCC4C3E0000A0403D
:1011C00010B52DED028BB0EE408A0C46DFED7F8A24
:1011D00049B2FFF749FF64B2042C31D1DFED7C0A3C
:1011E000B4EE608AF1EE10FA16DBB1EE021AB4EE3C
:1011F000418AF1EE10FA0FD5DFEDB80A78EE200A39
:10120000B1EE041A60EE810AFCEEE00A10EE900ADC
:10121000C01D08EE900A3DE0B4EE608AF1EE10FACF
:1012200003D5072008EE900A34E0F1EE020AB4EE8E
:10123000608AF1EE10FA2DDB122008EE900A29E008
:10124000F7EE080AB4EE608AF1EE10FA11DBDFED7A
:10125000A40AB4EE608AF1EE10FA0AD5FFEE080A8D
:1012600078EE200AB1EE041A60EE810AFCEEE08A04
:1012700010E0F7EE080AB4EE608AF1EE10FA09D435
:10128000DFED970AB4EE608AF1EE10FA02DB062079
:1012900008EE900ADFF8580D18EE901A00EB810066
:1012A000D0ED000A20EE200ABDEC028B10BD00003C
:1012B000F0EE0C0A49B2042904D19FED8A1A40EEDF
:1012C000010A03E09FED881A40EE010A9FEDDB0A58
:1012D00020EE800AD0ED000A20EE200A70470000C0
:1012E000000070429A9919406ADEF13D8638163F37
:1012F00000002A4300001643000016C3CDCC4C3D2D
:101300004260E53A6666263F2575C23E0020DFF85A
:10131000081591ED140AF7EE040AB4EE600AF1EE36
:1013200010FA47DADFF8CC2CD288042A42DAD1ED61
:10133000150A9FED6E1A60EE810AB4EE600AF1EEB6
:1013400010FA03D5022A01DB012012E0DFF8D414E1
:1013500091ED0A0ADFED660AB4EE600AF1EE10FACA
:1013600007DBDFED640AB4EE600AF1EE10FA00D597
:10137000012001281ED1DFF8AC1491ED170AD1ED40
:10138000180A70EEC00A9FEDAE1AF4EE410AF1EEB3
:1013900010FA07DBF7EE080AB4EE600AF1EE10FA75
:1013A00000D50020DFEDB30AB4EE600AF1EE10FACA
:1013B00000D500207047000052491D3BB81E053F74
:1013C0007593E83F24975340C1C0C03B0000000024
:1013D00066660640481800200021DFF83C24D38DC3
:1013E000032B1BDA92ED140ADFEDA30AB4EE600AB8
:1013F000F1EE10FA12DB92ED0E0AF2EE040AB4EEF0
:10140000600AF1EE10FA09D592ED100ADFED9B0AA1
:10141000B4EE600AF1EE10FA00D5012192ED100A47
:10142000F6EE000A92ED111A30EE011A21EE201AA2
:10143000F3EE0E1AB4EE611AF1EE10FA1CD492ED2E
:101440000E1AD2ED0F1A71EE211A61EEA01AB2EE49
:10145000042AF4EE421AF1EE10FA0DD4F3EE041A57
:10146000B4EE610AF1EE10FA06D4B1EE040AB4EE5D
:10147000401AF1EE10FA00D5012192ED140A9FED09
:10148000801AB4EE410AF1EE10FA23DBDFF8942360
:1014900092ED090A92ED0A1A80EE010A9FEDA51A53
:1014A000B4EE410AF1EE10FA14DB00EE100AB8EEC9
:1014B000400A20EE200AD2ED070AF4EE400AF1EECF
:1014C00010FA07D5D2ED080AF4EE400AF1EE10FA50
:1014D00000D50121084670473333733F666606C066
:1014E0009A993940CDCC4C3ECDCCCC3D3333333FB3
:1014F000010020420000C842C8AC4542A1F292441B
:101500003464EC440021C44AD36C13FA80F00228FE
:1015100016D392ED140ADFED880AB4EE600AF1EEFC
:1015200010FA0DDB92ED110AD2ED100A80EE200ABE
:10153000DFED820AB4EE600AF1EE10FA00DB012161
:10154000022818D39FED7E0AD2ED110A92ED101AEF
:10155000C0EE810AF4EE400AF1EE10FA0BDBD2ED98
:101560000F0A92ED0E1AC0EE810AF4EE400AF1EE77
:1015700010FA00DB012100280ED0AA4890ED190ACC
:10158000DFED9E0A20EE200AD0ED1A0AF4EE400AA2
:10159000F1EE10FA00D5012192ED140ADFED980A60
:1015A000B4EE600AF1EE10FA08DA92ED150ADFEDFA
:1015B000950AB4EE600AF1EE10FA1ADB92ED100A09
:1015C000DFED910AB4EE600AF1EE10FA0DD492ED5F
:1015D0000E0ADFED8E0AB4EE600AF1EE10FA04D4C2
:1015E000DFF8100AC088022803DBD08D032800DB57
:1015F00001218C4890ED130ADFED830AB4EE600AF6
:10160000F1EE10FA08D492ED1B0AF1EE040AB4EEE2
:10161000600AF1EE10FA0ED5106F526F101800EE3E
:10162000100ABAEEEF0ADFED7A0AB4EE600AF1EEC4
:1016300010FA00DB01210846704700000AD7A33BDF
:101640000100C03F002074498A6C12F10A0F0FD2CA
:101650009FED700AD1ED180AF4EE400AF1EE10FA8F
:1016600006DAD1ED1A0AF4EE400AF1EE10FA00DBC8
:101670000120704785EB113F01000040000020422F
:10168000010040400000584246FFC742BDBA9841A1
:1016900010B401460020634A614BD3F8144900EEB0
:1016A000104AD1ED000AB4EE600AF1EE10FA08D14A
:1016B000147B641C1473E4B2FE2C04DB3224147318
:1016C00001E00446147303F6141393ED010AD1EDFF
:1016D000010AB4EE600AF1EE10FA08D1547B641CE2
:1016E0005473E4B2FE2C04DB3224547301E004464C
:1016F000547393ED020AD1ED020AB4EE600AF1EEE2
:1017000010FA08D1917B491C9173C9B2FE2904DB00
:101710003221917301E001469173117B322905DA80
:10172000517B322902DA917B322900DB012010BC87
:10173000704700003433333F010060400100A04097
:10174000010070410146002091ED000AB5EE400A0B
:10175000F1EE10FA01DCB1EE400A324ADFED2F0A59
:10176000B4EE600AF1EE10FA08DBD37B5B1CD37396
:10177000DBB2FE2B04DB3223D37301E00346D373C9
:1017800091ED010AB5EE400AF1EE10FA01DCB1EE7E
:10179000400AB4EE600AF1EE10FA08DB137C5B1C21
:1017A0001374DBB2FE2B04DB3223137401E0034617
:1017B000137491ED020AB5EE400AF1EE10FA01DC65
:1017C000B1EE400AB4EE600AF1EE10FA08DB517C8B
:1017D000491C5174C9B2FE2904DB3221517401E065
:1017E00001465174D17B322905DA117C322902DAA3
:1017F000517C322900DB0120704700009A99993E04
:1018000001009040010080400000C84300001643E2
:1018100001005C428096184BB41C002035336B41AC
:1018200004260020341D00202DE9F24F2DED048BFD
:1018300084B004469FEDE58ADFEDE48A9FEDE39AEC
:10184000DFF8405BE888ADF80800A888ADF8020032
:1018500028898DF8000000273E462046FFF718FF34
:1018600001902046FFF76EFF8246DFF888873046FA
:10187000C8F85400C8F85800D8F86800DFF8089B8A
:10188000D9F8141900EE101AD4ED000A30EEC01A7F
:1018900001EE900AF8EEE11A21EE211AB5EE401A97
:1018A000F1EE10FA1ED598ED1D1A70EE411AF5EE04
:1018B000401AF1EE10FA01DC71EE401A9FEDC41AE5
:1018C000F4EE411AF1EE10FA07DB296F491C296783
:1018D000D8F85C10491CC8F85C1088ED1D0A40421D
:1018E000C8F8680009F6141090ED010AD8F86C10D9
:1018F00094ED011A31EE401A01EE901AF8EEE11A59
:1019000021EE211AB5EE401AF1EE10FA1ED598ED2F
:101910001E1A70EE411AF5EE401AF1EE10FA01DCD3
:1019200071EE401A9FEDAA1AF4EE411AF1EE10FA88
:1019300007DB2A6F521C2A67D8F86020521CC8F8AF
:10194000602088ED1E0A4942C8F86C1090ED020A2A
:10195000D8F8700094ED021A31EE401A01EE900AA8
:10196000F8EEE11A21EE211AB5EE401AF1EE10FA66
:101970001ED598ED1F1A70EE411AF5EE401AF1EEE1
:1019800010FA01DC71EE401A9FED911AF4EE411A43
:10199000F1EE10FA07DB296F491C2967D8F86410AB
:1019A000491CC8F8641088ED1F0A4042C8F870004E
:1019B00098F80000052809D10120C8F840003046F9
:1019C00088F80000A8F80200A8F80400D8F84C0035
:1019D00008990818C8F84C00D8F83400D8F8441012
:1019E000884202D10120C8F84000D8F8380000EB46
:1019F000400109EB810B0BF6C000C0ED000A6168E5
:101A00004160A16881600899204600F029FA686168
:101A10000198012802D0BAF1010F32D19FED6B0A73
:101A2000DBF8C00800EE900A60EEA00ADBF8C408FC
:101A300001EE100A21EE011ADBF8C80801EE900A47
:101A400061EEA11ADFF84409017B322904DAC17B77
:101A5000322901DA30EE800A417B322904DA017C36
:101A6000322901DA30EE010A817B322904DA407C26
:101A7000322801DA30EE210A00F094FCF0EE409AB0
:101A800037E00BF50C60D0ED020A90ED011ADBF89F
:101A9000C00800EE100A20EE000A01EE010A00EE76
:101AA000A00A00F07FFCF0EE409AD4ED010A94ED1C
:101AB000000A20EE000A00EEA00A00F073FCB0EE6F
:101AC000408AD4ED020A94ED010A20EE000A00EEED
:101AD000A00A00F067FCF0EE408AD4ED020A94ED13
:101AE000000A20EE000A00EEA00A00F05BFCB0EE57
:101AF000409AD8F83C0000282ED130460CE009EB83
:101B00008001C1ED159A09EB800282ED008AC1EDDA
:101B1000078A81ED0E9A401C0728F0DBB1EE0C0A13
:101B200069EE800AC8ED090AD8F80C00C8F8180058
:101B3000D8F81000C8F81C00D8F81400C8F8200025
:101B400068EE000AC8ED030A68EE800AC8ED040AD0
:101B500029EE000A88ED050AD8F8380009EB800163
:101B600091ED150A39EEC00AD8ED090A30EE200AC7
:101B700088ED090AC1ED159AD8F8340009EB800008
:101B800080ED230AD8ED0B0A70EE800AC8ED0B0A2F
:101B9000D8F80C20C8F81820D8F81020C8F81C2055
:101BA000D8F81420C8F82020D8F8382009EB820291
:101BB00082ED008AC1ED078A81ED0E9A3246DFED93
:101BC000030A9FED021ADFED011A12E00000000087
:101BD000CECC4C3E09EB820393ED002A70EE820AD4
:101BE00093ED072A31EE021A93ED0E2A71EE821A56
:101BF000521C072AEEDBC8ED030A88ED041AC8ED73
:101C0000051AD1ED1C0A70EE600A00F27442C2EDB2
:101C1000000A81ED1C0A98ED0C0AD0F8741400EE4D
:101C2000901A30EE200A88ED0C0A09F6141194EC93
:101C3000030A81EC030ADFF85417096F01290AD15E
:101C40000120C8F84000304688F80000A8F80200DB
:101C5000A8F804007EE0D8F85010491CC8F85010CD
:101C600098F80020012A01D0032A3AD102292BD268
:101C7000EA8D042A28DAE96C00296BD198ED0A0A6A
:101C8000DFEDDA0AB4EE600AF1EE10FA08D5D0F80A
:101C9000741401EE101AB4EE601AF1EE10FA0FDAB5
:101CA000F9EE0C0AB4EE600AF1EE10FA52DBD0F84D
:101CB000740400EE100AB4EE600AF1EE10FA49D591
:101CC0000120C8F8400045E027290AD3B8F80220CF
:101CD000002A03D011FA82F14B2902D30121C8F85E
:101CE0004010D0F8740400EE900A98ED0A0A00F053
:101CF00083F998F8000001282CD1B8F802000028D8
:101D000028D0B8F80410002924D0032211FA80F05A
:101D10003D2802DB0120C8F84000E88D042800DBE4
:101D20000222B8F80600824202D20120C8F8400020
:101D30003046C8F86400C8F86000C8F85C00FEF7D8
:101D4000FBFA0746286F686730462867A8F8040042
:101D5000A8F80600D8F83400D8F84810401AFA302D
:101D6000FA242146B0FBF1F104FB1100B8F80A1087
:101D7000884201D100F031FAD8F83400D8F8481080
:101D8000401AFA302146B0FBF1F104FB110064283F
:101D900001D100F063FAE888BDF80810814204D14F
:101DA000BDF80210AA88914200D00126002814D064
:101DB000D8F83400D8F84810401AFA302146B0FB61
:101DC000F1F104FB1101322902D10120288116E032
:101DD0004B2914D10020288111E0A88800280ED0BA
:101DE000D8F83400D8F84810401AFA302146B0FB31
:101DF000F1F104FB11007D2801D1012028819DF81B
:101E000000002989884200D00126D8F8340009EB67
:101E10008001D1F87414C8F82810401CC8F83400A8
:101E2000FA2802D10020C8F83400D8F83800401C45
:101E3000C8F83800072802D10020C8F83800D8F8C0
:101E40003C00401CC8F83C0047EA0600401E8041A8
:101E5000C043C00F04B0BDEC048BBDE8F28F00009E
:101E600030B4DFF8243590ED000AD3F8142900EEE1
:101E7000902A30EE600A03F61412D0ED010A92EDBA
:101E8000011A70EEC10A90ED021AD2ED021A31EE7B
:101E9000611AB5EE400AF1EE10FA02DDF0EE401ADA
:101EA00001E0F1EE401AF5EE400AF1EE10FA02DD23
:101EB000B0EE602A01E0B1EE602AB5EE401AF1EE14
:101EC00010FA02DDF0EE412A01E0F1EE412A71EE56
:101ED000821A71EEA21AB5EE400AF1EE10FA01DC98
:101EE000B1EE400ADFF8A40490ED072A32EE000AB2
:101EF00080ED070AF5EE400AF1EE10FA01DCF1EE92
:101F0000600A90ED080A30EE200A80ED080AB5EE6E
:101F1000401AF1EE10FA01DCB1EE411A90ED090A17
:101F200030EE010A80ED090A90ED0A0A30EE210A2E
:101F300080ED0A0A2F4AD46B002C12D1002406E04F
:101F400003EB850505F67C05C5ED001A641CA4B2FB
:101F500025460F2DF4DBB2EE0E0A21EE800A80ED4D
:101F6000150A148903EB8403D3F87C5800EE105A49
:101F700031EEC00AD0ED150A30EE200A80ED150AC8
:101F800003F67C03C3ED001AF2EE0E0A80EE200A7F
:101F9000DFF8F03383ED1B0AD0ED170AB4EE600AC8
:101FA000F1EE10FA01D580ED170AD0ED180AF4EE23
:101FB000400AF1EE10FA01D580ED180ADFEDA50A0E
:101FC000B4EE600AF1EE10FA03D5836DC91881658D
:101FD00001E000218165611C118189B20F2901D1C5
:101FE00000211181806D30BC704700000100E0408D
:101FF000681E0020341C00209FED971ADFF8840330
:10200000C08D042801DBB0EE001ADFF88403B5EEC2
:10201000400AF1EE10FA07DBF5EE400AF1EE10FA95
:1020200002D5C188491CC1800178002905D0022948
:1020300060D02DD3032976D0B0E0F1EE0C1A31EE4A
:10204000211AB4EE401AF1EE10FA0BDBB4EE601A6E
:10205000F1EE10FA06D5016D1029C0F08F80002135
:1020600001658BE0416BDFF8202302EB8101D1F8A1
:10207000741401EE901ADFF81C1391ED010AF4EECE
:10208000401AF1EE10FA40F18980C1ED011A85E0A5
:10209000416BDFF8F42202EB8101D1F8741401EEF8
:1020A000901ADFF8F01291ED002AB4EE612AF1EEF9
:1020B00010FA01D5C1ED001AF7EE001AB4EE610A6C
:1020C000F1EE10FA6ADBB7EE000AF4EE400AF1EE28
:1020D00010FA63D5016D418000210165B9EE0C0A4B
:1020E00030EE410AF4EE400AF1EE10FA10D402216B
:1020F000017053E0F9EE0C1A31EEC11AB4EE410A48
:10210000F1EE10FA4ADBF4EE410AF1EE10FA45D591
:10211000032101709C49426B01EB8201D1F87414D8
:102120009C4A51603AE0416B974A02EB8101D1F839
:10213000741401EE901A974991ED012AF4EE421AB7
:10214000F1EE10FA01D5C1ED011ADFED7B1AB4EE04
:10215000610AF1EE10FA21D5F4EE610AF1EE10FAFF
:102160001CDB016D818000210165B1EE0C0A31EEAE
:10217000000AB4EE600AF1EE10FA0ED501210170EA
:1021800084490A6842654A6882657F4A436B02EB6C
:102190008302D2F874240A6000E00170007870476E
:1021A000002803D077492C2200F056B97047002848
:1021B00006D0764942684A6002680A60007A08726E
:1021C000704780B5002801D1002002BD542201468D
:1021D000714800F041F9012002BD10B5694CE08D55
:1021E000A18D002904D0002802D00020208106E023
:1021F000084302D00120208101E00220208100203C
:10220000E0646062A061A080A08520636065A06535
:1022100002464021614800F0E1F8E06F012801D159
:10222000FEF744FD5948818A002909D0E28E8A428E
:1022300001D2A18600E0A286002181820846A06723
:10224000A06F012801D1E08EA0860020A06710BDFC
:1022500000000000EC51383E0000000010B5494C71
:10226000E08DA18D002904D0002802D0002020811B
:1022700006E0084302D00120208101E002202081F5
:1022800000206062A061E085E080024608214448A9
:1022900000F0A4F800202063E06F012801D1FEF7D0
:1022A00005FDA06F012801D1E08EA08610BD80B58C
:1022B000012036490867FFF7D1FFFFF78EFFBDE821
:1022C000014003E000203149086770472F48008B28
:1022D0002C49898E814200D200E070472949CA6C9E
:1022E0008B8E9A4203D288860020886770472749E0
:1022F000888270472348C16C002904D1018E408E2A
:1023000010FA81F070470020704701460020002934
:1023100002D0012901D0704702E01A48C06C704712
:102320001848818EC26C891A028E891A408E081A4A
:1023300000D5002070470000FEFF7FBF38B504467F
:102340001348124D0F49012C06D10622CA860C22D1
:102350002A839622428105E00722CA860F222A8319
:1023600064224281E88AA04209D0888E082803DAD4
:10237000C88EFFF7B3FF02E0288BFFF7AFFFEC82B8
:1023800031BD0000B41C002004260020341D0020B4
:10239000341C0020C8700020681E0020046F00203C
:1023A000BC2E002081B08DED000A0098401000F195
:1023B000FE500090DDED000AC0EE200A9DED001AEF
:1023C00070EE810ACDED000AB5EE001ADDED001ABF
:1023D00080EE210A00EE810A01B0704762F30F22FD
:1023E00062F31F4200B500BF1300964694461039B1
:1023F00028BFA0E80C50FAD85FEA417C28BF0CC087
:1024000048BF40F8042BC90728BF20F8022B48BF5B
:1024100000F8012B00BD50F8041B61B150F8042BEB
:10242000D30744BFA9F101039A180023091F42F8FA
:10243000043BFAD1EFE7704762B38B0708D0521E16
:1024400011F8013B00F8013B00F024808B07F6D126
:10245000830740F0208000BF103A07D330B4B1E8C2
:102460003810103AA0E83810F9D230BC530724BF16
:10247000B1E80810A0E8081044BF51F8043B40F848
:10248000043BD20724BF31F8022B20F8022B44BFB3
:102490000B7803707047083A07D3B1E80810083A80
:1024A00040F8043B40F804CBF7D25307E4E78268D6
:1024B000521C8260426832B10268531C0360117082
:1024C0004168491E416070470022FFF78BBF0268D8
:1024D000531C03601170704762F30F2262F31F42B6
:1024E000401810F0030308D0C91A1FD3DB0748BFF8
:1024F00000F8012D28BF20F8022D130030B4144637
:102500001546103928BF20E93C00FAD8490728BFF2
:1025100020E90C0048BF40F8042D890028BF20F8AE
:10252000022D48BF00F8012D30BC7047C91818BFF4
:1025300000F8012DCB0728BF00F8012D70470000DF
:1025400010B5DFF8344D04F1AC01012001F0A2FB1D
:10255000002805D00FF2480002F0BEF8032010BD9D
:102560000FF2500002F0B8F8002060732087E0649A
:1025700002464421DFF8040DFFF730FF01223C2121
:10258000AA2002F092FA00202074A073E063A065F4
:10259000A4F84000A07400F0B7FD002010BD0000BA
:1025A00050443A204641494C20524547494C494203
:1025B0005648000050443A20537461727450656468
:1025C0006F2D30383232000080B5DFF8481D012011
:1025D00001F0A1FB002801D0032002BD002002BDB4
:1025E000F0B587B003A80FF24C1191EC030A80EC10
:1025F000030A0FF24C100068029003A9012001F0B9
:1026000008FD02A9062001F004FD02F03AFE441E76
:10261000A441E40F02F02FFE012801D1012000E0C7
:102620000020DFF8F45C6978A14200D06C70297852
:10263000814200D02870DFF8406C06200020C046A0
:10264000002816D1DFF8D40C02900020F063B6F811
:102650004000401CA6F8400080B240F2EF218842C2
:102660004BDB0FF2E00002F037F80020A6F8400044
:1026700043E096F90800022838D19DED020AD6ED14
:10268000160AB4EE600AF1EE10FA03D1B08F401CC6
:10269000B08701E00020B0879DED020ADFED890AD6
:1026A000B4EE600AF1EE10FA06D4DFED870AB4EE5C
:1026B000600AF1EE10FA03DBF08F401CF08701E0B6
:1026C0000020F087F78FB48F972C01DA972F0FDB5C
:1026D000029802F005FFCDE900013A4621460FF2CB
:1026E000780001F0F9FF0020F06301E00020F063C2
:1026F0000020A6F840000298B065706C006AC468BB
:1027000002F061F930722046DDED021A03A991EC66
:10271000030A02F089F8B06C2018B06495F9010042
:1027200000F03AFB002801D000F0D0F8002007B0FC
:10273000F0BD0000000000000000000000000000EC
:102740000000000050443A204261726F4469736196
:10275000626C65640000000050443A204241524FD0
:1027600020256420256420256600000010B5DFF8D0
:10277000084B94F9000000283AD494F90A0094F91F
:102780000110814228D1217B0818A07240B23D2857
:1027900001DB3C38A07294F90A100FF2700001F0CE
:1027A0009BFF0020A064DFF8780C90F9010010F185
:1027B000010F01D1012010BD94F90110081A02F097
:1027C000B7FE21F0004102F0CBFE40B2012801DB50
:1027D000012010BD002010BDDFF8D80C90F90120B9
:1027E000914203D0D4E90023C0E90023002010BDAA
:1027F000A06CDFF8541D884205DB0FF21C0001F0CD
:102800006BFF012010BD002010BD000050443A2095
:102810004E5420256400000050443A204E6F546905
:102820006D6500002DE9F8430026DFF84C4A02E010
:10283000207B4019A07294F90A50002E1DD46078B4
:10284000461B76B2012EF3DA002E16D094F90C70E6
:10285000304602F06DFE21F0004102460B469046E4
:102860009946384602F064FE42464B4602F0A4FE0A
:10287000E1D2E81BA0720026DDE73C2D02DBA5F1CA
:102880003C00A072BDE8F18380B5DFF8EC090021BF
:10289000817301210172002141724FF0FF310170FB
:1028A0000F21C17214210173002141730187C1649A
:1028B0004174016541650A4624211430FFF78EFDFD
:1028C000002002BD0000FA430180BB4430B5A5B032
:1028D0000AA85821FFF7F8FD00A82821FFF7F4FD0A
:1028E00020A81421FFF7F0FD0AA800F035FEDFF85C
:1028F0005C4C9DF8290020709DF829000146C029F4
:1029000006D113A9C88DA4F85E00086B2066E9E023
:10291000E02953D100203FE00AA901EB8001D1F862
:102920000220130223F0FF13120A02F0FF121A43CF
:10293000C1F802204FEA3242C1F80220D1F8062045
:10294000130223F0FF13120A02F0FF121A43C1F818
:1029500006204FEA3242C1F80620D1F80A201302BD
:1029600023F0FF13120A02F0FF121A43C1F80A20E3
:102970004FEA3242C1F80A20D1F80E20130223F0A8
:10298000FF13120A02F0FF121A43C1F80E204FEA99
:102990003242C1F80E20001D1428BDDB50210FF279
:1029A0007C1001F099FE50220DF12A01601CFFF706
:1029B00043FD5120A4F85E00246693E0000633D462
:1029C0009DF82A008DF8800020A89DF82B104170FA
:1029D000002181709DF82C10C170BDF833100A0AD7
:1029E000027141710DF133018A788271C978C17128
:1029F0009DF8371001729DF8381041729DF82D1026
:102A000081729DF82E10C1729DF82F1001739DF8F0
:102A1000301041730E2220A9601CFFF70DFD0F201E
:102A2000A4F85E0024665DE0DDF82A10080C8DF83D
:102A3000000000A80A0A42708170DDF82E100A0C0E
:102A4000C2700A0A02714171DDF832100A0C8271FB
:102A50000A0AC2710172DDF836100A0C42720A0AC3
:102A60008272C17213990A0C02730A0A427381734B
:102A700013A90A79C2734A790274CA88130A8DF8B5
:102A800011308274097A8DF81310DDF83A100A0CAF
:102A900002750A0A8DF815208175DDF83E100A0CC2
:102AA0008DF817200A0A8DF818208DF81910DDF816
:102AB00042100A0C82760A0A8DF81B208DF81C1031
:102AC000DDF846100A0C8DF81D200A0A82778DF871
:102AD0001F10202200A9601CFFF7AEFC2120A4F8E3
:102AE0005E002466DFF89007406CB4F85E20D11CCD
:102AF000418200218182C182DFF8585A012028706A
:102B000068700320A870216EE81CFFF795FC294629
:102B1000262001F0B5F925B030BD00005044205307
:102B2000462053656E7425640000000038B5DFF858
:102B300048374FF46164C1EB0115AD0014FB00543C
:102B400014194FF47A756C43DC611B7C00931346B7
:102B50000A4601460FF2080001F0BEFD31BD00003B
:102B600050443A20425420256420256420256420C6
:102B700025640000F8B52DED028BA0B0DFF8FC66EF
:102B8000314684B068464422FFF766FC0FBC00F073
:102B900093FC10EE100A02F0A3FC41EC100B9FED29
:102BA0007C8BDFF8D446256A53EC102B51EC180BC4
:102BB00002F01AFD02F0D4FC15FA80F020624FF604
:102BC000FF75A84200D32562314684B0684644228E
:102BD000FFF742FC0FBC00F025FC10EE100A02F0DB
:102BE0007FFC41EC100B676A53EC102B51EC180B77
:102BF00002F0FAFC02F0B4FC17FA80F06062A8421E
:102C000000D3656200200E9002200D90314684B002
:102C100068464422FFF720FC0FBC00F08BFAE18AE3
:102C20004018E08280B2FF2801DBFF20E082002014
:102C30000E9003200D90314684B068464422FFF781
:102C40000BFC0FBC00F076FAA16A4018A062A84203
:102C500000D3A56200200E9006200D90314684B06E
:102C600068464422FFF7F8FB0FBC00F063FA218BA3
:102C70004018208380B2FF2801DBFF202083002042
:102C80000E9007200D90314684B068464422FFF72D
:102C9000E3FB0FBC00F04EFA618B4018608380B2FA
:102CA000FF2801DBFF20608300200E9008200D909C
:102CB000314684B068464422FFF7CEFB0FBC00F0DB
:102CC00039FAE16A4018E062A84200D3E5620020C8
:102CD0000E9009200D90314684B068464422FFF7DB
:102CE000BBFB0FBC00F026FA216B40182063A84202
:102CF00000D325630FA801F06AFE276D1E9802F02D
:102D0000EFFB0022DFF8003D02F06EFC02F028FC31
:102D100057FA80F02065616D491C6165B0FBF1F0E8
:102D2000207500200E9001200D90314684B0684639
:102D30004422FFF791FB0FBC00F0FCF9616B4018D7
:102D40006063A84200D36563E07B00F0E9FA20B03D
:102D5000BDEC028BF1BDDFF82005C18A002914D13A
:102D6000816A002911D1018B00290ED1418B0029E4
:102D70000BD1C16A002908D1016B002905D1406B34
:102D8000401E8041C043C00F7047012070470000C3
:102D900000000000000059402DE9F04FA1B00646A8
:102DA0000025B246DFF8D044A07B3146884205D0EA
:102DB000BAF1010F78D1284602F0AEF90FA801F060
:102DC00006FEDFF8B89428460E9001200D90494683
:102DD00084B068464422FFF73FFB0FBC00F0AAF91D
:102DE00007469DED1E0AD9ED0F0A30EE600A10EE7F
:102DF000100A02F075FB2A46DFF80C3C02F0F4FBE7
:102E000002F0AEFB80461FFA88F8B9F80200BDF860
:102E10003E10A1EB000B5FFA8BFBD9F81020139B3F
:102E20009A4207D1884205D1B9F80A00BDF8461088
:102E3000884210D00FF27022D2E90001CDE90001E2
:102E4000139800901398D9F81010401A019000A917
:102E5000472001F015F8002E36D1002F02D15BEA91
:102E6000080000D001250020A0644FF0FF30207042
:102E7000D4E90001DFF83C26C2E90001DFF8782C34
:102E8000C2E90001DFF89825C2E90001E07AA072EA
:102E9000A07B002851D00020A073207C00284CD0BB
:102EA00001206074054648E0002E07D10FF2002093
:102EB00001F012FC012002F02FF97FE70FF2FC1065
:102EC00001F00AFC2846EBE00FF20C22D2E90001E7
:102ED000CDE9000100A802F0EAF900F0B7F90028F6
:102EE00017D0DDE90001C4E9000128466072D4E989
:102EF0000001DFF8C025C2E9000194F9023094F91D
:102F0000012094F900100FF2D81001F0E5FBFFF753
:102F100089FCDDE90001C4E90001FFF727FC002876
:102F20000BD0D4E90001DFF8F824C2E90001207CCD
:102F3000002801D0012060740125BAF1010F06D1EB
:102F4000A07B3146884202D000F057FAA673BAF14E
:102F5000010F56D1002F54D0DFF89C6BE07B217C11
:102F600008430AD101202074D4E90001C6E9020116
:102F7000A27861782078FFF7D9FD94F9010096F9DD
:102F80000910401A411E222901D2012005E010F14A
:102F9000230F01DA012000E0002001282AD1FFF7E9
:102FA000DAFE002826D0E07B401CE073C0B2152872
:102FB00009D10FF2441001F08FFB0120607414203E
:102FC000E073012516E0002020656065024624219B
:102FD00004F11400FFF702FA207C401C2074A27850
:102FE00061782078FFF7A2FD0622214606F108004D
:102FF000FFF732FAFFF7BEFD44220FA94846FFF75C
:103000002BFA607B012834D1208F002805D10FF6E0
:10301000443001F061FB012523E0E16C814218D2CC
:10302000002F02D15BEA080000D00125DFF8C86A52
:1030300096F9020094F90220904212D0491CE164F2
:103040000FF6243001F048FBD4E90001C6E9000185
:1030500007E0002060732087E0640FF61C3001F069
:103060003BFBBAF1010F04D1207C002801D00120E4
:1030700060742846012801D10021A164616C496A6D
:10308000002906D10021A164012801D100F0B5F981
:103090000025002D03D1A07C012800D10125284660
:1030A00021B0BDE8F08F000000000000000000002B
:1030B00050443A206C63646F6E00000050443A2024
:1030C0006249734150536C656570696E6720777211
:1030D0006F6E672025640000000000000000000003
:1030E00050443A2054696D654E6F74692025642000
:1030F000256420256400000050443A2042542042B8
:10310000462046554C4C000080B500205A49886442
:1031100000F002F8002002BD00B591B000A801F057
:1031200056FC442200A95548FFF796F9012011B03A
:1031300000BD00000FB410B592B000249DF99800B6
:1031400001280BD101F02CFD1899884202D3441AB2
:10315000E4B271E08038441AE4B26DE000A801F0F6
:1031600036FC9DF99400401E082865D8DFE800F081
:103170002905111D2935414D590005981999884295
:1031800001D3441A58E0DFF878291018401A441C7B
:1031900052E006981A99884201D3441A4CE0DFF8AD
:1031A00060291018401A441C46E007981B99884271
:1031B00001D3441A40E0DFF848291018401A441C93
:1031C0003AE004981899884201D3441A34E0DFF8B1
:1031D00030291018401A441C2EE008981C99884287
:1031E00001D3441A28E0DFF818291018401A441CAB
:1031F00022E009981D99884201D3441A1CE0DFF8A7
:1032000000291018401A441C16E00A981E9988429A
:1032100001D3441A10E0DFF8E8281018401A441CC3
:103220000AE00B981F99884201D3441A04E0DFF8A2
:10323000D0281018401A441C204612B010BC5DF86B
:1032400014FB0120DFF8BC18487270470A48407A26
:10325000704701F0C6BB0146DFF8A828792902DBD8
:103260007820108700E01087012050730FF61C10A3
:1032700001F032BA00000000641B0020C06E002084
:1032800010B5040001D1012402E0072C00DB062464
:1032900021460FF60C1001F01FFA641E052C2DD8E4
:1032A000DFE804F0030A11181F26DFF85808372159
:1032B000C1723C21017321E0DFF848081921C17275
:1032C0001E2101731AE0DFF83C080F21C17214219E
:1032D000017313E0DFF82C080A21C1720F2101737A
:1032E0000CE0DFF820080721C1720C21017305E012
:1032F000DFF810080521C1720A210173DFF8040804
:10330000C17A8172BDE81040FFF78CBADFF8F80788
:1033100070470000101C00201C71002000007A443F
:1033200000EB80018800821CDFF8DC07DFF8D4178F
:10333000CB691B0E92B21354521CCB691B0C92B278
:103340001354521CCB691B0A92B21354521CCB6902
:1033500092B21354521C0B6A1B0A92B21354521CA1
:103360000B6A92B21354521C4B6A1B0A92B213544A
:10337000521C4B6A92B21354521CCB8A92B2135411
:10338000521C8B6A1B0A92B21354521C8B6A92B263
:103390001354521C0B8B92B21354521C4B8B92B28F
:1033A0001354521CCB6A1B0A92B21354521CCB6AA0
:1033B00092B21354521C0B6B1B0A92B21354521C40
:1033C0000B6B92B21354521C0B7D92B21354521CCD
:1033D0004B6B1B0A92B21354521C4B6B92B2135498
:1033E000501C4887704710B5DFF81847618F0FF2FF
:1033F000BC7001F071F9608F10BD10B5DFF80447A3
:103400000022242104F11400FEF7E8FF0020E073FD
:1034100001206087002020742065606510BD0000D9
:10342000C07000200FB400B591B000A801F0CFFA31
:103430009DED0C0ADDED1E0AB4EE600AF1EE10FA05
:1034400002DB30EE600A05E09FED411A71EE600A82
:1034500030EE800A10EE100A02F042F8DFF8AC26D7
:10346000DFF8AC3602F092F902F004FA02F038F814
:103470000022DFF8A03602F0B7F802F071F800EE93
:10348000100AB8EEC00A10EE100A02F029F8DFF8B0
:103490007C26DFF8843602F0A7F8DFF88026DFF814
:1034A000803602F073F902F0E5F900EE100A11B06F
:1034B0005DF814FBB87000200FB400B591B000A8FF
:1034C00001F085FA9DED0E0ADDED200AB4EE600AEA
:1034D000F1EE10FA02DB30EE600A05E09FED1C1AF7
:1034E00071EE600A30EE800A10EE100A01F0F8FF6B
:1034F000DFF81826DFF8183602F048F902F0BAF9BA
:1035000001F0EEFF0022DFF80C3602F06DF802F059
:1035100027F800EE100AB8EEC00A10EE100A01F00B
:10352000DFFFDFF8E825DFF8F03502F05DF8DFF8BF
:10353000EC25DFF8EC3502F029F902F09BF900EEFA
:10354000100A11B05DF814FB40771B00A86D002035
:10355000002474499C62002070B52DED068BA0B04C
:1035600004460FA801F033FADFF89855687B01286C
:1035700004D1288F002801D100206873A87C01287D
:103580000AD1E0206070502205F15C01A01CFEF71A
:1035900053FF0020A874C2E1687C012816D1287C62
:1035A000002813D0C0216170DFF85C15C0220A70BA
:1035B000487004F12406FFF716FFF085FFF7A6FE1A
:1035C0003063FFF71AFF00206874A8E19FEDD68BE7
:1035D0009FEDD79BDFF84C5500200E9001200D90F9
:1035E000294684B068464422FEF736FF0FBCFFF739
:1035F000A1FD0A2880F0BE80002060700E9002209D
:103600000D90294684B068464422FEF725FF0FBC82
:10361000FFF790FD61780843607000200E90032052
:103620000D90294684B068464422FEF715FF0FBC72
:10363000FFF780FDA07000200E9004200D90294619
:1036400084B068464422FEF707FF0FBCFFF772FD07
:10365000E07000200E9005200D90294684B0684649
:103660004422FEF7F9FE0FBCFFF764FD20712946E6
:1036700084B068464422FEF7EFFE0FBCFFF71CFF44
:1036800010EE100A01F02CFF41EC100B53EC102B44
:1036900051EC190B01F0A8FF01F062FFA4F80B0038
:1036A00004F10B061E9801F01BFF53EC182B01F0E0
:1036B0009BFF01F055FFB070BDF83E00F070294649
:1036C00084B068464422FEF7C7FE0FBCFFF7AAFE8F
:1036D00010EE100A01F004FF41EC1A0B53EC1A2B08
:1036E00051EC190B01F080FF01F03AFFE0731F98D5
:1036F00001F0F6FE53EC182B01F076FF01F030FFDD
:10370000207400200E9006200D90294684B0684653
:103710004422FEF7A1FE0FBCFFF70CFD60710020F4
:103720000E9007200D90294684B068464422FEF78B
:1037300093FE0FBCFFF7FEFCA07100200E90082046
:103740000D90294684B068464422FEF785FE0FBCE2
:10375000FFF7F0FCE07100200E9009200D90294643
:1037600084B068464422FEF777FE0FBCFFF7E2FC08
:103770002072D2E08020607000200E9002200D9018
:10378000294684B068464422FEF766FE0FBCFFF768
:10379000D1FCC4F8020000200E9003200D902946B1
:1037A00084B068464422FEF757FE0FBCFFF7C2FC08
:1037B000C4F8060000200E9004200D90294684B025
:1037C00068464422FEF748FE0FBCFFF7B3FCC4F87E
:1037D0000A0000200E9005200D90294684B068460E
:1037E0004422FEF739FE0FBCFFF7A4FCC4F80E001C
:1037F000294684B068464422FEF72EFE0FBCFFF730
:103800005BFE10EE100A01F06BFE41EC100B53EC66
:10381000102B51EC190B01F0E7FE01F0B7FE6062CE
:1038200004F124061E9801F05BFE53EC182B01F006
:10383000DBFE01F095FE3071BDF83E007071294647
:1038400084B068464422FEF707FE0FBCFFF7EAFD8E
:1038500010EE100A01F044FE41EC1A0BDFF8C8220A
:10386000DFF8C83202F04EF808D8DFF8C422DFF8DB
:10387000C43201F0A1FE01D29FED64AB53EC1A2BD0
:1038800051EC180B01F0B0FE01F06AFEF0801F98B9
:1038900001F026FE53EC182B01F0A6FE01F060FEAD
:1038A000307200200E9006200D90294684B06846A4
:1038B0004422FEF7D1FD0FBCFFF73CFCC4F8120018
:1038C00000200E9007200D90294684B068464422BF
:1038D000FEF7C2FD0FBCFFF72DFCC4F81600002058
:1038E0000E9008200D90294684B068464422FEF7C9
:1038F000B3FD0FBCFFF71EFCC4F81A0000200E90A9
:1039000009200D90294684B068464422FEF7A4FDA4
:103910000FBCFFF70FFCC4F81E00FFF7FDFB20B043
:10392000BDEC068B70BD00000000000000002440CC
:10393000000000000000594070B582B0044600202D
:10394000002C05D10FF2782000F0C6FE002076BDD5
:1039500004F150014978012948D10FF2782000F094
:10396000BBFE0020ADF80000734D664E17E0BDF8B9
:10397000000006EB8000C26500EE102AB8EE400A97
:10398000DFED5E0A20EE200ABDF8000005EB8000A6
:1039900080ED000ABDF80000401CADF80000BDF845
:1039A000000014281CDABDF8000054F82020A2F50D
:1039B0002F70B0F5167FDAD9BDF800100FF2202075
:1039C00000F08AFEBDF800004FF07E5145F820104F
:1039D0004FF47A70BDF8001006EB8101C865D9E795
:1039E00001202865284601F099FB0BE0022909D146
:1039F00094F850100FF2FC1000F06EFE94F8500096
:103A00000120C046C0B276BD000024409A99999921
:103A10009999B93F80B5112802D11078FFF71BFCA6
:103A2000002002BD30B595B0144610281FD01428D0
:103A30000AD015280DD0162810D0172813D0292801
:103A400043D1FFF7FEFB40E021780020FFF701FCA7
:103A50003BE021780120FFF7FCFB36E021780220D3
:103A6000FFF7F7FB31E02078FFF70AFC2DE000A814
:103A70005421FEF729FD217814AD69700FF2C000C2
:103A800000F02AFE6878012817D100200FE004EB2F
:103A900080014A788B781B0403EB0262CB7802EB3F
:103AA00003220979511800AA42F82010401C14285A
:103AB000EDDB00A8FFF740FF07E0022805D16078A2
:103AC0008DF8500000A8FFF737FF002015B030BD7B
:103AD0000C494864B831C16126210170142181600C
:103AE000012101730182002141828182C182134937
:103AF0008161002070470000687000206F12833AD7
:103B000080969800641B0020D86000207B14AE478C
:103B1000E17A743F00005940E17A843F2D431CEB69
:103B2000E2361A3FC06E0020B81E85EB51B89E3FAA
:103B30009A9999999999B93F141E00209C62002086
:103B400050443A2050726F70657274792053462049
:103B50002564000050443A20526571205065646F1E
:103B6000496E666F3100000050443A207574696DEB
:103B7000657220256400000050443A20526571208F
:103B80005065646F496E666F3200000050443A2001
:103B900053746172742044617461202564000000D4
:103BA00050443A20555420256400000050443A20E7
:103BB0004241544C454E47544820256400000000C3
:103BC00050443A2053462050545233206E756C6C4A
:103BD0000000000050443A20534620534554310021
:103BE00050443A205346204552525B25645D2025BF
:103BF0006400000050443A2053462053455432207C
:103C00002564000070B5002420E02C2001F092FE15
:103C1000054600222C21FEF7E1FB28460FF2E86161
:103C200051F826108847DFF88866287846F8205033
:103C30000020E96909688847002806D00020297813
:103C400046F82100284601F08DFE641CE4B22646A9
:103C5000182EDADB002070BD10B46FF0004108466A
:103C6000002210E0DFF8483653F82230002B09D04C
:103C70001C6A002C06D0DB78002B03D1E368984245
:103C800000DD1846521C622AECDB884200D100207D
:103C900010BC7047F8B506460F4600F0E4F8040083
:103CA00001D10320F2BD251D6868002801D0B8604D
:103CB0007860786801F038FB7860B968002902D034
:103CC000084601F031FBB860394604F1200001F0EC
:103CD00051FF94F82800012807D10020A9694968FC
:103CE000884701F0D7FF606008E0E078012805D13F
:103CF0003878002802D1304602F046F800221146FA
:103D00002E20AB691B699847DFF8A815022002F046
:103D100065F80020F2BD70B50D4600F0A4F806006D
:103D200007D006F11C04287800280AD1A0680028D2
:103D300001D1032070BDC0686860A0680069A860F8
:103D400007E0686801F0F0FA6860A86801F0ECFA32
:103D5000A860294606F1200001F02CFFF369207BC2
:103D6000002803D10020D968884704E000221146CA
:103D70002E201B699847DFF83C15022002F02EF830
:103D8000002070BD38B50C4600F06DF8054660683F
:103D900001F0CAFA6060A168002902D0084601F06B
:103DA000C3FAA060002D02D0686A002801D1032068
:103DB00032BDC1686268914205D10169A268914231
:103DC00001D1002032BD00F1080105F1200001F011
:103DD000F1FE002811D1214605F1200001F0CAFEB4
:103DE000002211462E20EB691B699847DFF8C414A6
:103DF000022001F0F3FF002032BD032032BDF8B5F0
:103E000004460D4616461F4600F02DF8002801D145
:103E10000120F2BD3A4631462846DFF8943453F883
:103E20002430DB691B6998470020F2BDF8B50446D1
:103E30000D4616461F46192D03D1012102F000F848
:103E40000FE000F010F8002801D10120F2BD3A4641
:103E500031462846DFF8583453F82430DB695B6973
:103E600098470020F2BD0146622901DA002801D1FD
:103E700000207047DFF8380450F821007047000038
:103E800070B52DED028B0C46DFF8241451F820504C
:103E9000012812D0042849D005286DD0082800F048
:103EA00097801D2800F0A780222879D0442800F0B0
:103EB0009A80472800F0A48021E09FED6F0ADFF888
:103EC000F863B4F9000000EE900AF8EEE00A60EE44
:103ED000800AC6ED000AB4F9020000EE900AF8EE7E
:103EE000E00A60EE800AC6ED010AB4F9040000EEB3
:103EF000900AF8EEE00A20EE800A86ED020A002D14
:103F000011D0686A00280ED04069DFF8AC13C96D83
:103F1000401A012807DA214605F1100001F0F2FFEE
:103F200001F0B8F96860BDEC028B70BD9FED538B5A
:103F3000DFF88463B4F9000001F0FAFA53EC182BAF
:103F400001F052FB01F096FCF060B4F9020001F0C0
:103F5000EFFA53EC182B01F047FB01F08BFC3061BA
:103F6000B4F9040001F0E4FA53EC182B01F03CFB27
:103F700001F080FC7061C2E7CF4E2068706260681B
:103F8000B0622089B0856089F085A0893086E0899B
:103F90007086207C86F83400607C86F83500AEE7B9
:103FA000C54E2068B0636068F0632089A6F84000C1
:103FB0006089A6F84200A089A6F84400E089A6F826
:103FC0004600207C86F84800607C86F8490096E729
:103FD000B94E207886F84C00607886F84D006088ED
:103FE000A6F84E008BE7B44E2068B0616068F061BF
:103FF000A068306283E72078AF4981F850007EE7FF
:1040000008222146AD48BDEC028BBDE87040FEF7AA
:1040100013BA02460846012A0ED0042A10D0052AF7
:1040200012D0082A18D01D2A1ED0222A10D0442AC5
:1040300016D0472A1CD070470C229F49FEF7FCB9C6
:104040000C229F49FEF7F8B914229E49FEF7F4B9F5
:1040500014229D49FEF7F0B904229C49FEF7ECB901
:104060000C229B49FEF7E8B901229A49FEF7E4B910
:1040700008229249FEF7E0B9FDF61C3B0597A11D09
:104080004F04443F10B5082802D010281FD010BD9F
:104090000120FFF7E8FE0346002211462F20DB69CE
:1040A0001B6998472B20FFF7DEFE90F828000028B8
:1040B00001D002F03CFA1120FFF7D5FE044694F837
:1040C0002800002827D0BDE8104002F064BB08207B
:1040D000FFF7C9FE044601F0DDF86168401AE169A6
:1040E00089688847002816D1606A002807D0C1680F
:1040F0000069814203D10021082001F0A1FE5B206C
:10410000FFF7B1FE044694F82800002803D0BDE86C
:10411000104002F09DBC10BD2DE9F04385B004466F
:1041200001A80FF244212CC92CC001F0B3F80546B8
:1041300001F09BF8012801D1012600E000265E482D
:10414000C4650027DFF8688129E0622F20DADFF8F4
:1041500088910120BDF8071001F80900022200A98A
:10416000BDF807004844401CFEF766F958F82700E0
:1041700000F11001BDF807004844C01C01F0EDFE3D
:10418000BDF80700BDF80010C91C0818ADF80700FD
:10419000214658F82700203001F029FD7F1C622FAE
:1041A00079DA58F827000028F8D090F8281000296C
:1041B000F4D0C1780029F1D1011DCA695269121BDE
:1041C000012A05DA4068281A401C896989688847ED
:1041D00058F82700416A0029DAD08969091B0129AA
:1041E000D6DA002E02D0017B0029D1D0103001F0A8
:1041F00000FFADF8000058F82700103001F01AFF5A
:10420000ADF80200BDF800000028C1D0BDF80200E2
:104210000028BDD0BDF80700BDF8001011FA80F2EB
:10422000101DB0F5007F0CDD0FF2B0010FF2C000E1
:1042300000F052FA284901A802F011FF0020ADF861
:104240000700232FBFF681AFDFF88C903720BDF831
:10425000071001F80900BDF8070048444770022222
:104260000DF10201BDF807004844801CFEF7E4F898
:1042700058F8270000F11001BDF807004844001D60
:1042800001F06BFEBDF80700BDF80010091D08180D
:10429000ADF807007CE7BDF80700002803D00E4901
:1042A00001A802F0DCFE002005B0BDE8F0830000AC
:1042B00060640020603700200C6E0020606E0020DB
:1042C000186E0020306E0020446E0020586E0020D2
:1042D000246E00205C6E002054590020636F6C6CCB
:1042E0006563745F73656E736F725F6461746100A0
:1042F00025733A2074785F64617461206973206665
:10430000756C6C282564290091A50108C1990108E4
:1043100069A601082B9D01087DA90108FB6E000814
:104320009796010827A701081D7F01086765000807
:10433000FBA70108D13A000801680008F7A00108AE
:104340009FA40108819801082BA20108EB930108A2
:10435000BF8C0108157601089B910108C9A80108C6
:10436000F5A901086B9F010805000000000000008E
:1043700000000000EFF3038070474FF0AC3000788E
:104380007047F8B507460C460025DFF830646FF03B
:104390001E01401A27D0083825D0001F10D0001F5A
:1043A0001AD0083818D0001F24D104F12000306240
:1043B000EFF3148040F00200F062306AB06219E05E
:1043C00004F164003062EFF3148040F00200F06208
:1043D000306AB06201250DE004F120003062EFF395
:1043E0001480F06206E004F164003062EFF31480A0
:1043F000F0620125EFF308807062EFF31080F06344
:10440000EFF311803064EFF313807064F1EE100A63
:10441000B064EFF305803063EFF300807063FFF763
:10442000A9FFB063F764002004E054F8201046F8B8
:104430002010401C0828F8D3012D0AD1002006E0E6
:1044400004EB8001096A06EB80021165401C11280B
:10445000F6D3F1BDDFF86803DFF868130A6802607D
:104460004A6842608A688260CA68C2600A690261FA
:104470004A6942610A7E8261097F8161DFF84813DF
:104480000A7882614A6842628A688262CA68C26245
:104490000A6902634A6942638A698263CA69C263BC
:1044A0008A6EC0F88820DFF824239369C0F898301A
:1044B000D368C0F88C301369C0F890305369C0F8E5
:1044C00094300B6FC0F89C304B6FC0F8A0308B6FEE
:1044D000C0F8A430C96FC0F8A810DFF8F41209685A
:1044E000C0F8AC10DFF8EC120B68C0F8CC304B68A9
:1044F000C0F8D0308B68C0F8D430CB68C0F8D83062
:104500000969C0F8DC105168C0F8E8101168C0F8FB
:10451000E410704710B582B0044640F20240ADF896
:1045200000000520207000206070A070022200A909
:10453000E01CFDF781FFDD20607113BD02F02ABF92
:10454000A0F10060B0F5003F01D8012070470020C5
:104550007047F8B505460E4614461F462868FFF713
:10456000EFFF002801D10020F2BD2868400840007C
:10457000009004203060024600A938880019FDF739
:104580005BFF0120F2BD2DE9F04182B080460C4670
:1045900015461E46002738460090B8F1000F19D086
:1045A000002C01D116E07F1C0C2F12D233462A4674
:1045B00000A94046FFF7CDFF002803D030880099BE
:1045C000081830803088142803DA08F104084445BC
:1045D000E9D20120BDE8F681F8B50C46154610F188
:1045E000030F02D010F1130F09D17B4EB06802F017
:1045F000D9FE0746B06802F0E1FEC11905E002F0FD
:10460000EBFE064602F0EAFE81192B4622466B4875
:10461000806AFFF7B8FF0120F2BD80B50021ADF838
:10462000001000AA01466548C06CFFF7D5FF01BD28
:1046300010B582B004461620ADF8000005202070A9
:1046400000206070A070022200A9E01CFDF7F4FEBB
:104650000F2060711420A07113BD70B588B0724630
:1046600001461046FFF78DFEFFF7F4FE00A81C215F
:10467000FDF72AFF00A8FFF7DBFF0DF10700FFF7AA
:10468000CCFF1B2100A802F0FEFD0024534D28465C
:10469000FFF740FF40F207460CE0AC710A46A0026B
:1046A00000F10051E81DFDF7C7FE3146284602F033
:1046B000EAFD641C4FF48061202CEED30022E81D3B
:1046C000FDF70AFFDD20A8713146284602F0DBFD28
:1046D000FFF734FF08B070BD0EB470B5C1B004462A
:1046E00000A84FF48071FDF7EFFE45AB22464FF472
:1046F000807100A802F07AFE00A802F095FE441C2A
:10470000002000A9611801F8010C334D2878401CE5
:1047100028706878F021084202D0992002F0A0FEAB
:1047200002F014FF6878401C68702D4E31780846FE
:104730002218FA2A0DDA2B4A8018002902D00A2101
:1047400000F8011C224600A9FDF776FE30782018FB
:1047500030706878F021084202D0992002F080FE83
:104760006878401E6870C0B2002801D102F0E8FEEF
:1047700003F0D6F941B070BC5DF810FB1848007822
:10478000002801D0801C00E00020C0B2704738B57E
:10479000134C2278002A10D000280ED0032101707B
:1047A0004270104D2946801CFDF746FE0022FA217A
:1047B0002846FDF713FE0020207031BD246C002038
:1047C0001068002000ED00E020ED00E004E000E0D3
:1047D000A0ED00E034EF00E0501F0020E852002080
:1047E0001F71002014670020DFF81809C17B00EB5F
:1047F000810181ED050AC17B00EB8101C1ED090A50
:10480000C17B00EB810181ED0D1A017C042901DAE5
:10481000491C0174C17B491CC173C9B2042901DB65
:104820000021C17370470000F8B52DED068B88B0EC
:10483000B0EE408AF0EE608AB0EE419AF0EE619AF6
:1048400004468DED040AB0EE68AA8DED05AAF0EEDF
:1048500049AACDED06AA0A26DFF8A858B5F96600E0
:1048600010FB06F0B5F96810471A05F1440003F093
:104870007BFA95F8440010FB06F095F845104618B1
:10488000B6B22A2E0FD13FB2002F0CD5686800288F
:1048900006D10120FDF739FDFDF709FD0120686013
:1048A0000120286015E06868012807D1FDF70AFD9E
:1048B000002068600FF66800FFF70EFF2868282EBA
:1048C0003BDA012803D10FF68400FFF705FF002033
:1048D000286095ED150AF0EE480AB4EE600AF1EE94
:1048E00010FA37D195ED160AB4EE4A0AF1EE10FA35
:1048F00030D195ED170AB4EE6A0AF1EE10FA29D11B
:10490000DFF804683068401C306015282CD3E86D4F
:1049100000F0E6FDCDE90201A86D00F0E1FDCDE972
:104920000001686D00F0DCFD02460B460FF6280022
:10493000FFF7D2FE0020306016E0002805D10022EB
:1049400031460FF2E870FFF7C7FE01202860FDF73F
:10495000BDFCBEE7049868650598A8650698E865FB
:104960000020DFF8A417086004A890EC030AFFF702
:104970003BFF204680B2B0EE690A03F00DFA2146F3
:1049800004A8FCF751FF05F16000FDF709FC286E53
:10499000012811D1FBF7BFFC05F16000FDF700FC19
:1049A0002C2205F1600105F18C00FDF755FD0FF299
:1049B000BC70FFF791FE01E000F000F9002008B0A4
:1049C000BDEC068BF2BDDFF83C07807B704700280A
:1049D00006D0DFF83017D1F8B8104422FDF73CBDFF
:1049E000704710B500281CD1DFF81847483400EE96
:1049F000101AB8EE400A84ED010A2046FDF7D7FBF5
:104A000094ED010AF2EE0A0A20EE200A10EE100AD6
:104A100000F066FD02460B460FF25870FFF75CFE91
:104A20002FE001281CD1DFF8DC4600EE101AB8EEAA
:104A3000400A84ED120A04F14800FDF7B8FB94ED3A
:104A4000120AF2EE0A0A20EE200A10EE100A00F016
:104A500047FD02460B460FF22870FFF73DFE10E0BF
:104A600002280ED1DFF89C46483421722046FDF71B
:104A70009EFB207A0D2111FB00F10FF21070FFF761
:104A80002BFE0FF21470FFF727FE42F26A70014608
:104A90000FF21070FFF720FE40F2EE7001460FF2A9
:104AA0001070BDE81040FFF717BE2DE9F0412DED65
:104AB000028B84B006460F4690460FF2DC60FFF78B
:104AC0000BFE42F26A7001460FF2D860FFF704FE57
:104AD00040F2EE7001460FF2D860FFF7FDFDDFF8FF
:104AE000244600224FF4E6712046FDF777FC04F5DA
:104AF0008075C4F8B85000EE106AB8EE408A84EDB4
:104B0000138A00EE107AB8EE400A84ED120A84F897
:104B10005080F2EE0A8A40460D2111FB00F002900F
:104B200020EE280A10EE100A00F0DAFCCDE90001B0
:104B300028EE280A10EE100A00F0D2FC02460B46BE
:104B40000FF27C60FFF7C8FDFBF73EFB04F1480065
:104B5000FDF72DFB42F21070A4F8C200A4F8C400C7
:104B60000020A4F8BC00A4F8BE000220A4F8C600EF
:104B70002C2204F1BC012846FDF76EFC0220A07334
:104B800003F0FCF80120607304F1440003F0ECF83A
:104B900000206060206004B0BDEC028BBDE8F081B5
:104BA00010B592B0FDF7A6FB044600A8FFF70FFF73
:104BB0000498001912B010BD000000002DE9F0416A
:104BC0002DED028BDFF83C4504F17005E86A216F9A
:104BD000814205D1B4F866206B8C9A4200F088803F
:104BE000B1EB000802D5DFF82405804495ED060AF4
:104BF000D5ED110A70EE608AF5EE408AF1EE10FAFA
:104C000003D59FED950A78EE808A95ED040AD5EDDF
:104C10000F0A30EE608AB5EE408AF1EE10FA03D545
:104C20009FED8D0A38EE008AB4F86600C0B295EDAB
:104C3000050A03F0ADF9B0EE401A04F10C067078E5
:104C4000012802D002282BD033E004F5A2773946A0
:104C50009FED821AF0EE480AB0EE680A404600F076
:104C600057F8207B40442073C0B2062821DB04F5AE
:104C7000AA7004F1BC019FED791AD0ED0A0A90EDFB
:104C8000080AD4F8540100F043F8207B401C20733C
:104C9000002244213846FDF7A1FB0220707008E095
:104CA00004F1BC01F0EE480AB0EE680A404600F09C
:104CB0002FF8B4F86600002809D10022442104F539
:104CC000A270FDF78BFB00202073012070702C2256
:104CD00004F1600104F18C00FDF7BEFB04F1BC019E
:104CE000A96404F5807644223046FDF7B5FBAE6436
:104CF00004F166004088B4F80A11884203D0A4F891
:104D0000C600A4F80A01BDEC028BBDE8F0810000EA
:104D10002DE9F0412DED048B8AB0B0EE409AB0EE53
:104D2000608AF0EE418A0C46DFF8D87307F164051B
:104D30006E88B7F86480A680B0EE680A00F0BDF80F
:104D4000B868002819D194ED0C0A30EE090A84EDF8
:104D50000C0A00F0AFF984ED0C0A6680A4F800801C
:104D6000A869606394ED0E0A30EE080A84ED0E0A1D
:104D700000F094F984ED0E0A4AE007F1480007AA12
:104D80000AC80AC20368136007F1600184B068466C
:104D90002C22FDF761FB0FBCB0EE680A00F030F981
:104DA000D4ED0C0A30EE800A84ED0C0A00F082F992
:104DB00084ED0C0AF5EE408AF1EE10FA0BDD032EBD
:104DC00003D106206080208010E0042E0ED1082040
:104DD000608020800AE0032E03D1072060802080BD
:104DE00004E0042E02D1092060802080F6EE000A43
:104DF00095ED060A20EE200A84ED0D0A94ED0E0AC8
:104E000008EE200A84ED0E0A00F048F984ED0E0A3F
:104E100095ED080ADFEDB00A20EE200A84ED0F0AB6
:104E2000DFEDAE0AB4EE600AF1EE10FA01DBB8482D
:104E3000E063686920646088002801D10020206454
:104E40002869E06028892081A88860810AB0BDECCB
:104E5000048BBDE8F08100000024744900000000CC
:104E600010B50C46A188032912D1B5EE400AF1EE27
:104E700010FA06DD216A4018206200F027F920624E
:104E800010BD616A4018606200F020F9606210BDD8
:104E9000042911D1B5EE400AF1EE10FA06DDA16A3F
:104EA0004018A06200F012F9A06210BDE16A40183B
:104EB000E06200F00BF9E06210BDF8B52DED028B59
:104EC0000546B0EE408A0C4620692818206100F0A3
:104ED000FDF82061B5EE408AF1EE10FA02DDB0EE89
:104EE000480A01E0B1EE480AB5EE400AF1EE10FAC8
:104EF00043DD844EB068002830D106F5CE77B8681F
:104F000006280ED26188042903D17968691879606E
:104F100004E0D6F89C116918C6F89C112818B860EE
:104F200051E0E1694018E06100F0D0F8E06121460D
:104F3000B0EE480AB868FFF793FFE0692818E0610F
:104F400000F0C4F8E0612146B0EE480A2846FFF7B9
:104F500087FF00F03BF80120B06034E0E0692818DA
:104F6000E06100F0B3F8E0612146B0EE480A28465F
:104F7000BDEC028BBDE8F44072E76088032802D0E4
:104F8000042807D00DE060692818606100F09EF8E1
:104F900060610CE0A0692818A06100F097F8A0619A
:104FA00005E060692818606100F090F86061554E76
:104FB00006F5CE708068002801D000F010F800F0EF
:104FC00005F80020B060BDEC028BF1BD4D4800211A
:104FD000C0F89C1100F5CE7041608160704749486F
:104FE000D0F8D010D0F89C215118C0F8D01000F1A2
:104FF000D0014A68D0F8A0018018486070470000CE
:105000000FB4DFED370A9FED361AF0EE0C1A9DED66
:10501000092ABDF8060004280FD1DFED322A42EE3E
:10502000221AB5EE400AF1EE10FA15D49FED2E1AB1
:1050300022EE011A21EE001A0EE0DFED2C2A42EEDC
:10504000221AB5EE400AF1EE10FA05D49FED281AA7
:1050500022EE011A21EE001AB5EE402AF1EE10FA06
:105060000ED09DED060AB5EE400AF1EE10FA07D01B
:10507000DFED200A20EE200AF7EE000AC0EE800ADB
:1050800031EE810A9FED1C1A20EE010A9DED0B1AEC
:1050900020EE010A20EE200A04B07047DFED170A67
:1050A000B4EE600AF1EE10FA03DBDFED150A30EE24
:1050B000200A7047DFED110AB4EE600AF1EE10FA33
:1050C00003DBDFED0F0A30EE200A70470F498842FC
:1050D00001D31049081870478FC2753D0100C841BF
:1050E00000000000CDCC4C3E6666663FCDCCCC3D8A
:1050F0006666E63F000070420AD7A33B012474496C
:10510000002474C90C5F0020F47000208196980080
:105110000000C841806967FFFDF710B9FDF751B87D
:1051200050443A2042505F4F4646000050443A20D7
:1051300053746570436E7455702056482825642951
:1051400020435943282564290000000050443A2098
:10515000455849542056480050443A204E41432077
:1051600025662025662025660000000050443A2070
:105170004F46520050443A2031202566000000007E
:1051800050443A20322025660000000050443A2066
:10519000332025640000000050443A203032464558
:1051A0004231350050443A204D50445F762564002A
:1051B00050443A2050524950445F76256400000024
:1051C00050443A20312025662032202566203320A5
:1051D000256400005148006870471FB5044601A8C7
:1051E00000210A460B460EC0FFF7F4FF009005228F
:1051F000214601A8FDF720F90420ADF8070000A919
:1052000001A801F02CFF1FBDF0B587B0044602A82D
:1052100000210A460B460EC00846CDE900010125D3
:1052200010E02846FEF71FFE00280AD0DDE90067DF
:10523000012000212A4603F07BF830433943CDE9B1
:1052400000016D1C232DECDB0522214602A8FDF791
:10525000F3F80820ADF80B0000A902A801F0FFFE4A
:1052600007B0F0BD2E49087070472D480078704790
:105270002B49487070472A48407870472849887001
:1052800070472748807870472549C870704724497F
:10529000C86070472248C0687047214902780A7187
:1052A00042784A7180788871002008817047062210
:1052B0001C49FDF7C1B81A4A1369002B01D0CB1A5B
:1052C00000E00346B3F57A7F00D30346108918182F
:1052D000108100B2B0F57A7F05DBA0F57A701081FD
:1052E0009079401C907192F906003C2804DB3C3810
:1052F00090715079401C507192F905003C2804DBF4
:105300003C3850711079401C107192F90400182833
:1053100001DB0020107111617047000000260020A1
:105320003070002034700020B0F5A07F02DB4FF415
:10533000A0707047A02801DBA0207047502801DB37
:1053400050207047282801DB28207047142801DBF3
:10535000142070470A2801DB0A2070470520704797
:1053600010B586B002A80FF260111CC91CC000A8BD
:1053700000210A4606C002F0F6FF01788DF8001001
:1053800000A9C2784A7042798DF802208079C870ED
:1053900001208DF804000520ADF80B0002A801F0F3
:1053A0005EFE06B010BD30B59DB003A86421FDF7C8
:1053B0008BF800A80FF21C111CC91CC00024FF228E
:1053C0006421FDF70BF8012517E02846C0B2FEF76F
:1053D0004AFD002810D02946491E012906D9C91EB8
:1053E000022903D9091F01D01A3905D103A964B2D2
:1053F0006554408A401C04196D1C092DE5DB64B21C
:10540000ADF8034003A900A801F029FE00201DB05B
:1054100030BD10B50446A0780146491E01290FD9B8
:10542000091F012914D9891E012919D9891E0129A9
:105430001ED9203923D1D4F80500FFF72EFF1EE036
:10544000012801D1002000E00120FFF70BFF16E04A
:10545000052801D1012000E00020FFF70FFF0EE03A
:10546000072801D1012000E00020FFF70DFF06E032
:10547000092801D1002000E00120FFF7F9FEA07803
:105480001438032801D915380ED12620FEF7EBFC7D
:10549000030009D0D4F80520B4F80310A078DB6924
:1054A0001B69BDE81040184710BD81780C2906D053
:1054B000182906D01B2903D02C2903D070478CE66D
:1054C000A2E64DE76FE7000004FF180000000000AF
:1054D0000000000004FF2C0000000000000000009D
:1054E0005FF0FF0C1CEAD05114BF614506E0C1100B
:1054F000400721F0E04101F16051704779B900F0B7
:10550000004100020AD0B0FA80FC00FA0CF001F170
:105510006051A1EB0C5101EBD021400570474102D5
:105520000CBF40F4E0016FF0000100207047000064
:10553000010040F10980F446404200F005F851F0C6
:1055400000416047010000BF09D0B0FA80F18840F7
:10555000C91CC1F58461090501EBD02140057047E4
:10556000F446400D40EAC120490006D200F014F88C
:10557000004248BF6FF00040604700F00DF84FF068
:10558000004188428CBF084640426047400D40EAD7
:10559000C120490080F00D8040F00040490DA1F588
:1055A0008061491C05D4D1F11F0154BFC840C01708
:1055B00070474FF0000070474FF4001C1CEB410F88
:1055C00094BF1CEB430F09E041EA030C50EA4C0C7A
:1055D00052EA0C0C03D2994208BF9042704714BFA4
:1055E0008B42824270470000B0B581EA030C0CF098
:1055F000004C40F2FF7515EA11541DBF15EA135710
:10560000AC42AF4239E0E41923EA455343F4801336
:10561000C90241F0004141EA505EC7021100A7FBF8
:10562000020200284FF00000EEFB01204FF00001C5
:10563000E3FB072118BF42F0010240180021494155
:10564000E3FB0E01A4F580640F0302D25200404137
:10565000494154F101046CDD470872F1004250F1F8
:10566000000051EB0451A1F580115CBF41EA0C012F
:10567000B0BD4CEA05510020B0BD05EA1357AC425D
:1056800014BFAF4241E050EA410E1CBF52EA430E44
:1056900002E061460020B0BD24423C441BD15FEAD9
:1056A000070EF6D0090302BF01460020AEF1140E2A
:1056B000B1FA81F7AEEB070401FA07FE0C37C7F128
:1056C000200100FA07F7C8404EEA000E23EA4553CE
:1056D00043F48013A2E733F00043B3FA83F704BF27
:1056E000B2FA82FE77440B3FE41BB7F1200E2FBFC6
:1056F00002FA0EF3BB40C7F1200E22FA0EFE38BFAD
:1057000043EA0E03BA40641C82E750EA410E14BF1C
:1057100052EA430E6FF000014FF4001717EB430FEE
:105720008ABF194617EB410FB5E74CEA0551002037
:10573000B0BDD4F10104B4F120070FDAC4F12007A1
:10574000520828BF42F0010210FA07F501FA07F7E4
:10575000E1BF2A43E0403843E1400FE0352C98DCBC
:10576000C7F1200452EA400220FA07F218BF42F0C3
:10577000010231FA07F0A1400A43002172F1004210
:1057800050F1000051EB0C01B0BD000070B44FF0BF
:10579000004591EA030C44BF6B4002F087BE00BF96
:1057A000841A71EB030603D2001BB1411219734135
:1057B0004FF4001C1CEB410F34BF7CEB430443E06F
:1057C0000C0DA4EB1356352E50DC45EAC323DB0A3F
:1057D00045EAC121C912B6F120050DDD63FA05F6CF
:1057E000EB4086EA0305124218BF45F00105C018D8
:1057F00051F100010CD213E062FA06F5F240554077
:10580000F3415A40B340F3405A408018594107D3FE
:1058100049085FEA30005FEA350528BF45F0010519
:1058200001F58011420875F1004250F1000041EB92
:10583000045170BC4FF4001C1CEB410F38BF704783
:105840000020090D090570471CEB410F10D252EAE8
:1058500043060BD0BCEB410F05D80C0DAB43661EC5
:10586000342EB5DD02E0AB438018594170BC70475F
:1058700070BC70474FEAF17CBCF1E04C2CBFBCF52A
:10588000001F11E05FEA4C0C34BFBCF17F5F2EE0DB
:105890005FEA9C0C4FEA0C1C4FEA3C0CC10071F112
:1058A00000414CEB50707047C90241EA5051C002B0
:1058B00018BF41F0010141F000414FEA6C50C0F1C6
:1058C0000900212810D240EACC7CCCF1200C11FA3E
:1058D0000CF070F10040CCF1200C21FA0CF00CF02F
:1058E000004C40EB0C0070474FEACC707047490009
:1058F00011F5001F04D84FEACC10FF30C0057047E7
:10590000C81770474FF4001C1CEB410F94BF1CEBF1
:10591000430F09E041EA030C50EA4C0C52EA0C0C2C
:1059200003D28B4208BF8242704714BF9942904213
:105930007047000010B5040010480078002805D119
:105940000F4802F08EFE0D48012101700C4802F054
:10595000C2FE200003F0BFFD0400094802F0EFFE84
:10596000200010BD10B50400054802F0B4FE200070
:1059700003F011FF024802F0E2FE10BD2971002081
:105980004470002038B50446002500E06468002C0F
:105990000CD0207A0A789042F8D1E0684A689042A8
:1059A000F4D120698A689042F0D101252A460FF28D
:1059B000C8210FF2D020FEF78FFE002D00D1002469
:1059C000204632BD38B504462020FFF7B3FF054618
:1059D00000222021FCF702FD0C22214605F10800DF
:1059E000FCF73AFD60686861A068A861012028772B
:1059F000284632BD2DE9F84305460E460027B84635
:105A000006F108099B4C2078401C20706078F0213A
:105A1000084202D0992001F023FD01F097FD607843
:105A2000401C60702868D9F8041001E08046406886
:105A3000002803D0C2689142F8DA0127002F0AD06B
:105A40000168316070600168002901D04E6000E09B
:105A50002E60066008E0B8F1000F04D0C8F80460BA
:105A6000C6F8008000E02E606078F021084202D085
:105A7000992001F0F5FC6078401E6070C0B20028EB
:105A800001D101F05DFD02F04BF80020BDE8F2838A
:105A900070B506460D46774C2078401C2070607823
:105AA000F021084202D0992001F0DAFC01F04EFD0D
:105AB0006078401C607068682968002901D04860DF
:105AC00000E030606868002801D02968016028463D
:105AD000FFF748FF6078F021084202D0992001F0DA
